:020000040800F2
:10000000002B00202902000835160008A51400085E
:10001000E7150008510900085142000800000000DF
:10002000000000000000000000000000A52E0008F5
:10003000691000080000000007030008E121000823
:1000400063020008630200086302000863020008FC
:1000500063020008630200086302000863020008EC
:1000600063020008630200086302000863020008DC
:1000700063020008630200086302000863020008CC
:1000800063020008630200086302000863020008BC
:1000900063020008630200086302000863020008AC
:1000A000630200085D35000863020008630200086F
:1000B000AD360008353700085537000863020008E0
:1000C000630200086302000863020008630200087C
:1000D000630200086302000863020008630200086C
:1000E000630200086302000863020008630200085C
:1000F000630200086302000863020008630200084C
:1001000063020008630200087537000863020008F4
:10011000630200086302000863020008630200082B
:10012000850D0008630200086302000863020008EE
:10013000630200086302000863020008630200080B
:1001400063020008630200086302000863020008FB
:1001500063020008630200086302000863020008EB
:1001600063020008630200086302000863020008DB
:1001700063020008630200086302000863020008CB
:10018000630200086302000800F002F800F03CF887
:100190000AA090E8000C82448344AAF10107DA45E2
:1001A00001D100F031F8AFF2090EBAE80F0013F0F8
:1001B000010F18BFFB1A43F001031847605B0000F2
:1001C000805B0000103A24BF78C878C1FAD8520783
:1001D00024BF30C830C144BF04680C6070470000C1
:1001E0000023002400250026103A28BF78C1FBD840
:1001F000520728BF30C148BF0B6070471FB504F0DD
:1002000091FF1FBD10B510BD00F00CF91146FFF7AE
:10021000F5FF04F045F800F02AF903B4FFF7F2FF08
:1002200003BC00F091F9000011488047DFF844005A
:10023000016841F470010160BFF34F8FDFF83800AF
:10024000016821F040410160BFF36F8F0B48004708
:10025000FEE7FEE7FEE7FEE7FEE7FEE7FEE7FEE776
:10026000FEE7FEE706480749074A084B70470000CB
:10027000CD31000888ED00E034EF00E0890100088E
:1002800000250020002B0020002700200027002050
:10029000EFF3098141B1F1EE101A40F8041D20ED91
:1002A000200A2C490A6810607047B0EC200A02C886
:1002B000E1EE101A28490A6810607047EFF31080C9
:1002C00072B6704780F31088704724484FF0FF01E2
:1002D0000170002080F309882148016881F30888B3
:1002E00020480121017020484FF08051016062B622
:1002F000FEE71D484FF08051016070471A484FF0EB
:1003000080510160704772B6EFF3098040B1403808
:1003100080EC108A203880E8F00F0E4909680860E8
:1003200000B5124880475DF804EB114811490A787E
:100330000270084808490A680260106890E8F00FE7
:10034000203090EC108A403080F309884EF0F40E93
:1003500062B67047C8000020D000002022ED00E007
:100360009C000020C000002004ED00E00D200008EB
:10037000BB000020BC000020DFED190AB5EEC00A6A
:1003800060EE200ABDEEE01A11EE100AF1EE10FA4E
:1003900038BF401E00EE100A1349F7EE001AB8EEFF
:1003A000C00A30EEC00ADFED0F0A60EE200ABCEE94
:1003B000E00A10EE100AC0F3080000EE100A01EB8C
:1003C0008000B8EE400A90ED011A70EEC00A90ED80
:1003D000000A71EEE01A21EE800A00EE810A7047F1
:1003E00083F9223E0000004418550008704770470A
:1003F000704700001FB584B000200A9C06AB04AA19
:1004000002A90094AFF3008018B1DDE9020108B041
:1004100010BD0348204000F030F800200146F6E708
:100420000000207C754600F02FF8AE4605006946B6
:10043000534620F00700854618B020B5FFF712FF9D
:10044000BDE820404FF000064FF000074FF00008D5
:100450004FF0000B21F00701AC46ACE8C009ACE856
:10046000C009ACE8C009ACE8C0098D467047044635
:10047000AFF300802046FFF7D0FE10B500F00EF875
:10048000BDE8104000F004B8004870479C240020EC
:10049000002801D000F058B87047000010B50228BD
:1004A00003D0410103D50DA112E0002010BD0101D0
:1004B00001D50FA10CE0C10001D511A108E0810018
:1004C00001D512A104E0400001D513A100E00021F4
:1004D00015A000F03FF8012010BD0000496E7661C4
:1004E0006C6964204F7065726174696F6E00000002
:1004F000446976696465204279205A65726F00000C
:100500004F766572666C6F7700000000556E64650B
:1005100072666C6F77000000496E657861637420C5
:10052000526573756C7400005349474650453A2034
:1005300041726974686D657469632065786365707C
:1005400074696F6E3A20000001491820ABBEFEE7C7
:100550002600020070B505460C460A2000E06D1C1E
:1005600000F011F835B128780028F8D102E0641CB9
:1005700000F009F814B120780028F8D1BDE87040E7
:100580000A20AFF3008008B569468DF8000003200B
:10059000ABBE08BD704721B1826842F001028260A3
:1005A00003E0826822F00102826070470021084A5D
:1005B0001168084A1140D0E900231A4383681A439E
:1005C000C3681A431143044AC2F804137047000079
:1005D00004230140E030FCFF0020014021B182688B
:1005E00042F48072826003E0826822F4807282604A
:1005F000704721B1826842F40072826003E0826831
:1006000022F400728260704700B599B0012108029F
:1006100002F01CFB00F07EF8002011900F904FF4C8
:10062000803010904FF4407012900FA8FFF7BEFF7B
:100630000020139001208DF8500000208DF851000B
:100640001590179003208DF8600013A92E4800F034
:100650006DF801231A4605212B4800F091F801237B
:1006600002220621284800F08BF8012303220721EB
:10067000254800F085F80121880502F0B7FA2348E3
:1006800000F0CAFB002000901F484C300190204829
:1006900002900020039003200490002005904FF466
:1006A00080600690400007908000089040110990FB
:1006B00040020A9000200B9001200C9000200D9029
:1006C0000E906946114800F0A3FC01210F4800F08C
:1006D00097FB10210D4800F079FB012210210B48F7
:1006E00000F078FC01210848FFF783FF012106484C
:1006F000FFF774FF01210448FFF74DFF024800F0A7
:100700009BF819B000BD00000020014010640240B9
:10071000240C002010B50121080202F0A7FA0021E4
:100720004FF4807002F0A2FA10BD000030B502460E
:10073000002000235068104C20400D790C6844EADA
:1007400005242043506090680C4C2040D1E90354AC
:100750002C438D682C434D7944EA45042043906036
:10076000D06A20F470000C7D641EE4B2234340EA9A
:100770000350D06230BD0000FFFEFFFCFDF7FFC05C
:10078000F0B504460D4600200021092D11DDE0687A
:10079000A5F10A0606EB4607072606FA07F1884385
:1007A000A5F10A0606EB460603FA06F10843E060E7
:1007B0000CE0206905EB4507072606FA07F1884398
:1007C00005EB450603FA06F108432061072A0FDA14
:1007D000606B561E06EB86071F2606FA07F1884354
:1007E000561E06EB860605FA06F10843606322E012
:1007F0000D2A0FDA206BD61F06EB86071F2606FA96
:1008000007F18843D61F06EB860605FA06F1084372
:10081000206310E0E06AA2F10D0606EB86071F26B2
:1008200006FA07F18843A2F10D0606EB860605FAE3
:1008300006F10843E062F0BD816841F080418160CB
:100840007047000010B586B004461E4801F0DCFC7D
:100850004FF4FA7003F008FD01F0D6F803200021F0
:100860004FF48072184BCDE90132CDE90310062018
:100870000346164A0090164801F0EEF803200021C6
:100880004022144BCDE90132CDE90310312003465B
:10089000104AFC320090104801F0DEF803200021DD
:1008A00080220E4BCDE90132CDE90310072003462B
:1008B0000B4A00900B4801F0CFF8FF2001F02AF915
:1008C00006B010BD80A21900EC000020E804002052
:1008D00075310008EC060020C1150008EC0400206A
:1008E000E80600208D2C000810B500F0A5FE00F0F1
:1008F000E7FB03F0C5FA03F049FB03F073FB03F0D9
:10090000D1FB03F019FCFFF77FFE00F0E1F90220B4
:10091000024908700020487010BD00000800002047
:1009200030B90A49096841F40051084A11600AE0E7
:10093000012807D1054909684DF6FF721140034AA5
:10094000116000E0704700BFFCE70000140802409F
:1009500000BFFEE70648008C4FF6FF31084004490F
:1009600008840846008C40F040000884704700006E
:10097000000001400648008C4FF6EF710840044922
:1009800008840846008C40F001000884704700008D
:10099000000001400648008C4FF6FF610840044902
:1009A00008840846008C40F010000884704700005E
:1009B000000001400648008C4FF6FB7108400449D6
:1009C00008840846008C40F480600884704700006A
:1009D000000001400648008C4FF6BF7108400449F2
:1009E00008840846008C40F001000884704700002D
:1009F000000001400648008C4FF6FE710840044993
:100A000008840846008C40F4807008847047000019
:100A1000000001400648008C4FF6FF610840044981
:100A200008840846008C40F00100088470470000EC
:100A3000000001400648008C4FF6BF710840044991
:100A400008840846008C40F48060088470470000E9
:100A5000000001400648008C4FF6FF310840044971
:100A600008840846008C40F00100088470470000AC
:100A7000000001400648008C4FF6FE710840044912
:100A800008840846008C40F010000884704700007D
:100A9000000001400648008C4FF6EF710840044901
:100AA00008840846008C40F4807008847047000079
:100AB000000001400648008C4FF6FB7108400449D5
:100AC00008840846008C40F040000884704700000D
:100AD0000000014010B500F023F800200E494885C1
:100AE00081F82C0081F82D00002406E000210A483E
:100AF0000A3020F81410601CC4B2102CF6DB002061
:100B00000549C88008819FED050A084680ED0C0A5A
:100B100002F0C8F810BD0000240C00200000000006
:100B200000200449C8710A20034948638863C863E8
:100B300070470000D40C00200000014010B50120D7
:100B40000349C8710121034802F044FE10BD0000B2
:100B5000D40C002000000140F8B50446208821890B
:100B6000401A07B2002F01DD384600E0784207B294
:100B700060882189401A05B2002D01DD284600E079
:100B8000684205B2A0882189401A06B2002E01DD14
:100B9000304600E0704206B278193044C0F34F008E
:100BA0000090684602F0F6F9E080074800780128D6
:100BB00006D1E088B0F5FA6F02DD4FF4FA60E0800C
:100BC000012002494870F8BD08000020D40C002024
:100BD00000200449488581F82C0081F82D00088107
:100BE00070470000240C002000B502469FED270A44
:100BF000F0EE402A9FED250AB0EE402A244890ED01
:100C00000C0AB0EE402A234890ED060AB4EEC20A60
:100C1000F1EE10FA03D290ED060AB0EE402AB0EEE3
:100C2000420A104600F048FCF0EE402A9FED1A0AF6
:100C300022EE800A194880ED0F0A90ED0F0ADFEDD1
:100C4000180AB4EEE00AF1EE10FA04DD9FED140A82
:100C500080ED0F0A0DE0114890ED0F0AF2EE040A44
:100C6000B4EEE00AF1EE10FA03D2B2EE040A80ED1F
:100C70000F0A0A4890ED0F0ABCEEC00A10EE100AE7
:100C800081B2084841638163C16300BD0000000078
:100C9000240C0020EC0B00200000D243FC0C0020B0
:100CA00000007A450000014039B1084A126801236A
:100CB00083401A43054B1A6006E0044A1268012378
:100CC00083409A43014B1A60704700000074004053
:100CD00000B587B00121084601F088FF01214807CF
:100CE00001F094FF05A800F084FB03208DF81800A4
:100CF0001020059002208DF81B0005A90B4800F07C
:100D00000BFB00200190029003900220049001A9A7
:100D1000002000F00DF801210020FFF7C5FF0021A1
:100D2000084600F01FF807B000BD000000000240B8
:100D300030B5002200230A4C226840F6FE7484403D
:100D4000A243D1E900452C438D682C43CD6844EA89
:100D5000050303FA00F42243014C226030BD000079
:100D60000074004008B500220092054A009200F18C
:100D70000802009B1A440092009A116008BD00000E
:100D80000074004010B50D490D4800F0F1F898B11D
:100D90000C48FFF7E1FE0B48C08800EE100AB8EEE1
:100DA000400ADFED090A20EE200A064880ED0C0A11
:100DB0000249034800F00AF810BD0000208000102E
:100DC00010640240240C0020FFFF243C0246094B23
:100DD0009A4201D2084801E00648103801F0005359
:100DE0001BB1064B0B40C36002E0044B0B40836019
:100DF0007047000010640240006002407D0F7D0FCC
:100E000021B1026842F00102026003E0026822F0B0
:100E10000102026070470000016821F001010160D9
:100E20000021016041608160C16001612121416157
:100E30004A49884204D13D21484A103A91608CE0E9
:100E400046491831884205D14FF47461434A103A3B
:100E5000916082E041493031884205D14FF47411EC
:100E60003E4A103A916078E03C494831884205D1C9
:100E70004FF07461394A103A91606EE03749603141
:100E8000884204D13649354A103AD16065E0334989
:100E90007831884204D13349304A103AD1605CE05D
:100EA0002E499031884204D12F492C4A103AD16002
:100EB00053E02A49A831884205D14FF03D51274AD5
:100EC000103AD16049E02949884204D13D21274A9E
:100ED000083A116041E025491831884205D14FF4A4
:100EE0007461224A083A116037E020493031884263
:100EF00005D14FF474111D4A083A11602DE01B49C9
:100F00004831884205D14FF07461184A083A11609F
:100F100023E016496031884204D11149134A121F57
:100F200011601AE011497831884204D10D490F4A05
:100F3000121F116011E00D499031884204D10A4915
:100F40000A4A121F116008E00849A831884204D1FA
:100F50004FF03D51054A121F11607047106002406A
:100F60003D000020400F002000003D2010640240A2
:100F700070B50246002000240025124EB24201D274
:100F8000114B01E00F4B103B104E0E4036B11E26A8
:100F900006EAD124166806EA040502E0566906F05E
:100FA000800501F000560EB15C6800E01C68084E38
:100FB000344004EA010616B10DB1012000E0002022
:100FC00070BD000010640240006002403C0F3C0F06
:100FD0007D0F7D0F10B501F080034BB122B1436945
:100FE00043F08003436103E0436923F080034361DE
:100FF00080290BD02AB1036801F01E04234303604B
:1010000004E0036801F01E04A343036010BD000068
:1010100010B500220268134B1A40CC680B682343BA
:101020004C6923438C692343CC6923430C6A2343D3
:101030004C6A23438C6A23434C6B23438C6B2343BE
:101040001A430260426922F00702D1E90B342343BC
:101050001A4342610B6943604B6883608B68C360CD
:1010600010BD00003F801CF0704700000121124AB3
:1010700082F83C100022104981F83E20C1F88020FF
:10108000A1F88420A1F88620C1F8AC20C1F8A020E6
:101090009FED0A0A81ED290A9FED080A81ED2A0ACF
:1010A000002006E000220449403141F82020411C84
:1010B000C8B21028F6DB7047240C002000000000A6
:1010C0001CB50121072001F091FD684600F091F95F
:1010D00001208DF8040000208DF806004FF4007008
:1010E000009000208DF807008DF8050069468748BC
:1010F00000F012F94FF40071844800F078F9684666
:1011000000F077F902208DF8040000208DF8060029
:101110004FF4E060009002208DF807008DF8050084
:1011200069467B4800F0F8F801220821784800F071
:101130003BF901220921764800F036F901220A2103
:10114000734800F031F94FF4E061714800F04FF955
:10115000684600F04EF902208DF8040000208DF85A
:1011600006004FF46040009002208DF807008DF8D3
:1011700005006946654800F0CFF801220D2163485B
:1011800000F012F901220E21604800F00DF9012251
:101190000F215E4800F008F94FF460415B4800F011
:1011A00026F9684600F025F902208DF804004FF476
:1011B000E070009001208DF8070003208DF80500F5
:1011C0006946544800F0A8F802220621514800F070
:1011D000EBF8022207214F4800F0E6F8022208212E
:1011E0004C4800F0E1F8684600F003F902208DF861
:1011F0000400012000908DF8070003208DF8050001
:101200006946434800F088F802220021404800F077
:10121000CBF8684600F0EDF802208DF804000020BD
:101220008DF806004FF4E070009001208DF8070063
:1012300002208DF805006946344800F06DF802225E
:101240000621324800F0B0F8022207212F4800F0B2
:10125000ABF8022208212D4800F0A6F8684600F0FD
:10126000C8F803208DF80400E02000906946284863
:1012700000F052F8684600F0BCF801208DF8040038
:1012800000208DF806004FF40050009000208DF8EB
:1012900007008DF8050069461E4800F03DF84FF440
:1012A00000511C4800F0A3F8684600F0A2F80020A6
:1012B0008DF804004FF44040009000208DF80700A6
:1012C0008DF805006946134800F026F84FF44041B8
:1012D000104800F08CF8684600F08BF801208DF87B
:1012E000040000208DF806000120009000208DF8F9
:1012F000070002208DF805006946064800F00CF84A
:101300000121044800F073F81CBD000000040240F5
:101310000000024000080240F0B50A460021002308
:10132000002400BF3DE0012505FA01F3156805EA38
:1013300003049C4234D105684F000326BE40B543E8
:10134000056015794E00B54006683543056015798E
:10135000012D02D01579022D16D185684F00032684
:10136000BE40B543856055794E00B540866835432B
:101370008560456801268E40B5434560456896798D
:101380008E40B6B235434560C5684F000326BE4067
:10139000B543C560D5794E00B540C6683543C560D4
:1013A000491C1029BFD3F0BDF0B5002300244D0720
:1013B000ED0E02FA05F3CE1000F1200555F8265087
:1013C0004E07F70E0F26BE40B543CF1000F12006A2
:1013D00046F82750CE1000F1200555F8265045EA72
:1013E0000304CE1000F1200545F82640F0BD4183EE
:1013F00070474FF6FF7101600021017141718171E9
:10140000C171704700B501F0E1FF02F019F802F078
:101410004FF800BD00B501F0D9FF01F0F3FF02F075
:1014200065F800BD00B501F0B5FF02F025F802F047
:101430003FF800BD00B501F08FFF02F01DF802F08B
:1014400055F800BD00B501F0A5FF01F0DBFF02F08B
:1014500069F800BD00B501F07FFF01F0F1FF02F077
:1014600061F800BD10B500F015F8074981F83A00A1
:1014700006490978064A02EB4111034A92F83A20DC
:1014800051F82200804710BD240C0020D40C00200D
:101490004C00002002490968C1F382107047000027
:1014A0001004024000BFFEE710B501F073FF01F029
:1014B000C7FF02F01BF810BDF0EE400AC0ED010AB4
:1014C00090ED030A80ED040A90ED020A80ED030A14
:1014D00090ED000A90ED011A30EE410A80ED020A0B
:1014E00090ED020A90ED031A30EE410A90ED061AD3
:1014F00020EE010A80ED090A90ED070A90ED021A2C
:1015000020EE010A80ED0A0A90ED020A90ED031A1E
:10151000F0EE001A01EEC10A90ED041A30EE010A55
:1015200090ED081A20EE010A80ED0B0A90ED090AF1
:1015300090ED0A1A30EE010A90ED0B1A30EE010A16
:1015400080ED0C0A90ED0D0A90ED0C1A30EE010AB8
:1015500080ED0E0A90ED0E0AB2EE041AB4EEC10A46
:10156000F1EE10FA03DDB2EE040A80ED0E0A90ED02
:101570000E0ABAEE041AB4EEC10AF1EE10FA03D262
:10158000BAEE040A80ED0E0A90ED0E0A80ED0D0A07
:1015900090ED0E0A70470000034800684FF6FF51B7
:1015A000084001490860704714040240034800687D
:1015B00040F40070014908607047000014040240C4
:1015C00010E0FFF7E9FF4FF4487300221146104680
:1015D00000F05CFDFFF7EAFF3223002211461046BF
:1015E00000F054FDEDE700BFFEE7000000200F49CA
:1015F000087048708870C87008714871012088713F
:101600009FED0B0A084680ED020A9FED090A80ED66
:10161000050A9FED070A80ED080A0020C86088616E
:101620004862C8710874087770470000D40C002025
:10163000000000007047704708B519208DF80000C1
:1016400000208DF801008DF8020001208DF80300C4
:10165000684600F03DF838208DF8000000208DF835
:10166000010002208DF8020001208DF80300684679
:1016700000F02EF81C208DF8000000208DF80100ED
:1016800003208DF8020001208DF80300684600F069
:101690001FF81D208DF8000001208DF801000020AA
:1016A0008DF8020001208DF80300684600F010F864
:1016B0001E208DF8000000208DF8010001208DF81B
:1016C00002008DF80300684600F002F808BD000033
:1016D00070B5002100230F22C4781CB3174C246876
:1016E00004F4E064C4F5E064C4F30721C1F1040428
:1016F000E3B20A4144789C40E1B28478144021432B
:101700000C07210E0E4C05786155047804F01F0576
:101710000124AC4005786D11AD0005F1E025C5F858
:10172000004109E0047804F01F050124AC40054D98
:101730000678761145F8264070BD00000CED00E0FB
:1017400000E400E080E100E002490143024A116048
:10175000704700000000FA050CED00E0174818483B
:101760001848194819481A481A481B481B481C4869
:101770001C481D481D481E481E481F481F48204839
:101780002048214821482248224823482348244809
:1017900024482548254826482648274827482848D9
:1017A0002848294829482A482A482B482B482C48A9
:1017B0002C482D482D482E4800BF7047A4530008E0
:1017C000A8530008AE530008B0530008AC530008FB
:1017D000B2530008B4530008B6530008B8530008C9
:1017E000BA530008BC530008BE530008C053000899
:1017F000C2530008C4530008C6530008C853000869
:10180000CA530008CC530008CE530008D053000838
:10181000D2530008D4530008D6530008D853000808
:10182000DA530008DC530008DE530008E0530008D8
:10183000E2530008E4530008E6530008E8530008A8
:10184000EA530008EC530008EE530008F053000878
:10185000F2530008F4530008F6530008FA53000846
:10186000FC530008FE53000800540008025400080E
:101870001654000810B500F017F800F091FD00F0C4
:10188000BDFD00F0DFFD00F05BFD00F01BFD00F092
:1018900073FE00F09DFE00F015FE00F03BFE00F030
:1018A0001BF8FFF75BFF10BD0848802102E0491ECE
:1018B000002204C00029FAD1054A064B1A601A46D4
:1018C000126822F007021A6070470000B40D002071
:1018D000B40F00209C0000207047000010B50024C9
:1018E0001A480078012830D1FEF7E8FC0446184871
:1018F000007820B116480078401E15490870144839
:101900000078F8B913480078E0B900F0C3FE124837
:101910001249097850F82100114908600F480078F1
:101920001049097888420DD00D480068006C401CB1
:101930000B49096808640C480068401C0A490860A3
:10194000FEF7DCFC2046FEF7BDFC10BDC000002009
:10195000B9000020BA000020E4170020BC000020DD
:10196000D0000020BB000020A000002070B505467C
:1019700000261048007808B1002070BDFEF79EFCDC
:1019800006460D480468006820B10B4800684068AE
:10199000094908603046FEF795FC4CB103202070E1
:1019A00025810020606005A0E062204600F07BFCFD
:1019B0002046E2E7B9000020A40000203F0000001C
:1019C00010B50B48007890B900F064FE0948007823
:1019D0000949087009480749097850F82100084961
:1019E00008600846006807490860FEF76EFC10BDF5
:1019F000C0000020BC000020BB000020E417002035
:101A0000D0000020C800002010B50024022000F003
:101A1000FFFAFEF753FC044600200B4908602046FD
:101A2000FEF750FC0A2000F0F3FAFEF747FC0446EC
:101A300005480068054908600120054908702046EE
:101A4000FEF740FC10BD0000C4000020B0000020E4
:101A5000B8000020704700002DE9F04F85B08146A6
:101A60008A4693461C46DDE90F78129D00200390BC
:101A7000FEF724FC03902348007830B10398FEF76A
:101A800021FC3C2005B0BDE8F08F1F4850F8240031
:101A900088BB01201C4941F824000398FEF712FC82
:101AA0002A464146384600F057FF2B465A465146D3
:101AB000484600F061F904901198CDE90080029544
:101AC0003A4620460E9B049900F014FE064636B9AD
:101AD0000E48007801280CD100F0A2FD09E0FEF7C5
:101AE000EDFB03900020084941F824000398FEF71D
:101AF000E9FB3046C6E7FFE70398FEF7E3FB282043
:101B0000C0E70000B9000020E4170020C00000205A
:101B1000704700002DE9F041054600274B4800784A
:101B200010B14020BDE8F081FD2D01D13E20F9E744
:101B3000FEF7C4FB0746FF2D03D14548006890F827
:101B40003650444850F8254024B93846FEF7BAFBD1
:101B50004320E7E7012C04D13846FEF7B3FB3D20D4
:101B6000E0E714F8380F3C4931F8100061888843E9
:101B70002178394A22F8110014F83809114631F851
:101B8000100028B9A18F3548008888433349088060
:101B9000E06918B12046E16900F04FFB206A18B1F6
:101BA0002046216A00F061FBA66A16B1304600F0BB
:101BB000B5FB0020206384F8340084F83500284801
:101BC0000078FF2804D226480078401C2449087079
:101BD0003846FEF777FB00F02FFBFEF76FFB07465A
:101BE0001F48007820B11E480078401E1C4908702C
:101BF000204600F041F81B480078401E1949087043
:101C00000020144941F82500A06930B9002061691D
:101C1000886115496069086005E0D4E905014861FB
:101C2000D4E9051088611148006860610F480460BC
:101C30000FA060653846FEF745FB0E480078012886
:101C400001D100F0EDFC00206CE70000B90000209D
:101C5000C8000020E4170020C4150020BE000020AA
:101C6000BA000020C1000020D4000020CC000020D9
:101C70003F000000C0000020704770472DE9F04190
:101C800006460F4614464FF000081548007818B174
:101C900012202070BDE8F081FEF710FB8046FF2E79
:101CA00003D11048006890F836600F4850F826506D
:101CB0002DB94046FEF706FB43202070EAE7012DD0
:101CC00005D14046FEF7FEFA43202070E2E76F653B
:101CD0004046FEF7F7FA0020207000BFDAE7000068
:101CE000B9000020C8000020E417002070477047AA
:101CF0002DE9F04707460D464FF0000A0020286006
:101D00006860FEF7DBFA8246FF2F03D118480068AF
:101D100090F83670174850F827402CB95046FEF717
:101D2000D1FA4320BDE8F087012C04D15046FEF7DC
:101D3000C9FA4320F6E7207C00F0010020B95046A4
:101D4000FEF7C0FA4520EDE70026D4F80C90D4F851
:101D500008805046FEF7B6FA00E0761C58F8041BDF
:101D60000029FAD02E60A9EB060068600020D9E7B0
:101D7000C8000020E417002070B50446101D20F0B4
:101D800007000026051F28462E604FF01536051F58
:101D900028462E604FF01436051F28462E604FF05F
:101DA0001336051F28462E604FF01236051F2846B1
:101DB0002E604FF01136051F28462E604FF010366A
:101DC000051F28462E604FF00936051F28462E6055
:101DD0004FF00836051F28462E604FF00736051FC6
:101DE00028462E604FF00636051F28462E604FF01D
:101DF0000536051F28462E604FF00436051F28467D
:101E00002E604FF00336051F28462E604FF0023635
:101E1000051F28462E607610051F28462E600026D6
:101E2000051F28462E604FF08076051F28462E603D
:101E3000051F28462C60494E051F28462E604FF08E
:101E40001236051F28462E604FF00336051F284620
:101E50002E604FF00236051F28462E607610051FB3
:101E600028462E60051F284629604FF03136051F91
:101E700028462E604FF03036051F28462E604FF062
:101E80002936051F28462E604FF02836051F2846A4
:101E90002E604FF02736051F28462E604FF026365D
:101EA000051F28462E604FF02536051F28462E6058
:101EB0004FF02436051F28462E604FF02336051FAD
:101EC00028462E604FF02236051F28462E604FF020
:101ED0002136051F28462E604FF02036051F284664
:101EE0002E604FF01936051F28462E604FF0183629
:101EF000051F28462E604FF01736051F28462E6016
:101F00004FF01636051F28462E604FF01136051F7C
:101F100028462E604FF01036051F28462E604FF0E1
:101F20000936051F28462E604FF00836051F284643
:101F30002E604FF00736051F28462E604FF00636FC
:101F4000051F28462E604FF00536051F28462E60D7
:101F50004FF00436051F28462E6070BD6528000826
:101F60002DE9F04105464FF00008FEF7A7F980463D
:101F7000FF2D05D12148006890F83650012608E071
:101F80001E48006890F83600A84201D1012600E002
:101F900000261B4850F825402CB94046FEF792F920
:101FA0004820BDE8F081012C04D14046FEF78AF9B3
:101FB0004320F6E794F83870124830F81700618F24
:101FC0008843104921F81700084630F8170028B94F
:101FD000A18F0D48008888430B49088094F834008D
:101FE00040F0080084F834004046FEF76BF9012EFB
:101FF00001D100F015FB0020D3E70000C80000204D
:10200000E4170020C4150020BE0000207047000027
:1020100070B5054600261848007800B170BD174815
:10202000007800B1FAE725B3FEF748F906461448F0
:10203000006890F83840134830F8140010490968D7
:10204000498F88430F4921F81400084630F81400DE
:1020500038B90B480068818F0B48008888430A49CB
:1020600008800748006805633046FEF72BF900F04A
:10207000D7FA00BFD2E70000B9000020BA00002064
:10208000C8000020C4150020BE0000202DE9F0414A
:1020900004460D4616461F461248007810B15520DA
:1020A000BDE8F0811048007808B13220F8E7781DCB
:1020B000642148434FF47A71B0FBF1F14FF4616051
:1020C0006043C5EB051200EB8200304400EBC00218
:1020D00002EB001001EB80084046FFF799FF00205B
:1020E000DEE70000B9000020BA00002070B500262D
:1020F00000F074F8FEF7E2F8064632480068401C2B
:10210000304908603046FEF7DDF82F480078012896
:1021100055D12E48007820B1012804D0022809D1D9
:1021200003E001250BE0002509E0012501202749F6
:10213000087004E0012500202449087000BF00BF9A
:1021400005B970BD2248046835E0FEF7B7F80646C9
:10215000206B60B3206B401E2063206B38BB94F86B
:10216000340000F0370040B114F8340F00F0C8001C
:10217000207001206070343C02E0002084F83500BB
:1021800094F8340000F0080088B9A08F114909883C
:1021900008431049088094F838000F4931F81000BE
:1021A000618F084394F838100B4A22F811006469D3
:1021B0003046FEF787F894F83600FD28C5D100BFF9
:1021C000BFE70000E8000020C0000020D800002089
:1021D000D4000020BE000020C4150020704700007D
:1021E00010B5FEF76BF8044606480078401C054918
:1021F00008702046FEF766F8FFF778FFFFF76EFBE2
:1022000010BD0000B900002001464A1E4FF0E02337
:102210005A61084A106820F07F4000BF10601A46DB
:10222000126942F005021A611A46126942F002026E
:102230001A61704720ED00E0704710B590F8382023
:1022400001F10C0333F81230448FA34301F10C0465
:1022500024F81230234633F812301BB94B89848F8F
:10226000A3434B810023C36110BDF0B5024692F831
:102270003840958F568F0B46186811E000F10C0717
:1022800037F81470B74300F10C0C2CF81470674643
:1022900037F8147017B94789AF4347811B1D186879
:1022A0000028EBD1F0BD014600224A81002006E063
:1022B000002301F10C0222F81030421CD0B2102889
:1022C000F6D370472DE9F0415021114800F04AF94A
:1022D00000250DE0681C86B20D4800EB051400EBEC
:1022E00006170020207067600AA0E060681C85B2B5
:1022F000042DEFD3064800EB051400202070606029
:1023000004A0E060024804490860BDE8F0810000D4
:10231000741300203F000000A800002030B50146E3
:102320004A6808682AB9CC68606028B10025456011
:1023300002E0106000B142608B6800259D6230BDF4
:1023400070B54FF47071134800F00CF9002411E0DF
:10235000601C85B204EB44000E4901EB001305EB51
:10236000450001EB0016002018705E600AA0D862DC
:10237000601C84B2132CEBD304EB4400054901EB41
:10238000001300201870586003A0D8620846034963
:10239000086070BDB40F00203F000000A4000020C2
:1023A00000200B4908600B4908700B4908700B4965
:1023B00008700B4908700B4908600B4908600B490D
:1023C00008600B4908600B4908700B49087070479A
:1023D000E8000020B9000020BA000020C100002061
:1023E000C0000020A0000020C4000020B400002095
:1023F000B0000020B8000020E400002000210B4ABB
:102400001180002005E00021094A22F81010411C2B
:10241000C8B21028F7D30021064A1170064A11707D
:10242000064A1160064A116070470000BE00002095
:10243000C4150020BB000020BC000020D0000020FC
:10244000C800002070B54FF4FD61194800F08AF80B
:102450004FF47E71174800F085F8002413E0601CEB
:10246000C5B2C4EBC40000EB0410114901EB8003BA
:10247000C5EBC50000EB051001EB80065E610EA008
:102480005865601CC4B2152CE9D3C4EBC40000EB42
:102490000410074901EB80030020586106A058652D
:1024A00000200649086002480549086070BD000028
:1024B000DC1B0020E41700203F000000D4000020B7
:1024C000CC00002000B587B00320002180220A4BF9
:1024D000CDE90132CDE903104FF6FF70FD23074A25
:1024E00000900748FFF7B8FA06AA06A1FD20FFF7FB
:1024F000C5FB07B000BD0000E4150020E017002078
:102500003D28000875432F4F532D49492049646CDD
:102510006500000000B587B00320002180220A4B2F
:10252000CDE90132CDE903104FF6FE70FC23074AD6
:1025300000900748FFF790FA06AA06A1FC20FFF7D3
:102540009DFB07B000BD0000C4130020C015002093
:102550007D28000875432F4F532D4949205374613E
:102560007400000004E0002200F8012B4A1E91B222
:102570000029F8D17047000070B578211148FFF7A5
:10258000F1FF00240EE004EB44000E4901EBC0050E
:10259000601C00EB400001EBC00068600AA06861AD
:1025A000601C84B2042CEED304EB4400054901EB1B
:1025B000C0050020686004A06861084603490860FF
:1025C00070BD0000C42300203F000000DC0000209C
:1025D0002DE9F04160211048FFF7C4FF00240DE011
:1025E000601C86B204EB44000B4901EBC00506EB0E
:1025F000460001EBC0072F60601C84B2032CEFD3B0
:1026000004EB4400044901EBC005002028600846A3
:1026100002490860BDE8F0813C240020E000002071
:1026200010B50024FDF74AFE044613480078F8B9B7
:1026300012480078E0B900F02DF8114811490978E6
:1026400050F82100104908600E4800780F490978B9
:1026500088420DD00C480068006C401C0A4909688B
:1026600008640B480068401C09490860FDF741FEFA
:102670002046FDF727FE10BDB9000020BA0000205B
:10268000E4170020BC000020D0000020BB00002088
:10269000A0000020134A127822B1124A1278124B7D
:1026A000985C07E0104A0F4B1B8802EB132212784C
:1026B0000832D0B20D4A02EB40010A783AB10A78EA
:1026C000094B9A5C02EB0012094B1A7009E00A8868
:1026D000054B03EB1222127802EB00120832044B76
:1026E0001A707047BE00002018540008C41500205E
:1026F000BC0000202DE9F84F05460F46904699464C
:10270000DDE90AAB00200090FDF7D8FD00904448B9
:102710000468002C7ED01C3454F8080C4049086032
:102720000098FDF7CFFD44F81C7CA57600202076AC
:102730006076606144F818BC44F810AC44F8148C1E
:102740000C9824F80C0C24F80A9C002084F8220031
:102750002809207705F00F00E076217F01208840CE
:102760002084E17E01208840E083002020606060BA
:10277000E060A0606062E062A0622063606329A004
:10278000A0631C3C002606E0002104F1580040F83C
:102790002610701CC6B2002EF6D02046FFF75AF95C
:1027A000FDF78CFD0090204840F825400098FDF78B
:1027B00089FD2046FFF7ACF9FDF780FD00901B482E
:1027C000006860610020A0611848006810B11748D7
:1027D0000068846115480460A08F15490988084382
:1027E0001349088094F83800124931F81000618FBD
:1027F000084394F838100F4A22F811000E48007868
:10280000401C0D4908700098FDF75CFD0020BDE8F4
:10281000F88FFFE70098FDF755FD4220F7E700002D
:10282000CC0000203F000000E4170020D40000206E
:10283000BE000020C4150020C1000020002400BFFD
:1028400000BFFDF73BFD044605480068401C0449F5
:1028500008602046FDF736FDFFF70FFAF1E70000AC
:10286000C400002010B504480068FFF73FFAFF20BD
:10287000FFF750F910BD0000C800002000BF00BFE6
:1028800002E01420FFF7C4FB1F4800780028F8D0AE
:102890001E4800686421B0FBF1F01C49086008463E
:1028A000006828B900201A490870FF20FFF758FB7C
:1028B000FDF704FD044615480068642148431549A6
:1028C00008602046FDF7FEFC00BFFDF7F7FC04465C
:1028D000104800681049086000200E490860204632
:1028E000FDF7F0FC0C48006808490968B0FBF1F0FE
:1028F000C0F1640006490870FFF7F9F900F00EF81E
:102900000A20FFF785FBE0E7B8000020B0000020B8
:10291000AC000020C4000020B40000207CB50025DD
:1029200014E069462846FFF7E3F9064666B9094808
:1029300050F8254044B1012C06D0D4E9020100EB47
:102940008100E06401982065681CC5B2FD2DE8D9BE
:102950007CBD0000E417002002F0010343B102F047
:1029600002032BB102E0491E002308C00029FAD15E
:102970007047000010B500207649087048704FF489
:1029800080507549086004200871000388604FF486
:102990002F60C8609FED710A084680ED040A9FED24
:1029A000700A80ED050A9FED6F0A80ED060A9FED23
:1029B0006E0A80ED070A9FED6D0A80ED080A9FED13
:1029C0006C0A80ED090A90ED090AF7EE000A80EE24
:1029D000801A80ED0A1A9FED670A80ED0B0A9FEDC1
:1029E000660A80ED0C0A0C2081F834009FED620A23
:1029F000624880ED000A9FED600A80ED010A9FEDBC
:102A00005E0A80ED020A9FED5C0A80ED030A9FEDED
:102A10005A0A80ED040A9FED580A80ED050A9FEDE1
:102A2000560A80ED090A9FED540A80ED0A0A9FEDCF
:102A3000520A80ED0B0A9FED500A80ED0D0A9FEDC2
:102A40004E0A80ED0E0A9FED4E0A80ED060A9FEDBC
:102A50004D0A80ED070A9FED480A80ED080A9FEDB8
:102A6000460A494880ED000A9FED430A80ED010ABD
:102A70009FED410A80ED020A9FED3F0A80ED030AB7
:102A80009FED3D0A80ED040A9FED3B0A80ED050AAB
:102A90009FED390A80ED090A9FED370A80ED0A0A99
:102AA0009FED350A80ED0B0A9FED330A80ED0D0A8C
:102AB0009FED310A80ED0E0AB1EE000A80ED060AA4
:102AC0009FED320A80ED070A9FED2B0A80ED080A80
:102AD0009FED290A2E4880ED000A9FED270A80ED20
:102AE000010A9FED250A80ED020A9FED230A80ED81
:102AF000030A9FED210A80ED040A9FED1F0A80ED75
:102B0000050A9FED1D0A80ED090A9FED1B0A80ED65
:102B10000A0A9FED190A80ED0B0A9FED170A80ED56
:102B20000D0A9FED150A80ED0E0A9FED1A0A80ED41
:102B3000060A9FED190A80ED070A9FED180A80ED3D
:102B4000080AFDF7C7FFFEF791FAFEF74FFD0120D7
:102B500010BD000008000020EC0B002000201945EB
:102B60009A992141000018420AD72340A55E0043EC
:102B7000000094420000344300000000FC0C0020E0
:102B80009A99193F0AD7A33C3C0D0020CDCCCC3DEF
:102B9000780D00206F12833BACC527376F12833A44
:102BA00000B501469FED0E0AB0EE402A9FED0C0ADB
:102BB000F0EE402A0B4890ED2B0AB8EEC00AB0EEBA
:102BC000402AB0EE420A0846FEF776FCF0EE402AB4
:102BD0000548C0ED052A0120034A107100BD000020
:102BE00000000000240C0020D40C002029B1064A6B
:102BF00012680243044B1A6004E0034A12688243DD
:102C0000014B1A60704700003038024029B1064A73
:102C100012680243044B1A6004E0034A12688243BC
:102C2000014B1A60704700004038024029B1064A43
:102C300012680243044B1A6004E0034A126882439C
:102C4000014B1A60704700002038024029B1064A43
:102C500012680243044B1A6004E0034A126882437C
:102C6000014B1A60704700004438024029B1064AFF
:102C700012680243044B1A6004E0034A126882435C
:102C8000014B1A60704700002438024000BF00BFAB
:102C900006E000BF6423052200210846FFF7F6F98D
:102CA000F7E7000010B50E480078022802D0022095
:102CB0000B490870FDF734FF0A200A49486388630E
:102CC000C863FEF7F1FBFDF783FF40F24160064960
:102CD00008819FED060A084680ED0C0A10BD000031
:102CE0000800002000000140240C0020000000002B
:102CF00070B52DED028B9FED630AB0EE408A002582
:102D00006148B0F88610A0F884106048006881B26D
:102D10005D48A0F88610B0F88610B0F884000C1A50
:102D20005948D0F8AC0001195748C0F8AC10002C35
:102D300003DA002180F83D1003E00121524880F8B9
:102D40003D1000224FF40071514800F05EFD4E48E6
:102D500090F83C00B0BB4C4890ED290AF2EE090A0D
:102D6000B4EEE00AF1EE10FA2DD290ED290AFAEE57
:102D7000090AB4EEE00AF1EE10FA24DDD0F88C0076
:102D800008B3414890F83D0001280BD13E4890ED32
:102D9000230AB8EE400ADFED3F0A80EE801A80ED8C
:102DA000291A0AE0384890ED230AB8EE400ADFED10
:102DB0003A0A80EE801A80ED291A0120324981F802
:102DC0003C0053E00DE000EE104AB8EEC00AB0EE51
:102DD000408A9FED320AC8EE000A2B48C0ED290A4E
:102DE00044E0294890ED290AF2EE090AB4EEE00A1F
:102DF000F1EE10FA08DD90ED290AFAEE090AB4EEB8
:102E0000E00AF1EE10FA03D31F48D0F88C0088B91D
:102E100000EE104AB8EEC00AB0EE408A9FED1F0ADD
:102E2000C8EE000A1848C0ED290A0020164981F8AA
:102E30003C001BE0144890F83D0001280BD11248DB
:102E400090ED230AB8EE400ADFED120A80EE801AF8
:102E500080ED291A0AE00C4890ED230AB8EE400AEA
:102E6000DFED0D0A80EE801A80ED291A0122510251
:102E7000074800F0CAFC01200949C870BDEC028B6C
:102E800070BD000000000000240C0020240400405D
:102E9000000C0040A037A045A037A0C56F128341A9
:102EA000D40C0020704700000CB500200190009069
:102EB0003448006840F480303249086000BF31482F
:102EC000006800F4003000900198401C01900098C8
:102ED00018B90198B0F5A04FF1D12A48006800F464
:102EE000003010B10120009001E000200090009817
:102EF000012846D123484030006840F080502149E5
:102F0000403108602048006840F440401E49086095
:102F10001C48083000681B490831086008460068F2
:102F200040F4004008600846006840F4A050086083
:102F30001648091F0860081F006840F08070091FCC
:102F4000086000BF0F48006800F000700028F9D04A
:102F500040F205700E4908600A480830006820F009
:102F600003000849083108600846006840F0020084
:102F7000086000BF03480830006800F00C00082813
:102F8000F8D10CBD003802400070004008544007E2
:102F9000003C024010B501460888B0F5805F02DBB6
:102FA00040F6FF7008802D4890F82D0008281CDAA4
:102FB0000B882A4890F82C400A3020F814300A3840
:102FC00090F82D00401C254B83F82D00184690F8F2
:102FD0002D0083F82C001846408D0B8818441F4B99
:102FE00058851846408D801010BD1C4890F82C0064
:102FF000401C1A4B83F82C00184690F82C00082827
:1030000002DB002083F82C00144890F82C000728DD
:1030100002D11248428907E0104890F82C00401C69
:103020000E4B0A3333F810200B880C4890F82C40D4
:103030000A3020F814300A38438D90F82C400A30BA
:1030400030F814001844054B58851846408D801AF6
:1030500058851846408D8010C6E70000240C0020DB
:1030600070B52DED088B05469FED3A0AB0EE408A0B
:103070009FED380AF0EE408A374890ED290AB0EE0D
:10308000408AB0EE480A2846FEF716FAF0EE408A6B
:10309000314890ED290A10EE101A084601F08CFF15
:1030A00041EC1B0B9FED2D0B53EC102B01F090FA14
:1030B00041EC1A0B01F02AF909EE100A9FED290ADA
:1030C00029EE000ABCEEC00A10EE104AB4F5805F8B
:1030D00001D340F6FF74A1B20020FDF743FE224861
:1030E000C0ED028A90ED020AB5EEC00AF1EE10FAC8
:1030F0000DDD01201C49087009781C4A02EB4111C2
:10310000154A92F83A2051F8220080471CE01648F0
:1031100090ED020ADFED160AB4EEE00AF1EE10FAC5
:103120000DD20020104908700978104A02EB4111B5
:10313000094A92F83A2051F82200804704E09FEDB6
:10314000050A094880ED020A012007498870BDEC94
:10315000088B70BD00000000240C0020000000005F
:103160000000F83F00A0AA44D40C00204C0000202E
:103170000000008026E014480078E8B1124800788A
:10318000012819D010480078022814D1FFF78AFDD1
:103190001423002211461046FEF778FF0120FDF7A8
:1031A000BFFBFEF75FF9FDF7C9FC01200649087077
:1031B0000220487000E000BF142300221146104690
:1031C000FEF764FFD7E700000800002010B515489F
:1031D000006840F47000134908601348006840F02C
:1031E00001001149086000200F49083108600E48AD
:1031F00000680E4908400C4908600D48091D086028
:10320000081F006820F48020091F0860002006497C
:103210000C310860FFF748FE4FF00060014980392B
:10322000086010BD88ED00E000380240FFFFF6FEA8
:1032300010300024F0B50C46154600210022068C03
:103240004FF6FE773E400684018B028C4FF60C76DB
:1032500031407E1C06EA03162E4331434FF6F576C5
:10326000324044F00106324301830284F0BDF0B5E0
:103270000C461546002100220026078C4FF6EF7CF5
:1032800007EA0C070784018B028C4FF6FF7707EAE9
:10329000041640F6FF4739404FF6FF7707EA033739
:1032A00039434FF6FF7707EA052739434FF65F7733
:1032B0003A4046F010073A4301830284F0BDF0B56E
:1032C0000C461546002100220026078C4FF6FF6CA5
:1032D00007EA0C070784818B028C4FF6FF7707EA19
:1032E00004264FF60C7739404FF6FF7707EA0317AD
:1032F0002F4339434FF2FF573A4046F480773A4321
:1033000081830284F0BDF0B50C46154600210022F1
:103310000026078C4EF6FF7C07EA0C070784818B9A
:10332000028C4FF6FF7707EA043640F6FF47394034
:103330004FF6FF7707EA052739434FF6FF7707EA8D
:103340000337394345F6FF773A4046F480573A430E
:1033500081830284F0BD00000D48008C4FF6FE71A1
:1033600008400B4908840846008C4FF6FB71084062
:10337000074908840846008B4FF68F7108400449BE
:1033800008830846008B40F0400008837047000027
:10339000000001400C48008B4FF68F7108400A492D
:1033A00008830846008B40F0700008830846008CB4
:1033B0004FF6FE710840044908840846008C40F02E
:1033C0000400088470470000000001400C48008B96
:1033D0004FF68F7108400A4908830846008B40F079
:1033E000700008830846008C40F0010008840846FD
:1033F000008C4FF6FB7108400149088470470000BB
:10340000000001400D48008C4FF6EF7108400B4959
:1034100008840846008C4FF6BF71084007490884AD
:103420000846008B48F6FF710840044908830846A7
:10343000008B40F48040088370470000000001408A
:103440000C48008B48F6FF7108400A49088308467B
:10345000008B40F4E04008830846008C4FF6EF7183
:103460000840044908840846008C40F04000088465
:1034700070470000000001400C48008B48F6FF71C7
:1034800008400A4908830846008B40F4E04008835E
:103490000846008C40F0100008840846008C4FF667
:1034A000BF710840014908847047000000000140D6
:1034B0000D48008C4FF6FF6108400B490884084610
:1034C000008C4FF6FF310840074908840846808B7E
:1034D0004FF68F710840044988830846808B40F07E
:1034E0004000888370470000000001400C48808B3A
:1034F0004FF68F7108400A4988830846808B40F058
:10350000700088830846008C4FF6FF61084004492C
:1035100008840846008C40F48060088470470000EE
:10352000000001400C48808B4FF68F7108400A491B
:1035300088830846808B40F0700088830846008CA2
:1035400040F4807008840846008C4FF6FF31084034
:1035500001490884704700000000014010B52DEDBE
:10356000048B0121474800F048FA00287ED04548E6
:10357000008800F01000002856D04348C079012888
:1035800078D1424890ED000AB8EE400ADFED400ADB
:1035900020EE200ADFED3F0A80EE201AB0EE418ACD
:1035A000B0EE480AFCF7E8FEF7EE000AB6EE001AA5
:1035B00041EE000A3848C0ED000A34480068401C5B
:1035C000324908600846006841F28831884202D3D7
:1035D00000202E4908609FED310A2B4880ED020A39
:1035E0000120294988702948006828B92C480068BA
:1035F00040F001002A4908602448006840F6C411E0
:10360000884206D1264800684FF6FE7108402449DA
:1036100008601D48407801282CD12248FDF7E4FAC3
:1036200000201949487025E01F48FDF705F91648A4
:10363000807801281ED1144890ED020A10EE101A6D
:10364000084601F0B9FC41EC190BB0EE490AF0EE66
:10365000690A00F0FFFDB0EE408AF0EE608A51EC9E
:10366000180B00F053FE0F49086000E006E0002050
:10367000054988700121034800F0A9F8BDEC048BCE
:1036800010BD000000000140D40C00208C00002080
:10369000DB0FC94000409C45940000209A99193FD7
:1036A00014080240FC0C00200020014010B501214C
:1036B000880700F0A2F9002835D0FFF719FB1A4857
:1036C000007F01280ED11848807901280AD11648B8
:1036D00090ED080A154880ED000AFFF761FA002016
:1036E000114988711048007C012818D10E48C07813
:1036F000012805D10E48FFF7B3FC00200A49C87025
:103700000948007901280AD1074890ED050A0848C0
:1037100080ED000A00200449087101208870012111
:10372000880700F054F810BDD40C0020780D00205C
:103730003C0D002010B50121054800F05EF908217C
:10374000034800F05AF90921014800F040F810BD83
:103750000004004010B50221054800F04EF928B1E0
:10376000FDF780FE0221024800F031F810BD000094
:103770000008004010B50221044800F03EF918B1DD
:103780000221024800F023F810BD0000000C0040A8
:1037900021B1028842F08002028004E002884FF6E4
:1037A0007F731A40028070470A884B881A438B88BF
:1037B0001A43CB881A430B891A434B891A438B89C6
:1037C0001A43A0F844207047CA4302827047CA4394
:1037D0000282704721B1028842F00102028004E0B7
:1037E00002884FF6FE731A400280704731B1B0F87C
:1037F000442042F40042A0F8442005E0B0F8442000
:10380000C2F30E02A0F8442070471AB183890B431B
:10381000838102E083898B438381704741EA0203FD
:10382000A0F848307047000010B50446554884425F
:1038300008D101210846FFF719FA00210120FFF7FE
:1038400015FA9DE0B4F1804F08D101210846FFF739
:10385000EDF900210120FFF7E9F991E04A4884429F
:1038600008D101210220FFF7E1F900210220FFF732
:10387000DDF985E04548844208D101210420FFF7A5
:10388000D5F900210420FFF7D1F979E040488442BE
:1038900008D101210820FFF7C9F900210820FFF70E
:1038A000C5F96DE03B48844208D101211020FFF7A3
:1038B000BDF900211020FFF7B9F961E036488442D4
:1038C00008D101212020FFF7B1F900212020FFF7C6
:1038D000ADF955E03148844208D101210220FFF7BB
:1038E000C5F900210220FFF7C1F949E02C488442C4
:1038F00009D101210804FFF7B9F900214FF4803004
:10390000FFF7B4F93CE02748844209D1012148047B
:10391000FFF7ACF900214FF40030FFF7A7F92FE0D3
:103920002148844209D101218804FFF79FF9002131
:103930004FF48020FFF79AF922E01C48844208D116
:1039400001214020FFF772F900214020FFF76EF9B6
:1039500016E01748844208D101218020FFF766F95C
:1039600000218020FFF762F90AE01248844207D163
:1039700001218015FFF75AF90021A015FFF756F92C
:1039800010BD00000000014000040040000800409D
:10399000000C0040001000400014004000040140F2
:1039A0000040014000440140004801400018004030
:1039B000001C004000200040F0B50C4615461E4695
:1039C0000021002200230189028B038C4FF6F87737
:1039D000394021434FF6FC473A4040F201173A4341
:1039E0004FF6DD773B404FF6FF7707EA06172F4388
:1039F0003B43018102830384F0BD30B502460020C1
:103A000000230024158A05EA0103958905EA0104CB
:103A100013B10CB1012000E0002030BD70B50546A7
:103A20000C46208850B92389A28861882846FFF770
:103A300001FCE188284600F0ABF925E02088042845
:103A40000AD12389A28861882846FFF710FCE18803
:103A5000284600F0A6F917E0208808280AD1238913
:103A6000A28861882846FFF72AFCE188284600F0F2
:103A7000A5F909E02389A28861882846FFF743FC5D
:103A8000E188284600F0A3F970BD00210180418043
:103A9000012181800021C180018170471AB1838991
:103AA0000B43838102E083898B438381704700004D
:103AB00070B5002400220023058C4FF6FE763540B9
:103AC0000584028C8388048B4FF68F752C40B51EBD
:103AD0002C400D882C43751E2A408D892A434D8821
:103AE0002A43104DA84202D00F4DA84213D14FF6E1
:103AF000F7752A40CD892A434FF6FB752A408D88F9
:103B00002A434FF6FF652B404FF6FF552B400D8A99
:103B10002B434D8A2B43838004838D684563028445
:103B200070BD000000000140000401400A46002171
:103B3000018B4FF6F7731940114301837047000062
:103B400070B5002400220023058C4FF6EF76354037
:103B50000584028C8388048B48F6FF752C404FF651
:103B6000FF452C400D884FF6FF7606EA05252C43CD
:103B70004FF6DF752A408D8906EA05152A434D88E0
:103B800006EA05152A43154DA84202D0144DA84255
:103B90001DD14FF67F752A40CD894FF6FF7606EA94
:103BA00005152A434FF6BF752A408D8806EA05158C
:103BB0002A434FF6FF352B404FF2FF752B400D8AFD
:103BC00006EA85052B434D8A06EA85052B4383804B
:103BD00004838D688563028470BD0000000001408D
:103BE000000401400A460021018B4FF2FF73194087
:103BF0004FF6FF7303EA0223194301837047000065
:103C000070B5002400220023058C4FF6FF66354076
:103C10000584028C8388848B4FF68F752C404FF679
:103C2000FC752C400D882C434FF6FF552A408D899A
:103C30004FF6FF7606EA05252A434D8806EA052554
:103C40002A43154DA84202D0144DA8421DD14FF26F
:103C5000FF752A40CD894FF6FF7606EA05252A43EF
:103C60004FF6FF352A408D8806EA05252A434EF691
:103C7000FF752B404DF6FF752B400D8A06EA0515A2
:103C80002B434D8A06EA05152B43838084838D6878
:103C9000C563028470BD00000000014000040140C3
:103CA0000A460021818B4FF6F77319401143818337
:103CB0007047002101804180818081608181C181C4
:103CC0000182418270472DE9F04105460C460026ED
:103CD0000127608808B9022600E00026A088012894
:103CE00001D1022700E001272088A0B92389A288FA
:103CF00061882846FFF79EFAE188284600F048F8D8
:103D000023893A4631462846FFF7B1FAE18828462A
:103D100000F047F813E02389A28861882846FFF75E
:103D2000A6FAE188284600F03CF823893A46314655
:103D30002846FFF77FFAE188284600F029F8BDE819
:103D4000F08121B1828842F08002828004E0828882
:103D50004FF67F731A40828070470A46002101891E
:103D60004FF68F73194011430181704702894FF656
:103D70007F731A40028102890A43028170470289D7
:103D80004FF6F8731A40028102890A430281704794
:103D9000028B4FF6F3731A400283028B0A430283AD
:103DA0007047028B4FF2FF331A400283028B4FF6AB
:103DB000FF7303EA01231A4302837047828B4FF695
:103DC000F3731A408283828B0A4382837047828B0B
:103DD0004FF2FF331A408283828B4FF6FF7303EA60
:103DE00001231A438283704700220288184B9842AD
:103DF0000ED0184B98420BD0B0F1804F08D0164B24
:103E0000984205D0154B984202D0154B984204D1E8
:103E10004FF68F731A404B881A43124B984207D0C3
:103E2000114B984204D04FF6FF431A400B891A43B6
:103E300002804B68C3620B880385054B984202D011
:103E4000044B984201D18B7A038601238382704709
:103E50000000014000040140000400400008004050
:103E6000000C004000100040001400404FF0FF31F3
:103E70004160002101800181418081727047000012
:103E800000B58DB001210846FEF7E0FE3E48FFF781
:103E9000CBFC0020ADF830002020ADF82A0041F224
:103EA00067000B900020ADF828008DF832000AA9B9
:103EB0003548FFF799FF05A8FFF7FBFE7020ADF826
:103EC00014000020ADF82400ADF826000220ADF863
:103ED00020000820ADF822000120ADF816000420D3
:103EE000ADF818000A20079005A92748FFF7E0FD64
:103EF00008212548FFF71AFE0A20079005A9224845
:103F0000FFF71EFE08212048FFF76CFE0A200790ED
:103F100005A91D48FFF774FE08211B48FFF7C0FEE6
:103F200001211948FFF750FC012211461648FFF7FE
:103F3000B5FD0020ADF804004FF48060ADF8060038
:103F40000020ADF80800E020ADF80A000020ADF830
:103F50000C004FF40050ADF80E004000ADF810001A
:103F600001A90948FFF720FCFDF79EFA0121064848
:103F7000FFF70EFC01210448FFF72CFC0121024849
:103F8000FFF734FC0DB000BD000001400EB501216B
:103F90000846FEF73BFE4FF08040FFF745FC6846C1
:103FA000FFF764FF0020ADF80800ADF8020041F211
:103FB000670001901320ADF8000069464FF0804083
:103FC000FFF712FF00214FF08040FFF703FC0121B3
:103FD0008807FFF7F9FB012211469007FFF75EFD06
:103FE0000EBD000000B587B001210220FEF70EFED5
:103FF0002B48FFF719FC04A8FFF738FF0020ADF8A5
:104000001200ADF818004FF6FF7005900020ADF8D3
:10401000100004A92248FFF7E7FE0A231A460321ED
:104020001F48FFF7C9FC01A8FFF72FFD0020ADF8DE
:1040300004000120ADF80C0001A91948FFF7EEFCBF
:104040000420ADF804000120ADF80C0001A91448CB
:10405000FFF7E4FC0820ADF804000020ADF80600EE
:104060000120ADF808000020ADF80C00ADF80A0002
:1040700001A90B48FFF7D2FC01210948FFF7A4FB77
:10408000012209210648FFF709FD002004492431D7
:10409000086001210248FFF79DFB07B000BD00004A
:1040A0000004004000B587B001210420FEF7AEFDFA
:1040B0000020ADF81800ADF812004FF6FF70059023
:1040C0000020ADF8100004A91A48FFF78DFE00206B
:1040D000ADF804000A20ADF806000020ADF80C0091
:1040E000ADF80A000120ADF8080001A91148FFF75A
:1040F00095FC0420ADF8040001A90E48FFF78EFCE2
:104100000820ADF8040001A90A48FFF787FC012147
:104110000848FFF716FE02210648FFF755FB01226B
:1041200002210448FFF7BAFC01210248FFF752FBC5
:1041300007B000BD0008004000B595B0012108207F
:10414000FEF764FD01214805FEF750FD3D48FCF7F0
:1041500063FE4FF0406000903B4801903B48029066
:104160000020039006200490002005904FF480600A
:10417000069080000790800008908011099040020E
:104180000A9000200B9001200C9000200D900E90C2
:1041900069462C48FCF73CFF01212A48FCF730FE19
:1041A00029483438FFF740FB12A8FFF75FFE0020D4
:1041B000ADF84A00ADF85000401E13900120ADF854
:1041C000480012A920483438FFF70EFE0FA8FFF769
:1041D0005CFC0020ADF83C00ADF83E000120ADF8DD
:1041E00040000020ADF84200ADF844000FA9164889
:1041F0003438FFF768FD502113483438FFF7ADFD20
:10420000042111483438FFF7BAFD80210E483438B4
:10421000FFF7ACFD4FF480720D210B483438FFF7E7
:10422000FDFA0122510208483438FFF7EEFA002067
:10423000054910390860012103483438FFF7CAFAEC
:1042400015B000BD40600240340C0040AC0C0020B2
:1042500000BFFEE72DED020B019820F00040019019
:104260009DED000B02B0704730B5034600214FF0C2
:10427000E024A2690020A824634300BF4FF0E0249B
:10428000A069904202DA8C18211A05E08C184FF0D0
:10429000E0256D692C44211A02469942EED330BDC7
:1042A00000B585B04FF4A060FDF74EFAFEF762FB53
:1042B000FCF71AFBFDF7DEFA0020FDF757FB0E496D
:1042C00008600020FDF752FB0C4908600720002120
:1042D0004FF480720A4BCDE90132CDE90310322050
:1042E0000346084A00900848FDF7B6FBFDF768FB57
:1042F000002005B000BD00000000002004000020E8
:10430000EC070020E80B00204508000821F00042DF
:10431000A2F16052B2F5801F01F0004328BFD2F134
:104320007E6C51D9F1EE10CA1CF4400F14D15FEA33
:10433000C00C43EAC20202EB507008BF70475FEA4C
:104340004C0C40F10000DFF880C240F03F8528BFF0
:1043500020F0010000F03ABDC30001F0004343EA41
:10436000C20202EB507008BF70471B4248BF4FEAC1
:104370004C0C1CF4000F08BF401CDFF84CC200F0CE
:1043800025BDC30001F0004343EAC20202EB5072B4
:1043900004BF104670471B4248BF4FEA4C0C1CF448
:1043A000000FDFF824C218BF104640F00F8508BF89
:1043B000521C12F4000F08BF104600F0078521F0D0
:1043C000004201F0004330E050EA410C04BF0846CF
:1043D00070475FEA125CBCF1FE0F1ED1F1EE10CA0D
:1043E0001CF4400FCDD15FEAC00C9BD05FEA001CEB
:1043F0004FEAC20C4CEB507C04BFC2002CEAD27CCA
:104400001CF4000F04BF4CEA0300DFF8BCC100F04D
:10441000DD8421F00042A2F16052B2F5801F4FEA24
:10442000410C2ADB1CF5001F16D2F1EE10CA1CF459
:10443000806F06D02CF0005C4CF0805CA1F14061F4
:104440002AE04FF07F40DFF884C143EA500000F0DB
:10445000BDBC084600F06BBE70B500F0ECF900BFC3
:10446000000000B988000004FFF7F3BF21F070429C
:1044700043EA507040EAC2007047F1EE10CA2CF0D7
:10448000805C4CF0005C1CF4006F25D04B00B3F551
:10449000001F51D301F140611CF4400F40F07E80B9
:1044A0000CF0405CC3004CF0880C11D05CF0404C28
:1044B00010F0805F0CD0034610F1005041F1000174
:1044C000020108BF20F00050834218BF2CF0004CBE
:1044D00000F0604000F027BF1CF4400F1AD01B42D0
:1044E00048BF4FEA4C0C1CF4000F13D112F140628C
:1044F00048BF22F07F424FEAC00CBCF1010F43EAF3
:10450000C20242EB50704FF0880228BF42F0804256
:1045100000F012BE12F1406248BF22F07F425FEA13
:10452000C00C43EAC20242EA50704FF0880218BF42
:1045300042F0404200F000BE01F0004321F0004193
:10454000094214D0B1FA81FCACF10B0CCCF1200281
:1045500001FA0CF120FA02F241EA02014FEA0C5290
:1045600000FA0CF0A1EB020181EA03010FE0B0FABE
:1045700080F200FA02F002F115024FEAD0214FEA70
:104580000252A1EB02014FEA405081EA0301F1EE31
:1045900010CA2CF0805C4CF0005C7BE762460CF0AB
:1045A000405CC3004CF0880C92D05CF0404C094257
:1045B00048BF520012F4000F8AD110F1005041F1AF
:1045C00000012CF0004C83D18800004088000010CE
:1045D00010B5DFF840E211F5801C13F580141EEAD7
:1045E0004C0F18BF1EEA440F00F0C88091EA030F79
:1045F00048BF83F0004300F1F281841A71EB030C91
:1046000005D2121943EB0C03001B61EB0C014FEABE
:104610001154A4EB135C23EA6E0321EA045143F422
:104620008013DCF1200E53D322FA0CFE10EB0E00A7
:1046300023FA0CFE41EB0E01CCF1200E03FA0EFE24
:1046400010EB0E0051F10001B1F5801FCCF1200EEE
:1046500053D201EB045112FA0EF2BDE8104008BF2C
:104660007047F1EE10CA1CF4400F1ED14FF0110C30
:1046700092F0000F4CF0804C40F1A883401C38BFF2
:104680005FEA420240F0A283002814BF20F001003C
:1046900041F100014FEA410313F5001F24BF4CF024
:1046A000805CA1F1C04100F091BB11F0004F54BFFC
:1046B0001CF4000F1CF4800F4FF0110C4CF0804CD8
:1046C00040F08483401CC0F0818341F10001E1E7A8
:1046D000012A43EB0302ACF1200CDCF11F0E32BFC8
:1046E0004FF0000E23FA0CF310EB030041EB0451E2
:1046F000B4EB115FAFD0A1EB045101F58011490873
:104700005FEA300002FA0EF242EA420201EB045183
:104710005FEA320213D0BDE81040F1EE10CA1CF47B
:10472000400F1AD14FF0110C92F0000F4CF0804C5A
:10473000B0D5401C38BF5FEA4202ABD1A4E7BDE868
:1047400010404FEA410313F5001F38BF7047DFF8F0
:10475000C8C0A1F1C04100F039BB11F0004F54BFF7
:104760001CF4000F1CF4800F4FF0110C4CF0804C27
:1047700090D1401C8ED341F100018BE74EF4001E16
:104780003EEA410418BF3EEA430439D091EA030FE0
:1047900048BF83F0004300F11D82841A71EB030CC3
:1047A00005D2121943EB0C03001B61EB0C0152EA1A
:1047B000430E4FEA1154A4EB135C13D05FEA445E3E
:1047C00021EA04511CBF23F00043ACF1010C7FF43B
:1047D00028AFBDE810404FF0110C801841EB0301E9
:1047E00000F0DFB95FEA445EBDE8104018BF7047D3
:1047F00050EA410C08BF70474FF0110C00F0D1B9DE
:10480000BDE8104070B500F016F800BF64FBBE3E76
:10481000110000040000C0FF11000010B1FA81F285
:1048200001FA02F1C2F11D024FEA415003EB0253BB
:1048300003EBD12170470EF1020E2EF0030E01287A
:104840005EF8086B41EB010414F5001418BFB4F5D1
:10485000801F23D3364208D4012A43EB030515F504
:10486000001518BFB5F5801F18D301EB010C1CF51E
:10487000801F16D2364204D403EB030C1CF5801FB4
:104880000FD2002C10D14FEAD17C002D0CEB4C0C38
:104890000CF1020C08BF4CEBD37C07E04FF0090C85
:1048A00004E04FF0080C01E04FEAD37C0CEB4C0520
:1048B00026FA05F606F00706B6F1040C06D20EEB52
:1048C000860CBDE870404CF0010C6047DFE80CF04E
:1048D000222413025EF804CC1B2D08D1002C88BFC3
:1048E000B4F5801F34BF4CF4804C4CF4004CBDE850
:1048F000704000F06BBA002C88BFB4F5001F24BFD5
:104900001946104670BD4FF000004FF00041A1F570
:10491000002170BD19461046012851EB010418BF53
:10492000D4F5001484BF5EF804CC2CF0806CBDE894
:10493000704000F22A82704780B54FF003065C0099
:104940004FEA03334FEA3606640D4FEA133318BFBC
:1049500043F480131CD153EA125E04F1010402BF38
:1049600013460022203C1B4202BF130B1205143CCD
:10497000B3FA83FEAEF10B0ECEF1200C03FA0EF368
:1049800022FA0CFC02FA0EF2A4EB0E0443EA0C032A
:104990000FB416F0010F0CBC03BC18BF2546CED1D6
:1049A00080BD80B50126F3E70808A0F500114FEAA5
:1049B0003101704710B5DFF894E211F5801C13F552
:1049C00080141EEA4C0F18BF1EEA440F00F0F3805B
:1049D00091EA030F48BF83F000433FF50EAE841AFF
:1049E00071EB030C07D212198CF0004C43EB0C0353
:1049F000001B61EB0C0152424FEA1154A4EB135C13
:104A000023EAAE0321EA0451C3EBAE0338BF5B1EB9
:104A1000DCF1200E48D322FA0CFE10EB0E0043FA14
:104A20000CFE41EB0E01CCF1200E03FA0EFE10EB52
:104A30000E0051F10001CCF1200E4CD412FA0EF20E
:104A400001EB0451BDE8104008BF7047F1EE10CAF9
:104A50001CF4400F14D14FF0120C92F0000F4CF0E8
:104A6000804C40F1B381401C18BFB2F1004F40F0C0
:104A7000AD8100280CBF491C20F0010000F0A6B950
:104A800011F0004F54BF1CF4000F1CF4800F4FF0C6
:104A9000120C4CF0804C40F09981401C40F0968103
:104AA00041F1000100F092B912EB020E43EB030258
:104AB00018BF4FF0010E4EEA4202ACF1200CDCF1BF
:104AC0001E0E4BD943FA0CFE10EB0E0051F1FF31D4
:104AD000CCF11E0EB2D50EF1010E12FA0EFE4041BF
:104AE00041EB010101EB445C5FEA5C5C06D95FEAE3
:104AF0000E0201EB0451BDE81040A5E73BD24FEA9E
:104B0000D42C11F5001124F400641AD0B1FA81F20A
:104B10000B3AA41AA41ED2F12003914030FA03F3F9
:104B20001943904001EBCC71002C01EB0451BDE81E
:104B30001040A8BF704701F1C0414FF0120C00F0C7
:104B400087B8B0FA80F310FA03F101D1BDE8104044
:104B500019D0E41A173C4805C90AE3E701EB0451F0
:104B6000BDE81040401E61F100015FF0FF326BE7CD
:104B700001EB045110BD491001EB0451BDE8104098
:104B80004FEA30000BE0F1EE10CA4FF000010CF4D8
:104B9000400CBCF5000F08BF4FF0004170474FF0CC
:104BA000120C4A0008BF0042EDD0B2F5001F28BF2A
:104BB000704700F0EAB84EF4001E3EEA410418BF08
:104BC0003EEA430434D091EA030F48BF83F0004328
:104BD0003FF5E3AD841A71EB030C07D212198CF088
:104BE000004C43EB0C03001B61EB0C0152EA033E4B
:104BF0004FEA1154A4EB135C14D05FEA445E21EA3F
:104C0000045109D023F000435242ACF1010CC3F12E
:104C1000000338BF5B1EFBE6BDE81040801A61EB65
:104C20000301BCE7BDE8104050EA410CB7D1AAE748
:104C3000BDE8104070B5FFF7FEFD00BF40DFF63E57
:104C40001100000483F00041104670470000C0FFCF
:104C5000F1EE103A13F0807F1EBF01F000410020FA
:104C6000704713F4006F40F0AA80094248BF4CF42B
:104C7000803C4FF4C0634FEA115203F1010321EA73
:104C8000025122F400629A1A48BF6FF0FE0241F40A
:104C90008011352A3CD830D0152A1ED3203A0CD9A1
:104CA0000028C2F1200321FA02F001FA03F218BF32
:104CB00042F001024FF0000130E0C2F1000302F1C6
:104CC000200201FA03F120FA02F241EA020100FA9D
:104CD00003F208464FF0000120E0C2F1200310B4B7
:104CE00000FA03F401FA03F320FA02F021FA02F1C8
:104CF000224610BC43EA000010E050EA01324FF0B7
:104D000000004FF000014FF0004218BF521C05E0B8
:104D10004FF001024FF000014FF000001CF4803F03
:104D20002CF4803C18BF41F0004112421ED0F1EE3D
:104D3000103A13F4400F20D1520003D30CD0401C82
:104D400041F10001F1EE103A4CF0804C43F00803C1
:104D5000E1EE103A00F03AB85FEAAC72EFD4F1D16C
:104D6000401C41F1000120F00100EBE71CF0804FF6
:104D700008BF70472CF0004CE4E7094254BF13F41D
:104D8000000F13F4800FDDD1D9E7F1EE103A13F0E4
:104D9000807F1EBF01F000410020704713F4006FB8
:104DA00008BF70472DE9F050FFF7FBFD04F5C06424
:104DB000A4F10104314301EB0451BDE8F0504CF083
:104DC000005C4CF0800C00F0AEBA00001CF0700FDC
:104DD00008BF0A460FB4F1EE101A0CF0405030EA4A
:104DE000814318BF4CF0804C4FEA4C0310EA814FCE
:104DF0004FEAD36323EA112318BF23F0100341EADB
:104E0000030101F0E073E1EE101A4CEA030C0CF020
:104E10000F030A2B1DBF082B0CF070034CEAC30CC8
:104E20004FF4003304BF33EA0C034CF4400C1CF085
:104E3000005F14D11CF0805F0BD11CF0804F31D18A
:104E40001CF0006F12D111F4807F0FBC62D000F013
:104E50006ABA11F4806F0FBC2BD000F064BA11F461
:104E6000006F0FBC08BF704700F05DBA11F4007FFF
:104E70000FBC40F058821CF0400F1EBF4FF00040A6
:104E800040F0010070471CF0100F14BF81EA0302CC
:104E900042400CF00F000A2808BF4FF0FF324FF0DD
:104EA000000326E011F4805F0FBC08BF704700F0DC
:104EB0003ABAF1EE103A2CF0805C1CF0800F14BF6F
:104EC00001F0004200F0004212420CBF12EA336FC0
:104ED00012EAF35F0DD31CF0100F1DBF30A003C802
:104EE0001143314808BF104313F4805F40F01B8228
:104EF00070471CF0100F02F000421DBF0FF294002B
:104F000003C81143254808BF104313F4805F40F0E5
:104F10000A8270471CF0400F40F028801CF4404F7C
:104F20001BD01CF4004F1CBF194610460CF48072B5
:104F300018BF8CEA520C1CF0800F0CBF40F48000AC
:104F400041F400218CEADC0313F0100F1CBF2CF09D
:104F50000F0C4CF0080C00F08DB91CF0100F1ABFAC
:104F600012A393E80300134800F084B91CF0800FEB
:104F700014BF01F0004200F000421CF0100F1BBFF4
:104F80000AA393E803000B48114308BF104300F045
:104F900071B900BF000000000000F07F0000807FBA
:104FA000FFFFFFFFFFFFEF7FFFFF7F7F000000009D
:104FB0000000F87F0000C07F43004FEAD30C4FEAA7
:104FC0003C0C43401FBF40070CF1605113F0FE4FF3
:104FD00070471CF0006F14D133F0004004BF194635
:104FE000704783EA830383EA430303F0070343EA3A
:104FF000CC010CF0004303F15A5303F54013FFF7C3
:105000000DBC0CF0004343EA507010B540EACC00F0
:1050100000F00FF8000000BA180000044FEA000189
:10502000FFF7C2BC4FEAE0024FEA407042F0E041B5
:1050300070470EF1020E2EF0030E4FEA40025EF8AA
:10504000084B12F1807218BFB2F5000F22D3244230
:1050500007D44FEA410313F1807318BFB3F5000F73
:1050600018D34FEA400C1CF5000F16D2244204D48A
:105070004FEA410C1CF5000F0FD2002A10D14FEA65
:10508000D07C002B0CEB4C0C0CF1020C08BF4CEB51
:10509000D17C07E04FF0090C04E04FF0080C01E070
:1050A0004FEAD17C0CEB4C0324FA03F404F0070420
:1050B000B4F1040C06D20EEB840CBDE810404CF0A9
:1050C000010C6047DFE80CF01F2013025EF804CCEF
:1050D0001B2B08D1002A88BFB2F5000F34BF4CF457
:1050E000804C4CF4004CBDE81040FFF76FBE002A26
:1050F00088BFB2F1807F28BF084610BD4FF0004046
:10510000A0F5800010BD0846420018BFD2F18072A1
:1051100084BF5EF8042C22F08062BDE8104000F2EB
:105120008A8070474FF00000E1EE100A7047FF21BF
:1051300041EAD050C0057047F1EE101A11F0807F9F
:105140001CBF00F00040704711F4006F40F08E80EB
:1051500000F0004343EAD05323F48073C3F1C1034A
:1051600023F00041172941D8C3F1200310FA03F1BD
:10517000C3F1200320F07F4040F4000020FA03F048
:1051800003F0004340EA030019D00B46F1EE101A79
:1051900041F00801E1EE101A11F4400F1CD1590042
:1051A00009D318BF401C06D17FEAE27398BF401CA8
:1051B00038BF20F0010042F0804CFFF707BE12F02C
:1051C000804F08BF7047F1EE101A944641F0080175
:1051D000E1EE101AFFF7FABD10F0004F14BF5FEABE
:1051E000F1535FEA316338BF401CE4E7182903EB51
:1051F000912318BF6FF000410131F1EE101A41F018
:105200000801E1EE101A11F4400F18BF03F000403E
:10521000E2D168BF03F0004009D6400203F000402D
:1052200000F1010004BF12F0004F20F001004FF028
:10523000804CFFF7CBBDF1EE101A11F0807F1CBF40
:1052400000F00040704711F4006F08BF704700F095
:10525000004120F00040B0FA80F3A3F1080341F0D0
:10526000C04100FA03F0A1EBC351084442F0005CD6
:1052700000F059B80CF00F03092B08BF082000F00C
:1052800064800A2B32D0082B18BF704708BF1CF06F
:10529000400F31D01CF4803F23D11CF0200F11D1DE
:1052A0001CF0100F0BBF02460A466FF000406FF073
:1052B000004118BF4FF0FF3012F0004F1CBFC04339
:1052C000C94370471CF0100F0CBF02460A4612F08B
:1052D000004F4FF0FF304FF0FF311CBFC043C943B8
:1052E00070474FF000004FF0000170471CF0400F76
:1052F00018BF4FF0004070471CF0100F08D020F08E
:10530000704300F07F4242EAD3014FEA4370704796
:1053100000F0604021F07F4242EA000201F07F404D
:1053200040EA727070472DE900502DE90050FBF7FC
:1053300061F8BDE80050BDE800500CF00F0393F099
:10534000090F18BF7047AFF300801CF4801F24D0F2
:105350001CF4E02F09D010F0080F02D1D0F10200A8
:1053600070476FEACC31490070474FF0604111EA55
:10537000407028BF40F04050F1EE103A23F07043E7
:1053800043EA0003E1EE103AEFF3008222F07042AC
:1053900042EA000282F3008870471CEA004018BF0E
:1053A00001207047010000007856341201001400FB
:1053B00001003000C00301000100100014000200D1
:1053C00005000100FD0001000100050001001800BA
:1053D0007800010004000100040018001000010022
:1053E000040001000100010080000100160001001E
:1053F00001008000010001000100FE005C0064006B
:1054000001001B7200001000010007000A000000EC
:10541000000000000000271500000100020001004C
:10542000030001000200010004000100020001006D
:10543000030001000200010005000100020001005C
:10544000030001000200010004000100020001004D
:10545000030001000200010006000100020001003B
:10546000030001000200010004000100020001002D
:10547000030001000200010005000100020001001C
:10548000030001000200010004000100020001000D
:1054900003000100020001000700010002000100FA
:1054A00003000100020001000400010002000100ED
:1054B00003000100020001000500010002000100DC
:1054C00003000100020001000400010002000100CD
:1054D00003000100020001000600010002000100BB
:1054E00003000100020001000400010002000100AD
:1054F000030001000200010005000100020001009C
:10550000030001000200010004000100020001008C
:10551000030001000200010000000000920E493C5F
:10552000B10AC93C2BC3163D2EFB483D752B7B3D74
:1055300004A9963D80B6AF3D36BDC83D2FBCE13DC8
:1055400073B2FA3D87CF093E8340163EB5AB223E8B
:10555000A2102F3ECF6E3B3EC2C5473E0115543EC2
:10556000135C603E7F9A6C3ECCCF783EC07D823E1D
:10557000938E883E229A8E3E32A0943E86A09A3E1A
:10558000E59AA03E128FA63ED47CAC3EEF63B23EBD
:105590002A44B83E491DBE3E15EFC33E53B9C93E2D
:1055A000CA7BCF3E4136D53E80E8DA3E4F92E03EA0
:1055B0007533E63EBBCBEB3EEA5AF13ECBE0F63E1E
:1055C000275DFC3EE4E7003F3D9C033F824B063FE6
:1055D0009BF5083F6B9A0B3FDA390E3FCDD3103F56
:1055E0002A68133FD9F6153FC07F183FC6021B3FFC
:1055F000D17F1D3FCBF61F3F9967223F25D2243F25
:105600005636273F1594293F4AEB2B3FDE3B2E3F72
:10561000BB85303FC9C8323FF304353F233A373F9B
:105620004268393F3B8F3B3FF9AE3D3F67C73F3F45
:1056300070D8413F01E2433F03E4453F65DE473F09
:1056400012D1493FF8BB4B3F029F4D3F207A4F3F5D
:105650003D4D513F4918533F31DB543FE595563F8F
:105660005348583F6AF2593F1A945B3F532D5D3FB0
:1056700005BE5E3F2146603F97C5613F5A3C633F90
:1056800059AA643F880F663FD86B673F3CBF683FAD
:10569000A7096A3F0C4B6B3F5E836C3F93B26D3F33
:1056A0009ED86E3F73F56F3F0809713F5213723FEA
:1056B0004714733FDD0B743F0BFA743FC6DE753F32
:1056C00007BA763FC58B773FF853783F9812793FFA
:1056D0009DC7793F02737A3FBE147B3FCDAC7B3FC1
:1056E000283B7C3FC9BF7C3FAC3A7D3FCCAB7D3F84
:1056F00023137E3FB0707E3F6DC47E3F580E7F3FC8
:105700006D4E7F3FAB847F3F0FB17F3F97D37F3F8D
:1057100043EC7F3F11FB7F3F0000803F11FB7F3F49
:1057200043EC7F3F97D37F3F0FB17F3FAB847F3FF9
:105730006D4E7F3F580E7F3F6DC47E3FB0707E3F01
:1057400023137E3FCCAB7D3FAC3A7D3FC9BF7C3F4E
:10575000283B7C3FCDAC7B3FBE147B3F02737A3F3E
:105760009DC7793F9812793FF853783FC58B773FB3
:1057700007BA763FC6DE753F0BFA743FDD0B743F08
:105780004714733F5213723F0809713F73F56F3F1F
:105790009ED86E3F93B26D3F5E836C3F0C4B6B3F68
:1057A000A7096A3F3CBF683FD86B673F880F663FD9
:1057B00059AA643F5A3C633F97C5613F2146603F09
:1057C00005BE5E3F532D5D3F1A945B3F6AF2593F21
:1057D0005348583FE595563F31DB543F4918533FF6
:1057E0003D4D513F207A4F3F029F4D3FF8BB4B3F0D
:1057F00012D1493F65DE473F03E4453F01E2433FA5
:1058000070D8413F67C73F3FF9AE3D3F3B8F3B3FBD
:105810004268393F233A373FF304353FC9C8323F26
:10582000BB85303FDE3B2E3F4AEB2B3F1594293F93
:105830005636273F25D2243F9967223FCBF61F3F9C
:10584000D17F1D3FC6021B3FC07F183FD9F6153FD1
:105850002A68133FCDD3103FDA390E3F6B9A0B3FC6
:105860009BF5083F824B063F3D9C033FE4E7003F2A
:10587000275DFC3ECBE0F63EEA5AF13EBBCBEB3E69
:105880007533E63E4F92E03E80E8DA3E4136D53E43
:10589000CA7BCF3E53B9C93E15EFC33E491DBE3E3C
:1058A0002A44B83EEF63B23ED47CAC3E128FA63E93
:1058B000E59AA03E86A09A3E32A0943E229A8E3E61
:1058C000938E883EC07D823ECCCF783E7F9A6C3EE0
:1058D000135C603E0115543EC2C5473ECF6E3B3E51
:1058E000A2102F3EB5AB223E8340163E87CF093E25
:1058F00073B2FA3D2FBCE13D36BDC83D80B6AF3D29
:1059000004A9963D752B7B3D2EFB483D2BC3163DD0
:10591000B10AC93C920E493C00000000920E49BCFD
:10592000B10AC9BC2BC316BD2EFB48BD752B7BBD70
:1059300004A996BD80B6AFBD36BDC8BD2FBCE1BDC4
:1059400073B2FABD87CF09BE834016BEB5AB22BE87
:10595000A2102FBECF6E3BBEC2C547BE011554BEBE
:10596000135C60BE7F9A6CBECCCF78BEC07D82BE19
:10597000938E88BE229A8EBE32A094BE86A09ABE16
:10598000E59AA0BE128FA6BED47CACBEEF63B2BEB9
:105990002A44B8BE491DBEBE15EFC3BE53B9C9BE29
:1059A000CA7BCFBE4136D5BE80E8DABE4F92E0BE9C
:1059B0007533E6BEBBCBEBBEEA5AF1BECBE0F6BE1A
:1059C000275DFCBEE4E700BF3D9C03BF824B06BFE2
:1059D0009BF508BF6B9A0BBFDA390EBFCDD310BF52
:1059E0002A6813BFD9F615BFC07F18BFC6021BBFF8
:1059F000D17F1DBFCBF61FBF996722BF25D224BF21
:105A0000563627BF159429BF4AEB2BBFDE3B2EBF6E
:105A1000BB8530BFC9C832BFF30435BF233A37BF97
:105A2000426839BF3B8F3BBFF9AE3DBF67C73FBF41
:105A300070D841BF01E243BF03E445BF65DE47BF05
:105A400012D149BFF8BB4BBF029F4DBF207A4FBF59
:105A50003D4D51BF491853BF31DB54BFE59556BF8B
:105A6000534858BF6AF259BF1A945BBF532D5DBFAC
:105A700005BE5EBF214660BF97C561BF5A3C63BF8C
:105A800059AA64BF880F66BFD86B67BF3CBF68BFA9
:105A9000A7096ABF0C4B6BBF5E836CBF93B26DBF2F
:105AA0009ED86EBF73F56FBF080971BF521372BFE6
:105AB000471473BFDD0B74BF0BFA74BFC6DE75BF2E
:105AC00007BA76BFC58B77BFF85378BF981279BFF6
:105AD0009DC779BF02737ABFBE147BBFCDAC7BBFBD
