:020000040800F2
:10000000302B0020290200082D2000087D1E00084A
:10001000E11F0008F9090008594C00080000000021
:10002000000000000000000000000000C1380008CF
:10003000011A00080000000007030008352C000822
:1000400063020008630200086302000863020008FC
:1000500063020008630200086302000863020008EC
:1000600063020008630200086302000863020008DC
:1000700063020008630200086302000863020008CC
:10008000630200086302000863020008450B0008D1
:10009000FD0900086302000863020008630200080B
:1000A00063020008853F000863020008630200083D
:1000B0002540000851410008714100086302000812
:1000C000630200086302000863020008630200087C
:1000D000630200086302000863020008630200086C
:1000E000630200086302000863020008630200085C
:1000F000630200086302000863020008630200084C
:1001000063020008630200089141000863020008CE
:10011000630200086302000863020008630200082B
:100120001D1700086302000863020008630200084C
:10013000630200086302000863020008630200080B
:1001400063020008630200086302000863020008FB
:1001500063020008630200086302000863020008EB
:1001600063020008630200086302000863020008DB
:1001700063020008630200086302000863020008CB
:10018000630200086302000800F002F800F03CF887
:100190000AA090E8000C82448344AAF10107DA45E2
:1001A00001D100F031F8AFF2090EBAE80F0013F0F8
:1001B000010F18BFFB1A43F00103184780600000CD
:1001C000A0600000103A24BF78C878C1FAD852075E
:1001D00024BF30C830C144BF04680C6070470000C1
:1001E0000023002400250026103A28BF78C1FBD840
:1001F000520728BF30C148BF0B6070471FB505F0DC
:1002000021FA1FBD10B510BD00F05EF91146FFF7D1
:10021000F5FF04F049FD00F07CF903B4FFF7F2FFAD
:1002200003BC00F0E3F9000011488047DFF8440008
:10023000016841F470010160BFF34F8FDFF83800AF
:10024000016821F040410160BFF36F8F0B48004708
:10025000FEE7FEE7FEE7FEE7FEE7FEE7FEE7FEE776
:10026000FEE7FEE706480749074A084B70470000CB
:10027000F53B000888ED00E034EF00E0890100085C
:1002800030250020302B0020302700203027002090
:10029000EFF3098141B1F1EE101A40F8041D20ED91
:1002A000200A2C490A6810607047B0EC200A02C886
:1002B000E1EE101A28490A6810607047EFF31080C9
:1002C00072B6704780F31088704724484FF0FF01E2
:1002D0000170002080F309882148016881F30888B3
:1002E00020480121017020484FF08051016062B622
:1002F000FEE71D484FF08051016070471A484FF0EB
:1003000080510160704772B6EFF3098040B1403808
:1003100080EC108A203880E8F00F0E4909680860E8
:1003200000B5124880475DF804EB114811490A787E
:100330000270084808490A680260106890E8F00FE7
:10034000203090EC108A403080F309884EF0F40E93
:1003500062B67047C8000020D000002022ED00E007
:100360009C000020C000002004ED00E0612A00088D
:10037000BB000020BC00002093081BD090ED000AB9
:10038000D0ED011AD0ED020A90ED031AB0EEC00ACA
:1003900081ED000AF0EEE11AB0EEE00AC1ED011ABB
:1003A000F0EEC10A81ED020AC1ED030A10301031EE
:1003B0005B1EE3D112F0030208BF7047B2F1004F99
:1003C00023D2002AD8BF7047001F091F12F0010F67
:1003D00007D090ED010A001DB0EEC00A81ED010AC0
:1003E000091D520808BF704790ED010AB0EEC00A1F
:1003F00081ED010A90ED020A0830B0EEC00A81EDED
:10040000020A0831521EEFD17047B0EC010A521EA9
:10041000B0EEC00AA1EC010AF7D17047DFED190A6E
:10042000B5EEC00A60EE200ABDEEE01A11EE100A29
:10043000F1EE10FA38BF401E00EE100A1349F7EE35
:10044000001AB8EEC00A30EEC00ADFED0F0A60EE07
:10045000200ABCEEE00A10EE100AC0F3080000EE1D
:10046000100A01EB8000B8EE400A90ED011A70EE20
:10047000C00A90ED000A71EEE01A21EE800A00EE4B
:10048000810A704783F9223E00000044385A000870
:1004900070477047704700001FB584B000200A9C69
:1004A00006AB04AA02A90094AFF3008018B1DDE9FD
:1004B000020108B010BD0348204000F030F80020D1
:1004C0000146F6E70000207C754600F02FF8AE46A6
:1004D00005006946534620F00700854618B020B550
:1004E000FFF7C0FEBDE820404FF000064FF00007C8
:1004F0004FF000084FF0000B21F00701AC46ACE8CC
:10050000C009ACE8C009ACE8C009ACE8C0098D4638
:1005100070470446AFF300802046FFF77EFE10B51B
:1005200000F00EF8BDE8104000F004B80048704735
:10053000CC240020002801D000F058B870470000FB
:1005400010B5022803D0410103D50DA112E000200F
:1005500010BD010101D50FA10CE0C10001D511A111
:1005600008E0810001D512A104E0400001D513A1EB
:1005700000E0002115A000F03FF8012010BD0000B0
:10058000496E76616C6964204F7065726174696F41
:100590006E000000446976696465204279205A65DE
:1005A000726F00004F766572666C6F770000000016
:1005B000556E646572666C6F77000000496E6578F1
:1005C00061637420526573756C740000534947462B
:1005D00050453A2041726974686D6574696320659D
:1005E0007863657074696F6E3A20000001491820C5
:1005F000ABBEFEE72600020070B505460C460A2099
:1006000000E06D1C00F011F835B128780028F8D111
:1006100002E0641C00F009F814B120780028F8D139
:10062000BDE870400A20AFF3008008B569468DF838
:1006300000000320ABBE08BD704721B1826842F0C4
:100640000102826003E0826822F00102826070474A
:100650000021084A1168084A1140D0E900231A43D2
:1006600083681A43C3681A431143044AC2F8041347
:100670007047000004230140E030FCFF00200140EF
:1006800021B1826842F48072826003E0826822F4C1
:1006900080728260704721B1826842F40072826089
:1006A00003E0826822F400728260704700B599B05E
:1006B0000121080202F0F4FF00F07EF80020119002
:1006C0000F904FF4803010904FF4407012900FA8AC
:1006D000FFF7BEFF0020139001208DF8500000208E
:1006E0008DF851001590179003208DF8600013A924
:1006F0002E4800F06DF801231A4605212B4800F022
:1007000091F8012302220621284800F08BF80123EA
:1007100003220721254800F085F80121880502F011
:100720008FFF234801F044F8002000901F484C3010
:1007300001902048029000200390032004900020A4
:1007400005904FF48060069040000790800008906C
:100750004011099040020A9000200B9001200C905B
:1007600000200D900E906946114801F01DF90121FD
:100770000F4801F011F810210D4800F0F3FF01229D
:1007800010210B4801F0F2F801210848FFF783FF20
:1007900001210648FFF774FF01210448FFF74DFFD0
:1007A000024800F09BF819B000BD00000020014095
:1007B00010640240240C002010B50121080202F050
:1007C0007FFF00214FF4807002F07AFF10BD00001F
:1007D00030B50246002000235068104C20400D79AF
:1007E0000C6844EA05242043506090680C4C20407B
:1007F000D1E903542C438D682C434D7944EA4504D8
:1008000020439060D06A20F470000C7D641EE4B236
:10081000234340EA0350D06230BD0000FFFEFFFCDE
:10082000FDF7FFC0F0B504460D4600200021092D5C
:1008300011DDE068A5F10A0606EB4607072606FA71
:1008400007F18843A5F10A0606EB460603FA06F10E
:100850000843E0600CE0206905EB4507072606FA2F
:1008600007F1884305EB450603FA06F108432061CA
:10087000072A0FDA606B561E06EB86071F2606FA5C
:1008800007F18843561E06EB860605FA06F1084373
:10089000606322E00D2A0FDA206BD61F06EB860775
:1008A0001F2606FA07F18843D61F06EB860605FACF
:1008B00006F10843206310E0E06AA2F10D0606EBA2
:1008C00086071F2606FA07F18843A2F10D0606EBFC
:1008D000860605FA06F10843E062F0BD816841F042
:1008E000804181607047000010B586B004461E4804
:1008F00002F0B4F94FF4FA7004F0BAF901F0AEFD69
:10090000032000214FF48072184BCDE90132CDE96C
:10091000031006200346164A0090164801F0C6FD53
:10092000032000214022144BCDE90132CDE9031010
:1009300031200346104AFC320090104801F0B6FD09
:100940000320002180220E4BCDE90132CDE90310B6
:10095000072003460B4A00900B4801F0A7FDFF203B
:1009600001F002FE06B010BD80A21900EC000020CC
:10097000E8040020993B0008EC060020991F0008BD
:10098000EC040020E8060020E136000810B501F074
:100990004FFB01F061F803F081FF04F005F804F06B
:1009A0002FF804F083F804F0CBF8FFF77FFE00F097
:1009B0005BFE00F065F902200249087000204870D3
:1009C00010BD00000800002030B90A49096841F450
:1009D0000051084A11600AE0012807D10549096859
:1009E0004DF6FF721140034A116000E0704700BFEE
:1009F000FCE700001408024000BFFEE710B501F05C
:100A000085FC0221304800F029FA01284ED102214C
:100A10002D4800F0E1F82D4A00212B4800F041FB61
:100A20002A481838008B00F47860B0F5B06F29D1EF
:100A30002648183890F8230043280BD1234818384B
:100A400090F82400FF2805D12048183890F8250098
:100A500060282BD01D48183890F8230043280BD16C
:100A60001A48183890F82400402805D1174818383B
:100A700090F82500222819D001201449183981F84E
:100A80002C0013E0114818388069B0F5E06F0CD0E5
:100A90000E4818388069B0F5E06F06D00B4818385A
:100AA0008069B0F5E06F00D000BF00BF04210648A8
:100AB00000F0D4F9012803D10421034800F08CF898
:100AC00001F036FC10BD000000640040CC0D002099
:100AD0002DE9F04104460F4690461E46276000204F
:100AE0006072207212206060A67201F00FFC002577
:100AF00006E018F8051004F10B004155681CC5B25A
:100B0000B542F6DB01F014FC21460C4800F051FB25
:100B10000B4908750846007D042802D10020BDE875
:100B2000F08101210648027D1530815401221146D1
:100B3000024800F023FA0120F1E7000000640040C1
:100B4000B40D002010B501F0E1FB2148407D88B1D3
:100B50002048006800F0010008B301201D4908602A
:100B6000002201211B48083800F008FA002018492B
:100B700048752AE01648807D90B11648006800F458
:100B8000807060B14FF4807012490860002201212A
:100B90001048083800F0F2F900210D48817514E082
:100BA0000B48C07D88B10B48006800F4803060B10C
:100BB0004FF48030074908600022012105480838B9
:100BC00000F0DCF900210248C17501F0B1FB10BD55
:100BD000B40D002008640040B1F5007F3AD00FDC6E
:100BE000202928D006DC01291CD004291DD0082981
:100BF00040D11DE0402921D0B1F5807F3AD126E0D7
:100C0000B1F5004F31D006DCB1F5806F25D0B1F5DC
:100C1000006F2FD124E0B1F5803F12D0B1F5003F35
:100C200028D111E0154A826025E00822C26022E046
:100C30001022C2601FE0082202611CE01022026143
:100C400019E00822426016E01022426013E00422FC
:100C5000426010E0042242600DE0042242600AE09B
:100C6000002282610422426005E0002282610422A7
:100C7000426000E000BF00BF7047000001010100BA
:100C800000B587B00121480602F0EAFC224800F0D6
:100C900045F804A800F07DFA00208DF817008DF8C3
:100CA00018008DF8160001208DF8190000208DF82D
:100CB0001A008DF81B008DF812008DF81300052026
:100CC0008DF8140006208DF81500ADF8100004A969
:100CD000114800F05CF900208DF80A008DF80B0037
:100CE00001208DF80C000020ADF80000ADF80200E6
:100CF000ADF80400ADF80600ADF8080001208DF84D
:100D00000D00684600F026F801220721024800F095
:100D100035F907B000BD00000064004010B504467E
:100D20000B48844209D10121480602F0A9FC0021A8
:100D30004FF0007002F0A4FC08E00121880602F0E8
:100D40009FFC00214FF0806002F09AFC10BD000073
:100D50000064004010B50021837A012202FA03F1F9
:100D60003D4A126842F001023B4B1A603A4A1C327B
:100D700012688A43384B1C331A60027BCAB9364A60
:100D80000C3212688A43344B0C331A604288C38891
:100D900042EA0343304A4032847A42F834300288CF
:100DA000838842EA03432C4A4032847A02EBC4022D
:100DB0005360027B012A19D1274A0C3212680A4378
:100DC000254B0C331A604288038842EA0343224AC7
:100DD0004032847A42F83430C288838842EA03433E
:100DE0001D4A4032847A02EBC4025360C27A3AB997
:100DF000194A121D12688A43174B1B1D1A6006E020
:100E0000154A121D12680A43134B1B1D1A600289F2
:100E100032B9114A143212688A430F4B14331A60E4
:100E20000289012A06D10C4A143212680A430A4B7D
:100E300014331A60427B012A06D1074A1C32126819
:100E40000A43054B1C331A60034A126822F0010260
:100E5000014B1A6010BD00000066004070B50446EA
:100E60000D46002660692840002871D0B5F5807FC6
:100E70005CD010DC082D35D006DC012D20D0022DF1
:100E800024D0042D72D127E0102D31D0202D35D063
:100E9000402D6BD138E0B5F5004F60D009DCB5F5D9
:100EA000007F49D0B5F5806F4CD0B5F5006F5DD1AE
:100EB0004FE0B5F5803F2DD0B5F5003F56D12FE07E
:100EC000A0682D4900F0C8FA064651E0E068032109
:100ED00000F0C2FA06464BE0E068082100F0BCFAD8
:100EE000064645E0E068102100F0B6FA06463FE00D
:100EF0002069032100F0B0FA064639E02069082194
:100F000000F0AAFA064633E02069102100F0A4FAA6
:100F100006462DE06068082100F09EFA064627E0AC
:100F20006068102100F098FA064621E0A0690121CE
:100F300000F092FA06461BE0A069022100F08CFA4C
:100F4000064615E0A069042100F086FA06460FE087
:100F50000FE0A069702100F07FFA064608E06068A3
:100F6000042100F079FA064602E0FFE7002600BF00
:100F700000E00026304670BD010101001AB143694E
:100F80000B43436102E043698B434361704730B5D3
:100F9000024600200023146824F002041460146840
:100FA00044F00104146000E05B1C546804F0010488
:100FB0001CB94FF6FF74A342F6D1546804F0010443
:100FC0000CB900206CE08C79012C04D1146844F039
:100FD0008004146003E0146824F080041460CC7969
:100FE000012C04D1146844F04004146003E0146838
:100FF00024F0400414600C7A012C04D1146844F0ED
:101000002004146003E0146824F0200414604C7A77
:10101000012C04D1146844F01004146003E0146837
:1010200024F0100414608C7A012C04D1146844F06C
:101030000804146003E0146824F008041460CC7AF7
:10104000012C04D1146844F00404146003E0146813
:1010500024F0040414608C78A407CD7844EA056475
:101060000D7944EA05444D7944EA05540D886D1E16
:101070002C43D461146824F001041460002300E0C0
:101080005B1C546804F001041CB14FF6FF74A342CA
:10109000F6D1546804F001040CB1002000E00120F6
:1010A00030BD10B500F5D87303EB01131B6803F0D6
:1010B00004031372137A53B900F5D87303EB0113C9
:1010C0001B6840F2FF7404EA5353136009E000F513
:1010D000D87303EB01131B686FF0604404EAD30379
:1010E000536000F5D87303EB01131B6803F0020390
:1010F000537200F5D87303EB01135B6803F00F0321
:10110000937200F5D87303EB01135B681B0AD37469
:1011100000F5D87303EB01139B68D37200F5D87305
:1011200003EB01139B681C0A147300F5D87303EBDF
:1011300001139B681C0C547300F5D87303EB011367
:101140009B681B0E937300F5D87303EB0113DB68E8
:10115000D37300F5D87303EB0113DB681C0A147416
:1011600000F5D87303EB0113DB681C0C547400F515
:10117000D87303EB0113DB681B0E937421B9C368AA
:1011800043F02003C36003E0036943F020030361DD
:1011900010BD00218171C171017241728172C172F1
:1011A0008170C1700321017102214171012101800F
:1011B000704710B502460020936803F08063B3F1D6
:1011C000806F00D110E0936803F00063B3F1006F0B
:1011D00001D1012008E0936803F08053B3F1805FF0
:1011E00001D1022000E00420042874D002F5C0736D
:1011F00003EB00131B6803F0010402F5C07303EB5B
:1012000000131C600B7A7BB94B7A0C8843EA445379
:1012100002F5C07404EB00142468234302F5C07483
:1012200004EB0014236010E00B7A4C6843EAC4031B
:101230004C7A234302F5C07404EB00142468234362
:1012400002F5C07404EB001423608B7A03F00F03E3
:101250008B7202F5C07303EB00135B6823F00F047D
:1012600002F5C07303EB00135C6002F5C07303EB7F
:1012700000135B688C7A234302F5C07404EB0014FE
:1012800063608B7B1C064B7B44EA03440B7B44EA84
:101290000323CC7A234302F5C07404EB0014A3604B
:1012A0008B7C1C064B7C44EA03440B7C44EA0323FE
:1012B000CC7B234302F5C07404EB0014E36002F519
:1012C000C07303EB00131B6843F0010402F5C07305
:1012D00003EB00131C6010BD0648008C4FF6FF3175
:1012E0000840044908840846008C40F04000088407
:1012F00070470000000001400648008C4FF6EF7177
:101300000840044908840846008C40F00100088425
:1013100070470000000001400648008C4FF6FF6156
:101320000840044908840846008C40F010000884F6
:1013300070470000000001400648008C4FF6FB712A
:101340000840044908840846008C40F48060088402
:1013500070470000000001400648008C4FF6BF7146
:101360000840044908840846008C40F001000884C5
:1013700070470000000001400648008C4FF6FE71E7
:101380000840044908840846008C40F480700884B2
:1013900070470000000001400648008C4FF6FF61D6
:1013A0000840044908840846008C40F00100088485
:1013B00070470000000001400648008C4FF6BF71E6
:1013C0000840044908840846008C40F48060088482
:1013D00070470000000001400648008C4FF6FF31C6
:1013E0000840044908840846008C40F00100088445
:1013F00070470000000001400648008C4FF6FE7167
:101400000840044908840846008C40F01000088415
:1014100070470000000001400648008C4FF6EF7155
:101420000840044908840846008C40F48070088411
:1014300070470000000001400648008C4FF6FB7129
:101440000840044908840846008C40F040000884A5
:1014500070470000000001400246002002EA01033C
:101460000BB1012000E000207047000010B500F033
:1014700023F800200E49488581F82C0081F82D00C2
:10148000002406E000210A480A3020F81410601CED
:10149000C4B2102CF6DB00200549C88008819FEDFE
:1014A000050A084680ED0C0A02F026F910BD00007E
:1014B000240C00200000000000200449C8710A200C
:1014C000034948638863C86370470000D40C002058
:1014D0000000014010B501200349C87101210348F3
:1014E00002F086FE10BD0000D40C00200000014078
:1014F000F8B5044620882189401A07B2002F01DD83
:10150000384600E0784207B260882189401A05B267
:10151000002D01DD284600E0684205B2A08821893F
:10152000401A06B2002E01DD304600E0704206B2DD
:1015300078193044C0F34F000090684602F038FA42
:10154000E08007480078012806D1E088B0F5FA6FFE
:1015500002DD4FF4FA60E080012002494870F8BDD6
:1015600008000020D40C002000200449488581F8A0
:101570002C0081F82D00088170470000240C002009
:1015800000B502469FED270AF0EE402A9FED250A9E
:10159000B0EE402A244890ED0C0AB0EE402A2348D1
:1015A00090ED060AB4EEC20AF1EE10FA03D290ED05
:1015B000060AB0EE402AB0EE420A104600F068FC7F
:1015C000F0EE402A9FED1A0A22EE800A194880EDBB
:1015D0000F0A90ED0F0ADFED180AB4EEE00AF1EE03
:1015E00010FA04DD9FED140A80ED0F0A0DE011489A
:1015F00090ED0F0AF2EE040AB4EEE00AF1EE10FAF2
:1016000003D2B2EE040A80ED0F0A0A4890ED0F0AE9
:10161000BCEEC00A10EE100A81B208484163816333
:10162000C16300BD00000000240C0020EC0B002072
:101630000000D243FC0C002000007A45000001406D
:1016400039B1084A1268012383401A43054B1A60D6
:1016500006E0044A1268012383409A43014B1A6052
:10166000704700000074004000B587B001210846B3
:1016700001F0E6FF0121480701F0F2FF05A800F0A4
:10168000A4FB03208DF818001020059002208DF88F
:101690001B0005A90B4800F02BFB002001900290D5
:1016A00003900220049001A9002000F00DF8012110
:1016B0000020FFF7C5FF0021084600F01FF807B023
:1016C00000BD00000000024030B5002200230A4C9B
:1016D000226840F6FE748440A243D1E900452C43C1
:1016E0008D682C43CD6844EA050303FA00F42243D5
:1016F000014C226030BD00000074004008B500229B
:101700000092054A009200F10802009B1A440092E0
:10171000009A116008BD00000074004010B50D492A
:101720000D4800F0F1F898B10C48FFF7E1FE0B48C6
:10173000C08800EE100AB8EE400ADFED090A20EE7C
:10174000200A064880ED0C0A0249034800F00AF816
:1017500010BD00002080001010640240240C002006
:10176000FFFF243C0246094B9A4201D2084801E09F
:101770000648103801F000531BB1064B0B40C36004
:1017800002E0044B0B40836070470000106402408D
:10179000006002407D0F7D0F21B1026842F001021E
:1017A000026003E0026822F001020260704700005C
:1017B000016821F001010160002101604160816048
:1017C000C1600161212141614A49884204D13D2122
:1017D000484A103A91608CE046491831884205D158
:1017E0004FF47461434A103A916082E041493031CC
:1017F000884205D14FF474113E4A103A916078E066
:101800003C494831884205D14FF07461394A103A59
:1018100091606EE037496031884204D13649354ADB
:10182000103AD16065E033497831884204D13349B8
:10183000304A103AD1605CE02E499031884204D1A0
:101840002F492C4A103AD16053E02A49A8318842E6
:1018500005D14FF03D51274A103AD16049E029495E
:10186000884204D13D21274A083A116041E02549C8
:101870001831884205D14FF47461224A083A116048
:1018800037E020493031884205D14FF474111D4AA8
:10189000083A11602DE01B494831884205D14FF0CC
:1018A0007461184A083A116023E016496031884291
:1018B00004D11149134A121F11601AE011497831FD
:1018C000884204D10D490F4A121F116011E00D49E1
:1018D0009031884204D10A490A4A121F116008E077
:1018E0000849A831884204D14FF03D51054A121FE2
:1018F00011607047106002403D000020400F002042
:1019000000003D201064024070B502460020002413
:101910000025124EB24201D2114B01E00F4B103B99
:10192000104E0E4036B11E2606EAD124166806EA8D
:10193000040502E0566906F0800501F000560EB17C
:101940005C6800E01C68084E344004EA010616B1E9
:101950000DB1012000E0002070BD000010640240C5
:10196000006002403C0F3C0F7D0F7D0F10B501F071
:1019700080034BB122B1436943F08003436103E02C
:10198000436923F08003436180290BD02AB10368A7
:1019900001F01E042343036004E0036801F01E0409
:1019A000A343036010BD000010B500220268134B72
:1019B0001A40CC680B6823434C6923438C6923434A
:1019C000CC6923430C6A23434C6A23438C6A234328
:1019D0004C6B23438C6B23431A430260426922F011
:1019E0000702D1E90B3423431A4342610B69436078
:1019F0004B6883608B68C36010BD00003F801CF0A3
:101A0000704700000121124A82F83C100022104960
:101A100081F83E20C1F88020A1F88420A1F886201A
:101A2000C1F8AC20C1F8A0209FED0A0A81ED290A77
:101A30009FED080A81ED2A0A002006E000220449F1
:101A4000403141F82020411CC8B21028F6DB704715
:101A5000240C0020000000001CB50121072001F02B
:101A6000EFFD684600F0B1F901208DF80400002078
:101A70008DF806004FF40070009000208DF80700EC
:101A80008DF805006946974800F032F94FF400716F
:101A9000944800F098F9684600F097F902208DF814
:101AA000040000208DF806004FF4E0600090022052
:101AB0008DF807008DF8050069468B4800F018F98D
:101AC00001220821884800F05BF90122092186489B
:101AD00000F056F901220A21834800F051F94FF431
:101AE000E061814800F06FF9684600F06EF902206D
:101AF0008DF8040000208DF806004FF4604000903F
:101B000002208DF807008DF805006946754800F041
:101B1000EFF801220D21734800F032F901220E2165
:101B2000704800F02DF901220F216E4800F028F9CD
:101B30004FF460416B4800F046F9684600F045F903
:101B400002208DF804004FF4E070009001208DF821
:101B5000070003208DF805006946644800F0C8F8C6
:101B600002220621614800F00BF9022207215F489A
:101B700000F006F9022208215C4800F001F96846ED
:101B800000F023F902208DF80400012000908DF868
:101B9000070003208DF805006946534800F0A8F8B7
:101BA00002220021504800F0EBF8684600F00DF9E1
:101BB00002208DF8040000208DF806004FF4E0703C
:101BC000009001208DF8070002208DF8050069467D
:101BD000444800F08DF802220621424800F0D0F877
:101BE000022207213F4800F0CBF8022208213D489D
:101BF00000F0C6F8684600F0E8F803208DF804000D
:101C0000E02000906946384800F072F8684600F01D
:101C1000DCF801208DF8040000208DF806004FF458
:101C20000050009000208DF807008DF805006946EF
:101C30002E4800F05DF84FF400512C4800F0C3F836
:101C4000684600F0C2F800208DF804004FF44040D0
:101C5000009000208DF807008DF8050069462348A4
:101C600000F046F84FF44041204800F0ACF86846D8
:101C700000F0ABF802208DF8040000208DF806007B
:101C80004FF4C050009001208DF8070003208DF81C
:101C900005006946144800F02BF809220B21124870
:101CA00000F06EF809220C210F4800F069F8684630
:101CB00000F08BF801208DF8040000208DF806005C
:101CC0000120009000208DF8070002208DF805000B
:101CD0006946064800F00CF80121044800F073F84A
:101CE0001CBD000000040240000002400008024049
:101CF000F0B50A4600210023002400BF3DE0012585
:101D000005FA01F3156805EA03049C4234D105681D
:101D10004F000326BE40B543056015794E00B5401F
:101D20000668354305601579012D02D01579022D1D
:101D300016D185684F000326BE40B54385605579AE
:101D40004E00B540866835438560456801268E4063
:101D5000B5434560456896798E40B6B235434560D7
:101D6000C5684F000326BE40B543C560D5794E0017
:101D7000B540C6683543C560491C1029BFD3F0BDC6
:101D8000F0B5002300244D07ED0E02FA05F3CE1046
:101D900000F1200555F826504E07F70E0F26BE40DD
:101DA000B543CF1000F1200646F82750CE1000F1C1
:101DB000200555F8265045EA0304CE1000F1200511
:101DC00045F82640F0BD418370474FF6FF71016032
:101DD0000021017141718171C171704700B502F03C
:101DE00009F802F041F802F077F800BD00B502F002
:101DF00001F802F01BF802F08DF800BD00B501F00B
:101E0000DDFF02F04DF802F067F800BD00B501F00B
:101E1000B7FF02F045F802F07DF800BD00B501F013
:101E2000CDFF02F003F802F091F800BD00B501F01B
:101E3000A7FF02F019F802F089F800BD10B500F014
:101E400015F8074981F83A0006490978064A02EB75
:101E50004111034A92F83A2051F82200804710BD00
:101E6000240C0020D40C00204C00002002490968FA
:101E7000C1F38210704700001004024000BFFEE76B
:101E800010B501F09BFF01F0EFFF02F043F810BD29
:101E9000F0EE400AC0ED010A90ED030A80ED040A5D
:101EA00090ED020A80ED030A90ED000A90ED011A10
:101EB00030EE410A80ED020A90ED020A90ED031A1D
:101EC00030EE410A90ED061A20EE010A80ED090A73
:101ED00090ED070A90ED021A20EE010A80ED0A0A41
:101EE00090ED020A90ED031AF0EE001A01EEC10A1D
:101EF00090ED041A30EE010A90ED081A20EE010A66
:101F000080ED0B0A90ED090A90ED0A1A30EE010AF5
:101F100090ED0B1A30EE010A80ED0C0A90ED0D0ADF
:101F200090ED0C1A30EE010A80ED0E0A90ED0E0ACB
:101F3000B2EE041AB4EEC10AF1EE10FA03DDB2EE0D
:101F4000040A80ED0E0A90ED0E0ABAEE041AB4EE01
:101F5000C10AF1EE10FA03D2BAEE040A80ED0E0ABD
:101F600090ED0E0A80ED0D0A90ED0E0A704700000C
:101F7000034800684FF6FF51084001490860704768
:101F8000140402400348006840F4007001490860EE
:101F9000704700001404024008B51EE0FFF7E8FF98
:101FA0000A2300221146104600F09AFDFFF7EAFFCF
:101FB0000A2300221146104600F092FD55208DF8AC
:101FC0000000AA208DF8010000BF02236A4600210C
:101FD0000248FEF77DFD0028F7D0DFE7B40D0020B2
:101FE00000BFFEE700200F49087048708870C87075
:101FF00008714871012088719FED0B0A084680ED39
:10200000020A9FED090A80ED050A9FED070A80ED9F
:10201000080A0020C86088614862C871087408779F
:1020200070470000D40C002000000000704770478B
:1020300008B519208DF8000000208DF801008DF8FA
:10204000020001208DF80300684600F059F838209E
:102050008DF8000000208DF8010002208DF80200AC
:1020600001208DF80300684600F04AF81C208DF826
:10207000000000208DF8010003208DF802000120EF
:102080008DF80300684600F03BF81D208DF8000035
:1020900001208DF8010000208DF8020001208DF84C
:1020A0000300684600F02CF81E208DF80000002088
:1020B0008DF8010001208DF802008DF803006846BC
:1020C00000F01EF814208DF8000002208DF80100A9
:1020D00000208DF8020001208DF80300684600F012
:1020E0000FF813208DF8000002208DF80100012068
:1020F0008DF802008DF80300684600F001F808BD75
:1021000070B5002100230F22C4781CB3174C24683B
:1021100004F4E064C4F5E064C4F30721C1F10404ED
:10212000E3B20A4144789C40E1B2847814402143F0
:102130000C07210E0E4C05786155047804F01F053C
:102140000124AC4005786D11AD0005F1E025C5F81E
:10215000004109E0047804F01F050124AC40054D5E
:102160000678761145F8264070BD00000CED00E0C1
:1021700000E400E080E100E002490143024A11600E
:10218000704700000000FA050CED00E01748184801
:102190001848194819481A481A481B481B481C482F
:1021A0001C481D481D481E481E481F481F482048FF
:1021B00020482148214822482248234823482448CF
:1021C000244825482548264826482748274828489F
:1021D0002848294829482A482A482B482B482C486F
:1021E0002C482D482D482E4800BF7047C458000881
:1021F000C8580008CE580008D0580008CC5800082D
:10220000D2580008D4580008D6580008D8580008FA
:10221000DA580008DC580008DE580008E0580008CA
:10222000E2580008E4580008E6580008E85800089A
:10223000EA580008EC580008EE580008F05800086A
:10224000F2580008F4580008F6580008F85800083A
:10225000FA580008FC580008FE5800080059000809
:1022600002590008045900080659000808590008D6
:102270000A5900080C5900080E59000810590008A6
:102280001259000814590008165900081A59000874
:102290001C5900081E59000820590008225900083E
:1022A0003659000810B500F017F800F0A3FD00F053
:1022B000CFFD00F0F1FD00F06DFD00F02DFD00F010
:1022C00085FE00F0AFFE00F027FE00F04DFE00F0AE
:1022D0001BF8FFF75BFF10BD0848802102E0491E94
:1022E000002204C00029FAD1054A064B1A601A469A
:1022F000126822F007021A6070470000E40D002007
:10230000E40F00209C000020704700000648007881
:10231000012808D105480078FF2804D20348007836
:10232000401C024908707047C0000020B90000201E
:1023300010B500241A480078012830D1FDF7BEFFFF
:1023400004461848007820B116480078401E154908
:10235000087014480078F8B913480078E0B900F024
:10236000C3FE12481249097850F82100114908604B
:102370000F4800781049097888420DD00D48006850
:10238000006C401C0B49096808640C480068401C3C
:102390000A490860FDF7B2FF2046FDF793FF10BD24
:1023A000C0000020B9000020BA000020141800204E
:1023B000BC000020D0000020BB000020A0000020B6
:1023C00070B5054600261048007808B1002070BDA1
:1023D000FDF774FF06460D480468006820B10B48FD
:1023E00000684068094908603046FDF76BFF4CB152
:1023F0000320207025810020606005A0E062204657
:1024000000F07BFC2046E2E7B9000020A400002099
:102410003F00000010B50B48007890B900F064FE52
:10242000094800780949087009480749097850F8AF
:102430002100084908600846006807490860FDF760
:1024400044FF10BDC0000020BC000020BB000020E5
:1024500014180020D0000020C800002010B500246F
:10246000022000F0FFFAFDF729FF044600200B4987
:1024700008602046FDF726FF0A2000F0F3FAFDF77A
:102480001DFF04460548006805490860012005490C
:1024900008702046FDF716FF10BD0000C4000020A4
:1024A000B0000020B8000020704700002DE9F04F78
:1024B00085B081468A4693461C46DDE90F78129D19
:1024C00000200390FDF7FAFE03902348007830B116
:1024D0000398FDF7F7FE3C2005B0BDE8F08F1F48DC
:1024E00050F8240088BB01201C4941F824000398BF
:1024F000FDF7E8FE2A464146384600F057FF2B46D6
:102500005A465146484600F061F904901198CDE9C9
:10251000008002953A4620460E9B049900F014FE76
:10252000064636B90E48007801280CD100F0A2FD0D
:1025300009E0FDF7C3FE03900020084941F824009C
:102540000398FDF7BFFE3046C6E7FFE70398FDF7A7
:10255000B9FE2820C0E70000B900002014180020B0
:10256000C0000020704700002DE9F041054600271B
:102570004B48007810B14020BDE8F081FD2D01D11D
:102580003E20F9E7FDF79AFE0746FF2D03D14548A7
:10259000006890F83650444850F8254024B9384631
:1025A000FDF790FE4320E7E7012C04D13846FDF704
:1025B00089FE3D20E0E714F8380F3C4931F810005F
:1025C000618888432178394A22F8110014F83809C3
:1025D000114631F8100028B9A18F3548008888438A
:1025E00033490880E06918B12046E16900F04FFBEB
:1025F000206A18B12046216A00F061FBA66A16B174
:10260000304600F0B5FB0020206384F8340084F8E5
:10261000350028480078FF2804D226480078401C5E
:10262000244908703846FDF74DFE00F02FFBFDF7FA
:1026300045FE07461F48007820B11E480078401E1E
:102640001C490870204600F041F81B480078401EE5
:10265000194908700020144941F82500A06930B9D3
:1026600000206169886115496069086005E0D4E966
:1026700005014861D4E9051088611148006860616E
:102680000F4804600FA060653846FDF71BFE0E483A
:102690000078012801D100F0EDFC00206CE700007B
:1026A000B9000020C800002014180020F4150020F4
:1026B000BE000020BA000020C1000020D40000208D
:1026C000CC0000203F000000C00000207047704791
:1026D0002DE9F04106460F4614464FF00008154814
:1026E000007818B112202070BDE8F081FDF7E6FDFA
:1026F0008046FF2E03D11048006890F836600F48DE
:1027000050F826502DB94046FDF7DCFD43202070DF
:10271000EAE7012D05D14046FDF7D4FD43202070A6
:10272000E2E76F654046FDF7CDFD0020207000BF59
:10273000DAE70000B9000020C800002014180020CB
:10274000704770472DE9F04707460D464FF0000AE5
:10275000002028606860FDF7B1FD8246FF2F03D19D
:102760001848006890F83670174850F827402CB980
:102770005046FDF7A7FD4320BDE8F087012C04D1AA
:102780005046FDF79FFD4320F6E7207C00F0010056
:1027900020B95046FDF796FD4520EDE70026D4F818
:1027A0000C90D4F808805046FDF78CFD00E0761CB4
:1027B00058F8041B0029FAD02E60A9EB06006860C7
:1027C0000020D9E7C80000201418002070B5044686
:1027D000101D20F007000026051F28462E604FF030
:1027E0001536051F28462E604FF01436051F284663
:1027F0002E604FF01336051F28462E604FF012361C
:10280000051F28462E604FF01136051F28462E6002
:102810004FF01036051F28462E604FF00936051F71
:1028200028462E604FF00836051F28462E604FF0D0
:102830000736051F28462E604FF00636051F28462E
:102840002E604FF00536051F28462E604FF00436E7
:10285000051F28462E604FF00336051F28462E60C0
:102860004FF00236051F28462E607610051F2846B9
:102870002E600026051F28462E604FF08076051F2B
:1028800028462E60051F28462C60494E051F284605
:102890002E604FF01236051F28462E604FF003368B
:1028A000051F28462E604FF00236051F28462E6071
:1028B0007610051F28462E60051F284629604FF018
:1028C0003136051F28462E604FF03036051F28464A
:1028D0002E604FF02936051F28462E604FF028360F
:1028E000051F28462E604FF02736051F28462E600C
:1028F0004FF02636051F28462E604FF02536051F5F
:1029000028462E604FF02436051F28462E604FF0D3
:102910002336051F28462E604FF02236051F284615
:102920002E604FF02136051F28462E604FF02036CE
:10293000051F28462E604FF01936051F28462E60C9
:102940004FF01836051F28462E604FF01736051F2A
:1029500028462E604FF01636051F28462E604FF091
:102960001136051F28462E604FF01036051F2846E9
:102970002E604FF00936051F28462E604FF00836AE
:10298000051F28462E604FF00736051F28462E608B
:102990004FF00636051F28462E604FF00536051FFE
:1029A00028462E604FF00436051F28462E6070BD65
:1029B000B93200082DE9F04105464FF00008FDF757
:1029C0007DFC8046FF2D05D12148006890F83650E7
:1029D000012608E01E48006890F83600A84201D1A0
:1029E000012600E000261B4850F825402CB940463F
:1029F000FDF768FC4820BDE8F081012C04D1404679
:102A0000FDF760FC4320F6E794F83870124830F880
:102A10001700618F8843104921F81700084630F8E5
:102A2000170028B9A18F0D48008888430B490880FA
:102A300094F8340040F0080084F834004046FDF774
:102A400041FC012E01D100F015FB0020D3E700006E
:102A5000C800002014180020F4150020BE0000203B
:102A60007047000070B5054600261848007800B190
:102A700070BD1748007800B1FAE725B3FDF71EFCDA
:102A800006461448006890F83840134830F814009F
:102A900010490968498F88430F4921F814000846F6
:102AA00030F8140038B90B480068818F0B48008853
:102AB00088430A4908800748006805633046FDF7E7
:102AC00001FC00F0D7FA00BFD2E70000B9000020F7
:102AD000BA000020C8000020F4150020BE0000202D
:102AE0002DE9F04104460D4616461F46124800786F
:102AF00010B15520BDE8F0811048007808B13220AF
:102B0000F8E7781D642148434FF47A71B0FBF1F186
:102B10004FF461606043C5EB051200EB8200304466
:102B200000EBC00202EB001001EB80084046FFF70B
:102B300099FF0020DEE70000B9000020BA00002065
:102B400070B5002600F074F8FDF7B8FB0646324871
:102B50000068401C304908603046FDF7B3FB2F4841
:102B60000078012855D12E48007820B1012804D0E2
:102B7000022809D103E001250BE0002509E0012529
:102B800001202749087004E001250020244908702D
:102B900000BF00BF05B970BD2248046835E0FDF7ED
:102BA0008DFB0646206B60B3206B401E2063206BBC
:102BB00038BB94F8340000F0370040B114F8340FFB
:102BC00000F0C800207001206070343C02E000205A
:102BD00084F8350094F8340000F0080088B9A08F1C
:102BE0001149098808431049088094F838000F49B2
:102BF00031F81000618F084394F838100B4A22F81E
:102C0000110064693046FDF75DFB94F83600FD283D
:102C1000C5D100BFBFE70000E8000020C0000020D1
:102C2000D8000020D4000020BE000020F4150020B1
:102C30007047000010B5FDF741FB044606480078D8
:102C4000401C054908702046FDF73CFBFFF778FF64
:102C5000FFF76EFB10BD0000B900002001464A1EC0
:102C60004FF0E0235A61084A106820F07F4000BF0F
:102C700010601A46126942F005021A611A4612697A
:102C800042F002021A61704720ED00E0704710B573
:102C900090F8382001F10C0333F81230448FA3432D
:102CA00001F10C0424F81230234633F812301BB91A
:102CB0004B89848FA3434B810023C36110BDF0B5C2
:102CC000024692F83840958F568F0B46186811E0EF
:102CD00000F10C0737F81470B74300F10C0C2CF816
:102CE0001470674637F8147017B94789AF434781A6
:102CF0001B1D18680028EBD1F0BD014600224A8157
:102D0000002006E0002301F10C0222F81030421CE2
:102D1000D0B21028F6D370472DE9F0415021114868
:102D200000F04AF900250DE0681C86B20D4800EB62
:102D3000051400EB06170020207067600AA0E06011
:102D4000681C85B2042DEFD3064800EB0514002063
:102D50002070606004A0E060024804490860BDE89B
:102D6000F0810000A41300203F000000A800002014
:102D700030B501464A6808682AB9CC68606028B155
:102D80000025456002E0106000B142608B680025BC
:102D90009D6230BD70B54FF47071134800F00CF9AE
:102DA000002411E0601C85B204EB44000E4901EBE5
:102DB000001305EB450001EB0016002018705E6063
:102DC0000AA0D862601C84B2132CEBD304EB44003D
:102DD000054901EB001300201870586003A0D86269
:102DE00008460349086070BDE40F00203F00000062
:102DF000A400002000200B4908600B4908700B4913
:102E000008700B4908700B4908700B4908600B49A2
:102E100008600B4908600B4908600B4908700B49B2
:102E200008707047E8000020B9000020BA000020B8
:102E3000C1000020C0000020A0000020C40000202D
:102E4000B4000020B0000020B8000020E400002002
:102E500000210B4A1180002005E00021094A22F8D8
:102E60001010411CC8B21028F7D30021064A117077
:102E7000064A1170064A1160064A11607047000048
:102E8000BE000020F4150020BB000020BC00002084
:102E9000D0000020C800002070B54FF4FD61194833
:102EA00000F08AF84FF47E71174800F085F800248E
:102EB00013E0601CC5B2C4EBC40000EB0410114960
:102EC00001EB8003C5EBC50000EB051001EB8006AC
:102ED0005E610EA05865601CC4B2152CE9D3C4EB2A
:102EE000C40000EB0410074901EB80030020586187
:102EF00006A0586500200649086002480549086098
:102F000070BD00000C1C0020141800203F000000C1
:102F1000D4000020CC00002000B587B003200021A1
:102F200080220A4BCDE90132CDE903104FF6FF7044
:102F3000FD23074A00900748FFF7B8FA06AA06A142
:102F4000FD20FFF7C5FB07B000BD000014160020F0
:102F5000101800209132000875432F4F532D494916
:102F60002049646C6500000000B587B00320002193
:102F700080220A4BCDE90132CDE903104FF6FE70F5
:102F8000FC23074A00900748FFF790FA06AA06A11B
:102F9000FC20FFF79DFB07B000BD0000F4130020EC
:102FA000F0150020D132000875432F4F532D4949A9
:102FB000205374617400000004E0002200F8012B2B
:102FC0004A1E91B20029F8D17047000070B57821EF
:102FD0001148FFF7F1FF00240EE004EB44000E4916
:102FE00001EBC005601C00EB400001EBC000686015
:102FF0000AA06861601C84B2042CEED304EB440088
:10300000054901EBC0050020686004A0686108461E
:103010000349086070BD0000F42300203F00000059
:10302000DC0000202DE9F04160211048FFF7C4FFCB
:1030300000240DE0601C86B204EB44000B4901EB58
:10304000C00506EB460001EBC0072F60601C84B290
:10305000032CEFD304EB4400044901EBC00500202E
:103060002860084602490860BDE8F0816C24002011
:10307000E000002010B50024FDF720F904461348B5
:103080000078F8B912480078E0B900F02DF811483E
:103090001149097850F82100104908600E4800785D
:1030A0000F49097888420DD00C480068006C401C1C
:1030B0000A49096808640B480068401C094908600F
:1030C000FDF717F92046FDF7FDF810BDB900002007
:1030D000BA00002014180020BC000020D0000020FE
:1030E000BB000020A0000020134A127822B1124A2F
:1030F0001278124B985C07E0104A0F4B1B8802EBCA
:10310000132212780832D0B20D4A02EB40010A783D
:103110003AB10A78094B9A5C02EB0012094B1A701B
:1031200009E00A88054B03EB1222127802EB001229
:103130000832044B1A707047BE000020385900084E
:10314000F4150020BC0000202DE9F84F05460F467D
:1031500090469946DDE90AAB00200090FDF7AEF8F5
:10316000009044480468002C7ED01C3454F8080CAD
:10317000404908600098FDF7A5F844F81C7CA57646
:10318000002020766076606144F818BC44F810ACEA
:1031900044F8148C0C9824F80C0C24F80A9C002099
:1031A00084F822002809207705F00F00E076217FBF
:1031B000012088402084E17E01208840E0830020B7
:1031C00020606060E060A0606062E062A0622063F6
:1031D000606329A0A0631C3C002606E0002104F1E6
:1031E000580040F82610701CC6B2002EF6D02046BB
:1031F000FFF75AF9FDF762F80090204840F82540A3
:103200000098FDF75FF82046FFF7ACF9FDF756F898
:1032100000901B48006860610020A06118480068A9
:1032200010B117480068846115480460A08F1549E3
:10323000098808431349088094F83800124931F886
:103240001000618F084394F838100F4A22F81100DB
:103250000E480078401C0D4908700098FDF732F8C0
:103260000020BDE8F88FFFE70098FDF72BF842201B
:10327000F7E70000CC0000203F00000014180020F9
:10328000D4000020BE000020F4150020C100002062
:10329000002400BF00BFFDF711F804460548006890
:1032A000401C044908602046FDF70CF8FFF70FFAB0
:1032B000F1E70000C400002010B504480068FFF7E3
:1032C0003FFAFF20FFF750F910BD0000C8000020B2
:1032D00000BF00BF02E01420FFF7C4FB1F480078C6
:1032E0000028F8D01E4800686421B0FBF1F01C49AA
:1032F00008600846006828B900201A490870FF20B5
:10330000FFF758FBFCF7DAFF044615480068642114
:103310004843154908602046FCF7D4FF00BFFCF77E
:10332000CDFF0446104800681049086000200E498F
:1033300008602046FCF7C6FF0C4800680849096889
:10334000B0FBF1F0C0F1640006490870FFF7F9F92D
:1033500000F00EF80A20FFF785FBE0E7B800002038
:10336000B0000020AC000020C4000020B400002009
:103370007CB5002514E069462846FFF7E3F90646C8
:1033800066B9094850F8254044B1012C06D0D4E96B
:10339000020100EB8100E06401982065681CC5B261
:1033A000FD2DE8D97CBD00001418002002F00103B7
:1033B00043B102F002032BB102E0491E002308C012
:1033C0000029FAD17047000010B500207649087036
:1033D00048704FF48050754908600420087100035C
:1033E00088604FF42F60C8609FED710A084680ED39
:1033F000040A9FED700A80ED050A9FED6F0A80EDCB
:10340000060A9FED6E0A80ED070A9FED6D0A80EDBA
:10341000080A9FED6C0A80ED090A90ED090AF7EEA3
:10342000000A80EE801A80ED0A1A9FED670A80ED8F
:103430000B0A9FED660A80ED0C0A0C2081F834001F
:103440009FED620A624880ED000A9FED600A80ED00
:10345000010A9FED5E0A80ED020A9FED5C0A80ED95
:10346000030A9FED5A0A80ED040A9FED580A80ED89
:10347000050A9FED560A80ED090A9FED540A80ED7A
:103480000A0A9FED520A80ED0B0A9FED500A80ED6B
:103490000D0A9FED4E0A80ED0E0A9FED4E0A80ED5B
:1034A000060A9FED4D0A80ED070A9FED480A80ED60
:1034B000080A9FED460A494880ED000A9FED430A3D
:1034C00080ED010A9FED410A80ED020A9FED3F0A5F
:1034D00080ED030A9FED3D0A80ED040A9FED3B0A53
:1034E00080ED050A9FED390A80ED090A9FED370A44
:1034F00080ED0A0A9FED350A80ED0B0A9FED330A35
:1035000080ED0D0A9FED310A80ED0E0AB0EE000A43
:1035100080ED060A9FED320A80ED070A9FED2B0A27
:1035200080ED080A9FED290A2E4880ED000A9FEDE4
:10353000270A80ED010A9FED250A80ED020A9FED22
:10354000230A80ED030A9FED210A80ED040A9FED16
:103550001F0A80ED050A9FED1D0A80ED090A9FED07
:103560001B0A80ED0A0A9FED190A80ED0B0A9FEDF8
:10357000170A80ED0D0A9FED150A80ED0E0A9FEDEA
:103580001A0A80ED060A9FED190A80ED070A9FEDE1
:10359000180A80ED080AFDF769FFFEF733FAFEF717
:1035A00021FD012010BD000008000020EC0B0020D0
:1035B000002019459A992141000018420AD723405A
:1035C000A55E004300009442000034430000000068
:1035D000FC0C00209A99193F0AD7A33C3C0D00200F
:1035E000CDCC4C3D780D00206F12833BACC5273706
:1035F0006F12833A00B501469FED0E0AB0EE402AE5
:103600009FED0C0AF0EE402A0B4890ED2B0AB8EE25
:10361000C00AB0EE402AB0EE420A0846FEF738FC77
:10362000F0EE402A0548C0ED052A0120034A10713A
:1036300000BD000000000000240C0020D40C00207D
:1036400029B1064A12680243044B1A6004E0034A97
:1036500012688243014B1A60704700003038024004
:1036600029B1064A12680243044B1A6004E0034A77
:1036700012688243014B1A607047000040380240D4
:1036800029B1064A12680243044B1A6004E0034A57
:1036900012688243014B1A607047000020380240D4
:1036A00029B1064A12680243044B1A6004E0034A37
:1036B00012688243014B1A60704700004438024090
:1036C00029B1064A12680243044B1A6004E0034A17
:1036D00012688243014B1A60704700002438024090
:1036E00000BF00BF06E000BF64230522002108469A
:1036F000FFF7F6F9F7E7000010B50E48007802284A
:1037000002D002200B490870FDF7D6FE0A200A49B4
:1037100048638863C863FEF7B3FBFDF725FF40F2FB
:103720004160064908819FED060A084680ED0C0AB3
:1037300010BD00000800002000000140240C002003
:103740000000000030B52DED028B81B000259FED0B
:10375000560AB0EE408A9FED540A8DED000A534898
:10376000B0F88610A0F884105148006881B24F4824
:10377000A0F88610B0F88610B0F884000C1A4B48F8
:10378000D0F8AC0001194948C0F8AC10002C03DA9D
:10379000002180F83D1003E00121444880F83D10ED
:1037A0004248D0F88C5090F83C0078BB3F4890EDF0
:1037B000290AF2EE090AB4EEE00AF1EE10FA18D284
:1037C00090ED290AFAEE090AB4EEE00AF1EE10FAD9
:1037D0000FDD75B100EE105AB8EE400ADFED350A84
:1037E00080EE801A8DED001A0120304981F83C00EE
:1037F0003CE000EE104AB8EEC00AB0EE408A9FED01
:103800002E0AC8EE000ACDED000A2FE0FFE7274898
:1038100090ED290AF2EE090AB4EEE00AF1EE10FA90
:1038200008DD90ED290AFAEE090AB4EEE00AF1EE9D
:1038300010FA00D385B900EE104AB8EEC00AB0EE17
:10384000408A9FED1D0AC8EE000ACDED000A002057
:10385000164981F83C0009E000EE105AB8EE400A23
:10386000DFED140A80EE801A8DED001A01220F4957
:10387000A4316846FCF780FD0C4890F83D0038B94B
:103880000A4890ED290AB1EE400A80ED290A04E0C9
:10389000064890ED290A80ED290A01200749C870E1
:1038A00001B0BDEC028B30BD00000000240C0020F4
:1038B00024040040A037A0456F128341D40C00209F
:1038C000704700000CB5002001900090344800685B
:1038D00040F480303249086000BF3148006800F48D
:1038E000003000900198401C0190009818B9019890
:1038F000B0F5A04FF1D12A48006800F4003010B1B3
:103900000120009001E0002000900098012846D19D
:1039100023484030006840F0805021494031086021
:103920002048006840F440401E4908601C480830A8
:1039300000681B49083108600846006840F40040F0
:1039400008600846006840F4A05008601648091F47
:103950000860081F006840F08070091F086000BF01
:103960000F48006800F000700028F9D040F20570A0
:103970000E4908600A480830006820F00300084932
:10398000083108600846006840F00200086000BF87
:1039900003480830006800F00C000828F8D10CBD7E
:1039A000003802400070004008544007003C0240CC
:1039B00010B501460888B0F5805F02DB40F6FF7065
:1039C00008802D4890F82D0008281CDA0B882A481A
:1039D00090F82C400A3020F814300A3890F82D0066
:1039E000401C254B83F82D00184690F82D0083F8D5
:1039F0002C001846408D0B8818441F4B58851846DC
:103A0000408D801010BD1C4890F82C00401C1A4BB3
:103A100083F82C00184690F82C00082802DB0020C0
:103A200083F82C00144890F82C00072802D1124883
:103A3000428907E0104890F82C00401C0E4B0A33D6
:103A400033F810200B880C4890F82C400A3020F8EE
:103A500014300A38438D90F82C400A3030F81400A6
:103A60001844054B58851846408D801A58851846CD
:103A7000408D8010C6E70000240C002010B5012006
:103A800005490874C8710121800700F0ABFB0121D2
:103A9000880700F0ADFB10BDD40C002070B52DEDF3
:103AA000048B05469FED360AB0EE408A9FED340A3E
:103AB000F0EE408A334890ED290AB0EE408AF0EEED
:103AC000000A68EE200AB0EE600A2846FEF7E0F928
:103AD000F0EE408A2B4890ED290AF7EE080A30EE06
:103AE000200AB0EE409A9FED280A29EE000ABCEEAB
:103AF000C00A10EE104AB4F5805F01D340F6FF749F
:103B0000A1B20020FDF7FAFD2048C0ED028A90ED39
:103B1000020AB5EEC00AF1EE10FA0DDD01201B49D4
:103B2000087009781A4A02EB4111164A92F83A20B5
:103B300051F8220080471CE0144890ED020ADFEDA6
:103B4000150AB4EEE00AF1EE10FA0DD200200F498A
:103B5000087009780E4A02EB41110A4A92F83A209D
:103B600051F82200804704E09FED050A074880EDE8
:103B7000020A012005498870BDEC048B70BD00006D
:103B800000000000240C002000C04C44D40C002095
:103B90004C0000200000008028E015480078F8B1B3
:103BA0001348007801281BD011480078022816D14C
:103BB000FFF7A2FD1423002211461046FEF790FFE6
:103BC0000120FCF701FFFEF739F9FFF757FFFDF77A
:103BD00081FC0120064908700220487000E000BF07
:103BE0001423002211461046FEF77AFFD5E70000A5
:103BF0000800002010B51548006840F47000134913
:103C000008601348006840F0010011490860002076
:103C10000F49083108600E4800680E4908400C49F9
:103C200008600D48091D0860081F006820F4802006
:103C3000091F0860002006490C310860FFF742FEAA
:103C40004FF0006001498039086010BD88ED00E048
:103C500000380240FFFFF6FE10300024F0B50C469D
:103C6000154600210022068C4FF6FE773E40068462
:103C7000018B028C4FF60C7631407E1C06EA03164F
:103C80002E4331434FF6F576324044F0010632437D
:103C900001830284F0BDF0B50C46154600210022D8
:103CA0000026078C4FF6EF7C07EA0C070784018B90
:103CB000028C4FF6FF7707EA041640F6FF473940BB
:103CC0004FF6FF7707EA033739434FF6FF7707EAE6
:103CD000052739434FF65F773A4046F010073A43DD
:103CE00001830284F0BDF0B50C4615460021002288
:103CF0000026078C4FF6FF6C07EA0C070784818BC0
:103D0000028C4FF6FF7707EA04264FF60C7739400E
:103D10004FF6FF7707EA03172F4339434FF2FF5758
:103D20003A4046F480773A4381830284F0BDF0B58F
:103D30000C461546002100220026078C4EF6FF7C1B
:103D400007EA0C070784818B028C4FF6FF7707EA9E
:103D5000043640F6FF4739404FF6FF7707EA05275C
:103D600039434FF6FF7707EA0337394345F6FF77C4
:103D70003A4046F480573A4381830284F0BD000004
:103D80000D48008C4FF6FE7108400B490884084628
:103D9000008C4FF6FB710840074908840846008BE9
:103DA0004FF68F710840044908830846008B40F0A5
:103DB0004000088370470000000001400C48008B61
:103DC0004FF68F7108400A4908830846008B40F07F
:103DD000700008830846008C4FF6FE7108400449C5
:103DE00008840846008C40F00400088470470000F6
:103DF000000001400C48008B4FF68F7108400A49C3
:103E000008830846008B40F0700008830846008C49
:103E100040F0010008840846008C4FF6FB71084012
:103E20000149088470470000000001400D48008CE3
:103E30004FF6EF7108400B4908840846008C4FF696
:103E4000BF710840074908840846008B48F6FF7197
:103E50000840044908830846008B40F480400883EA
:103E600070470000000001400C48008B48F6FF71CD
:103E700008400A4908830846008B40F4E040088364
:103E80000846008C4FF6EF71084004490884084644
:103E9000008C40F0400008847047000000000140A2
:103EA0000C48008B48F6FF7108400A490883084611
:103EB000008B40F4E04008830846008C40F010007E
:103EC00008840846008C4FF6BF71084001490884F9
:103ED00070470000000001400D48008C4FF6FF6164
:103EE00008400B4908840846008C4FF6FF31084013
:103EF000074908840846808B4FF68F7108400449B3
:103F000088830846808B40F040008883704700001B
:103F1000000001400C48808B4FF68F7108400A4921
:103F200088830846808B40F0700088830846008CA8
:103F30004FF6FF610840044908840846008C40F4AD
:103F40008060088470470000000001400C48808BAE
:103F50004FF68F7108400A4988830846808B40F0ED
:103F6000700088830846008C40F4807008840846FE
:103F7000008C4FF6FF31084001490884704700006B
:103F80000000014010B52DED048B0121214800F007
:103F900042FAD8B31F48008800F0100070B11E48E4
:103FA000C07901282ED11C48407801282AD11B480D
:103FB000FDF7E6FA00201849487023E01848FCF79E
:103FC0008DFC1548807801281CD1134890ED020A19
:103FD00010EE101A084601F07FFA41EC190BB0EE12
:103FE000490AF0EE690A00F039FEB0EE408AF0EEC0
:103FF000608A51EC180B00F08DFE08490860002023
:10400000054988700121034800F0EFF8BDEC048BEE
:1040100010BD000000000140D40C0020FC0C00206A
:104020000020014010B52DED028B0121880700F022
:10403000F2F9002879D0FFF785FB3D48007F012881
:104040000ED13B48807901280AD1394890ED080A01
:10405000384880ED000AFFF7CDFA00203449887116
:104060003348007C01285CD13148C078012849D10F
:10407000314890ED000AB8EE400ADFED300A20EE3C
:10408000200ADFED2F0A80EE201AB0EE418AB0EE52
:10409000480AFCF7C3F9F7EE080A20EE200A29487F
:1040A00080ED000A24480068401C23490860084647
:1040B0000068B0F57A7F01D300200860214890EDB8
:1040C000000A1B4880ED050A0120194908711A48A9
:1040D000006828B91C48006840F001001A490860CF
:1040E00015480068B0F5FA7F06D1174800684FF60A
:1040F000FE710840144908601448FFF7CFFC002007
:104100000B49C8700A48007901280AD1084890ED87
:10411000050A0E4880ED000A0020054908710120BB
:1041200088700121880700F060F8BDEC028B10BD9B
:10413000D40C0020780D00208C000020DB0FC9403B
:1041400000007A4494000020140802403C0D002036
:1041500010B50121054800F05EF90821034800F080
:104160005AF90921014800F040F810BD0004004050
:1041700010B50221054800F04EF928B1FDF75EFEAA
:104180000221024800F031F810BD00000008004094
:1041900010B50221044800F03EF918B1022102488E
:1041A00000F023F810BD0000000C004021B102888F
:1041B00042F08002028004E002884FF67F731A40CA
:1041C000028070470A884B881A438B881A43CB8831
:1041D0001A430B891A434B891A438B891A43A0F857
:1041E00044207047CA4302827047CA430282704724
:1041F00021B1028842F00102028004E002884FF6F9
:10420000FE731A400280704731B1B0F8442042F486
:104210000042A0F8442005E0B0F84420C2F30E02AA
:10422000A0F8442070471AB183890B43838102E0D0
:1042300083898B438381704741EA0203A0F84830A9
:104240007047000010B504465548844208D101214A
:104250000846FFF735FA00210120FFF731FA9DE00B
:10426000B4F1804F08D101210846FFF709FA002177
:104270000120FFF705FA91E04A48844208D1012164
:104280000220FFF7FDF900210220FFF7F9F985E090
:104290004548844208D101210420FFF7F1F90021AB
:1042A0000420FFF7EDF979E04048844208D101216C
:1042B0000820FFF7E5F900210820FFF7E1F96DE09C
:1042C0003B48844208D101211020FFF7D9F9002191
:1042D0001020FFF7D5F961E03648844208D101216A
:1042E0002020FFF7CDF900212020FFF7C9F955E084
:1042F0003148844208D101210220FFF7E1F9002171
:104300000220FFF7DDF949E02C48844209D1012160
:104310000804FFF7D5F900214FF48030FFF7D0F9FA
:104320003CE02748844209D101214804FFF7C8F93D
:1043300000214FF40030FFF7C3F92FE021488442F9
:1043400009D101218804FFF7BBF900214FF4802037
:10435000FFF7B6F922E01C48844208D10121402031
:10436000FFF78EF900214020FFF78AF916E0174881
:10437000844208D101218020FFF782F900218020AA
:10438000FFF77EF90AE01248844207D10121801527
:10439000FFF776F90021A015FFF772F910BD0000B4
:1043A000000001400004004000080040000C0040F4
:1043B0000010004000140040000401400040014093
:1043C000004401400048014000180040001C00402B
:1043D00000200040F0B50C4615461E460021002284
:1043E00000230189028B038C4FF6F8773940214373
:1043F0004FF6FC473A4040F201173A434FF6DD775B
:104400003B404FF6FF7707EA06172F433B430181F6
:1044100002830384F0BD30B502460020002300244F
:10442000158A05EA0103958905EA010413B10CB167
:10443000012000E0002030BD70B505460C46208804
:1044400050B92389A28861882846FFF707FCE188D4
:10445000284600F0ABF925E0208804280AD12389FA
:10446000A28861882846FFF716FCE188284600F0FC
:10447000A6F917E0208808280AD12389A288618834
:104480002846FFF730FCE188284600F0A5F909E04E
:104490002389A28861882846FFF749FCE1882846DD
:1044A00000F0A3F970BD00210180418001218180CD
:1044B0000021C180018170471AB183890B43838138
:1044C00002E083898B4383817047000070B500242C
:1044D00000220023058C4FF6FE7635400584028CC1
:1044E0008388048B4FF68F752C40B51E2C400D88A9
:1044F0002C43751E2A408D892A434D882A43104D2E
:10450000A84202D00F4DA84213D14FF6F7752A40AA
:10451000CD892A434FF6FB752A408D882A434FF6F2
:10452000FF652B404FF6FF552B400D8A2B434D8ADC
:104530002B43838004838D684563028470BD000033
:1045400000000140000401400A460021018B4FF6A3
:10455000F7731940114301837047000070B50024C0
:1045600000220023058C4FF6EF7635400584028C3F
:104570008388048B48F6FF752C404FF6FF452C408E
:104580000D884FF6FF7606EA05252C434FF6DF75BA
:104590002A408D8906EA05152A434D8806EA051545
:1045A0002A43154DA84202D0144DA8421DD14FF602
:1045B0007F752A40CD894FF6FF7606EA05152A4316
:1045C0004FF6BF752A408D8806EA05152A434FF637
:1045D000FF352B404FF2FF752B400D8A06EA85050B
:1045E0002B434D8A06EA85052B43838004838D681F
:1045F0008563028470BD000000000140000401409A
:104600000A460021018B4FF2FF7319404FF6FF73EA
:1046100003EA0223194301837047000070B50024A8
:1046200000220023058C4FF6FF6635400584028C7E
:104630008388848B4FF68F752C404FF6FC752C4089
:104640000D882C434FF6FF552A408D894FF6FF7693
:1046500006EA05252A434D8806EA05252A43154D15
:10466000A84202D0144DA8421DD14FF2FF752A4036
:10467000CD894FF6FF7606EA05252A434FF6FF352A
:104680002A408D8806EA05252A434EF6FF752B4001
:104690004DF6FF752B400D8A06EA05152B434D8A12
:1046A00006EA05152B43838084838D68C5630284E5
:1046B00070BD000000000140000401400A460021D6
:1046C000818B4FF6F77319401143818370470021A6
:1046D00001804180818081608181C181018241822C
:1046E00070472DE9F04105460C46002601276088F9
:1046F00008B9022600E00026A088012801D102277F
:1047000000E001272088A0B92389A2886188284673
:10471000FFF7A4FAE188284600F048F823893A46D2
:1047200031462846FFF7B7FAE188284600F047F8F7
:1047300013E02389A28861882846FFF7ACFAE18854
:10474000284600F03CF823893A4631462846FFF7D0
:1047500085FAE188284600F029F8BDE8F08121B10A
:10476000828842F08002828004E082884FF67F7364
:104770001A40828070470A46002101894FF68F73E4
:10478000194011430181704702894FF67F731A4027
:10479000028102890A430281704702894FF6F87349
:1047A0001A40028102890A4302817047028B4FF648
:1047B000F3731A400283028B0A4302837047028B11
:1047C0004FF2FF331A400283028B4FF6FF7303EA66
:1047D00001231A4302837047828B4FF6F3731A400A
:1047E0008283828B0A4382837047828B4FF2FF332E
:1047F0001A408283828B4FF6FF7303EA01231A4328
:104800008283704700220288184B98420ED0184BC2
:1048100098420BD0B0F1804F08D0164B984205D08B
:10482000154B984202D0154B984204D14FF68F7326
:104830001A404B881A43124B984207D0114B9842AA
:1048400004D04FF6FF431A400B891A4302804B688D
:10485000C3620B880385054B984202D0044B9842F3
:1048600001D18B7A038601238382704700000140C7
:10487000000401400004004000080040000C00401B
:1048800000100040001400404FF0FF314160002153
:1048900001800181418081727047000000B58DB0B8
:1048A00001210846FEF7FCFE3E48FFF7CBFC002046
:1048B000ADF830002020ADF82A0041F267000B90DF
:1048C0000020ADF828008DF832000AA93548FFF71E
:1048D00099FF05A8FFF7FBFE7020ADF8140000203B
:1048E000ADF82400ADF826000220ADF82000082025
:1048F000ADF822000120ADF816000420ADF8180034
:104900000A20079005A92748FFF7E0FD0821254860
:10491000FFF71AFE0A20079005A92248FFF71EFE9E
:1049200008212048FFF76CFE0A20079005A91D48C2
:10493000FFF774FE08211B48FFF7C0FE012119484C
:10494000FFF750FC012211461648FFF7B5FD002085
:10495000ADF804004FF48060ADF806000020ADF81B
:104960000800E020ADF80A000020ADF80C004FF47C
:104970000050ADF80E004000ADF8100001A9094844
:10498000FFF720FCFDF77CFA01210648FFF70EFC3B
:1049900001210448FFF72CFC01210248FFF734FCF9
:1049A0000DB000BD000001400EB501210846FEF724
:1049B00057FE4FF08040FFF745FC6846FFF764FF65
:1049C0000020ADF80800ADF8020041F26700019048
:1049D0001320ADF8000069464FF08040FFF712FF4A
:1049E00000214FF08040FFF703FC01218807FFF70B
:1049F000F9FB012211469007FFF75EFD0EBD000096
:104A000000B587B001210220FEF72AFE2648FFF7F5
:104A100019FC04A8FFF738FF0020ADF81200ADF82C
:104A200018004FF6FF7005900020ADF8100004A9A3
:104A30001D48FFF7E7FE0A231A4603211A48FFF72D
:104A4000C9FC01A8FFF72FFD0020ADF804000120EC
:104A5000ADF80C0001A91448FFF7EEFC0420ADF8F6
:104A600004000120ADF80C0001A90F48FFF7E4FC99
:104A70000820ADF804000020ADF806000120ADF8D4
:104A800008000020ADF80C00ADF80A0001A90648A6
:104A9000FFF7D2FC002004492431086001210248BC
:104AA000FFF7A6FB07B000BD0004004000B587B0CB
:104AB00001210420FEF7D4FD0020ADF81800ADF868
:104AC00012004FF6FF7005900020ADF8100004A909
:104AD0001A48FFF797FE0020ADF804000A20ADF851
:104AE00006000020ADF80C00ADF80A000120ADF87A
:104AF000080001A91148FFF79FFC0420ADF804004D
:104B000001A90E48FFF798FC0820ADF8040001A9A0
:104B10000A48FFF791FC01210848FFF720FE022117
:104B20000648FFF75FFB012202210448FFF7C4FC9F
:104B300001210248FFF75CFB07B000BD0008004000
:104B400000B595B001210820FEF78AFD0121480536
:104B5000FEF776FD3D48FCF72BFE4FF040600090DD
:104B60003B4801903B4802900020039006200490AF
:104B7000002005904FF48060069080000790800030
:104B800008908011099040020A9000200B900120AB
:104B90000C9000200D900E9069462C48FCF704FF05
:104BA00001212A48FCF7F8FD29483438FFF74AFB71
:104BB00012A8FFF769FE0020ADF84A00ADF85000DA
:104BC000401E13900120ADF8480012A92048343847
:104BD000FFF718FE0FA8FFF766FC0020ADF83C00B9
:104BE000ADF83E000120ADF840000020ADF84200D5
:104BF000ADF844000FA916483438FFF772FD502174
:104C000013483438FFF7B7FD042111483438FFF753
:104C1000C4FD80210E483438FFF7B6FD4FF4807292
:104C20000D210B483438FFF707FB012251020848D9
:104C30003438FFF7F8FA00200549103908600121DF
:104C400003483438FFF7D4FA15B000BD4060024085
:104C5000340C0040AC0C002000BFFEE72DED020B31
:104C6000019820F0004001909DED000B02B07047CC
:104C700030B5034600214FF0E024A2690020A824AB
:104C8000634300BF4FF0E024A069904202DA8C1821
:104C9000211A05E08C184FF0E0256D692C44211A8B
:104CA00002469942EED330BD00B585B04FF4A06006
:104CB000FDF762FAFEF788FBFBF768FEFDF7F2FAF4
:104CC0000020FDF77DFB0E4908600020FDF778FB12
:104CD0000C490860072000214FF480720A4BCDE98F
:104CE0000132CDE9031032200346084A00900848FB
:104CF000FDF7DCFBFDF78EFB002005B000BD0000DA
:104D00000000002004000020EC070020E80B002039
:104D1000E908000821F00042A2F16052B2F5801FBC
:104D200001F0004328BFD2F17E6C51D9F1EE10CAD8
:104D30001CF4400F14D15FEAC00C43EAC20202EB3C
:104D4000507008BF70475FEA4C0C40F10000DFF87C
:104D500080C240F0CB8228BF20F0010000F0C6BA2C
:104D6000C30001F0004343EAC20202EB507008BFE7
:104D700070471B4248BF4FEA4C0C1CF4000F08BFA1
:104D8000401CDFF84CC200F0B1BAC30001F0004390
:104D900043EAC20202EB507204BF104670471B4246
:104DA00048BF4FEA4C0C1CF4000FDFF824C218BFB8
:104DB000104640F09B8208BF521C12F4000F08BF3F
:104DC000104600F0938221F0004201F0004330E0F1
:104DD00050EA410C04BF084670475FEA125CBCF120
:104DE000FE0F1ED1F1EE10CA1CF4400FCDD15FEAC8
:104DF000C00C9BD05FEA001C4FEAC20C4CEB507C0D
:104E000004BFC2002CEAD27C1CF4000F04BF4CEAA1
:104E10000300DFF8BCC100F0698221F00042A2F17A
:104E20006052B2F5801F4FEA410C2ADB1CF5001FCF
:104E300016D2F1EE10CA1CF4806F06D02CF0005C84
:104E40004CF0805CA1F140612AE04FF07F40DFF838
:104E500084C143EA500000F049BA084600F0F7BBAD
:104E600070B500F0C6F800BF000000B9880000046B
:104E7000FFF7F3BF21F0704243EA507040EAC200EE
:104E80007047F1EE10CA2CF0805C4CF0005C1CF412
:104E9000006F25D04B00B3F5001F51D301F14061E5
:104EA0001CF4400F40F07E800CF0405CC3004CF0DE
:104EB000880C11D05CF0404C10F0805F0CD00346A1
:104EC00010F1005041F10001020108BF20F0005034
:104ED000834218BF2CF0004C00F0604000F0B3BCDF
:104EE0001CF4400F1AD01B4248BF4FEA4C0C1CF474
:104EF000000F13D112F1406248BF22F07F424FEA07
:104F0000C00CBCF1010F43EAC20242EB50704FF0FB
:104F1000880228BF42F0804200F09EBB12F140623E
:104F200048BF22F07F425FEAC00C43EAC20242EA75
:104F300050704FF0880218BF42F0404200F08CBB26
:104F400001F0004321F00041094214D0B1FA81FC84
:104F5000ACF10B0CCCF1200201FA0CF120FA02F2B8
:104F600041EA02014FEA0C5200FA0CF0A1EB0201F7
:104F700081EA03010FE0B0FA80F200FA02F002F1D8
:104F800015024FEAD0214FEA0252A1EB02014FEA8B
:104F9000405081EA0301F1EE10CA2CF0805C4CF025
:104FA000005C7BE762460CF0405CC3004CF0880C70
:104FB00092D05CF0404C094248BF520012F4000FFE
:104FC0008AD110F1005041F100012CF0004C83D146
:104FD0008800004088000010B1FA81F201FA02F165
:104FE000C2F11D024FEA415003EB025303EBD12102
:104FF00070470EF1020E2EF0030E01285EF8086BCA
:1050000041EB010414F5001418BFB4F5801F23D33D
:10501000364208D4012A43EB030515F5001518BFE5
:10502000B5F5801F18D301EB010C1CF5801F16D2BB
:10503000364204D403EB030C1CF5801F0FD2002C66
:1050400010D14FEAD17C002D0CEB4C0C0CF1020C72
:1050500008BF4CEBD37C07E04FF0090C04E04FF0A5
:10506000080C01E04FEAD37C0CEB4C0526FA05F660
:1050700006F00706B6F1040C06D20EEB860CBDE86E
:1050800070404CF0010C6047DFE80CF02224130262
:105090005EF804CC1B2D08D1002C88BFB4F5801F0E
:1050A00034BF4CF4804C4CF4004CBDE8704000F030
:1050B0001DB9002C88BFB4F5001F24BF1946104647
:1050C00070BD4FF000004FF00041A1F5002170BD10
:1050D00019461046012851EB010418BFD4F50014FD
:1050E00084BF5EF804CC2CF0806CBDE8704000F208
:1050F000DC80704780B54FF003065C004FEA033355
:105100004FEA3606640D4FEA133318BF43F4801399
:105110001CD153EA125E04F1010402BF13460022BF
:10512000203C1B4202BF130B1205143CB3FA83FE52
:10513000AEF10B0ECEF1200C03FA0EF322FA0CFCAA
:1051400002FA0EF2A4EB0E0443EA0C030FB416F0BD
:10515000010F0CBC03BC18BF2546CED180BD80B565
:105160000126F3E70808A0F500114FEA3101704766
:10517000F1EE103A13F0807F1EBF01F000410020D5
:10518000704713F4006F40F0AA80094248BF4CF406
:10519000803C4FF4C0634FEA115203F1010321EA4E
:1051A000025122F400629A1A48BF6FF0FE0241F4E5
:1051B0008011352A3CD830D0152A1ED3203A0CD97C
:1051C0000028C2F1200321FA02F001FA03F218BF0D
:1051D00042F001024FF0000130E0C2F1000302F1A1
:1051E000200201FA03F120FA02F241EA020100FA78
:1051F00003F208464FF0000120E0C2F1200310B492
:1052000000FA03F401FA03F320FA02F021FA02F1A2
:10521000224610BC43EA000010E050EA01324FF091
:1052200000004FF000014FF0004218BF521C05E093
:105230004FF001024FF000014FF000001CF4803FDE
:105240002CF4803C18BF41F0004112421ED0F1EE18
:10525000103A13F4400F20D1520003D30CD0401C5D
:1052600041F10001F1EE103A4CF0804C43F008039C
:10527000E1EE103A00F03AB85FEAAC72EFD4F1D147
:10528000401C41F1000120F00100EBE71CF0804FD1
:1052900008BF70472CF0004CE4E7094254BF13F4F8
:1052A000000F13F4800FDDD1D9E7F1EE103A13F0BF
:1052B000807F1EBF01F000410020704713F4006F93
:1052C00008BF70472DE9F050FFF749FF04F5C064AF
:1052D000A4F10104314301EB0451BDE8F0504CF05E
:1052E000005C4CF0800C00F0AEBA00001CF0700FB7
:1052F00008BF0A460FB4F1EE101A0CF0405030EA25
:10530000814318BF4CF0804C4FEA4C0310EA814FA8
:105310004FEAD36323EA112318BF23F0100341EAB5
:10532000030101F0E073E1EE101A4CEA030C0CF0FB
:105330000F030A2B1DBF082B0CF070034CEAC30CA3
:105340004FF4003304BF33EA0C034CF4400C1CF060
:10535000005F14D11CF0805F0BD11CF0804F31D165
:105360001CF0006F12D111F4807F0FBC62D000F0EE
:105370006ABA11F4806F0FBC2BD000F064BA11F43C
:10538000006F0FBC08BF704700F05DBA11F4007FDA
:105390000FBC40F058821CF0400F1EBF4FF0004081
:1053A00040F0010070471CF0100F14BF81EA0302A7
:1053B00042400CF00F000A2808BF4FF0FF324FF0B8
:1053C000000326E011F4805F0FBC08BF704700F0B7
:1053D0003ABAF1EE103A2CF0805C1CF0800F14BF4A
:1053E00001F0004200F0004212420CBF12EA336F9B
:1053F00012EAF35F0DD31CF0100F1DBF30A003C8DD
:105400001143314808BF104313F4805F40F01B8202
:1054100070471CF0100F02F000421DBF0FF2940005
:1054200003C81143254808BF104313F4805F40F0C0
:105430000A8270471CF0400F40F028801CF4404F57
:105440001BD01CF4004F1CBF194610460CF4807290
:1054500018BF8CEA520C1CF0800F0CBF40F4800087
:1054600041F400218CEADC0313F0100F1CBF2CF078
:105470000F0C4CF0080C00F08DB91CF0100F1ABF87
:1054800012A393E80300134800F084B91CF0800FC6
:1054900014BF01F0004200F000421CF0100F1BBFCF
:1054A0000AA393E803000B48114308BF104300F020
:1054B00071B900BF000000000000F07F0000807F95
:1054C000FFFFFFFFFFFFEF7FFFFF7F7F0000000078
:1054D0000000F87F0000C07F43004FEAD30C4FEA82
:1054E0003C0C43401FBF40070CF1605113F0FE4FCE
:1054F00070471CF0006F14D133F0004004BF194610
:10550000704783EA830383EA430303F0070343EA14
:10551000CC010CF0004303F15A5303F54013FFF79D
:105520005BBD0CF0004343EA507010B540EACC007C
:1055300000F00FF8000000BA180000044FEA000164
:10554000FFF710BE4FEAE0024FEA407042F0E04140
:1055500070470EF1020E2EF0030E4FEA40025EF885
:10556000084B12F1807218BFB2F5000F22D324420B
:1055700007D44FEA410313F1807318BFB3F5000F4E
:1055800018D34FEA400C1CF5000F16D2244204D465
:105590004FEA410C1CF5000F0FD2002A10D14FEA40
:1055A000D07C002B0CEB4C0C0CF1020C08BF4CEB2C
:1055B000D17C07E04FF0090C04E04FF0080C01E04B
:1055C0004FEAD17C0CEB4C0324FA03F404F00704FB
:1055D000B4F1040C06D20EEB840CBDE810404CF084
:1055E000010C6047DFE80CF01F2013025EF804CCCA
:1055F0001B2B08D1002A88BFB2F5000F34BF4CF432
:10560000804C4CF4004CBDE81040FFF76FBE002A00
:1056100088BFB2F1807F28BF084610BD4FF0004020
:10562000A0F5800010BD0846420018BFD2F180727C
:1056300084BF5EF8042C22F08062BDE8104000F2C6
:105640008A8070474FF00000E1EE100A7047FF219A
:1056500041EAD050C0057047F1EE101A11F0807F7A
:105660001CBF00F00040704711F4006F40F08E80C6
:1056700000F0004343EAD05323F48073C3F1C10325
:1056800023F00041172941D8C3F1200310FA03F198
:10569000C3F1200320F07F4040F4000020FA03F023
:1056A00003F0004340EA030019D00B46F1EE101A54
:1056B00041F00801E1EE101A11F4400F1CD159001D
:1056C00009D318BF401C06D17FEAE27398BF401C83
:1056D00038BF20F0010042F0804CFFF707BE12F007
:1056E000804F08BF7047F1EE101A944641F0080150
:1056F000E1EE101AFFF7FABD10F0004F14BF5FEA99
:10570000F1535FEA316338BF401CE4E7182903EB2B
:10571000912318BF6FF000410131F1EE101A41F0F2
:105720000801E1EE101A11F4400F18BF03F0004019
:10573000E2D168BF03F0004009D6400203F0004008
:1057400000F1010004BF12F0004F20F001004FF003
:10575000804CFFF7CBBDF1EE101A11F0807F1CBF1B
:1057600000F00040704711F4006F08BF704700F070
:10577000004120F00040B0FA80F3A3F1080341F0AB
:10578000C04100FA03F0A1EBC351084442F0005CB1
:1057900000F059B80CF00F03092B08BF082000F0E7
:1057A00064800A2B32D0082B18BF704708BF1CF04A
:1057B000400F31D01CF4803F23D11CF0200F11D1B9
:1057C0001CF0100F0BBF02460A466FF000406FF04E
:1057D000004118BF4FF0FF3012F0004F1CBFC04314
:1057E000C94370471CF0100F0CBF02460A4612F066
:1057F000004F4FF0FF304FF0FF311CBFC043C94393
:1058000070474FF000004FF0000170471CF0400F50
:1058100018BF4FF0004070471CF0100F08D020F068
:10582000704300F07F4242EAD3014FEA4370704771
:1058300000F0604021F07F4242EA000201F07F4028
:1058400040EA727070472DE900502DE90050FAF7D8
:1058500023FEBDE80050BDE800500CF00F0393F0AC
:10586000090F18BF7047AFF300801CF4801F24D0CD
:105870001CF4E02F09D010F0080F02D1D0F1020083
:1058800070476FEACC31490070474FF0604111EA30
:10589000407028BF40F04050F1EE103A23F07043C2
:1058A00043EA0003E1EE103AEFF3008222F0704287
:1058B00042EA000282F3008870471CEA004018BFE9
:1058C00001207047010000007856341201001400D6
:1058D00001003000C00301000100100014000200AC
:1058E00005000100FD000100010005000100180095
:1058F00078000100040001000400180010000100FD
:1059000004000100010001008000010016000100F8
:1059100001008000010001000100FE005C00640045
:1059200001001B7200001000010007000A000000C7
:105930000000000000002715000001000200010027
:105940000300010002000100040001000200010048
:105950000300010002000100050001000200010037
:105960000300010002000100040001000200010028
:105970000300010002000100060001000200010016
:105980000300010002000100040001000200010008
:1059900003000100020001000500010002000100F7
:1059A00003000100020001000400010002000100E8
:1059B00003000100020001000700010002000100D5
:1059C00003000100020001000400010002000100C8
:1059D00003000100020001000500010002000100B7
:1059E00003000100020001000400010002000100A8
:1059F0000300010002000100060001000200010096
:105A00000300010002000100040001000200010087
:105A10000300010002000100050001000200010076
:105A20000300010002000100040001000200010067
:105A3000030001000200010000000000920E493C3A
:105A4000B10AC93C2BC3163D2EFB483D752B7B3D4F
:105A500004A9963D80B6AF3D36BDC83D2FBCE13DA3
:105A600073B2FA3D87CF093E8340163EB5AB223E66
:105A7000A2102F3ECF6E3B3EC2C5473E0115543E9D
:105A8000135C603E7F9A6C3ECCCF783EC07D823EF8
:105A9000938E883E229A8E3E32A0943E86A09A3EF5
:105AA000E59AA03E128FA63ED47CAC3EEF63B23E98
:105AB0002A44B83E491DBE3E15EFC33E53B9C93E08
:105AC000CA7BCF3E4136D53E80E8DA3E4F92E03E7B
:105AD0007533E63EBBCBEB3EEA5AF13ECBE0F63EF9
