:020000040800F2
:10000000C02B00202902000849200008BD1D00085F
:10001000FD1F0008FD090008A14F000800000000B6
:10002000000000000000000000000000693C000823
:10003000DB1800080000000007030008512C00082E
:1000400063020008630200086302000863020008FC
:1000500063020008630200086302000863020008EC
:1000600063020008630200086302000863020008DC
:1000700063020008630200086302000863020008CC
:10008000630200086302000863020008D50A000842
:10009000010A000863020008630200086302000806
:1000A00063020008BD420008630200086302000802
:1000B0000944000899440008B94400086302000894
:1000C000630200086302000863020008630200087C
:1000D000630200086302000863020008630200086C
:1000E000630200086302000863020008630200085C
:1000F000630200086302000863020008630200084C
:100100006302000863020008D94400086302000883
:10011000630200086302000863020008630200082B
:100120008915000863020008D11500086302000861
:10013000630200086302000863020008630200080B
:1001400063020008630200086302000863020008FB
:1001500063020008630200086302000863020008EB
:1001600063020008630200086302000863020008DB
:1001700063020008630200086302000863020008CB
:10018000630200086302000800F002F800F03CF887
:100190000AA090E8000C82448344AAF10107DA45E2
:1001A00001D100F031F8AFF2090EBAE80F0013F0F8
:1001B000010F18BFFB1A43F001031847C863000082
:1001C000E8630000103A24BF78C878C1FAD8520713
:1001D00024BF30C830C144BF04680C6070470000C1
:1001E0000023002400250026103A28BF78C1FBD840
:1001F000520728BF30C148BF0B6070471FB505F0DC
:10020000C5FB1FBD10B510BD00F05EF91146FFF72C
:10021000F5FF04F0EDFE00F07CF903B4FFF7F2FF08
:1002200003BC00F0E3F9000011488047DFF8440008
:10023000016841F470010160BFF34F8FDFF83800AF
:10024000016821F040410160BFF36F8F0B48004708
:10025000FEE7FEE7FEE7FEE7FEE7FEE7FEE7FEE776
:10026000FEE7FEE706480749074A084B70470000CB
:100270002D3F000888ED00E034EF00E08901000820
:10028000C0250020C02B0020C0270020C027002050
:10029000EFF3098141B1F1EE101A40F8041D20ED91
:1002A000200A2C490A6810607047B0EC200A02C886
:1002B000E1EE101A28490A6810607047EFF31080C9
:1002C00072B6704780F31088704724484FF0FF01E2
:1002D0000170002080F309882148016881F30888B3
:1002E00020480121017020484FF08051016062B622
:1002F000FEE71D484FF08051016070471A484FF0EB
:1003000080510160704772B6EFF3098040B1403808
:1003100080EC108A203880E8F00F0E4909680860E8
:1003200000B5124880475DF804EB114811490A787E
:100330000270084808490A680260106890E8F00FE7
:10034000203090EC108A403080F309884EF0F40E93
:1003500062B67047D0000020D800002022ED00E0F7
:10036000A4000020C800002004ED00E07D2A000861
:10037000C3000020C400002093081BD090ED000AA9
:10038000D0ED011AD0ED020A90ED031AB0EEC00ACA
:1003900081ED000AF0EEE11AB0EEE00AC1ED011ABB
:1003A000F0EEC10A81ED020AC1ED030A10301031EE
:1003B0005B1EE3D112F0030208BF7047B2F1004F99
:1003C00023D2002AD8BF7047001F091F12F0010F67
:1003D00007D090ED010A001DB0EEC00A81ED010AC0
:1003E000091D520808BF704790ED010AB0EEC00A1F
:1003F00081ED010A90ED020A0830B0EEC00A81EDED
:10040000020A0831521EEFD17047B0EC010A521EA9
:10041000B0EEC00AA1EC010AF7D17047DFED190A6E
:10042000B5EEC00A60EE200ABDEEE01A11EE100A29
:10043000F1EE10FA38BF401E00EE100A1349F7EE35
:10044000001AB8EEC00A30EEC00ADFED0F0A60EE07
:10045000200ABCEEE00A10EE100AC0F3080000EE1D
:10046000100A01EB8000B8EE400A90ED011A70EE20
:10047000C00A90ED000A71EEE01A21EE800A00EE4B
:10048000810A704783F9223E00000044805D000825
:1004900070477047704700001FB584B000200A9C69
:1004A00006AB04AA02A90094AFF3008018B1DDE9FD
:1004B000020108B010BD0348204000F030F80020D1
:1004C0000146F6E70000207C754600F02FF8AE46A6
:1004D00005006946534620F00700854618B020B550
:1004E000FFF7C0FEBDE820404FF000064FF00007C8
:1004F0004FF000084FF0000B21F00701AC46ACE8CC
:10050000C009ACE8C009ACE8C009ACE8C0098D4638
:1005100070470446AFF300802046FFF77EFE10B51B
:1005200000F00EF8BDE8104000F004B80048704735
:100530005C250020002801D000F058B8704700006A
:1005400010B5022803D0410103D50DA112E000200F
:1005500010BD010101D50FA10CE0C10001D511A111
:1005600008E0810001D512A104E0400001D513A1EB
:1005700000E0002115A000F03FF8012010BD0000B0
:10058000496E76616C6964204F7065726174696F41
:100590006E000000446976696465204279205A65DE
:1005A000726F00004F766572666C6F770000000016
:1005B000556E646572666C6F77000000496E6578F1
:1005C00061637420526573756C740000534947462B
:1005D00050453A2041726974686D6574696320659D
:1005E0007863657074696F6E3A20000001491820C5
:1005F000ABBEFEE72600020070B505460C460A2099
:1006000000E06D1C00F011F835B128780028F8D111
:1006100002E0641C00F009F814B120780028F8D139
:10062000BDE870400A20AFF3008008B569468DF838
:1006300000000320ABBE08BD704721B1826842F0C4
:100640000102826003E0826822F00102826070474A
:100650000021084A1168084A1140D0E900231A43D2
:1006600083681A43C3681A431143044AC2F8041347
:100670007047000004230140E030FCFF00200140EF
:1006800021B1826842F48072826003E0826822F4C1
:1006900080728260704721B1826842F40072826089
:1006A00003E0826822F400728260704700B599B05E
:1006B0000121080203F006F800F07EF800201190F6
:1006C0000F904FF4803010904FF4407012900FA8AC
:1006D000FFF7BEFF0020139001208DF8500000208E
:1006E0008DF851001590179003208DF8600013A924
:1006F0002E4800F06DF801231A4605212B4800F022
:1007000091F8012302220621284800F08BF80123EA
:1007100003220721254800F085F80121880502F011
:10072000A1FF234800F0A0FF002000901F484C309C
:1007300001902048029000200390032004900020A4
:1007400005904FF48060069040000790800008906C
:100750004011099040020A9000200B9001200C905B
:1007600000200D900E906946114801F079F80121A2
:100770000F4800F06DFF10210D4800F04FFF0122DF
:1007800010210B4801F04EF801210848FFF783FFC4
:1007900001210648FFF774FF01210448FFF74DFFD0
:1007A000024800F09BF819B000BD00000020014095
:1007B00010640240A80C002010B50121080202F0CC
:1007C00091FF00214FF4807002F08CFF10BD0000FB
:1007D00030B50246002000235068104C20400D79AF
:1007E0000C6844EA05242043506090680C4C20407B
:1007F000D1E903542C438D682C434D7944EA4504D8
:1008000020439060D06A20F470000C7D641EE4B236
:10081000234340EA0350D06230BD0000FFFEFFFCDE
:10082000FDF7FFC0F0B504460D4600200021092D5C
:1008300011DDE068A5F10A0606EB4607072606FA71
:1008400007F18843A5F10A0606EB460603FA06F10E
:100850000843E0600CE0206905EB4507072606FA2F
:1008600007F1884305EB450603FA06F108432061CA
:10087000072A0FDA606B561E06EB86071F2606FA5C
:1008800007F18843561E06EB860605FA06F1084373
:10089000606322E00D2A0FDA206BD61F06EB860775
:1008A0001F2606FA07F18843D61F06EB860605FACF
:1008B00006F10843206310E0E06AA2F10D0606EBA2
:1008C00086071F2606FA07F18843A2F10D0606EBFC
:1008D000860605FA06F10843E062F0BD816841F042
:1008E000804181607047000010B586B004461E4804
:1008F00002F0C2F94FF4FA7004F05EFB01F0BCFDA7
:10090000032000214FF48072184BCDE90132CDE96C
:10091000031006200346164A0090164801F0D4FD45
:10092000032000214022144BCDE90132CDE9031010
:1009300031200346104AFC320090104801F0C4FDFB
:100940000320002180220E4BCDE90132CDE90310B6
:10095000072003460B4A00900B4801F0B5FDFF202D
:1009600001F010FE06B010BD80A21900F4000020B6
:10097000F0040020D13E0008F4060020CD1F00083E
:10098000F4040020F00600200537000810B501F03F
:100990005DFB00F0CDFF02F0EDFF04F023F904F061
:1009A000A7F904F0D1F904F025FA04F06DFAFFF785
:1009B0007DFE00F08FFD00F02BF902200249087047
:1009C0000020487010BD00000D00002030B90A4919
:1009D000096841F40051084A11600AE0012807D172
:1009E000054909684DF6FF721140034A116000E0A5
:1009F000704700BFFCE700001408024000BFFEE79C
:100A000010B501F091FC0221304800F0EFF9012807
:100A10004ED102212D4800F0A7F82D4A00212B4885
:100A200000F007FB2A481838008B00F47860B0F516
:100A3000B06F29D12648183890F8230043280BD1ED
:100A40002348183890F82400FF2805D1204818388A
:100A500090F8250060282BD01D48183890F8230006
:100A600043280BD11A48183890F82400402805D1A3
:100A70001748183890F82500222819D00120144969
:100A8000183981F82C0013E0114818388069B0F546
:100A9000E06F0CD00E4818388069B0F5E06F06D0D2
:100AA0000B4818388069B0F5E06F00D000BF00BF78
:100AB0000421064800F09AF9012803D104210348D3
:100AC00000F052F801F042FC10BD0000006400404C
:100AD0005C0E002010B501F027FC2148407D88B154
:100AE0002048006800F0010008B301201D4908609B
:100AF000002201211B48083800F008FA002018499C
:100B000048752AE01648807D90B11648006800F4C8
:100B1000807060B14FF4807012490860002201219A
:100B20001048083800F0F2F900210D48817514E0F2
:100B30000B48C07D88B10B48006800F4803060B17C
:100B40004FF4803007490860002201210548083829
:100B500000F0DCF900210248C17501F0F7FB10BD7F
:100B6000440E002008640040B1F5007F3AD00FDC4D
:100B7000202928D006DC01291CD004291DD00829F1
:100B800040D11DE0402921D0B1F5807F3AD126E047
:100B9000B1F5004F31D006DCB1F5806F25D0B1F54D
:100BA000006F2FD124E0B1F5803F12D0B1F5003FA6
:100BB00028D111E0154A826025E00822C26022E0B7
:100BC0001022C2601FE0082202611CE010220261B4
:100BD00019E00822426016E01022426013E004226D
:100BE000426010E0042242600DE0042242600AE00C
:100BF000002282610422426005E000228261042218
:100C0000426000E000BF00BF70470000010101002A
:100C100000B587B00121480602F034FD224800F0FB
:100C200045F804A800F07DFA00208DF817008DF833
:100C300018008DF8160001208DF8190000208DF89D
:100C40001A008DF81B008DF812008DF81300052096
:100C50008DF8140006208DF81500ADF8100004A9D9
:100C6000114800F05CF900208DF80A008DF80B00A7
:100C700001208DF80C000020ADF80000ADF8020056
:100C8000ADF80400ADF80600ADF8080001208DF8BD
:100C90000D00684600F026F801220721024800F006
:100CA00035F907B000BD00000064004010B50446EF
:100CB0000B48844209D10121480602F0F3FC0021CF
:100CC0004FF0007002F0EEFC08E00121880602F00F
:100CD000E9FC00214FF0806002F0E4FC10BD000050
:100CE0000064004010B50021837A012202FA03F16A
:100CF0003D4A126842F001023B4B1A603A4A1C32EC
:100D000012688A43384B1C331A60027BCAB9364AD0
:100D10000C3212688A43344B0C331A604288C38801
:100D200042EA0343304A4032847A42F8343002883F
:100D3000838842EA03432C4A4032847A02EBC4029D
:100D40005360027B012A19D1274A0C3212680A43E8
:100D5000254B0C331A604288038842EA0343224A37
:100D60004032847A42F83430C288838842EA0343AE
:100D70001D4A4032847A02EBC4025360C27A3AB907
:100D8000194A121D12688A43174B1B1D1A6006E090
:100D9000154A121D12680A43134B1B1D1A60028963
:100DA00032B9114A143212688A430F4B14331A6055
:100DB0000289012A06D10C4A143212680A430A4BEE
:100DC00014331A60427B012A06D1074A1C3212688A
:100DD0000A43054B1C331A60034A126822F00102D1
:100DE000014B1A6010BD00000066004070B504465B
:100DF0000D46002660692840002871D0B5F5807F37
:100E00005CD010DC082D35D006DC012D20D0022D61
:100E100024D0042D72D127E0102D31D0202D35D0D3
:100E2000402D6BD138E0B5F5004F60D009DCB5F549
:100E3000007F49D0B5F5806F4CD0B5F5006F5DD11E
:100E40004FE0B5F5803F2DD0B5F5003F56D12FE0EE
:100E5000A0682D4900F036FA064651E0E06803210B
:100E600000F030FA06464BE0E068082100F02AFA6C
:100E7000064645E0E068102100F024FA06463FE00F
:100E80002069032100F01EFA064639E02069082196
:100E900000F018FA064633E02069102100F012FA3B
:100EA00006462DE06068082100F00CFA064627E0AF
:100EB0006068102100F006FA064621E0A0690121D1
:100EC00000F000FA06461BE0A069022100F0FAF9E2
:100ED000064615E0A069042100F0F4F906460FE08B
:100EE0000FE0A069702100F0EDF9064608E06068A7
:100EF000042100F0E7F9064602E0FFE7002600BF04
:100F000000E00026304670BD010101001AB14369BE
:100F10000B43436102E043698B434361704730B543
:100F2000024600200023146824F0020414601468B0
:100F300044F00104146000E05B1C546804F00104F8
:100F40001CB94FF6FF74A342F6D1546804F00104B3
:100F50000CB900206CE08C79012C04D1146844F0A9
:100F60008004146003E0146824F080041460CC79D9
:100F7000012C04D1146844F04004146003E01468A8
:100F800024F0400414600C7A012C04D1146844F05D
:100F90002004146003E0146824F0200414604C7AE8
:100FA000012C04D1146844F01004146003E01468A8
:100FB00024F0100414608C7A012C04D1146844F0DD
:100FC0000804146003E0146824F008041460CC7A68
:100FD000012C04D1146844F00404146003E0146884
:100FE00024F0040414608C78A407CD7844EA0564E6
:100FF0000D7944EA05444D7944EA05540D886D1E87
:101000002C43D461146824F001041460002300E030
:101010005B1C546804F001041CB14FF6FF74A3423A
:10102000F6D1546804F001040CB1002000E0012066
:1010300030BD10B500F5D87303EB01131B6803F046
:1010400004031372137A53B900F5D87303EB011339
:101050001B6840F2FF7404EA5353136009E000F583
:10106000D87303EB01131B686FF0604404EAD303E9
:10107000536000F5D87303EB01131B6803F0020300
:10108000537200F5D87303EB01135B6803F00F0391
:10109000937200F5D87303EB01135B681B0AD374DA
:1010A00000F5D87303EB01139B68D37200F5D87376
:1010B00003EB01139B681C0A147300F5D87303EB50
:1010C00001139B681C0C547300F5D87303EB0113D8
:1010D0009B681B0E937300F5D87303EB0113DB6859
:1010E000D37300F5D87303EB0113DB681C0A147487
:1010F00000F5D87303EB0113DB681C0C547400F586
:10110000D87303EB0113DB681B0E937421B9C3681A
:1011100043F02003C36003E0036943F0200303614D
:1011200010BD00218171C171017241728172C17261
:101130008170C1700321017102214171012101807F
:10114000704700000648008C4FF6FF310840044904
:1011500008840846008C40F0400008847047000076
:10116000000001400648008C4FF6EF71084004492A
:1011700008840846008C40F0010008847047000095
:10118000000001400648008C4FF6FF61084004490A
:1011900008840846008C40F0100008847047000066
:1011A000000001400648008C4FF6FB7108400449DE
:1011B00008840846008C40F4806008847047000072
:1011C000000001400648008C4FF6BF7108400449FA
:1011D00008840846008C40F0010008847047000035
:1011E000000001400648008C4FF6FE71084004499B
:1011F00008840846008C40F4807008847047000022
:10120000000001400648008C4FF6FF610840044989
:1012100008840846008C40F00100088470470000F4
:10122000000001400648008C4FF6BF710840044999
:1012300008840846008C40F48060088470470000F1
:10124000000001400648008C4FF6FF310840044979
:1012500008840846008C40F00100088470470000B4
:10126000000001400648008C4FF6FE71084004491A
:1012700008840846008C40F0100008847047000085
:10128000000001400648008C4FF6EF710840044909
:1012900008840846008C40F4807008847047000081
:1012A000000001400648008C4FF6FB7108400449DD
:1012B00008840846008C40F0400008847047000015
:1012C000000001400246002002EA01030BB10120A8
:1012D00000E000207047000010B500F023F8002067
:1012E0000E49488581F82C0081F82D00002406E085
:1012F00000210A480A3020F81410601CC4B2102CD7
:10130000F6DB00200549C88008819FED050A0846E4
:1013100080ED0C0A02F044FA10BD0000A80C002079
:101320000000000000200449C8710A2003494863F6
:101330008863C86370470000640D0020000001400E
:1013400010B501200349C8710121034803F0F4F8E6
:1013500010BD0000640D002000000140F8B50446F7
:1013600020882189401A07B2002F01DD384600E0AD
:10137000784207B260882189401A05B2002D01DD4C
:10138000284600E0684205B2A0882189401A06B2CA
:10139000002E01DD304600E0704206B2781930447C
:1013A000C0F34F000090684602F0D6FCE08007488A
:1013B0000078012806D1E088B0F5FA6F02DD4FF41D
:1013C000FA60E080012002494870F8BD0D0000205D
:1013D000640D002000200449488581F82C0081F824
:1013E0002D00088170470000A80C002000B50246BF
:1013F0009FED270AF0EE402A9FED250AB0EE402A25
:10140000244890ED0C0AB0EE402A234890ED060ADD
:10141000B4EEC20AF1EE10FA03D290ED060AB0EE75
:10142000402AB0EE420A104600F0D2FCF0EE402A0C
:101430009FED1A0A22EE800A194880ED0F0A90EDFE
:101440000F0ADFED180AB4EEE00AF1EE10FA04DD3F
:101450009FED140A80ED0F0A0DE0114890ED0F0A80
:10146000F2EE040AB4EEE00AF1EE10FA03D2B2EEA4
:10147000040A80ED0F0A0A4890ED0F0ABCEEC00A7C
:1014800010EE100A81B2084841638163C16300BD58
:1014900000000000A80C0020700C00200000D243C7
:1014A0008C0D002000007A450000014039B1084A47
:1014B0001268012383401A43054B1A6006E0044A70
:1014C0001268012383409A43014B1A607047000061
:1014D0000074004000B587B00121084602F0C2F850
:1014E0000121480702F0CEF805A800F00EFC032009
:1014F0008DF818001020059002208DF81B0005A91A
:101500000B4800F095FB0020019002900390022010
:10151000049001A9002000F00DF801210020FFF740
:10152000C5FF0021084600F01FF807B000BD00000D
:101530000000024030B5002200230A4C226840F629
:10154000FE748440A243D1E900452C438D682C43AE
:10155000CD6844EA050303FA00F42243014C2260FB
:1015600030BD00000074004008B500220092054A1A
:10157000009200F10802009B1A440092009A116048
:1015800008BD00000074004010B50D490D4800F082
:1015900017F998B10C48FFF7E1FE0B48C08800EE40
:1015A000100AB8EE400ADFED090A20EE200A0648CC
:1015B00080ED0C0A0249034800F030F810BD00002D
:1015C0002080001010640240A80C0020FFFF243C83
:1015D00010B50E490E4800F0F3F8A8B10B490C48BD
:1015E00000F01CF80B490A48183000F017F80121E8
:1015F000094880F8B0100021054800F029F80021C2
:101600000348183000F024F810BD000000802010BE
:101610004064024000800018A80C00200246094BDC
:101620009A4201D2084801E00648103801F0005300
:101630001BB1064B0B40C36002E0044B0B408360C0
:101640007047000010640240006002407D0F7D0F73
:1016500021B1026842F00102026003E0026822F058
:101660000102026070470000016821F00101016081
:101670000021016041608160C160016121214161FF
:101680004A49884204D13D21484A103A91608CE091
:1016900046491831884205D14FF47461434A103AE3
:1016A000916082E041493031884205D14FF4741194
:1016B0003E4A103A916078E03C494831884205D171
:1016C0004FF07461394A103A91606EE037496031E9
:1016D000884204D13649354A103AD16065E0334931
:1016E0007831884204D13349304A103AD1605CE005
:1016F0002E499031884204D12F492C4A103AD160AA
:1017000053E02A49A831884205D14FF03D51274A7C
:10171000103AD16049E02949884204D13D21274A45
:10172000083A116041E025491831884205D14FF44B
:101730007461224A083A116037E02049303188420A
:1017400005D14FF474111D4A083A11602DE01B4970
:101750004831884205D14FF07461184A083A116047
:1017600023E016496031884204D11149134A121FFF
:1017700011601AE011497831884204D10D490F4AAD
:10178000121F116011E00D499031884204D10A49BD
:101790000A4A121F116008E00849A831884204D1A2
:1017A0004FF03D51054A121F116070471060024012
:1017B0003D000020400F002000003D20106402404A
:1017C00070B50246002000240025124EB24201D21C
:1017D000114B01E00F4B103B104E0E4036B11E2650
:1017E00006EAD124166806EA040502E0566906F006
:1017F000800501F000560EB15C6800E01C68084EE0
:10180000344004EA010616B10DB1012000E00020C9
:1018100070BD000010640240006002403C0F3C0FAD
:101820007D0F7D0F10B501F080034BB122B14369EC
:1018300043F08003436103E0436923F08003436185
:1018400080290BD02AB1036801F01E0423430360F2
:1018500004E0036801F01E04A343036010BD000010
:1018600010B500220268134B1A40CC680B68234362
:101870004C6923438C692343CC6923430C6A23437B
:101880004C6A23438C6A23434C6B23438C6B234366
:101890001A430260426922F00702D1E90B34234364
:1018A0001A4342610B6943604B6883608B68C36075
:1018B00010BD00003F801CF000210160416081608C
:1018C000C160016141618161C16101624162816206
:1018D000C162016341638163704770470121124A0D
:1018E00082F83C100022104981F83E20C1F8802087
:1018F000A1F88420A1F88620C1F8AC20C1F8A0206E
:101900009FED0A0A81ED290A9FED080A81ED2A0A56
:10191000002006E000220449403141F82020411C0B
:10192000C8B21028F6DB7047A80C002000000000A9
:101930001CB50121072001F095FE684600F0E5F98D
:1019400001208DF8040000208DF806004FF400708F
:10195000009000208DF807008DF805006946B14819
:1019600000F066F94FF40071AE4800F0CCF968461B
:1019700000F0CBF902208DF8040000208DF806005D
:101980004FF4E060009002208DF807008DF805000C
:101990006946A54800F04CF901220821A24800F050
:1019A0008FF901220921A04800F08AF901220A21B9
:1019B0009D4800F085F94FF4E0619B4800F0A3F9E1
:1019C000684600F0A2F902208DF8040000208DF88E
:1019D00006004FF46040009002208DF807008DF85B
:1019E000050069468F4800F023F901220D218D483A
:1019F00000F066F901220E218A4800F061F9012207
:101A00000F21884800F05CF94FF46041854800F0F0
:101A10007AF9684600F079F902208DF804004FF455
:101A2000E070009001208DF8070003208DF805007C
:101A300069467E4800F0FCF8022206217B4800F04F
:101A40003FF902220721794800F03AF902220821E1
:101A5000764800F035F9684600F057F902208DF815
:101A60000400012000908DF8070003208DF8050088
:101A700069466D4800F0DCF8022200216A4800F057
:101A80001FF9684600F041F902208DF8040000209B
:101A90008DF806004FF4E070009001208DF80700EB
:101AA00002208DF8050069465E4800F0C1F8022268
:101AB00006215C4800F004F902220721594800F091
:101AC000FFF802220821574800F0FAF8684600F0B3
:101AD0001CF903208DF80400E0200090694652486C
:101AE00000F0A6F8684600F010F901208DF8040017
:101AF00000208DF806004FF40050009000208DF873
:101B000007008DF805006946484800F091F84FF449
:101B10000051464800F0F7F8684600F0F6F800205B
:101B20008DF804004FF44040009000208DF807002D
:101B30008DF8050069463D4800F07AF84FF44041C1
:101B40003A4800F0E0F8684600F0DFF802208DF82F
:101B5000040000208DF806004FF4C05000900120D2
:101B60008DF8070003208DF8050069462E4800F027
:101B70005FF809220B212C4800F0A2F809220C2161
:101B8000294800F09DF8684600F0BFF802208DF863
:101B9000040000208DF806008DF8070003208DF862
:101BA00005002820009069461E4800F041F80220F8
:101BB0008DF8040000208DF8060002208DF8070043
:101BC00003208DF80500102000906946154800F0AC
:101BD0002FF805220321134800F072F80522042192
:101BE000104800F06DF8052211460E4800F068F824
:101BF000684600F08AF801208DF8040000208DF876
:101C000006000120009000208DF8070002208DF8CA
:101C100005006946054800F00BF80121034800F073
:101C200072F81CBD0004024000000240000802409F
:101C3000F0B50A4600210023002400BF3DE0012545
:101C400005FA01F3156805EA03049C4234D10568DE
:101C50004F000326BE40B543056015794E00B540E0
:101C60000668354305601579012D02D01579022DDE
:101C700016D185684F000326BE40B543856055796F
:101C80004E00B540866835438560456801268E4024
:101C9000B5434560456896798E40B6B23543456098
:101CA000C5684F000326BE40B543C560D5794E00D8
:101CB000B540C6683543C560491C1029BFD3F0BD87
:101CC000F0B5002300244D07ED0E02FA05F3CE1007
:101CD00000F1200555F826504E07F70E0F26BE409E
:101CE000B543CF1000F1200646F82750CE1000F182
:101CF000200555F8265045EA0304CE1000F12005D2
:101D000045F82640F0BD418370474FF6FF710160F2
:101D10000021017141718171C171704700B502F0FC
:101D200005FA02F03DFA02F073FA00BD00B502F0C8
:101D3000FDF902F017FA02F089FA00BD00B502F0D1
:101D4000D9F902F049FA02F063FA00BD00B502F0D9
:101D5000B3F902F041FA02F079FA00BD00B502F0E1
:101D6000C9F902F0FFF902F08DFA00BD00B502F0EA
:101D7000A3F902F015FA02F085FA00BD10B500F0E3
:101D800015F8074981F83A0006490978064A02EB36
:101D90004111034A92F83A2051F82200804710BDC1
:101DA000A80C0020640D002054000020024909689E
:101DB000C1F38210704700001004024000BFFEE72C
:101DC00010B502F097F902F0EBF902F03FFA10BDFE
:101DD000F0EE400AC0ED010A90ED030A80ED040A1E
:101DE00090ED020A80ED030A90ED000A90ED011AD1
:101DF00030EE410A80ED020A90ED020A90ED031ADE
:101E000030EE410A90ED061A20EE010A80ED090A33
:101E100090ED070A90ED021A20EE010A80ED0A0A01
:101E200090ED020A90ED031AF0EE001A01EEC10ADD
:101E300090ED041A30EE010A90ED081A20EE010A26
:101E400080ED0B0A90ED090A90ED0A1A30EE010AB6
:101E500090ED0B1A30EE010A80ED0C0A90ED0D0AA0
:101E600090ED0C1A30EE010A80ED0E0A90ED0E0A8C
:101E7000B2EE041AB4EEC10AF1EE10FA03DDB2EECE
:101E8000040A80ED0E0A90ED0E0ABAEE041AB4EEC2
:101E9000C10AF1EE10FA03D2BAEE040A80ED0E0A7E
:101EA00090ED0E0A80ED0D0A90ED0E0A70470000CD
:101EB0009FED380A80ED000A9FED360A80ED010A99
:101EC0009FED340A80ED020A9FED320A80ED030A8D
:101ED0009FED300A80ED040A9FED2E0A80ED050A81
:101EE0009FED2D0A80ED060A9FED2A0A80ED070A74
:101EF0009FED280A80ED080A9FED270A80ED090A68
:101F00009FED250A80ED0A0A9FED220A80ED0B0A5B
:101F10009FED200A80ED0C0A9FED1F0A80ED0D0A4F
:101F2000B7EE000A80ED110A9FED1C0A80ED120A3F
:101F30009FED180A80ED130AB7EE000A80ED140A2F
:101F40009FED170A80ED150A9FED140A80ED160A21
:101F50009FED120A80ED170A9FED0F0A80ED180A17
:101F60009FED0D0A80ED190A9FED0C0A80ED1A0A0B
:101F70009FED0A0A80ED1B0A9FED070A80ED1C0AFF
:101F80009FED050A80ED1D0A9FED040A80ED1E0AF3
:101F90007047000000000000CDCCCC3D6F12833AAA
:101FA000BD370635034800684FF6FF510840014928
:101FB00008607047140402400348006840F4007051
:101FC00001490860704700001404024008B50AA0E7
:101FD000006800900FE0FFF7E5FF0A23002211469A
:101FE000104600F08BFDFFF7E7FF0A2300221146A1
:101FF000104600F083FDEEE755AA000000BFFEE7A3
:1020000000200F49087048708870C87008714871C6
:10201000012088719FED0B0A084680ED020A9FEDB2
:10202000090A80ED050A9FED070A80ED080A0020E5
:10203000C86088614862C8710874087770470000FA
:10204000640D0020000000007047704708B519209B
:102050008DF8000000208DF801008DF802000120AD
:102060008DF80300684600F059F81E208DF8000036
:1020700000208DF8010001208DF802008DF803008A
:10208000684600F04BF838208DF8000000208DF8ED
:10209000010002208DF8020001208DF8030068463F
:1020A00000F03CF81C208DF8000000208DF80100A5
:1020B00003208DF8020001208DF80300684600F02F
:1020C0002DF814208DF8000001208DF8010000206B
:1020D0008DF8020001208DF80300684600F01EF81C
:1020E00013208DF8000001208DF801008DF802000A
:1020F0008DF80300684600F011F83A208DF80000D2
:1021000001208DF8010002208DF8020001208DF8D9
:102110000300684600F002F808BD000070B5002119
:1021200000230F22C4781CB3174C246804F4E06425
:10213000C4F5E064C4F30721C1F10404E3B20A4129
:1021400044789C40E1B28478144021430C07210E6E
:102150000E4C05786155047804F01F050124AC404D
:1021600005786D11AD0005F1E025C5F8004109E0E5
:10217000047804F01F050124AC40054D0678761163
:1021800045F8264070BD00000CED00E000E400E0E2
:1021900080E100E002490143024A116070470000FB
:1021A0000000FA050CED00E01748184818481948D7
:1021B00019481A481A481B481B481C481C481D4807
:1021C0001D481E481E481F481F48204820482148D7
:1021D00021482248224823482348244824482548A7
:1021E0002548264826482748274828482848294877
:1021F00029482A482A482B482B482C482C482D4847
:102200002D482E4800BF70470C5C0008105C000889
:10221000165C0008185C0008145C00081A5C0008D2
:102220001C5C00081E5C0008205C0008225C0008A2
:10223000245C0008265C0008285C00082A5C000872
:102240002C5C00082E5C0008305C0008325C000842
:10225000345C0008365C0008385C00083A5C000812
:102260003C5C00083E5C0008405C0008425C0008E2
:10227000445C0008465C0008485C00084A5C0008B2
:102280004C5C00084E5C0008505C0008525C000882
:10229000545C0008565C0008585C00085A5C000852
:1022A0005C5C00085E5C0008625C0008645C00081E
:1022B000665C0008685C00086A5C00087E5C0008D8
:1022C00010B500F017F800F0A3FD00F0CFFD00F00E
:1022D000F1FD00F06DFD00F02DFD00F085FE00F039
:1022E000AFFE00F027FE00F04DFE00F01BF8FFF7F8
:1022F0005BFF10BD0848802102E0491E002204C097
:102300000029FAD1054A064B1A601A46126822F0D3
:1023100007021A6070470000740E0020741000203D
:10232000A40000207047000006480078012808D16A
:1023300005480078FF2804D203480078401C024971
:1023400008707047C8000020C100002010B50024AC
:102350001A480078012830D1FDF7B0FF044618482C
:10236000007820B116480078401E154908701448BE
:102370000078F8B913480078E0B900F0C3FE1248BD
:102380001249097850F82100114908600F48007877
:102390001049097888420DD00D480068006C401C37
:1023A0000B49096808640C480068401C0A49086029
:1023B000FDF7A4FF2046FDF785FF10BDC8000020F3
:1023C000C1000020C2000020A4180020C40000208A
:1023D000D8000020C3000020A800002070B50546EA
:1023E00000261048007808B1002070BDFDF766FF98
:1023F00006460D480468006820B10B480068406834
:10240000094908603046FDF75DFF4CB1032020709C
:1024100025810020606005A0E062204600F07BFC82
:102420002046E2E7C1000020AC0000203F00000091
:1024300010B50B48007890B900F064FE09480078A8
:102440000949087009480749097850F821000849E6
:1024500008600846006807490860FDF736FF10BDB0
:10246000C8000020C4000020C3000020A4180020E1
:10247000D8000020D000002010B50024022000F079
:10248000FFFAFDF71BFF044600200B4908602046B9
:10249000FDF718FF0A2000F0F3FAFDF70FFF0446DE
:1024A0000548006805490860012005490870204674
:1024B000FDF708FF10BD0000CC000020B800002090
:1024C000C0000020704700002DE9F04F85B0814624
:1024D0008A4693461C46DDE90F78129D0020039042
:1024E000FDF7ECFE03902348007830B10398FDF728
:1024F000E9FE3C2005B0BDE8F08F1F4850F82400ED
:1025000088BB01201C4941F824000398FDF7DAFE3E
:102510002A464146384600F057FF2B465A46514658
:10252000484600F061F904901198CDE900800295C9
:102530003A4620460E9B049900F014FE064636B932
:102540000E48007801280CD100F0A2FD09E0FDF74B
:10255000B5FE03900020084941F824000398FDF7D8
:10256000B1FE3046C6E7FFE70398FDF7ABFE282033
:10257000C0E70000C1000020A4180020C80000200F
:10258000704700002DE9F041054600274B480078D0
:1025900010B14020BDE8F081FD2D01D13E20F9E7CA
:1025A000FDF78CFE0746FF2D03D14548006890F8E3
:1025B0003650444850F8254024B93846FDF782FE8D
:1025C0004320E7E7012C04D13846FDF77BFE3D2090
:1025D000E0E714F8380F3C4931F81000618888436F
:1025E0002178394A22F8110014F83809114631F8D7
:1025F000100028B9A18F35480088884333490880E6
:10260000E06918B12046E16900F04FFB206A18B17B
:102610002046216A00F061FBA66A16B1304600F040
:10262000B5FB0020206384F8340084F83500284886
:102630000078FF2804D226480078401C24490870FE
:102640003846FDF73FFE00F02FFBFDF737FE07464B
:102650001F48007820B11E480078401E1C490870B1
:10266000204600F041F81B480078401E19490870C8
:102670000020144941F82500A06930B900206169A3
:10268000886115496069086005E0D4E90501486181
:10269000D4E9051088611148006860610F48046042
:1026A0000FA060653846FDF70DFE0E480078012842
:1026B00001D100F0EDFC00206CE70000C10000201B
:1026C000D0000020A418002084160020C60000209E
:1026D000C2000020C9000020DC000020D40000203F
:1026E0003F000000C8000020704770472DE9F0410E
:1026F00006460F4614464FF000081548007818B1FA
:1027000012202070BDE8F081FDF7D8FD8046FF2E35
:1027100003D11048006890F836600F4850F82650F2
:102720002DB94046FDF7CEFD43202070EAE7012D8C
:1027300005D14046FDF7C6FD43202070E2E76F65F6
:102740004046FDF7BFFD0020207000BFDAE7000023
:10275000C1000020D0000020A4180020704770475E
:102760002DE9F04707460D464FF0000A002028608B
:102770006860FDF7A3FD8246FF2F03D1184800686B
:1027800090F83670174850F827402CB95046FDF79E
:1027900099FD4320BDE8F087012C04D15046FDF798
:1027A00091FD4320F6E7207C00F0010020B950465F
:1027B000FDF788FD4520EDE70026D4F80C90D4F80D
:1027C00008805046FDF77EFD00E0761C58F8041B9B
:1027D0000029FAD02E60A9EB060068600020D9E736
:1027E000D0000020A418002070B50446101D20F071
:1027F00007000026051F28462E604FF01536051FDE
:1028000028462E604FF01436051F28462E604FF0E4
:102810001336051F28462E604FF01236051F284636
:102820002E604FF01136051F28462E604FF01036EF
:10283000051F28462E604FF00936051F28462E60DA
:102840004FF00836051F28462E604FF00736051F4B
:1028500028462E604FF00636051F28462E604FF0A2
:102860000536051F28462E604FF00436051F284602
:102870002E604FF00336051F28462E604FF00236BB
:10288000051F28462E607610051F28462E6000265C
:10289000051F28462E604FF08076051F28462E60C3
:1028A000051F28462C60494E051F28462E604FF014
:1028B0001236051F28462E604FF00336051F2846A6
:1028C0002E604FF00236051F28462E607610051F39
:1028D00028462E60051F284629604FF03136051F17
:1028E00028462E604FF03036051F28462E604FF0E8
:1028F0002936051F28462E604FF02836051F28462A
:102900002E604FF02736051F28462E604FF02636E2
:10291000051F28462E604FF02536051F28462E60DD
:102920004FF02436051F28462E604FF02336051F32
:1029300028462E604FF02236051F28462E604FF0A5
:102940002136051F28462E604FF02036051F2846E9
:102950002E604FF01936051F28462E604FF01836AE
:10296000051F28462E604FF01736051F28462E609B
:102970004FF01636051F28462E604FF01136051F02
:1029800028462E604FF01036051F28462E604FF067
:102990000936051F28462E604FF00836051F2846C9
:1029A0002E604FF00736051F28462E604FF0063682
:1029B000051F28462E604FF00536051F28462E605D
:1029C0004FF00436051F28462E6070BDD532000832
:1029D0002DE9F04105464FF00008FDF76FFC8046F9
:1029E000FF2D05D12148006890F83650012608E0F7
:1029F0001E48006890F83600A84201D1012600E088
:102A000000261B4850F825402CB94046FDF75AFCDB
:102A10004820BDE8F081012C04D14046FDF752FC6E
:102A20004320F6E794F83870124830F81700618FA9
:102A30008843104921F81700084630F8170028B9D4
:102A4000A18F0D48008888430B49088094F8340012
:102A500040F0080084F834004046FDF733FC012EB6
:102A600001D100F015FB0020D3E70000D0000020CA
:102A7000A418002084160020C60000207047000023
:102A800070B5054600261848007800B170BD17489B
:102A9000007800B1FAE725B3FDF710FC06461448AC
:102AA000006890F83840134830F81400104909685D
:102AB000498F88430F4921F81400084630F8140064
:102AC00038B90B480068818F0B48008888430A4951
:102AD00008800748006805633046FDF7F3FB00F007
:102AE000D7FA00BFD2E70000C1000020C2000020DA
:102AF000D000002084160020C60000202DE9F041FF
:102B000004460D4616461F461248007810B155205F
:102B1000BDE8F0811048007808B13220F8E7781D50
:102B2000642148434FF47A71B0FBF1F14FF46160D6
:102B30006043C5EB051200EB8200304400EBC0029D
:102B400002EB001001EB80084046FFF799FF0020E0
:102B5000DEE70000C1000020C200002070B50026A2
:102B600000F074F8FDF7AAFB064632480068401CE6
:102B7000304908603046FDF7A5FB2F480078012852
:102B800055D12E48007820B1012804D0022809D15F
:102B900003E001250BE0002509E00125012027497C
:102BA000087004E0012500202449087000BF00BF20
:102BB00005B970BD2248046835E0FDF77FFB064685
:102BC000206B60B3206B401E2063206B38BB94F8F1
:102BD000340000F0370040B114F8340F00F0C800A2
:102BE000207001206070343C02E0002084F8350041
:102BF00094F8340000F0080088B9A08F11490988C2
:102C000008431049088094F838000F4931F8100043
:102C1000618F084394F838100B4A22F81100646958
:102C20003046FDF74FFB94F83600FD28C5D100BFB4
:102C3000BFE70000F0000020C8000020E0000020F6
:102C4000DC000020C6000020841600207047000031
:102C500010B5FDF733FB044606480078401C0549D3
:102C600008702046FDF72EFBFFF778FFFFF76EFB9D
:102C700010BD0000C100002001464A1E4FF0E023B5
:102C80005A61084A106820F07F4000BF10601A4661
:102C9000126942F005021A611A46126942F00202F4
:102CA0001A61704720ED00E0704710B590F83820A9
:102CB00001F10C0333F81230448FA34301F10C04EB
:102CC00024F81230234633F812301BB94B89848F15
:102CD000A3434B810023C36110BDF0B5024692F8B7
:102CE0003840958F568F0B46186811E000F10C079D
:102CF00037F81470B74300F10C0C2CF814706746C9
:102D000037F8147017B94789AF4347811B1D1868FE
:102D10000028EBD1F0BD014600224A81002006E0E8
:102D2000002301F10C0222F81030421CD0B210280E
:102D3000F6D370472DE9F0415021114800F04AF9CF
:102D400000250DE0681C86B20D4800EB051400EB71
:102D500006170020207067600AA0E060681C85B23A
:102D6000042DEFD3064800EB0514002020706060AE
:102D700004A0E060024804490860BDE8F08100005A
:102D8000341400203F000000B000002030B50146A0
:102D90004A6808682AB9CC68606028B10025456097
:102DA00002E0106000B142608B6800259D6230BD7A
:102DB00070B54FF47071134800F00CF9002411E065
:102DC000601C85B204EB44000E4901EB001305EBD7
:102DD000450001EB0016002018705E600AA0D86262
:102DE000601C84B2132CEBD304EB4400054901EBC7
:102DF000001300201870586003A0D86208460349E9
:102E0000086070BD741000203F000000AC0000207E
:102E100000200B4908600B4908700B4908700B49EA
:102E200008700B4908700B4908600B4908600B4992
:102E300008600B4908600B4908700B49087070471F
:102E4000F0000020C1000020C2000020C9000020C6
:102E5000C8000020A8000020CC000020BC000020FA
:102E6000B8000020C0000020EC00002000210B4A28
:102E70001180002005E00021094A22F81010411CB1
:102E8000C8B21028F7D30021064A1170064A117003
:102E9000064A1160064A116070470000C600002013
:102EA00084160020C3000020C4000020D8000020A9
:102EB000D000002070B54FF4FD61194800F08AF889
:102EC0004FF47E71174800F085F8002413E0601C71
:102ED000C5B2C4EBC40000EB0410114901EB800340
:102EE000C5EBC50000EB051001EB80065E610EA08E
:102EF0005865601CC4B2152CE9D3C4EBC40000EBC8
:102F00000410074901EB80030020586106A05865B2
:102F100000200649086002480549086070BD0000AD
:102F20009C1C0020A41800203F000000DC000020B2
:102F3000D400002000B587B00320002180220A4B76
:102F4000CDE90132CDE903104FF6FF70FD23074AAA
:102F500000900748FFF7B8FA06AA06A1FD20FFF780
:102F6000C5FB07B000BD0000A4160020A01800207B
:102F7000AD32000875432F4F532D49492049646CE9
:102F80006500000000B587B00320002180220A4BB5
:102F9000CDE90132CDE903104FF6FE70FC23074A5C
:102FA00000900748FFF790FA06AA06A1FC20FFF759
:102FB0009DFB07B000BD0000841400208016002097
:102FC000ED32000875432F4F532D4949205374614A
:102FD0007400000004E0002200F8012B4A1E91B2A8
:102FE0000029F8D17047000070B578211148FFF72B
:102FF000F1FF00240EE004EB44000E4901EBC00594
:10300000601C00EB400001EBC00068600AA0686132
:10301000601C84B2042CEED304EB4400054901EBA0
:10302000C0050020686004A0686108460349086084
:1030300070BD0000842400203F000000E400002058
:103040002DE9F04160211048FFF7C4FF00240DE096
:10305000601C86B204EB44000B4901EBC00506EB93
:10306000460001EBC0072F60601C84B2032CEFD335
:1030700004EB4400044901EBC00500202860084629
:1030800002490860BDE8F081FC240020E80000202F
:1030900010B50024FDF712F9044613480078F8B97A
:1030A00012480078E0B900F02DF81148114909786C
:1030B00050F82100104908600E4800780F4909783F
:1030C00088420DD00C480068006C401C0A49096811
:1030D00008640B480068401C09490860FDF709F9BD
:1030E0002046FDF7EFF810BDC1000020C20000200F
:1030F000A4180020C4000020D8000020C300002035
:10310000A8000020134A127822B1124A1278124BFA
:10311000985C07E0104A0F4B1B8802EB13221278D1
:103120000832D0B20D4A02EB40010A783AB10A786F
:10313000094B9A5C02EB0012094B1A7009E00A88ED
:10314000054B03EB1222127802EB00120832044BFB
:103150001A707047C6000020805C000884160020AA
:10316000C40000202DE9F84F05460F4690469946C9
:10317000DDE90AAB00200090FDF7A0F8009044487C
:103180000468002C7ED01C3454F8080C40490860B8
:103190000098FDF797F844F81C7CA576002020766F
:1031A0006076606144F818BC44F810AC44F8148CA4
:1031B0000C9824F80C0C24F80A9C002084F82200B7
:1031C0002809207705F00F00E076217F0120884054
:1031D0002084E17E01208840E08300202060606040
:1031E000E060A0606062E062A0622063606329A08A
:1031F000A0631C3C002606E0002104F1580040F8C2
:103200002610701CC6B2002EF6D02046FFF75AF9E1
:10321000FDF754F80090204840F825400098FDF74D
:1032200051F82046FFF7ACF9FDF748F800901B482D
:10323000006860610020A0611848006810B117485C
:103240000068846115480460A08F15490988084307
:103250001349088094F83800124931F81000618F42
:10326000084394F838100F4A22F811000E480078ED
:10327000401C0D4908700098FDF724F80020BDE8B7
:10328000F88FFFE70098FDF71DF84220F7E70000F0
:10329000D40000203F000000A4180020DC00002023
:1032A000C600002084160020C9000020002400BFB2
:1032B00000BFFDF703F8044605480068401C0449B8
:1032C00008602046FCF7FEFFFFF70FFAF1E7000069
:1032D000CC00002010B504480068FFF73FFAFF203B
:1032E000FFF750F910BD0000D000002000BF00BF64
:1032F00002E01420FFF7C4FB1F4800780028F8D034
:103300001E4800686421B0FBF1F01C4908600846C3
:10331000006828B900201A490870FF20FFF758FB01
:10332000FCF7CCFF04461548006864214843154962
:1033300008602046FCF7C6FF00BFFCF7BFFF04464D
:10334000104800681049086000200E4908602046B7
:10335000FCF7B8FF0C48006808490968B0FBF1F0B9
:10336000C0F1640006490870FFF7F9F900F00EF8A3
:103370000A20FFF785FBE0E7C0000020B80000202E
:10338000B4000020CC000020BC0000207CB500254B
:1033900014E069462846FFF7E3F9064666B909488E
:1033A00050F8254044B1012C06D0D4E9020100EBCD
:1033B0008100E06401982065681CC5B2FD2DE8D944
:1033C0007CBD0000A418002002F0010343B102F00C
:1033D00002032BB102E0491E002308C00029FAD1E4
:1033E0007047000010B500207749087048704FF40E
:1033F00080507649086004200871000388604FF40B
:103400002F60C8609FED720A084680ED040A9FEDA8
:10341000710A80ED050A9FED700A80ED060A9FEDA6
:103420006F0A80ED070A9FED6E0A80ED080A9FED96
:103430006D0A80ED090A90ED090AF7EE000A80EEA8
:10344000801A80ED0A1A9FED680A80ED0B0A9FED45
:10345000670A80ED0C0A0C2081F834009FED630AA6
:10346000634880ED000A9FED610A80ED010A9FED3F
:103470005F0A80ED020A9FED5D0A80ED030A9FED71
:103480005B0A80ED040A9FED590A80ED050A9FED65
:10349000570A80ED090A9FED550A80ED0A0A9FED53
:1034A000530A80ED0B0A9FED510A80ED0D0A9FED46
:1034B0004F0A80ED0E0A9FED4F0A80ED060A9FED40
:1034C0004E0A80ED070A9FED490A80ED080A9FED3C
:1034D000470A4A4880ED000A9FED440A80ED010A40
:1034E0009FED420A80ED020A9FED400A80ED030A3B
:1034F0009FED3E0A80ED040A9FED3C0A80ED050A2F
:103500009FED3A0A80ED090A9FED380A80ED0A0A1C
:103510009FED360A80ED0B0A9FED340A80ED0D0A0F
:103520009FED320A80ED0E0AB0EE000A80ED060A29
:103530009FED330A80ED070A9FED2C0A80ED080A03
:103540009FED2A0A2F4880ED000A9FED280A80EDA2
:10355000010A9FED260A80ED020A9FED240A80ED04
:10356000030A9FED220A80ED040A9FED200A80EDF8
:10357000050A9FED1E0A80ED090A9FED1C0A80EDE9
:103580000A0A9FED1A0A80ED0B0A9FED180A80EDDA
:103590000D0A9FED160A80ED0E0A9FED1B0A80EDC5
:1035A000060A9FED1A0A80ED070A9FED190A80EDC1
:1035B000080AFDF791FEFEF791F9FEF721FD154887
:1035C000FEF776FC012010BD0D000020700C0020DD
:1035D000002019459A992141000018420AD723403A
:1035E000A55E004300009442000034430000000048
:1035F0008C0D00209A99193F0AD7A33CCC0D0020CE
:10360000CDCC4C3D080E00206F12833BACC5273754
:103610006F12833AF40B002000B501469FED0E0AAD
:10362000B0EE402A9FED0C0AF0EE402A0B4890EDD8
:103630002B0AB8EEC00AB0EE402AB0EE420A0846A5
:10364000FEF7C6FBF0EE402A0548C0ED052A012032
:10365000034A107100BD000000000000A80C00200B
:10366000640D002029B1064A12680243044B1A6017
:1036700004E0034A12688243014B1A60704700005D
:103680003038024029B1064A12680243044B1A60DE
:1036900004E0034A12688243014B1A60704700003D
:1036A0004038024029B1064A12680243044B1A60AE
:1036B00004E0034A12688243014B1A60704700001D
:1036C0002038024029B1064A12680243044B1A60AE
:1036D00004E0034A12688243014B1A6070470000FD
:1036E0004438024029B1064A12680243044B1A606A
:1036F00004E0034A12688243014B1A6070470000DD
:103700002438024000BF00BF06E000BF642305224A
:1037100000210846FFF7F2F9F7E7000030B51E4C2C
:1037200094F8B34024021CB91B4C94F8B4400CB17B
:10373000012400E000242346C3F3080424B100253B
:10374000154C84F8B05030BD134C94F8B10094F887
:10375000B21094F8B3204FF6FF7404EA402004EA54
:103760004101D21140EA010414430B4DA5F8B640C3
:103770002C46B4F8B64000EE104AB8EE400ADFED31
:10378000070A80EE201A2C4684ED2E1A022584F8B2
:10379000B05000BFD7E70000A80C0020A60A3643AF
:1037A00010B50E480078022802D002200B4908709C
:1037B000FDF7B8FD0A200A4948638863C863FEF72D
:1037C000FFFAFDF707FE40F24160064908819FEDD0
:1037D000060A084680ED0C0A10BD00000D0000200E
:1037E00000000140A80C00200000000030B52DEDC5
:1037F000028B81B000259FED560AB0EE408A9FED06
:10380000540A8DED000A5348B0F88610A0F88410D1
:103810005148006881B24F48A0F88610B0F8861071
:10382000B0F884000C1A4B48D0F8AC000119494894
:10383000C0F8AC10002C03DA002180F83D1003E042
:103840000121444880F83D104248D0F88C5090F84F
:103850003C0078BB3F4890ED290AF2EE090AB4EE2D
:10386000E00AF1EE10FA18D290ED290AFAEE090AF0
:10387000B4EEE00AF1EE10FA0FDD75B100EE105A69
:10388000B8EE400ADFED350A80EE801A8DED001AA1
:103890000120304981F83C003CE000EE104AB8EECF
:1038A000C00AB0EE408A9FED2E0AC8EE000ACDEDA8
:1038B000000A2FE0FFE7274890ED290AF2EE090AF7
:1038C000B4EEE00AF1EE10FA08DD90ED290AFAEE06
:1038D000090AB4EEE00AF1EE10FA00D385B900EE61
:1038E000104AB8EEC00AB0EE408A9FED1D0AC8EE3D
:1038F000000ACDED000A0020164981F83C0009E0DD
:1039000000EE105AB8EE400ADFED140A80EE801A7D
:103910008DED001A01220F49A4316846FCF72CFDF9
:103920000C4890F83D0038B90A4890ED290AB1EEEC
:10393000400A80ED290A04E0064890ED290A80ED4E
:10394000290A01200749C87001B0BDEC028B30BDC7
:1039500000000000A80C002024040040A037A0456F
:103960006F128341640D002010B5042000F0C2F8EE
:1039700010BD000000B595B001210803FFF7A2FEBD
:1039800001218805FFF76EFE484800F0EBF810A80B
:1039900000F05EF93820ADF84C000020ADF8400092
:1039A0004FF48270ADF842000020ADF844000120D1
:1039B000ADF848000220ADF846000002ADF84A001C
:1039C0000020ADF84E0010A9384800F023F900217E
:1039D000364800F077F80121344800F07FF8344889
:1039E000FDF742FE32481830FDF73EFE01A8FDF714
:1039F00063FF4FF0C06001902C480C3002902D48BE
:103A0000039000200490059006904FF4806007908A
:103A10000020089009900A904FF400300B9000208D
:103A20000C9003200D9000200E900F9001A92048CB
:103A3000FDF716FF4FF0C06001901C480C3002905B
:103A40001D48039040200490002005900B9001A990
:103A500017481830FDF704FF01220221134800F037
:103A600077F801221146114800F072F80122142162
:103A70000F48FDF7D7FE012214210D481830FDF73D
:103A8000D1FE00210A48FDF7E3FD00210848183067
:103A9000FDF7DEFD09490648FDF7C0FD0849044869
:103AA0001830FDF7BBFD15B000BD0000003001402F
:103AB00040640240590D00200800002000802010C2
:103AC0000080001821B1028842F40052028004E014
:103AD00002884DF6FF731A400280704721B10288B8
:103AE00042F04002028004E002884FF6BF731A40A1
:103AF0000280704710B5044610491148FDF78EFD4D
:103B000010490F481830FDF789FD0D48001D04606D
:103B10000D480B490C31086009481C3004600B4803
:103B200007492431086001210548FDF791FD012175
:103B300003481830FDF78CFD10BD000000802010F8
:103B40004064024000800018590D00200800002049
:103B50001AB183880B43838002E083888B43838080
:103B60007047000010B504462448844208D1012162
:103B70008014FFF7B7FD0021A014FFF7B3FD3CE070
:103B80001F48844208D101210014FFF78BFD00215A
:103B90002014FFF787FD30E01A48844208D1012144
:103BA000C013FFF77FFD0021E013FFF77BFD24E04A
:103BB0001548844208D101214014FFF793FD0021EC
:103BC0006014FFF78FFD18E01048844209D10121ED
:103BD0000805FFF787FD00214FF48010FFF782FDF5
:103BE0000BE00B48844208D101214805FFF77AFD1C
:103BF00000214FF40010FFF775FD10BD00300140AB
:103C000000380040003C00400034014000500140BA
:103C10000054014010B50022028802F441520B8882
:103C20004C8823438C882343CC8823430C8923432B
:103C30004C8923438C892343CC8923431A43028034
:103C4000838B4FF2FF74234083830B8A038210BD62
:103C50000021018041808180C18001814181818179
:103C6000C181072101827047704700000CB5002018
:103C7000019000903448006840F480303249086078
:103C800000BF3148006800F4003000900198401CEB
:103C90000190009818B90198B0F5A04FF1D12A48C9
:103CA000006800F4003010B10120009001E0002015
:103CB00000900098012846D123484030006840F029
:103CC00080502149403108602048006840F440405D
:103CD0001E4908601C48083000681B49083108600C
:103CE0000846006840F4004008600846006840F458
:103CF000A05008601648091F0860081F006840F0BF
:103D00008070091F086000BF0F48006800F0007055
:103D10000028F9D040F205700E4908600A480830C2
:103D2000006820F003000849083108600846006870
:103D300040F00200086000BF03480830006800F04F
:103D40000C000828F8D10CBD00380240007000407B
:103D500008544007003C024010B501460888B0F501
:103D6000805F02DB40F6FF7008802D4890F82D0040
:103D700008281CDA0B882A4890F82C400A3020F8D2
:103D800014300A3890F82D00401C254B83F82D0084
:103D9000184690F82D0083F82C001846408D0B88AB
:103DA00018441F4B58851846408D801010BD1C4884
:103DB00090F82C00401C1A4B83F82C00184690F801
:103DC0002C00082802DB002083F82C00144890F80F
:103DD0002C00072802D11248428907E0104890F8C9
:103DE0002C00401C0E4B0A3333F810200B880C4873
:103DF00090F82C400A3020F814300A38438D90F89F
:103E00002C400A3030F814001844054B58851846E9
:103E1000408D801A58851846408D8010C6E70000F6
:103E2000A80C002010B5012005490874C8710121B3
:103E3000800700F07BFB0121880700F07DFB10BDAF
:103E4000640D002070B52DED048B05469FED1B0A17
:103E5000B0EE408A9FED190AB0EE409A184890EDF6
:103E6000290AB0EE408AF0EE000A68EE200AB0EEB1
:103E7000600A2846FDF7ACFFB0EE409A104890ED7E
:103E80002E0ADFED100A80EE201AF0EE418A9FED37
:103E90000E0A28EE800ABCEEC00A10EE104AB4F5F5
:103EA000805F01D340F6FF74A1B20020FDF75CFBF8
:103EB000012006498870BDEC048B70BD0000000035
:103EC000A80C00200000F0429AA9AA44640D00202A
:103ED00028E015480078F8B11348007801281BD075
:103EE00011480078022816D1FFF75AFCC823002297
:103EF00011461046FEF702FE0120FCF767FDFDF7B4
:103F00003DFFFFF78FFFFDF71BFA01200649087000
:103F10000220487000E000BF142300221146104622
:103F2000FEF7ECFDD5E700000D00002010B51548A8
:103F3000006840F47000134908601348006840F0BE
:103F400001001149086000200F49083108600E483F
:103F500000680E4908400C4908600D48091D0860BA
:103F6000081F006820F48020091F0860002006490F
:103F70000C310860FFF77AFE4FF00060014980398C
:103F8000086010BD88ED00E000380240FFFFF6FE3B
:103F900010300024F0B50C46154600210022068C96
:103FA0004FF6FE773E400684018B028C4FF60C766E
:103FB00031407E1C06EA03162E4331434FF6F57658
:103FC000324044F00106324301830284F0BDF0B573
:103FD0000C461546002100220026078C4FF6EF7C88
:103FE00007EA0C070784018B028C4FF6FF7707EA7C
:103FF000041640F6FF4739404FF6FF7707EA0337CC
:1040000039434FF6FF7707EA052739434FF65F77C5
:104010003A4046F010073A4301830284F0BDF0B500
:104020000C461546002100220026078C4FF6FF6C37
:1040300007EA0C070784818B028C4FF6FF7707EAAB
:1040400004264FF60C7739404FF6FF7707EA03173F
:104050002F4339434FF2FF573A4046F480773A43B3
:1040600081830284F0BDF0B50C4615460021002284
:104070000026078C4EF6FF7C07EA0C070784818B2D
:10408000028C4FF6FF7707EA043640F6FF473940C7
:104090004FF6FF7707EA052739434FF6FF7707EA20
:1040A0000337394345F6FF773A4046F480573A43A1
:1040B00081830284F0BD00000D48008C4FF6FE7134
:1040C00008400B4908840846008C4FF6FB710840F5
:1040D000074908840846008B4FF68F710840044951
:1040E00008830846008B40F04000088370470000BA
:1040F000000001400C48008B4FF68F7108400A49C0
:1041000008830846008B40F0700008830846008C46
:104110004FF6FE710840044908840846008C40F0C0
:104120000400088470470000000001400C48008B28
:104130004FF68F7108400A4908830846008B40F00B
:10414000700008830846008C40F00100088408468F
:10415000008C4FF6FB71084001490884704700004D
:10416000000001400D48008C4FF6EF7108400B49EC
:1041700008840846008C4FF6BF7108400749088440
:104180000846008B48F6FF7108400449088308463A
:10419000008B40F48040088370470000000001401D
:1041A0000C48008B48F6FF7108400A49088308460E
:1041B000008B40F4E04008830846008C4FF6EF7116
:1041C0000840044908840846008C40F040000884F8
:1041D00070470000000001400C48008B48F6FF715A
:1041E00008400A4908830846008B40F4E0400883F1
:1041F0000846008C40F0100008840846008C4FF6FA
:10420000BF71084001490884704700000000014068
:104210000D48008C4FF6FF6108400B4908840846A2
:10422000008C4FF6FF310840074908840846808B10
:104230004FF68F710840044988830846808B40F010
:104240004000888370470000000001400C48808BCC
:104250004FF68F7108400A4988830846808B40F0EA
:10426000700088830846008C4FF6FF6108400449BF
:1042700008840846008C40F4806008847047000081
:10428000000001400C48808B4FF68F7108400A49AE
:1042900088830846808B40F0700088830846008C35
:1042A00040F4807008840846008C4FF6FF310840C7
:1042B00001490884704700000000014010B52DED51
:1042C000048B0121474800F04AFA00287ED0454877
:1042D000008800F01000002857D04348C07901281A
:1042E00079D1424890ED000AB8EE400ADFED400A6D
:1042F00020EE200ADFED3F0A80EE201AB0EE418A60
:10430000B0EE480AFCF78AF8F7EE000AB6EE001A9B
:1043100041EE000A3848C0ED000A34480068401CED
:10432000324908600846006841F28831884202D369
:1043300000202E490860304890ED000A2A4880EDA0
:10434000020A0120284988702848006828B92B48AB
:10435000006840F00100294908602448006840F6E0
:10436000C411884206D1254800684FF6FE71084006
:10437000224908601C48407801282CD12048FDF7CC
:1043800035F800201849487025E01E48FCF7A6FAC9
:104390001548807801281ED1134890ED020A10EECE
:1043A000101A084601F03CFA41EC190BB0EE490A2C
:1043B000F0EE690A00F0F6FDB0EE408AF0EE608A99
:1043C00051EC180B00F04AFE0D4900E007E00860D0
:1043D0000020054988700121024800F0AAF8BDECD0
:1043E000048B10BD00000140640D002094000020EB
:1043F000DB0FC94000409C459C000020140802408F
:104400008C0D00200020014010B50121880700F02C
:10441000A6F9002839D0FFF7A7FAFFF7E7F9FFF769
:104420007DF91A48007F01280ED1184880790128AB
:104430000AD1164890ED080A154880ED000AFFF7EA
:10444000EBF80020114988711048007C012818D130
:104450000E48C078012805D10E48FFF7F3FC002074
:104460000A49C8700948007901280AD1074890ED27
:10447000050A084880ED000A00200449087101205F
:1044800088700121880700F054F810BD640D0020E9
:10449000080E0020CC0D002010B50121054800F0C9
:1044A0005EF90821034800F05AF90921014800F09B
:1044B00040F810BD0004004010B50221054800F08E
:1044C0004EF928B1FDF75AFC0221024800F031F8FC
:1044D00010BD00000008004010B50221044800F0A3
:1044E0003EF918B10221024800F023F810BD000087
:1044F000000C004021B1028842F08002028004E0FA
:1045000002884FF67F731A40028070470A884B88F2
:104510001A438B881A43CB881A430B891A434B8959
:104520001A438B891A43A0F844207047CA43028279
:104530007047CA430282704721B1028842F00102EB
:10454000028004E002884FF6FE731A400280704732
:1045500031B1B0F8442042F40042A0F8442005E014
:10456000B0F84420C2F30E02A0F8442070471AB1FC
:1045700083890B43838102E083898B438381704766
:1045800041EA0203A0F848307047000010B5044625
:104590005548844208D101210846FFF7A3F80021BD
:1045A0000120FFF79FF89DE0B4F1804F08D1012171
:1045B0000846FFF777F800210120FFF773F891E034
:1045C0004A48844208D101210220FFF76BF80021FC
:1045D0000220FFF767F885E04548844208D10121B1
:1045E0000420FFF75FF800210420FFF75BF879E073
:1045F0004048844208D101210820FFF753F80021E8
:104600000820FFF74FF86DE03B48844208D10121B4
:104610001020FFF747F800211020FFF743F861E072
:104620003648844208D101212020FFF73BF80021C1
:104630002020FFF737F855E03148844208D10121A6
:104640000220FFF74FF800210220FFF74BF849E066
:104650002C48844209D101210804FFF743F80021C6
:104660004FF48030FFF73EF83CE02748844209D100
:1046700001214804FFF736F800214FF40030FFF71E
:1046800031F82FE02148844209D101218804FFF745
:1046900029F800214FF48020FFF724F822E01C487D
:1046A000844208D101214020FEF7FCFF0021402078
:1046B000FEF7F8FF16E01748844208D10121802058
:1046C000FEF7F0FF00218020FEF7ECFF0AE0124821
:1046D000844207D101218015FEF7E4FF0021A015D7
:1046E000FEF7E0FF10BD00000000014000040040A4
:1046F00000080040000C0040001000400014004082
:1047000000040140004001400044014000480140D5
:1047100000180040001C004000200040F0B50C468E
:1047200015461E460021002200230189028B038CBE
:104730004FF6F877394021434FF6FC473A4040F2B4
:1047400001173A434FF6DD773B404FF6FF7707EA14
:1047500006172F433B43018102830384F0BD30B52C
:104760000246002000230024158A05EA01039589EA
:1047700005EA010413B10CB1012000E0002030BDB6
:1047800070B505460C46208850B92389A2886188F7
:104790002846FFF7FFFBE188284600F0ABF925E04B
:1047A000208804280AD12389A28861882846FFF737
:1047B0000EFCE188284600F0A6F917E020880828BA
:1047C0000AD12389A28861882846FFF728FCE1885E
:1047D000284600F0A5F909E02389A28861882846C7
:1047E000FFF741FCE188284600F0A3F970BD0021E5
:1047F00001804180012181800021C18001817047B9
:104800001AB183890B43838102E083898B438381BF
:104810007047000070B5002400220023058C4FF67D
:10482000FE7635400584028C8388048B4FF68F75A5
:104830002C40B51E2C400D882C43751E2A408D89B6
:104840002A434D882A43104DA84202D00F4DA8425A
:1048500013D14FF6F7752A40CD892A434FF6FB75E1
:104860002A408D882A434FF6FF652B404FF6FF55AF
:104870002B400D8A2B434D8A2B43838004838D6804
:104880004563028470BD0000000001400004014047
:104890000A460021018B4FF6F7731940114301833B
:1048A0007047000070B5002400220023058C4FF6ED
:1048B000EF7635400584028C8388048B48F6FF75BB
:1048C0002C404FF6FF452C400D884FF6FF7606EA48
:1048D00005252C434FF6DF752A408D8906EA05151C
:1048E0002A434D8806EA05152A43154DA84202D0F1
:1048F000144DA8421DD14FF67F752A40CD894FF641
:10490000FF7606EA05152A434FF6BF752A408D88C3
:1049100006EA05152A434FF6FF352B404FF2FF7587
:104920002B400D8A06EA85052B434D8A06EA85054C
:104930002B43838004838D688563028470BD0000EF
:1049400000000140000401400A460021018B4FF2A3
:10495000FF7319404FF6FF7303EA022319430183E3
:104960007047000070B5002400220023058C4FF62C
:10497000FF6635400584028C8388848B4FF68F75E3
:104980002C404FF6FC752C400D882C434FF6FF55FC
:104990002A408D894FF6FF7606EA05252A434D8881
:1049A00006EA05252A43154DA84202D0144DA84217
:1049B0001DD14FF2FF752A40CD894FF6FF7606EAEA
:1049C00005252A434FF6FF352A408D8806EA05253E
:1049D0002A434EF6FF752B404DF6FF752B400D8A8E
:1049E00006EA05152B434D8A06EA05152B438380FD
:1049F00084838D68C563028470BD0000000001409F
:104A0000000401400A460021818B4FF6F7731940DC
:104A10001143818370470021018041808180816042
:104A20008181C1810182418270472DE9F0410546B3
:104A30000C4600260127608808B9022600E00026FF
:104A4000A088012801D1022700E001272088A0B911
:104A50002389A28861882846FFF79CFAE1882846C6
:104A600000F048F823893A4631462846FFF7AFFA66
:104A7000E188284600F047F813E02389A28861887E
:104A80002846FFF7A4FAE188284600F03CF823897D
:104A90003A4631462846FFF77DFAE188284600F07D
:104AA00029F8BDE8F08121B1828842F0800282803D
:104AB00004E082884FF67F731A40828070470A466E
:104AC000002101894FF68F7319401143018170470E
:104AD00002894FF67F731A40028102890A430281DC
:104AE000704702894FF6F8731A40028102890A431F
:104AF00002817047028B4FF6F3731A400283028BD8
:104B00000A4302837047028B4FF2FF331A4002833D
:104B1000028B4FF6FF7303EA01231A4302837047A7
:104B2000828B4FF6F3731A408283828B0A4382830F
:104B30007047828B4FF2FF331A408283828B4FF68D
:104B4000FF7303EA01231A4382837047002202881D
:104B5000184B98420ED0184B98420BD0B0F1804FB2
:104B600008D0164B984205D0154B984202D0154BF1
:104B7000984204D14FF68F731A404B881A43124B58
:104B8000984207D0114B984204D04FF6FF431A4089
:104B90000B891A4302804B68C3620B880385054B5F
:104BA000984202D0044B984201D18B7A03860123AC
:104BB000838270470000014000040140000400406F
:104BC00000080040000C00400010004000140040AD
:104BD0004FF0FF31416000210180018141808172ED
:104BE0007047000000B58DB001210846FEF76AFD50
:104BF0003E48FFF7CBFC0020ADF830002020ADF898
:104C00002A0041F267000B900020ADF828008DF8D3
:104C100032000AA93548FFF799FF05A8FFF7FBFE08
:104C20007020ADF814000020ADF82400ADF8260087
:104C30000220ADF820000820ADF822000120ADF8D8
:104C400016000420ADF818000A20079005A927488F
:104C5000FFF7E0FD08212548FFF71AFE0A2007901C
:104C600005A92248FFF71EFE08212048FFF76CFE29
:104C70000A20079005A91D48FFF774FE08211B486C
:104C8000FFF7C0FE01211948FFF750FC0122114631
:104C90001648FFF7B5FD0020ADF804004FF4806022
:104CA000ADF806000020ADF80800E020ADF80A00DD
:104CB0000020ADF80C004FF40050ADF80E0040009D
:104CC000ADF8100001A90948FFF720FCFDF778F8BE
:104CD00001210648FFF70EFC01210448FFF72CFCD8
:104CE00001210248FFF734FC0DB000BD0000014077
:104CF0000EB501210846FEF7C5FC4FF08040FFF7D6
:104D000045FC6846FFF764FF0020ADF80800ADF8E9
:104D1000020041F2670001901320ADF800006946DF
:104D20004FF08040FFF712FF00214FF08040FFF767
:104D300003FC01218807FFF7F9FB012211469007C8
:104D4000FFF75EFD0EBD000000B587B00121022017
:104D5000FEF798FC2648FFF719FC04A8FFF738FF78
:104D60000020ADF81200ADF818004FF6FF70059066
:104D70000020ADF8100004A91D48FFF7E7FE0A2344
:104D80001A4603211A48FFF7C9FC01A8FFF72FFDB7
:104D90000020ADF804000120ADF80C0001A9144872
:104DA000FFF7EEFC0420ADF804000120ADF80C0084
:104DB00001A90F48FFF7E4FC0820ADF8040000202B
:104DC000ADF806000120ADF808000020ADF80C0099
:104DD000ADF80A0001A90648FFF7D2FC00200449FB
:104DE0002431086001210248FFF7A6FB07B000BD8F
:104DF0000004004000B587B001210420FEF742FC0A
:104E00000020ADF81800ADF812004FF6FF700590C5
:104E10000020ADF8100004A91A48FFF797FE002003
:104E2000ADF804000A20ADF806000020ADF80C0033
:104E3000ADF80A000120ADF8080001A91148FFF7FC
:104E40009FFC0420ADF8040001A90E48FFF798FC70
:104E50000820ADF8040001A90A48FFF791FC0121E0
:104E60000848FFF720FE02210648FFF75FFB0122FA
:104E700002210448FFF7C4FC01210248FFF75CFB54
:104E800007B000BD0008004000B595B00121082022
:104E9000FEF7F8FB01214805FEF7E4FB3D48FCF76F
:104EA000E3FB4FF0406000903B4801903B4802908C
:104EB0000020039006200490002005904FF48060AD
:104EC00006908000079080000890801109904002B1
:104ED0000A9000200B9001200C9000200D900E9065
:104EE00069462C48FCF7BCFC01212A48FCF7B0FBC2
:104EF00029483438FFF74AFB12A8FFF769FE002063
:104F0000ADF84A00ADF85000401E13900120ADF8F6
:104F1000480012A920483438FFF718FE0FA8FFF701
:104F200066FC0020ADF83C00ADF83E000120ADF875
:104F300040000020ADF84200ADF844000FA916482B
:104F40003438FFF772FD502113483438FFF7B7FDAE
:104F5000042111483438FFF7C4FD80210E4834384D
:104F6000FFF7B6FD4FF480720D210B483438FFF780
:104F700007FB0122510208483438FFF7F8FA0020F5
:104F8000054910390860012103483438FFF7D4FA85
:104F900015B000BD40600240340C0040300D0020D0
:104FA00000BFFEE72DED020B019820F000400190BC
:104FB0009DED000B02B0704730B5034600214FF065
:104FC000E024A2690020A824634300BF4FF0E0243E
:104FD000A069904202DA8C18211A05E08C184FF073
:104FE000E0256D692C44211A02469942EED330BD6A
:104FF00000B585B04FF4A060FDF7CCF8FEF7F2F9EC
:10500000FBF7C4FCFDF75CF90020FDF7E7F90E495A
:1050100008600020FDF7E2F90C4908600720002134
:105020004FF480720A4BCDE90132CDE903103220F2
:105030000346084A00900848FDF746FAFDF7F8F9DC
:10504000002005B000BD000000000020040000208A
:10505000F4070020F00B0020E908000821F00042CE
:10506000A2F16052B2F5801F01F0004328BFD2F1D7
:105070007E6C51D9F1EE10CA1CF4400F14D15FEAD6
:10508000C00C43EAC20202EB507008BF70475FEAEF
:105090004C0C40F10000DFF880C240F0CB8228BF0A
:1050A00020F0010000F0C6BAC30001F0004343EA5B
:1050B000C20202EB507008BF70471B4248BF4FEA64
:1050C0004C0C1CF4000F08BF401CDFF84CC200F071
:1050D000B1BAC30001F0004343EAC20202EB5072CE
:1050E00004BF104670471B4248BF4FEA4C0C1CF4EB
:1050F000000FDFF824C218BF104640F09B8208BFA3
:10510000521C12F4000F08BF104600F0938221F0E9
:10511000004201F0004330E050EA410C04BF084671
:1051200070475FEA125CBCF1FE0F1ED1F1EE10CAAF
:105130001CF4400FCDD15FEAC00C9BD05FEA001C8D
:105140004FEAC20C4CEB507C04BFC2002CEAD27C6C
:105150001CF4000F04BF4CEA0300DFF8BCC100F0F0
:10516000698221F00042A2F16052B2F5801F4FEA3D
:10517000410C2ADB1CF5001F16D2F1EE10CA1CF4FC
:10518000806F06D02CF0005C4CF0805CA1F1406197
:105190002AE04FF07F40DFF884C143EA500000F07E
:1051A00049BA084600F0F7BB70B500F0C6F800BF7A
:1051B000000000B988000004FFF7F3BF21F070423F
:1051C00043EA507040EAC2007047F1EE10CA2CF07A
:1051D000805C4CF0005C1CF4006F25D04B00B3F5F4
:1051E000001F51D301F140611CF4400F40F07E805C
:1051F0000CF0405CC3004CF0880C11D05CF0404CCB
:1052000010F0805F0CD0034610F1005041F1000116
:10521000020108BF20F00050834218BF2CF0004C60
:1052200000F0604000F0B3BC1CF4400F1AD01B42E9
:1052300048BF4FEA4C0C1CF4000F13D112F140622E
:1052400048BF22F07F424FEAC00CBCF1010F43EA95
:10525000C20242EB50704FF0880228BF42F08042F9
:1052600000F09EBB12F1406248BF22F07F425FEA2D
:10527000C00C43EAC20242EA50704FF0880218BFE5
:1052800042F0404200F08CBB01F0004321F00041AD
:10529000094214D0B1FA81FCACF10B0CCCF1200224
:1052A00001FA0CF120FA02F241EA02014FEA0C5233
:1052B00000FA0CF0A1EB020181EA03010FE0B0FA61
:1052C00080F200FA02F002F115024FEAD0214FEA13
:1052D0000252A1EB02014FEA405081EA0301F1EED4
:1052E00010CA2CF0805C4CF0005C7BE762460CF04E
:1052F000405CC3004CF0880C92D05CF0404C0942FA
:1053000048BF520012F4000F8AD110F1005041F151
:1053100000012CF0004C83D1880000408800001070
:10532000B1FA81F201FA02F1C2F11D024FEA4150D5
:1053300003EB025303EBD12170470EF1020E2EF066
:10534000030E01285EF8086B41EB010414F500140C
:1053500018BFB4F5801F23D3364208D4012A43EB8B
:10536000030515F5001518BFB5F5801F18D301EB1F
:10537000010C1CF5801F16D2364204D403EB030C3B
:105380001CF5801F0FD2002C10D14FEAD17C002DCC
:105390000CEB4C0C0CF1020C08BF4CEBD37C07E07F
:1053A0004FF0090C04E04FF0080C01E04FEAD37C09
:1053B0000CEB4C0526FA05F606F00706B6F1040CD0
:1053C00006D20EEB860CBDE870404CF0010C604735
:1053D000DFE80CF0222413025EF804CC1B2D08D168
:1053E000002C88BFB4F5801F34BF4CF4804C4CF4C3
:1053F000004CBDE8704000F01DB9002C88BFB4F52A
:10540000001F24BF1946104670BD4FF000004FF03A
:105410000041A1F5002170BD19461046012851EB4D
:10542000010418BFD4F5001484BF5EF804CC2CF03E
:10543000806CBDE8704000F2DC80704780B54FF0B2
:1054400003065C004FEA03334FEA3606640D4FEA69
:10545000133318BF43F480131CD153EA125E04F1D6
:10546000010402BF13460022203C1B4202BF130B63
:105470001205143CB3FA83FEAEF10B0ECEF1200CF4
:1054800003FA0EF322FA0CFC02FA0EF2A4EB0E045D
:1054900043EA0C030FB416F0010F0CBC03BC18BF99
:1054A0002546CED180BD80B50126F3E70808A0F5DA
:1054B00000114FEA31017047F1EE103A13F0807F8E
:1054C0001EBF01F000410020704713F4006F40F050
:1054D000AA80094248BF4CF4803C4FF4C0634FEAB5
:1054E000115203F1010321EA025122F400629A1AD7
:1054F00048BF6FF0FE0241F48011352A3CD830D00D
:10550000152A1ED3203A0CD90028C2F1200321FA13
:1055100002F001FA03F218BF42F001024FF000015D
:1055200030E0C2F1000302F1200201FA03F120FA97
:1055300002F241EA020100FA03F208464FF00001CC
:1055400020E0C2F1200310B400FA03F401FA03F3DF
:1055500020FA02F021FA02F1224610BC43EA0000D0
:1055600010E050EA01324FF000004FF000014FF020
:10557000004218BF521C05E04FF001024FF000013D
:105580004FF000001CF4803F2CF4803C18BF41F029
:10559000004112421ED0F1EE103A13F4400F20D118
:1055A000520003D30CD0401C41F10001F1EE103A3F
:1055B0004CF0804C43F00803E1EE103A00F03AB8AA
:1055C0005FEAAC72EFD4F1D1401C41F1000120F050
:1055D0000100EBE71CF0804F08BF70472CF0004C37
:1055E000E4E7094254BF13F4000F13F4800FDDD138
:1055F000D9E7F1EE103A13F0807F1EBF01F00041B1
:105600000020704713F4006F08BF70472DE9F05079
:10561000FFF749FF04F5C064A4F10104314301EB35
:105620000451BDE8F0504CF0005C4CF0800C00F0F0
:10563000AEBA00001CF0700F08BF0A460FB4F1EEBE
:10564000101A0CF0405030EA814318BF4CF0804CE7
:105650004FEA4C0310EA814F4FEAD36323EA112348
:1056600018BF23F0100341EA030101F0E073E1EEFB
:10567000101A4CEA030C0CF00F030A2B1DBF082B69
:105680000CF070034CEAC30C4FF4003304BF33EA50
:105690000C034CF4400C1CF0005F14D11CF0805F34
:1056A0000BD11CF0804F31D11CF0006F12D111F4DE
:1056B000807F0FBC62D000F06ABA11F4806F0FBC1B
:1056C0002BD000F064BA11F4006F0FBC08BF704714
:1056D00000F05DBA11F4007F0FBC40F058821CF05E
:1056E000400F1EBF4FF0004040F0010070471CF01B
:1056F000100F14BF81EA030242400CF00F000A2889
:1057000008BF4FF0FF324FF0000326E011F4805F36
:105710000FBC08BF704700F03ABAF1EE103A2CF017
:10572000805C1CF0800F14BF01F0004200F00042CA
:1057300012420CBF12EA336F12EAF35F0DD31CF072
:10574000100F1DBF30A003C81143314808BF1043DC
:1057500013F4805F40F01B8270471CF0100F02F0C2
:1057600000421DBF0FF2940003C81143254808BF33
:10577000104313F4805F40F00A8270471CF0400F22
:1057800040F028801CF4404F1BD01CF4004F1CBF7D
:10579000194610460CF4807218BF8CEA520C1CF0AB
:1057A000800F0CBF40F4800041F400218CEADC0340
:1057B00013F0100F1CBF2CF00F0C4CF0080C00F075
:1057C0008DB91CF0100F1ABF12A393E80300134801
:1057D00000F084B91CF0800F14BF01F0004200F00B
:1057E00000421CF0100F1BBF0AA393E803000B48F4
:1057F000114308BF104300F071B900BF0000000062
:105800000000F07F0000807FFFFFFFFFFFFFEF7FC2
:10581000FFFF7F7F000000000000F87F0000C07FD6
:1058200043004FEAD30C4FEA3C0C43401FBF4007F4
:105830000CF1605113F0FE4F70471CF0006F14D153
:1058400033F0004004BF1946704783EA830383EABC
:10585000430303F0070343EACC010CF0004303F1D8
:105860005A5303F54013FFF75BBD0CF0004343EAC6
:10587000507010B540EACC0000F00FF8000000BAFC
:10588000180000044FEA0001FFF710BE4FEAE002E3
:105890004FEA407042F0E04170470EF1020E2EF0E8
:1058A000030E4FEA40025EF8084B12F1807218BFF7
:1058B000B2F5000F22D3244207D44FEA410313F17B
:1058C000807318BFB3F5000F18D34FEA400C1CF5D6
:1058D000000F16D2244204D44FEA410C1CF5000FED
:1058E0000FD2002A10D14FEAD07C002B0CEB4C0CCD
:1058F0000CF1020C08BF4CEBD17C07E04FF0090C17
:1059000004E04FF0080C01E04FEAD17C0CEB4C03B3
:1059100024FA03F404F00704B4F1040C06D20EEBED
:10592000840CBDE810404CF0010C6047DFE80CF03F
:105930001F2013025EF804CC1B2B08D1002A88BF5D
:10594000B2F5000F34BF4CF4804C4CF4004CBDE871
:105950001040FFF76FBE002A88BFB2F1807F28BFDA
:10596000084610BD4FF00040A0F5800010BD08466D
:10597000420018BFD2F1807284BF5EF8042C22F07E
:105980008062BDE8104000F28A8070474FF000004E
:10599000E1EE100A7047FF2141EAD050C005704780
:1059A000F1EE101A11F0807F1CBF00F0004070472C
:1059B00011F4006F40F08E8000F0004343EAD053B2
:1059C00023F48073C3F1C10323F00041172941D8A8
:1059D000C3F1200310FA03F1C3F1200320F07F404C
:1059E00040F4000020FA03F003F0004340EA030013
:1059F00019D00B46F1EE101A41F00801E1EE101A31
:105A000011F4400F1CD1590009D318BF401C06D116
:105A10007FEAE27398BF401C38BF20F0010042F0DB
:105A2000804CFFF707BE12F0804F08BF7047F1EEC1
:105A3000101A944641F00801E1EE101AFFF7FABD82
:105A400010F0004F14BF5FEAF1535FEA316338BFD3
:105A5000401CE4E7182903EB912318BF6FF00041C5
:105A60000131F1EE101A41F00801E1EE101A11F4C3
:105A7000400F18BF03F00040E2D168BF03F00040C0
:105A800009D6400203F0004000F1010004BF12F00B
:105A9000004F20F001004FF0804CFFF7CBBDF1EE3E
:105AA000101A11F0807F1CBF00F00040704711F405
:105AB000006F08BF704700F0004120F00040B0FACE
:105AC00080F3A3F1080341F0C04100FA03F0A1EB19
:105AD000C351084442F0005C00F059B80CF00F03C9
