:020000040800F2
:10000000582A00202902000859140008C9120008C3
:100010000B140008510900080B3D00080000000007
:10002000000000000000000000000000912B00080C
:10003000E50E000800000000070300080520000886
:1000400063020008630200086302000863020008FC
:1000500063020008630200086302000863020008EC
:1000600063020008630200086302000863020008DC
:1000700063020008630200086302000863020008CC
:1000800063020008630200086302000863020008BC
:1000900063020008630200086302000863020008AC
:1000A000630200081D3200086302000863020008B2
:1000B000BD320008ED3300080D340008630200086B
:1000C000630200086302000863020008630200087C
:1000D000630200086302000863020008630200086C
:1000E000630200086302000863020008630200085C
:1000F000630200086302000863020008630200084C
:10010000630200086302000863020008630200083B
:10011000630200086302000863020008630200082B
:10012000010C000863020008630200086302000873
:10013000630200086302000863020008630200080B
:1001400063020008630200086302000863020008FB
:1001500063020008630200086302000863020008EB
:1001600063020008630200086302000863020008DB
:1001700063020008630200086302000863020008CB
:10018000630200086302000800F002F800F03CF887
:100190000AA090E8000C82448344AAF10107DA45E2
:1001A00001D100F031F8AFF2090EBAE80F0013F0F8
:1001B000010F18BFFB1A43F0010318473451000028
:1001C00054510000103A24BF78C878C1FAD85207B9
:1001D00024BF30C830C144BF04680C6070470000C1
:1001E0000023002400250026103A28BF78C1FBD840
:1001F000520728BF30C148BF0B6070471FB504F0DD
:100200007BFA1FBD10B510BD00F00CF91146FFF7C9
:10021000F5FF03F0A3FD00F02AF903B4FFF7F2FFA6
:1002200003BC00F091F9000011488047DFF844005A
:10023000016841F470010160BFF34F8FDFF83800AF
:10024000016821F040410160BFF36F8F0B48004708
:10025000FEE7FEE7FEE7FEE7FEE7FEE7FEE7FEE776
:10026000FEE7FEE706480749074A084B70470000CB
:100270008D2E000888ED00E034EF00E089010008D1
:1002800058240020582A00205826002058260020F4
:10029000EFF3098141B1F1EE101A40F8041D20ED91
:1002A000200A2C490A6810607047B0EC200A02C886
:1002B000E1EE101A28490A6810607047EFF31080C9
:1002C00072B6704780F31088704724484FF0FF01E2
:1002D0000170002080F309882148016881F30888B3
:1002E00020480121017020484FF08051016062B622
:1002F000FEE71D484FF08051016070471A484FF0EB
:1003000080510160704772B6EFF3098040B1403808
:1003100080EC108A203880E8F00F0E4909680860E8
:1003200000B5124880475DF804EB114811490A787E
:100330000270084808490A680260106890E8F00FE7
:10034000203090EC108A403080F309884EF0F40E93
:1003500062B67047840000208C00002022ED00E08F
:10036000580000207C00002004ED00E0311E000851
:100370007700002078000020DFED190AB5EEC00AF2
:1003800060EE200ABDEEE01A11EE100AF1EE10FA4E
:1003900038BF401E00EE100A1349F7EE001AB8EEFF
:1003A000C00A30EEC00ADFED0F0A60EE200ABCEE94
:1003B000E00A10EE100AC0F3080000EE100A01EB8C
:1003C0008000B8EE400A90ED011A70EEC00A90ED80
:1003D000000A71EEE01A21EE800A00EE810A7047F1
:1003E00083F9223E00000044EC4A00087047704741
:1003F000704700001FB584B000200A9C06AB04AA19
:1004000002A90094AFF3008018B1DDE9020108B041
:1004100010BD0348204000F030F800200146F6E708
:100420000000207C754600F02FF8AE4605006946B6
:10043000534620F00700854618B020B5FFF712FF9D
:10044000BDE820404FF000064FF000074FF00008D5
:100450004FF0000B21F00701AC46ACE8C009ACE856
:10046000C009ACE8C009ACE8C0098D467047044635
:10047000AFF300802046FFF7D0FE10B500F00EF875
:10048000BDE8104000F004B800487047F823002091
:10049000002801D000F058B87047000010B50228BD
:1004A00003D0410103D50DA112E0002010BD0101D0
:1004B00001D50FA10CE0C10001D511A108E0810018
:1004C00001D512A104E0400001D513A100E00021F4
:1004D00015A000F03FF8012010BD0000496E7661C4
:1004E0006C6964204F7065726174696F6E00000002
:1004F000446976696465204279205A65726F00000C
:100500004F766572666C6F7700000000556E64650B
:1005100072666C6F77000000496E657861637420C5
:10052000526573756C7400005349474650453A2034
:1005300041726974686D657469632065786365707C
:1005400074696F6E3A20000001491820ABBEFEE7C7
:100550002600020070B505460C460A2000E06D1C1E
:1005600000F011F835B128780028F8D102E0641CB9
:1005700000F009F814B120780028F8D1BDE87040E7
:100580000A20AFF3008008B569468DF8000003200B
:10059000ABBE08BD704721B1826842F001028260A3
:1005A00003E0826822F00102826070470021084A5D
:1005B0001168084A1140D0E900231A4383681A439E
:1005C000C3681A431143044AC2F804137047000079
:1005D00004230140E030FCFF0020014021B182688B
:1005E00042F48072826003E0826822F4807282604A
:1005F000704721B1826842F40072826003E0826831
:1006000022F400728260704700B599B0012108029F
:1006100002F044FA00F07EF8002011900F904FF4A1
:10062000803010904FF4407012900FA8FFF7BEFF7B
:100630000020139001208DF8500000208DF851000B
:100640001590179003208DF8600013A92E4800F034
:100650006DF801231A4605212B4800F091F801237B
:1006600002220621284800F08BF8012303220721EB
:10067000254800F085F80121880502F0DFF92348BC
:1006800000F008FB002000901F484C3001902048EB
:1006900002900020039003200490002005904FF466
:1006A00080600690400007908000089040110990FB
:1006B00040020A9000200B9001200C9000200D9029
:1006C0000E906946114800F0E1FB01210F4800F04F
:1006D000D5FA10210D4800F0B7FA012210210B487D
:1006E00000F0B6FB01210848FFF783FF012106480F
:1006F000FFF774FF01210448FFF74DFF024800F0A7
:100700009BF819B000BD00000020014010640240B9
:10071000E00B002010B50121080202F0CFF9002102
:100720004FF4807002F0CAF910BD000030B50246E7
:10073000002000235068104C20400D790C6844EADA
:1007400005242043506090680C4C2040D1E90354AC
:100750002C438D682C434D7944EA45042043906036
:10076000D06A20F470000C7D641EE4B2234340EA9A
:100770000350D06230BD0000FFFEFFFCFDF7FFC05C
:10078000F0B504460D4600200021092D11DDE0687A
:10079000A5F10A0606EB4607072606FA07F1884385
:1007A000A5F10A0606EB460603FA06F10843E060E7
:1007B0000CE0206905EB4507072606FA07F1884398
:1007C00005EB450603FA06F108432061072A0FDA14
:1007D000606B561E06EB86071F2606FA07F1884354
:1007E000561E06EB860605FA06F10843606322E012
:1007F0000D2A0FDA206BD61F06EB86071F2606FA96
:1008000007F18843D61F06EB860605FA06F1084372
:10081000206310E0E06AA2F10D0606EB86071F26B2
:1008200006FA07F18843A2F10D0606EB860605FAE3
:1008300006F10843E062F0BD816841F080418160CB
:100840007047000010B586B004461E4801F0EEFB6C
:100850004FF4FA7003F065FA00F0E8FF032000217E
:100860004FF48072184BCDE90132CDE90310062018
:100870000346164A0090164801F000F803200021B4
:100880004022144BCDE90132CDE90310312003465B
:10089000104AFC320090104800F0F0FF03200021C5
:1008A00080220E4BCDE90132CDE90310072003462B
:1008B0000B4A00900B4800F0E1FFFF2001F03CF8EC
:1008C00006B010BD80A21900A8000020A4040020DA
:1008D000312E0008A8060020E5130008A804002017
:1008E000A4060020DD2A000810B500F0B7FD00F0D6
:1008F0000FFB03F0ADF803F031F903F05BF903F0FF
:10090000B9F903F001FAFFF77FFE00F01FF90220AA
:10091000024908700020487010BD000054000020FB
:1009200030B90A49096841F40051084A11600AE0E7
:10093000012807D1054909684DF6FF721140034AA5
:10094000116000E0704700BFFCE70000140802409F
:1009500000BFFEE710B500F023F800200E494885DF
:1009600081F82C0081F82D00002406E000210A48BF
:100970000A3020F81410601CC4B2102CF6DB0020E2
:100980000549C88008819FED050A084680ED0C0ADC
:1009900002F0B0F810BD0000E00B002000000000E5
:1009A00000200449C8710A20034948638863C8636A
:1009B00070470000300C00200000014010B50120FD
:1009C0000349C8710121034802F052FD10BD000027
:1009D000300C002000000140F8B504462088218931
:1009E000401A07B2002F01DD384600E0784207B216
:1009F00060882189401A05B2002D01DD284600E0FB
:100A0000684205B2A0882189401A06B2002E01DD95
:100A1000304600E0704206B278193044C0F34F000F
:100A20000090684602F02CF9E08007480078012821
:100A300006D1E088B0F5FA6F02DD4FF4FA60E0808D
:100A4000012002494870F8BD54000020300C0020FD
:100A500000200449488581F82C0081F82D00088188
:100A600070470000E00B002000B502469FED270A0A
:100A7000F0EE402A9FED250AB0EE402A244890ED82
:100A80000C0AB0EE402A234890ED060AB4EEC20AE2
:100A9000F1EE10FA03D290ED060AB0EE402AB0EE65
:100AA000420A104600F01AFCF0EE402A1A4890ED77
:100AB0000F0A30EE220A80ED0F0A90ED0F0ADFEDEB
:100AC000170AB4EEE00AF1EE10FA04DD9FED130A06
:100AD00080ED0F0A0DE0104890ED0F0AF2EE040AC7
:100AE000B4EEE00AF1EE10FA03D2B2EE040A80EDA1
:100AF0000F0A094890ED0F0ABCEEC00A10EE100A6A
:100B000081B2074841638163C16300BD00000000FA
:100B1000E00B0020A80B0020580C002000007A45B4
:100B20000000014039B1084A1268012383401A438A
:100B3000054B1A6006E0044A1268012383409A4379
:100B4000014B1A60704700000074004000B587B088
:100B50000121084601F072FF0121480701F07EFFE4
:100B600005A800F058FB03208DF818001020059010
:100B700002208DF81B0005A90B4800F0DFFA0020C9
:100B80000190029003900220049001A9002000F03F
:100B90000DF801210020FFF7C5FF0021084600F0F5
:100BA0001FF807B000BD00000000024030B5002271
:100BB00000230A4C226840F6FE748440A243D1E927
:100BC00000452C438D682C43CD6844EA050303FAA5
:100BD00000F42243014C226030BD0000007400404C
:100BE00008B500220092054A009200F10802009B1D
:100BF0001A440092009A116008BD00000074004081
:100C000010B50D490D4800F0F1F898B10C48FFF708
:100C1000E3FE0B48C08800EE100AB8EE400ADFED94
:100C2000090A20EE200A064880ED0C0A0249034812
:100C300000F00AF810BD000020800010106402408F
:100C4000E00B0020FFFF243C0246094B9A4201D2F0
:100C5000084801E00648103801F000531BB1064B6C
:100C60000B40C36002E0044B0B4083607047000000
:100C700010640240006002407D0F7D0F21B10268C8
:100C800042F00102026003E0026822F00102026009
:100C900070470000016821F001010160002101603E
:100CA00041608160C1600161212141614A498842FE
:100CB00004D13D21484A103A91608CE046491831F0
:100CC000884205D14FF47461434A103A916082E042
:100CD00041493031884205D14FF474113E4A103AEF
:100CE000916078E03C494831884205D14FF0746109
:100CF000394A103A91606EE037496031884204D138
:100D00003649354A103AD16065E033497831884236
:100D100004D13349304A103AD1605CE02E49903119
:100D2000884204D12F492C4A103AD16053E02A4915
:100D3000A831884205D14FF03D51274A103AD16081
:100D400049E02949884204D13D21274A083A1160E7
:100D500041E025491831884205D14FF47461224A97
:100D6000083A116037E020493031884205D14FF40C
:100D700074111D4A083A11602DE01B494831884220
:100D800005D14FF07461184A083A116023E0164902
:100D90006031884204D11149134A121F11601AE0D0
:100DA00011497831884204D10D490F4A121F116050
:100DB00011E00D499031884204D10A490A4A121FB4
:100DC000116008E00849A831884204D14FF03D5134
:100DD000054A121F11607047106002403D0000205C
:100DE000400F002000003D201064024070B5024614
:100DF000002000240025124EB24201D2114B01E026
:100E00000F4B103B104E0E4036B11E2606EAD12481
:100E1000166806EA040502E0566906F0800501F04E
:100E200000560EB15C6800E01C68084E344004EACD
:100E3000010616B10DB1012000E0002070BD0000D8
:100E400010640240006002403C0F3C0F7D0F7D0F9C
:100E500010B501F080034BB122B1436943F0800328
:100E6000436103E0436923F08003436180290BD091
:100E70002AB1036801F01E042343036004E0036801
:100E800001F01E04A343036010BD000010B5002252
:100E90000268134B1A40CC680B6823434C69234308
:100EA0008C692343CC6923430C6A23434C6A234354
:100EB0008C6A23434C6B23438C6B23431A4302609D
:100EC000426922F00702D1E90B3423431A434261FD
:100ED0000B6943604B6883608B68C36010BD000082
:100EE0003F801CF070470000002007498887C887B2
:100EF000C86408649FED050A084680ED110A9FED5D
:100F0000030A80ED120A7047E00B00200000000089
:100F10001CB50121072001F091FD684600F07BF926
:100F200001208DF8040000208DF806004FF40070B9
:100F3000009000208DF807008DF8050069467C4878
:100F400000F0FCF84FF40071794800F062F968464F
:100F500000F061F902208DF8040000208DF80600F1
:100F60004FF4E060009002208DF807008DF8050036
:100F70006946704800F0E2F8012208216D4800F04F
:100F800025F9012209216B4800F020F901220A21EC
:100F9000684800F01BF94FF4E061664800F039F949
:100FA000684600F038F902208DF8040000208DF822
:100FB00006004FF46040009002208DF807008DF885
:100FC000050069465A4800F0B9F801220D21584839
:100FD00000F0FCF801220E21554800F0F7F801223C
:100FE0000F21534800F0F2F84FF46041504800F0F0
:100FF00010F9684600F00FF902208DF804004FF454
:10100000E070009001208DF8070003208DF80500A6
:101010006946494800F092F802220621464800F04D
:10102000D5F802220721444800F0D0F80222082116
:10103000414800F0CBF8684600F0EDF802208DF84A
:10104000040000208DF806004FF4E07000900120AD
:101050008DF8070002208DF805006946344800F03D
:101060006DF802220621324800F0B0F80222072172
:101070002F4800F0ABF8022208212D4800F0A6F816
:10108000684600F0C8F803208DF80400E0200090C6
:101090006946284800F052F8684600F0BCF8012084
:1010A0008DF8040000208DF806004FF400500090E9
:1010B00000208DF807008DF8050069461E4800F0F5
:1010C0003DF84FF400511C4800F0A3F8684600F0CA
:1010D000A2F800208DF804004FF44040009000205A
:1010E0008DF807008DF805006946134800F026F8D2
:1010F0004FF44041104800F08CF8684600F08BF83F
:1011000001208DF8040000208DF8060001200090D9
:1011100000208DF8070002208DF80500694606487A
:1011200000F00CF80121044800F073F81CBD000029
:10113000000402400000024000080240F0B50A46E8
:1011400000210023002400BF3DE0012505FA01F342
:10115000156805EA03049C4234D105684F00032654
:10116000BE40B543056015794E00B540066835436D
:1011700005601579012D02D01579022D16D18568EB
:101180004F000326BE40B543856055794E00B540FB
:10119000866835438560456801268E40B5434560C5
:1011A000456896798E40B6B235434560C5684F00B4
:1011B0000326BE40B543C560D5794E00B540C6682C
:1011C0003543C560491C1029BFD3F0BDF0B50023DD
:1011D00000244D07ED0E02FA05F3CE1000F12005B4
:1011E00055F826504E07F70E0F26BE40B543CF10D8
:1011F00000F1200646F82750CE1000F1200555F8E2
:10120000265045EA0304CE1000F1200545F826409B
:10121000F0BD418370474FF6FF71016000210171FD
:1012200041718171C171704710B501F02FFF01F05C
:1012300067FF01F09DFF10BD10B501F027FF01F021
:1012400041FF01F0B3FF10BD10B501F003FF01F045
:1012500073FF01F08DFF10BD10B501F0DDFE01F050
:101260006BFF01F0A3FF10BD10B501F0F3FE01F01C
:1012700029FF01F0B7FF10BD10B501F0CDFE01F060
:101280003FFF01F0AFFF10BD10B500F015F80749A2
:1012900081F83A0006490978064A02EB4111034AEF
:1012A00092F83A2051F82200804710BDE00B002050
:1012B000300C00200800002002490968C1F38210A8
:1012C000704700001004024000BFFEE710B501F0B7
:1012D000C1FE01F015FF01F069FF10BDF0EE400AFC
:1012E000C0ED010A90ED030A80ED040A90ED020AB8
:1012F00080ED030A90ED000A90ED011A30EE410AEC
:1013000080ED020A90ED020A90ED031A30EE410AD8
:1013100090ED061A20EE010A80ED090A90ED070A09
:1013200090ED021A20EE010A80ED0A0A90ED020A01
:1013300090ED031AF0EE001A01EEC10A90ED041AC6
:1013400030EE010A90ED081A20EE010A80ED0B0A3A
:1013500090ED090A90ED0A1A30EE010A90ED0B1A91
:1013600030EE010A80ED0C0A90ED0D0A90ED0C1A9A
:1013700030EE010A80ED0E0A90ED0E0AB2EE041A6C
:10138000B4EEC10AF1EE10FA03DDB2EE040A80ED0C
:101390000E0A90ED0E0ABAEE041AB4EEC10AF1EE8E
:1013A00010FA03D2BAEE040A80ED0E0A90ED0E0A8E
:1013B00080ED0D0A90ED0E0A7047000003480068AA
:1013C0004FF6FF510840014908607047140402407D
:1013D0000348006840F4007001490860704700004D
:1013E0001404024010E0FFF7E9FF4FF448730022B5
:1013F0001146104600F05CFDFFF7EAFF32230022A1
:101400001146104600F054FDEDE700BFFEE7000076
:1014100000200F49087048708870C87008714871C2
:10142000012088719FED0B0A084680ED020A9FEDAE
:10143000090A80ED050A9FED070A80ED080A0020E1
:10144000C86088614862C8710874087770470000F6
:10145000300C0020000000007047704708B51920CC
:101460008DF8000000208DF801008DF802000120A9
:101470008DF80300684600F03DF838208DF8000034
:1014800000208DF8010001208DF802008DF8030086
:10149000684600F02FF81C208DF8000000208DF821
:1014A000010002208DF8020001208DF8030068463B
:1014B00000F020F81D208DF8000000208DF80100BC
:1014C00003208DF8020001208DF80300684600F02B
:1014D00011F81E208DF8000001208DF80100002079
:1014E0008DF8020001208DF80300684600F002F834
:1014F00008BD000070B5002100230F22C4781CB382
:10150000174C246804F4E064C4F5E064C4F30721D4
:10151000C1F10404E3B20A4144789C40E1B284780A
:10152000144021430C07210E0E4C057861550478B8
:1015300004F01F050124AC4005786D11AD0005F1E4
:10154000E025C5F8004109E0047804F01F050124F6
:10155000AC40054D0678761145F8264070BD000078
:101560000CED00E000E400E080E100E0024901430E
:10157000024A1160704700000000FA050CED00E01F
:10158000174818481848194819481A481A481B4853
:101590001B481C481C481D481D481E481E481F4823
:1015A0001F482048204821482148224822482348F3
:1015B00023482448244825482548264826482748C3
:1015C000274828482848294829482A482A482B4893
:1015D0002B482C482C482D482D482E4800BF7047DA
:1015E000784900087C4900088249000884490008BD
:1015F0008049000886490008884900088A4900088F
:101600008C4900088E49000890490008924900085A
:101610009449000896490008984900089A4900082A
:101620009C4900089E490008A0490008A2490008FA
:10163000A4490008A6490008A8490008AA490008CA
:10164000AC490008AE490008B0490008B24900089A
:10165000B4490008B6490008B8490008BA4900086A
:10166000BC490008BE490008C0490008C24900083A
:10167000C4490008C6490008C8490008CA4900080A
:10168000CE490008D0490008D2490008D4490008D2
:10169000D6490008EA49000810B500F017F800F034
:1016A00091FD00F0BDFD00F0DFFD00F05BFD00F0FE
:1016B0001BFD00F073FE00F09DFE00F015FE00F033
:1016C0003BFE00F01BF8FFF75BFF10BD08488021D0
:1016D00002E0491E002204C00029FAD1054A064B47
:1016E0001A601A46126822F007021A60704700005A
:1016F000100D0020100F002058000020704700003F
:1017000010B500241A480078012830D1FEF7D6FD24
:1017100004461848007820B116480078401E154944
:10172000087014480078F8B913480078E0B900F060
:10173000C3FE12481249097850F821001149086087
:101740000F4800781049097888420DD00D4800688C
:10175000006C401C0B49096808640C480068401C78
:101760000A490860FEF7CAFD2046FEF7ABFD10BD32
:101770007C0000207500002076000020401700202B
:10178000780000208C000020770000205C00002002
:1017900070B5054600261048007808B1002070BDDD
:1017A000FEF78CFD06460D480468006820B10B4822
:1017B00000684068094908603046FEF783FD4CB177
:1017C0000320207025810020606005A0E062204693
:1017D00000F07BFC2046E2E775000020600000205E
:1017E0003F00000010B50B48007890B900F064FE8F
:1017F000094800780949087009480749097850F8EC
:101800002100084908600846006807490860FEF79B
:101810005CFD10BD7C0000207800002077000020D7
:10182000401700208C0000208400002010B5002408
:10183000022000F0FFFAFEF741FD044600200B49AC
:1018400008602046FEF73EFD0A2000F0F3FAFEF79E
:1018500035FD044605480068054908600120054932
:1018600008702046FEF72EFD10BD0000800000200D
:101870006C00002074000020704700002DE9F04F3C
:1018800085B081468A4693461C46DDE90F78129D55
:1018900000200390FEF712FD03902348007830B13A
:1018A0000398FEF70FFD3C2005B0BDE8F08F1F4800
:1018B00050F8240088BB01201C4941F824000398FB
:1018C000FEF700FD2A464146384600F057FF2B46FA
:1018D0005A465146484600F061F904901198CDE906
:1018E000008002953A4620460E9B049900F014FEB3
:1018F000064636B90E48007801280CD100F0A2FD4A
:1019000009E0FEF7DBFC03900020084941F82400C1
:101910000398FEF7D7FC3046C6E7FFE70398FEF7CB
:10192000D1FC2820C0E700007500002040170020EF
:101930007C000020704700002DE9F041054600279B
:101940004B48007810B14020BDE8F081FD2D01D159
:101950003E20F9E7FEF7B2FC0746FF2D03D14548CC
:10196000006890F83650444850F8254024B938466D
:10197000FEF7A8FC4320E7E7012C04D13846FEF728
:10198000A1FC3D20E0E714F8380F3C4931F8100085
:10199000618888432178394A22F8110014F83809FF
:1019A000114631F8100028B9A18F354800888843C6
:1019B00033490880E06918B12046E16900F04FFB27
:1019C000206A18B12046216A00F061FBA66A16B1B0
:1019D000304600F0B5FB0020206384F8340084F822
:1019E000350028480078FF2804D226480078401C9B
:1019F000244908703846FEF765FC00F02FFBFEF71F
:101A00005DFC07461F48007820B11E480078401E44
:101A10001C490870204600F041F81B480078401E21
:101A2000194908700020144941F82500A06930B90F
:101A300000206169886115496069086005E0D4E9A2
:101A400005014861D4E905108861114800686061AA
:101A50000F4804600FA060653846FEF733FC0E485F
:101A60000078012801D100F0EDFC00206CE70000B7
:101A70007500002084000020401700202015002061
:101A80007A000020760000207D00002090000020D9
:101A9000880000203F0000007C0000207047704755
:101AA0002DE9F04106460F4614464FF00008154850
:101AB000007818B112202070BDE8F081FEF7FEFB1F
:101AC0008046FF2E03D11048006890F836600F481A
:101AD00050F826502DB94046FEF7F4FB4320207005
:101AE000EAE7012D05D14046FEF7ECFB43202070CC
:101AF000E2E76F654046FEF7E5FB0020207000BF7F
:101B0000DAE7000075000020840000204017002064
:101B1000704770472DE9F04707460D464FF0000A21
:101B2000002028606860FEF7C9FB8246FF2F03D1C2
:101B30001848006890F83670174850F827402CB9BC
:101B40005046FEF7BFFB4320BDE8F087012C04D1CF
:101B50005046FEF7B7FB4320F6E7207C00F001007B
:101B600020B95046FEF7AEFB4520EDE70026D4F83D
:101B70000C90D4F808805046FEF7A4FB00E0761CD9
:101B800058F8041B0029FAD02E60A9EB0600686003
:101B90000020D9E7840000204017002070B50446DB
:101BA000101D20F007000026051F28462E604FF06C
:101BB0001536051F28462E604FF01436051F28469F
:101BC0002E604FF01336051F28462E604FF0123658
:101BD000051F28462E604FF01136051F28462E603F
:101BE0004FF01036051F28462E604FF00936051FAE
:101BF00028462E604FF00836051F28462E604FF00D
:101C00000736051F28462E604FF00636051F28466A
:101C10002E604FF00536051F28462E604FF0043623
:101C2000051F28462E604FF00336051F28462E60FC
:101C30004FF00236051F28462E607610051F2846F5
:101C40002E600026051F28462E604FF08076051F67
:101C500028462E60051F28462C60494E051F284641
:101C60002E604FF01236051F28462E604FF00336C7
:101C7000051F28462E604FF00236051F28462E60AD
:101C80007610051F28462E60051F284629604FF054
:101C90003136051F28462E604FF03036051F284686
:101CA0002E604FF02936051F28462E604FF028364B
:101CB000051F28462E604FF02736051F28462E6048
:101CC0004FF02636051F28462E604FF02536051F9B
:101CD00028462E604FF02436051F28462E604FF010
:101CE0002336051F28462E604FF02236051F284652
:101CF0002E604FF02136051F28462E604FF020360B
:101D0000051F28462E604FF01936051F28462E6005
:101D10004FF01836051F28462E604FF01736051F66
:101D200028462E604FF01636051F28462E604FF0CD
:101D30001136051F28462E604FF01036051F284625
:101D40002E604FF00936051F28462E604FF00836EA
:101D5000051F28462E604FF00736051F28462E60C7
:101D60004FF00636051F28462E604FF00536051F3A
:101D700028462E604FF00436051F28462E6070BDA1
:101D8000892600082DE9F04105464FF00008FEF7CE
:101D900095FA8046FF2D05D12148006890F836500D
:101DA000012608E01E48006890F83600A84201D1DC
:101DB000012600E000261B4850F825402CB940467B
:101DC000FEF780FA4820BDE8F081012C04D140469E
:101DD000FEF778FA4320F6E794F83870124830F8A6
:101DE0001700618F8843104921F81700084630F822
:101DF000170028B9A18F0D48008888430B49088037
:101E000094F8340040F0080084F834004046FEF7AF
:101E100059FA012E01D100F015FB0020D3E7000094
:101E20008400002040170020201500207A000020A8
:101E30007047000070B5054600261848007800B1CC
:101E400070BD1748007800B1FAE725B3FEF736FAFF
:101E500006461448006890F83840134830F81400DB
:101E600010490968498F88430F4921F81400084632
:101E700030F8140038B90B480068818F0B4800888F
:101E800088430A4908800748006805633046FEF722
:101E900019FA00F0D7FA00BFD2E700007500002061
:101EA0007600002084000020201500207A00002009
:101EB0002DE9F04104460D4616461F4612480078AB
:101EC00010B15520BDE8F0811048007808B13220EB
:101ED000F8E7781D642148434FF47A71B0FBF1F1C3
:101EE0004FF461606043C5EB051200EB82003044A3
:101EF00000EBC00202EB001001EB80084046FFF748
:101F000099FF0020DEE70000750000207600002029
:101F100070B5002600F074F8FEF7D0F90646324896
:101F20000068401C304908603046FEF7CBF92F4866
:101F30000078012855D12E48007820B1012804D01E
:101F4000022809D103E001250BE0002509E0012565
:101F500001202749087004E0012500202449087069
:101F600000BF00BF05B970BD2248046835E0FEF728
:101F7000A5F90646206B60B3206B401E2063206BE2
:101F800038BB94F8340000F0370040B114F8340F37
:101F900000F0C800207001206070343C02E0002096
:101FA00084F8350094F8340000F0080088B9A08F58
:101FB0001149098808431049088094F838000F49EE
:101FC00031F81000618F084394F838100B4A22F85A
:101FD000110064693046FEF775F994F83600FD2863
:101FE000C5D100BFBFE70000A40000207C00002096
:101FF00094000020900000207A000020201500208E
:102000007047000010B5FEF759F9044606480078FD
:10201000401C054908702046FEF754F9FFF778FF89
:10202000FFF76EFB10BD00007500002001464A1E40
:102030004FF0E0235A61084A106820F07F4000BF4B
:1020400010601A46126942F005021A611A461269B6
:1020500042F002021A61704720ED00E0704710B5AF
:1020600090F8382001F10C0333F81230448FA34369
:1020700001F10C0424F81230234633F812301BB956
:102080004B89848FA3434B810023C36110BDF0B5FE
:10209000024692F83840958F568F0B46186811E02B
:1020A00000F10C0737F81470B74300F10C0C2CF852
:1020B0001470674637F8147017B94789AF434781E2
:1020C0001B1D18680028EBD1F0BD014600224A8193
:1020D000002006E0002301F10C0222F81030421C1F
:1020E000D0B21028F6D370472DE9F04150211148A5
:1020F00000F04AF900250DE0681C86B20D4800EB9F
:10210000051400EB06170020207067600AA0E0604D
:10211000681C85B2042DEFD3064800EB051400209F
:102120002070606004A0E060024804490860BDE8D7
:10213000F0810000D01200203F0000006400002069
:1021400030B501464A6808682AB9CC68606028B191
:102150000025456002E0106000B142608B680025F8
:102160009D6230BD70B54FF47071134800F00CF9EA
:10217000002411E0601C85B204EB44000E4901EB21
:10218000001305EB450001EB0016002018705E609F
:102190000AA0D862601C84B2132CEBD304EB440079
:1021A000054901EB001300201870586003A0D862A5
:1021B00008460349086070BD100F00203F00000072
:1021C0006000002000200B4908600B4908700B4993
:1021D00008700B4908700B4908700B4908600B49DF
:1021E00008600B4908600B4908600B4908700B49EF
:1021F00008707047A40000207500002076000020C1
:102200007D0000207C0000205C0000208000002079
:10221000700000206C00002074000020A00000204E
:1022200000210B4A1180002005E00021094A22F814
:102230001010411CC8B21028F7D30021064A1170B3
:10224000064A1170064A1160064A11607047000084
:102250007A00002020150020770000207800002060
:102260008C0000208400002070B54FF4FD611948F7
:1022700000F08AF84FF47E71174800F085F80024CA
:1022800013E0601CC5B2C4EBC40000EB041011499C
:1022900001EB8003C5EBC50000EB051001EB8006E8
:1022A0005E610EA05865601CC4B2152CE9D3C4EB66
:1022B000C40000EB0410074901EB800300205861C3
:1022C00006A05865002006490860024805490860D4
:1022D00070BD0000381B0020401700203F000000A8
:1022E000900000208800002000B587B00320002166
:1022F00080220A4BCDE90132CDE903104FF6FF7081
:10230000FD23074A00900748FFF7B8FA06AA06A17E
:10231000FD20FFF7C5FB07B000BD00004015002001
:102320003C1700206126000875432F4F532D494963
:102330002049646C6500000000B587B003200021CF
:1023400080220A4BCDE90132CDE903104FF6FE7031
:10235000FC23074A00900748FFF790FA06AA06A157
:10236000FC20FFF79DFB07B000BD000020130020FC
:102370001C150020A126000875432F4F532D4949F5
:10238000205374617400000004E0002200F8012B67
:102390004A1E91B20029F8D17047000070B578212B
:1023A0001148FFF7F1FF00240EE004EB44000E4952
:1023B00001EBC005601C00EB400001EBC000686051
:1023C0000AA06861601C84B2042CEED304EB4400C4
:1023D000054901EBC0050020686004A0686108465B
:1023E0000349086070BD0000202300203F0000006A
:1023F000980000202DE9F04160211048FFF7C4FF4C
:1024000000240DE0601C86B204EB44000B4901EB94
:10241000C00506EB460001EBC0072F60601C84B2CC
:10242000032CEFD304EB4400044901EBC00500206A
:102430002860084602490860BDE8F0819823002022
:102440009C00002010B50024FDF738FF0446134817
:102450000078F8B912480078E0B900F02DF811487A
:102460001149097850F82100104908600E48007899
:102470000F49097888420DD00C480068006C401C58
:102480000A49096808640B480068401C094908604B
:10249000FDF72FFF2046FDF715FF10BD750000204A
:1024A0007600002040170020780000208C000020DB
:1024B000770000205C000020134A127822B1124AF3
:1024C0001278124B985C07E0104A0F4B1B8802EB06
:1024D000132212780832D0B20D4A02EB40010A787A
:1024E0003AB10A78094B9A5C02EB0012094B1A7058
:1024F00009E00A88054B03EB1222127802EB001266
:102500000832044B1A7070477A000020EC4900082A
:1025100020150020780000202DE9F84F05460F46D1
:1025200090469946DDE90AAB00200090FDF7C6FE13
:10253000009044480468002C7ED01C3454F8080CE9
:10254000404908600098FDF7BDFE44F81C7CA57664
:10255000002020766076606144F818BC44F810AC26
:1025600044F8148C0C9824F80C0C24F80A9C0020D5
:1025700084F822002809207705F00F00E076217FFB
:10258000012088402084E17E01208840E0830020F3
:1025900020606060E060A0606062E062A062206332
:1025A000606329A0A0631C3C002606E0002104F122
:1025B000580040F82610701CC6B2002EF6D02046F7
:1025C000FFF75AF9FDF77AFE0090204840F82540C1
:1025D0000098FDF777FE2046FFF7ACF9FDF76EFE99
:1025E00000901B48006860610020A06118480068E6
:1025F00010B117480068846115480460A08F154920
:10260000098808431349088094F83800124931F8C2
:102610001000618F084394F838100F4A22F8110017
:102620000E480078401C0D4908700098FDF74AFEDE
:102630000020BDE8F88FFFE70098FDF743FE422039
:10264000F7E70000880000203F000000401700204E
:10265000900000207A000020201500207D0000203E
:10266000002400BF00BFFDF729FE044605480068AE
:10267000401C044908602046FDF724FEFFF70FFACE
:10268000F1E700008000002010B504480068FFF763
:102690003FFAFF20FFF750F910BD00008400002032
:1026A00000BF00BF02E01420FFF7C4FB1F48007802
:1026B0000028F8D01E4800686421B0FBF1F01C49E6
:1026C00008600846006828B900201A490870FF20F1
:1026D000FFF758FBFDF7F2FD04461548006864213A
:1026E0004843154908602046FDF7ECFD00BFFDF7A3
:1026F000E5FD0446104800681049086000200E49B6
:1027000008602046FDF7DEFD0C48006808490968AE
:10271000B0FBF1F0C0F1640006490870FFF7F9F969
:1027200000F00EF80A20FFF785FBE0E774000020B8
:102730006C00002068000020800000207000002055
:102740007CB5002514E069462846FFF7E3F9064604
:1027500066B9094850F8254044B1012C06D0D4E9A7
:10276000020100EB8100E06401982065681CC5B29D
:10277000FD2DE8D97CBD00004017002002F00103C8
:1027800043B102F002032BB102E0491E002308C04E
:102790000029FAD17047000010B500207649087072
:1027A00048704FF480507549086004200871000398
:1027B00088604FF42F60C8609FED710A084680ED75
:1027C000040A9FED700A80ED050A9FED6F0A80ED07
:1027D000060A9FED6E0A80ED070A9FED6D0A80EDF7
:1027E000080A9FED6C0A80ED090A90ED090AF7EEE0
:1027F000000A80EE801A80ED0A1A9FED670A80EDCC
:102800000B0A9FED660A80ED0C0A0C2081F834005B
:102810009FED620A624880ED000A9FED600A80ED3C
:10282000010A9FED5E0A80ED020A9FED5C0A80EDD1
:10283000030A9FED5A0A80ED040A9FED580A80EDC5
:10284000050A9FED560A80ED090A9FED540A80EDB6
:102850000A0A9FED520A80ED0B0A9FED500A80EDA7
:102860000D0A9FED4E0A80ED0E0A9FED4E0A80ED97
:10287000060A9FED4D0A80ED070A9FED480A80ED9C
:10288000080A9FED460A494880ED000A9FED430A79
:1028900080ED010A9FED410A80ED020A9FED3F0A9B
:1028A00080ED030A9FED3D0A80ED040A9FED3B0A8F
:1028B00080ED050A9FED390A80ED090A9FED370A80
:1028C00080ED0A0A9FED350A80ED0B0A9FED330A71
:1028D00080ED0D0A9FED310A80ED0E0AB2EE000A7E
:1028E00080ED060AB7EE000A80ED070A9FED2B0A7D
:1028F00080ED080A9FED290A2D4880ED000A9FED22
:10290000270A80ED010A9FED250A80ED020A9FED5E
:10291000230A80ED030A9FED210A80ED040A9FED52
:102920001F0A80ED050A9FED1D0A80ED090A9FED43
:102930001B0A80ED0A0A9FED190A80ED0B0A9FED34
:10294000170A80ED0D0A9FED150A80ED0E0A9FED26
:10295000190A80ED060A9FED180A80ED070A9FED1F
:10296000170A80ED080AFDF7F5FFFEF7BDFAFEF73E
:102970004FFD012010BD000054000020A80B0020D6
:10298000002019459A992141000018420AD7234096
:10299000A55E0043000094420000344300000000A4
:1029A000580C002000002042CDCC4C3F980C002059
:1029B000D40C00206F12833B17B751386F12033BC2
:1029C00070B52DED048B05469FED180AB0EE408AD8
:1029D0009FED160AF0EE408A154890ED130AB8EE06
:1029E000C00AB0EE408AB0EE480A2846FEF776FCF0
:1029F000F0EE408A9FED0F0A38EE000AB0EE409AE2
:102A0000BCEEC90A10EE104AB4F5805F01D340F65F
:102A1000FF74A1B20020FEF7E3F80748C0ED058A75
:102A2000012005490871BDEC048B70BD0000000059
:102A3000E00B002000007A44300C002029B1064A47
:102A400012680243044B1A6004E0034A126882438E
:102A5000014B1A60704700003038024029B1064A25
:102A600012680243044B1A6004E0034A126882436E
:102A7000014B1A60704700004038024029B1064AF5
:102A800012680243044B1A6004E0034A126882434E
:102A9000014B1A60704700002038024029B1064AF5
:102AA00012680243044B1A6004E0034A126882432E
:102AB000014B1A60704700004438024029B1064AB1
:102AC00012680243044B1A6004E0034A126882430E
:102AD000014B1A60704700002438024000BF00BF5D
:102AE00006E000BF6423052200210846FFF7E0F955
:102AF000F7E7000010B50E480078022802D0022047
:102B00000B490870FDF74CFF0A200A4948638863A7
:102B1000C863FEF7DBFBFDF79BFF40F2416006490F
:102B200008819FED060A084680ED0C0A10BD0000E2
:102B30005400002000000140E00B002000000000D5
:102B40000F49C98F0E4A91870E490968D1871146EE
:102B5000C98F928F891A08B20949C96C0144084A81
:102B6000D16400EE100AB8EEC00ADFED070A80EE6D
:102B7000201A114681ED111A0121044AD1707047C3
:102B8000E00B00202404004000002042300C002014
:102B9000704700000CB50020019000903448006898
:102BA00040F480303249086000BF3148006800F4CA
:102BB000003000900198401C0190009818B90198CD
:102BC000B0F5A04FF1D12A48006800F4003010B1F0
:102BD0000120009001E0002000900098012846D1DB
:102BE00023484030006840F080502149403108605F
:102BF0002048006840F440401E4908601C480830E6
:102C000000681B49083108600846006840F400402D
:102C100008600846006840F4A05008601648091F84
:102C20000860081F006840F08070091F086000BF3E
:102C30000F48006800F000700028F9D040F20570DD
:102C40000E4908600A480830006820F0030008496F
:102C5000083108600846006840F00200086000BFC4
:102C600003480830006800F00C000828F8D10CBDBB
:102C7000003802400070004008544007003C024009
:102C800010B501460888B0F5805F02DB40F6FF70A2
:102C900008802D4890F82D0008281CDA0B882A4857
:102CA00090F82C400A3020F814300A3890F82D00A3
:102CB000401C254B83F82D00184690F82D0083F812
:102CC0002C001846408D0B8818441F4B5885184619
:102CD000408D801010BD1C4890F82C00401C1A4BF1
:102CE00083F82C00184690F82C00082802DB0020FE
:102CF00083F82C00144890F82C00072802D11248C1
:102D0000428907E0104890F82C00401C0E4B0A3313
:102D100033F810200B880C4890F82C400A3020F82B
:102D200014300A38438D90F82C400A3030F81400E3
:102D30001844054B58851846408D801A588518460A
:102D4000408D8010C6E70000E00B002010B5012088
:102D500005490874C8710121800700F083FB012137
:102D6000880700F085FB10BD300C002010B52DED5C
:102D7000028B04469FED280AB0EE408A9FED260A9A
:102D8000F0EE408A254890ED110AB0EE408AB0EE90
:102D9000480A2046FEF7A2FAF0EE408A2048C0ED2D
:102DA000028A90ED020ADFED1F0AB4EEE00AF1EEAE
:102DB00010FA0DDD01201A49087009781A4A02EB51
:102DC0004111164A92F83A2051F8220080471CE03F
:102DD000134890ED020ADFED150AB4EEE00AF1EEB9
:102DE00010FA0DD200200E49087009780E4A02EB45
:102DF00041110A4A92F83A2051F82200804704E033
:102E00009FED050A064880ED020A012004498870FA
:102E1000BDEC028B10BD000000000000E00B0020A4
:102E2000300C0020CDCCCC3D08000020CDCCCCBD5A
:102E300028E015480078F8B11348007801281BD025
:102E400011480078022816D1FFF754FE14230022FF
:102E500011461046FFF72CF80120FDF761FDFEF743
:102E600013FAFFF773FFFDF7A9FD0120064908706B
:102E70000220487000E000BF1423002211461046D3
:102E8000FFF716F8D5E700005400002010B51548EC
:102E9000006840F47000134908601348006840F06F
:102EA00001001149086000200F49083108600E48F0
:102EB00000680E4908400C4908600D48091D08606B
:102EC000081F006820F48020091F086000200649C0
:102ED0000C310860FFF75EFE4FF000600149803959
:102EE000086010BD88ED00E000380240FFFFF6FEEC
:102EF00010300024F0B50C46154600210022068C47
:102F00004FF6FE773E400684018B028C4FF60C761E
:102F100031407E1C06EA03162E4331434FF6F57608
:102F2000324044F00106324301830284F0BDF0B523
:102F30000C461546002100220026078C4FF6EF7C38
:102F400007EA0C070784018B028C4FF6FF7707EA2C
:102F5000041640F6FF4739404FF6FF7707EA03377C
:102F600039434FF6FF7707EA052739434FF65F7776
:102F70003A4046F010073A4301830284F0BDF0B5B1
:102F80000C461546002100220026078C4FF6FF6CE8
:102F900007EA0C070784818B028C4FF6FF7707EA5C
:102FA00004264FF60C7739404FF6FF7707EA0317F0
:102FB0002F4339434FF2FF573A4046F480773A4364
:102FC00081830284F0BDF0B50C4615460021002235
:102FD0000026078C4EF6FF7C07EA0C070784818BDE
:102FE000028C4FF6FF7707EA043640F6FF47394078
:102FF0004FF6FF7707EA052739434FF6FF7707EAD1
:103000000337394345F6FF773A4046F480573A4351
:1030100081830284F0BD00000D48008C4FF6FE71E4
:1030200008400B4908840846008C4FF6FB710840A5
:10303000074908840846008B4FF68F710840044901
:1030400008830846008B40F040000883704700006A
:10305000000001400C48008B4FF68F7108400A4970
:1030600008830846008B40F0700008830846008CF7
:103070004FF6FE710840044908840846008C40F071
:103080000400088470470000000001400C48008BD9
:103090004FF68F7108400A4908830846008B40F0BC
:1030A000700008830846008C40F001000884084640
:1030B000008C4FF6FB7108400149088470470000FE
:1030C000000001400D48008C4FF6EF7108400B499D
:1030D00008840846008C4FF6BF71084007490884F1
:1030E0000846008B48F6FF710840044908830846EB
:1030F000008B40F4804008837047000000000140CE
:103100000C48008B48F6FF7108400A4908830846BE
:10311000008B40F4E04008830846008C4FF6EF71C6
:103120000840044908840846008C40F040000884A8
:1031300070470000000001400C48008B48F6FF710A
:1031400008400A4908830846008B40F4E0400883A1
:103150000846008C40F0100008840846008C4FF6AA
:10316000BF71084001490884704700000000014019
:103170000D48008C4FF6FF6108400B490884084653
:10318000008C4FF6FF310840074908840846808BC1
:103190004FF68F710840044988830846808B40F0C1
:1031A0004000888370470000000001400C48808B7D
:1031B0004FF68F7108400A4988830846808B40F09B
:1031C000700088830846008C4FF6FF610840044970
:1031D00008840846008C40F4806008847047000032
:1031E000000001400C48808B4FF68F7108400A495F
:1031F00088830846808B40F0700088830846008CE6
:1032000040F4807008840846008C4FF6FF31084077
:1032100001490884704700000000014010B52DED01
:10322000048B0121214800F028FAD8B31F480088F8
:1032300000F0100070B11E48C07901282ED11C4842
:10324000407801282AD11B48FDF70EFC00201849C0
:10325000487023E01848FDF7EFFA154880780128F8
:103260001CD1134890ED020A10EE101A084601F026
:103270008DF941EC190BB0EE490AF0EE690A00F045
:1032800046FDB0EE408AF0EE608A51EC180B00F07B
:103290009BFD08490860002005498870012103480A
:1032A00000F0E3F8BDEC048B10BD0000000001400D
:1032B000300C0020580C00200020014010B52DEDEE
:1032C000028B0121880700F0D8F9002878D0FFF799
:1032D00037FC3D48007C012851D13C4890ED000A64
:1032E000B8EE400ADFED3A0A20EE200ADFED390A97
:1032F00080EE201AB0EE418AB0EE480AFDF73CF8A5
:10330000DFED350A20EE200A344880ED000A2F4810
:103310000068401C2D49086008460068B0F5FA7F37
:1033200001D3002008602D4890ED000A264880ED6A
:10333000080A0120244988712448006828B92848CF
:10334000006840F001002649086020480068FA281B
:1033500006D1234800684FF6FE71084020490860F6
:103360001948807901280AD1174890ED080A1D48AC
:1033700080ED000AFFF724FB0020134988711248F2
:10338000007C012818D11048C078012805D11648C2
:10339000FFF7ECFC00200C49C8700B4800790128AD
:1033A0000AD1094890ED050A0F4880ED000A002077
:1033B00005490871012088700121880700F055F83F
:1033C000BDEC028B10BD0000300C00204800002036
:1033D000DB0F494000007A4300007A44500000208F
:1033E00014080240D40C0020980C002010B50121D4
:1033F000054800F042F90821034800F03EF9092190
:10340000014800F032F810BD0004004010B5022160
:10341000054800F032F928B1FDF736FF02210248D5
:1034200000F023F810BD00000008004021B1028820
:1034300042F08002028004E002884FF67F731A4057
:10344000028070470A884B881A438B881A43CB88BE
:103450001A430B891A434B891A438B891A43A0F8E4
:1034600044207047CA4302827047CA4302827047B1
:1034700021B1028842F00102028004E002884FF686
:10348000FE731A400280704731B1B0F8442042F414
:103490000042A0F8442005E0B0F84420C2F30E0238
:1034A000A0F844207047000010B5044655488442F7
:1034B00008D101210846FFF701FB00210120FFF799
:1034C000FDFA9DE0B4F1804F08D101210846FFF7D5
:1034D000D5FA00210120FFF7D1FA91E04A48844251
:1034E00008D101210220FFF7C9FA00210220FFF7CD
:1034F000C5FA85E04548844208D101210420FFF740
:10350000BDFA00210420FFF7B9FA79E0404884426F
:1035100008D101210820FFF7B1FA00210820FFF7A8
:10352000ADFA6DE03B48844208D101211020FFF73D
:10353000A5FA00211020FFF7A1FA61E03648844285
:1035400008D101212020FFF799FA00212020FFF760
:1035500095FA55E03148844208D101210220FFF755
:10356000ADFA00210220FFF7A9FA49E02C48844275
:1035700009D101210804FFF7A1FA00214FF480309E
:10358000FFF79CFA3CE02748844209D10121480416
:10359000FFF794FA00214FF40030FFF78FFA2FE085
:1035A0002148844209D101218804FFF787FA0021CC
:1035B0004FF48020FFF782FA22E01C48844208D1B1
:1035C00001214020FFF75AFA00214020FFF756FA68
:1035D00016E01748844208D101218020FFF74EFAF7
:1035E00000218020FFF74AFA0AE01248844207D1FE
:1035F00001218015FFF742FA0021A015FFF73EFADE
:1036000010BD000000000140000400400008004020
:10361000000C004000100040001400400004014075
:1036200000400140004401400048014000180040B3
:10363000001C004000200040F0B50C4615461E4618
:103640000021002200230189028B038C4FF6F877BA
:10365000394021434FF6FC473A4040F201173A43C4
:103660004FF6DD773B404FF6FF7707EA06172F430B
:103670003B43018102830384F0BD30B50246002044
:1036800000230024158A05EA0103958905EA01044F
:1036900013B10CB1012000E0002030BD70B505462B
:1036A0000C46208850B92389A28861882846FFF7F4
:1036B00021FCE188284600F052F925E02088042802
:1036C0000AD12389A28861882846FFF730FCE18867
:1036D000284600F04DF917E0208808280AD12389F0
:1036E000A28861882846FFF74AFCE188284600F056
:1036F0004CF909E02389A28861882846FFF763FC1A
:10370000E188284600F04AF970BD0021018041801F
:10371000012181800021C180018170471AB1838914
:103720000B43838102E083898B43838170470000D0
:1037300070B5002400220023058C4FF6FE7635403C
:103740000584028C8388048B4FF68F752C40B51E40
:103750002C400D882C43751E2A408D892A434D88A4
:103760002A43104DA84202D00F4DA84213D14FF664
:10377000F7752A40CD892A434FF6FB752A408D887C
:103780002A434FF6FF652B404FF6FF552B400D8A1D
:103790002B434D8A2B43838004838D6845630284C9
:1037A00070BD000000000140000401400A460021F5
:1037B000018B4FF6F77319401143018370470000E6
:1037C00070B5002400220023058C4FF6EF763540BB
:1037D0000584028C8388048B48F6FF752C404FF6D5
:1037E000FF452C400D884FF6FF7606EA05252C4351
:1037F0004FF6DF752A408D8906EA05152A434D8864
:1038000006EA05152A43154DA84202D0144DA842D8
:103810001DD14FF67F752A40CD894FF6FF7606EA17
:1038200005152A434FF6BF752A408D8806EA05150F
:103830002A434FF6FF352B404FF2FF752B400D8A80
:1038400006EA85052B434D8A06EA85052B438380CE
:1038500004838D688563028470BD00000000014010
:10386000000401400A460021018B4FF2FF7319400A
:103870004FF6FF7303EA02231943018370470000E8
:1038800070B5002400220023058C4FF6FF663540FA
:103890000584028C8388848B4FF68F752C404FF6FD
:1038A000FC752C400D882C434FF6FF552A408D891E
:1038B0004FF6FF7606EA05252A434D8806EA0525D8
:1038C0002A43154DA84202D0144DA8421DD14FF2F3
:1038D000FF752A40CD894FF6FF7606EA05252A4373
:1038E0004FF6FF352A408D8806EA05252A434EF615
:1038F000FF752B404DF6FF752B400D8A06EA051526
:103900002B434D8A06EA05152B43838084838D68FB
:10391000C563028470BD0000000001400004014046
:103920000A460021818B4FF6F773194011438183BA
:103930007047002101804180818081608181C18147
:1039400001824182704721B1828842F080028280E8
:1039500004E082884FF67F731A4082807047028BA2
:103960004FF6F3731A400283028B0A4302837047B7
:10397000028B4FF2FF331A400283028B4FF6FF7324
:1039800003EA01231A4302837047828B4FF6F373D5
:103990001A408283828B0A4382837047828B4FF264
:1039A000FF331A408283828B4FF6FF7303EA0123B1
:1039B0001A4382837047000000220288184B984205
:1039C0000ED0184B98420BD0B0F1804F08D0164B58
:1039D000984205D0154B984202D0154B984204D11D
:1039E0004FF68F731A404B881A43124B984207D0F8
:1039F000114B984204D04FF6FF431A400B891A43EB
:103A000002804B68C3620B880385054B984202D045
:103A1000044B984201D18B7A03860123838270473D
:103A20000000014000040140000400400008004084
:103A3000000C004000100040001400404FF0FF3127
:103A40004160002101800181418081727047000046
:103A500000B58DB001210846FFF720F83E48FFF77A
:103A600023FD0020ADF830002020ADF82A0041F2FF
:103A700067000B900020ADF828008DF832000AA9ED
:103A80003548FFF799FF05A8FFF753FF7020ADF801
:103A900014000020ADF82400ADF826000220ADF897
:103AA00020000820ADF822000120ADF81600042007
:103AB000ADF818000A20079005A92748FFF738FE3F
:103AC00008212548FFF772FE0A20079005A9224821
:103AD000FFF776FE08212048FFF7C4FE0A20079072
:103AE00005A91D48FFF7CCFE08211B48FFF718FF6A
:103AF00001211948FFF7B6FC012211461648FFF7CD
:103B00000DFE0020ADF804004FF48060ADF8060013
:103B10000020ADF80800E020ADF80A000020ADF864
:103B20000C004FF40050ADF80E004000ADF810004E
:103B300001A90948FFF786FCFDF7C8FB01210648EB
:103B4000FFF774FC01210448FFF792FC01210248B1
:103B5000FFF79AFC0DB000BD000001400EB5012139
:103B60000846FEF77BFF4FF08040FFF79DFC68465C
:103B7000FFF764FF0020ADF80800ADF8020041F245
:103B8000670001901320ADF8000069464FF08040B7
:103B9000FFF712FF00214FF08040FFF769FC012181
:103BA0008807FFF75FFC012211469007FFF7B6FD7B
:103BB0000EBD000000B587B001210220FEF74EFFC8
:103BC0002B48FFF771FC04A8FFF738FF0020ADF881
:103BD0001200ADF818004FF6FF7005900020ADF808
:103BE000100004A92248FFF7E7FE0A231A46032122
:103BF0001F48FFF721FD01A8FFF787FD0020ADF862
:103C000004000120ADF80C0001A91948FFF746FD9A
:103C10000420ADF804000120ADF80C0001A91448FF
:103C2000FFF73CFD0820ADF804000020ADF80600C9
:103C30000120ADF808000020ADF80C00ADF80A0036
:103C400001A90B48FFF72AFD01210948FFF70AFCEB
:103C5000012209210648FFF761FD002004492431B3
:103C6000086001210248FFF703FC07B000BD000017
:103C70000004004000B587B001210420FEF7EEFEED
:103C80000020ADF81800ADF812004FF6FF70059057
:103C90000020ADF8100004A91A48FFF78DFE00209F
:103CA000ADF804000A20ADF806000020ADF80C00C5
:103CB000ADF80A000120ADF8080001A91148FFF78E
:103CC000EDFC0420ADF8040001A90E48FFF7E6FC66
:103CD0000820ADF8040001A90A48FFF7DFFC012124
:103CE0000848FFF730FE02210648FFF7BBFB012220
:103CF00002210448FFF712FD01210248FFF7B8FB3B
:103D000007B000BD00080040704700BFFEE72DED82
:103D1000020B019820F0004001909DED000B02B0D5
:103D2000704730B5034600214FF0E024A26900201F
:103D3000A824634300BF4FF0E024A069904202DA58
:103D40008C18211A05E08C184FF0E0256D692C4481
:103D5000211A02469942EED330BD000000B585B06D
:103D60004FF4A060FDF702FCFEF716FDFCF7BCFD6A
:103D7000FDF792FC0020FDF70BFD0E4908600020C6
:103D8000FDF706FD0C490860072000214FF4807202
:103D90000A4BCDE90132CDE9031032200346084A2F
:103DA00000900848FDF76AFDFDF71CFD002005B0F6
:103DB00000BD00000000002004000020A807002033
:103DC000A40B00204508000821F00042A2F1605237
:103DD000B2F5801F01F0004328BFD2F17E6C51D9AB
:103DE000F1EE10CA1CF4400F14D15FEAC00C43EA94
:103DF000C20202EB507008BF70475FEA4C0C40F102
:103E00000000DFF880C240F0CB8228BF20F0010024
:103E100000F0C6BAC30001F0004343EAC20202EB5D
:103E2000507008BF70471B4248BF4FEA4C0C1CF44F
:103E3000000F08BF401CDFF84CC200F0B1BAC3004D
:103E400001F0004343EAC20202EB507204BF104685
:103E500070471B4248BF4FEA4C0C1CF4000FDFF8C0
:103E600024C218BF104640F09B8208BF521C12F4B7
:103E7000000F08BF104600F0938221F0004201F0CD
:103E8000004330E050EA410C04BF084670475FEA47
:103E9000125CBCF1FE0F1ED1F1EE10CA1CF4400FF3
:103EA000CDD15FEAC00C9BD05FEA001C4FEAC20C88
:103EB0004CEB507C04BFC2002CEAD27C1CF4000FF7
:103EC00004BF4CEA0300DFF8BCC100F0698221F0B6
:103ED0000042A2F16052B2F5801F4FEA410C2ADB8A
:103EE0001CF5001F16D2F1EE10CA1CF4806F06D02C
:103EF0002CF0005C4CF0805CA1F140612AE04FF0B6
:103F00007F40DFF884C143EA500000F049BA084618
:103F100000F0F7BB70B500F0C6F800BF000000B9B4
:103F200088000004FFF7F3BF21F0704243EA5070AD
:103F300040EAC2007047F1EE10CA2CF0805C4CF0F1
:103F4000005C1CF4006F25D04B00B3F5001F51D36B
:103F500001F140611CF4400F40F07E800CF0405CA9
:103F6000C3004CF0880C11D05CF0404C10F0805F26
:103F70000CD0034610F1005041F10001020108BFCE
:103F800020F00050834218BF2CF0004C00F060403D
:103F900000F0B3BC1CF4400F1AD01B4248BF4FEADC
:103FA0004C0C1CF4000F13D112F1406248BF22F0F8
:103FB0007F424FEAC00CBCF1010F43EAC20242EB60
:103FC00050704FF0880228BF42F0804200F09EBB44
:103FD00012F1406248BF22F07F425FEAC00C43EA20
:103FE000C20242EA50704FF0880218BF42F04042CD
:103FF00000F08CBB01F0004321F00041094214D0D5
:10400000B1FA81FCACF10B0CCCF1200201FA0CF1FD
:1040100020FA02F241EA02014FEA0C5200FA0CF0D7
:10402000A1EB020181EA03010FE0B0FA80F200FA8D
:1040300002F002F115024FEAD0214FEA0252A1EB41
:1040400002014FEA405081EA0301F1EE10CA2CF060
:10405000805C4CF0005C7BE762460CF0405CC30087
:104060004CF0880C92D05CF0404C094248BF5200A2
:1040700012F4000F8AD110F1005041F100012CF030
:10408000004C83D18800004088000010B1FA81F212
:1040900001FA02F1C2F11D024FEA415003EB025353
:1040A00003EBD12170470EF1020E2EF0030E012812
:1040B0005EF8086B41EB010414F5001418BFB4F569
:1040C000801F23D3364208D4012A43EB030515F59C
:1040D000001518BFB5F5801F18D301EB010C1CF5B6
:1040E000801F16D2364204D403EB030C1CF5801F4C
:1040F0000FD2002C10D14FEAD17C002D0CEB4C0CD0
:104100000CF1020C08BF4CEBD37C07E04FF0090C1C
:1041100004E04FF0080C01E04FEAD37C0CEB4C05B7
:1041200026FA05F606F00706B6F1040C06D20EEBE9
:10413000860CBDE870404CF0010C6047DFE80CF0E5
:10414000222413025EF804CC1B2D08D1002C88BF5A
:10415000B4F5801F34BF4CF4804C4CF4004CBDE8E7
:10416000704000F01DB9002C88BFB4F5001F24BFBB
:104170001946104670BD4FF000004FF00041A1F508
:10418000002170BD19461046012851EB010418BFEB
:10419000D4F5001484BF5EF804CC2CF0806CBDE82C
:1041A000704000F2DC80704780B54FF003065C0081
:1041B0004FEA03334FEA3606640D4FEA133318BF54
:1041C00043F480131CD153EA125E04F1010402BFD0
:1041D00013460022203C1B4202BF130B1205143C65
:1041E000B3FA83FEAEF10B0ECEF1200C03FA0EF300
:1041F00022FA0CFC02FA0EF2A4EB0E0443EA0C03C2
:104200000FB416F0010F0CBC03BC18BF2546CED16D
:1042100080BD80B50126F3E70808A0F500114FEA3C
:1042200031017047F1EE103A13F0807F1EBF01F0AC
:1042300000410020704713F4006F40F0AA8009424B
:1042400048BF4CF4803C4FF4C0634FEA115203F175
:10425000010321EA025122F400629A1A48BF6FF06A
:10426000FE0241F48011352A3CD830D0152A1ED3E5
:10427000203A0CD90028C2F1200321FA02F001FAF9
:1042800003F218BF42F001024FF0000130E0C2F12A
:10429000000302F1200201FA03F120FA02F241EADE
:1042A000020100FA03F208464FF0000120E0C2F1DB
:1042B000200310B400FA03F401FA03F320FA02F029
:1042C00021FA02F1224610BC43EA000010E050EA55
:1042D00001324FF000004FF000014FF0004218BFD4
:1042E000521C05E04FF001024FF000014FF00000BA
:1042F0001CF4803F2CF4803C18BF41F00041124276
:104300001ED0F1EE103A13F4400F20D1520003D327
:104310000CD0401C41F10001F1EE103A4CF0804C01
:1043200043F00803E1EE103A00F03AB85FEAAC72ED
:10433000EFD4F1D1401C41F1000120F00100EBE786
:104340001CF0804F08BF70472CF0004CE4E7094296
:1043500054BF13F4000F13F4800FDDD1D9E7F1EE51
:10436000103A13F0807F1EBF01F00041002070471B
:1043700013F4006F08BF70472DE9F050FFF749FFB5
:1043800004F5C064A4F10104314301EB0451BDE81C
:10439000F0504CF0005C4CF0800C00F0AEBA000025
:1043A0001CF0700F08BF0A460FB4F1EE101A0CF0A3
:1043B000405030EA814318BF4CF0804C4FEA4C0328
:1043C00010EA814F4FEAD36323EA112318BF23F089
:1043D000100341EA030101F0E073E1EE101A4CEA28
:1043E000030C0CF00F030A2B1DBF082B0CF07003FD
:1043F0004CEAC30C4FF4003304BF33EA0C034CF413
:10440000400C1CF0005F14D11CF0805F0BD11CF03D
:10441000804F31D11CF0006F12D111F4807F0FBC9E
:1044200062D000F06ABA11F4806F0FBC2BD000F09C
:1044300064BA11F4006F0FBC08BF704700F05DBA9A
:1044400011F4007F0FBC40F058821CF0400F1EBFDB
:104450004FF0004040F0010070471CF0100F14BFF7
:1044600081EA030242400CF00F000A2808BF4FF017
:10447000FF324FF0000326E011F4805F0FBC08BF4D
:10448000704700F03ABAF1EE103A2CF0805C1CF064
:10449000800F14BF01F0004200F0004212420CBF36
:1044A00012EA336F12EAF35F0DD31CF0100F1DBF39
:1044B00030A003C81143314808BF104313F4805F94
:1044C00040F01B8270471CF0100F02F000421DBF2D
:1044D0000FF2940003C81143254808BF104313F49A
:1044E000805F40F00A8270471CF0400F40F0288047
:1044F0001CF4404F1BD01CF4004F1CBF1946104643
:104500000CF4807218BF8CEA520C1CF0800F0CBFA8
:1045100040F4800041F400218CEADC0313F0100F1A
:104520001CBF2CF00F0C4CF0080C00F08DB91CF0E7
:10453000100F1ABF12A393E80300134800F084B9C8
:104540001CF0800F14BF01F0004200F000421CF08C
:10455000100F1BBF0AA393E803000B48114308BFC9
:10456000104300F071B900BF000000000000F07FB0
:104570000000807FFFFFFFFFFFFFEF7FFFFF7F7FD8
:10458000000000000000F87F0000C07F43004FEAF9
:10459000D30C4FEA3C0C43401FBF40070CF1605165
:1045A00013F0FE4F70471CF0006F14D133F0004041
:1045B00004BF1946704783EA830383EA430303F089
:1045C000070343EACC010CF0004303F15A5303F50F
:1045D0004013FFF75BBD0CF0004343EA507010B589
:1045E00040EACC0000F00FF8000000BA1800000408
:1045F0004FEA0001FFF710BE4FEAE0024FEA4070B9
:1046000042F0E04170470EF1020E2EF0030E4FEA29
:1046100040025EF8084B12F1807218BFB2F5000F2D
:1046200022D3244207D44FEA410313F1807318BF09
:10463000B3F5000F18D34FEA400C1CF5000F16D24B
:10464000244204D44FEA410C1CF5000F0FD2002A7B
:1046500010D14FEAD07C002B0CEB4C0C0CF1020C6F
:1046600008BF4CEBD17C07E04FF0090C04E04FF0A1
:10467000080C01E04FEAD17C0CEB4C0324FA03F464
:1046800004F00704B4F1040C06D20EEB840CBDE870
:1046900010404CF0010C6047DFE80CF01F201302C3
:1046A0005EF804CC1B2B08D1002A88BFB2F5000F9E
:1046B00034BF4CF4804C4CF4004CBDE81040FFF784
:1046C0006FBE002A88BFB2F1807F28BF084610BDA8
:1046D0004FF00040A0F5800010BD0846420018BF12
:1046E000D2F1807284BF5EF8042C22F08062BDE8B3
:1046F000104000F28A8070474FF00000E1EE100A8F
:104700007047FF2141EAD050C0057047F1EE101A02
:1047100011F0807F1CBF00F00040704711F4006F63
:1047200040F08E8000F0004343EAD05323F48073BE
:10473000C3F1C10323F00041172941D8C3F120037D
:1047400010FA03F1C3F1200320F07F4040F4000091
:1047500020FA03F003F0004340EA030019D00B46AF
:10476000F1EE101A41F00801E1EE101A11F4400FB9
:104770001CD1590009D318BF401C06D17FEAE2734F
:1047800098BF401C38BF20F0010042F0804CFFF77A
:1047900007BE12F0804F08BF7047F1EE101A944622
:1047A00041F00801E1EE101AFFF7FABD10F0004FDA
:1047B00014BF5FEAF1535FEA316338BF401CE4E79E
:1047C000182903EB912318BF6FF000410131F1EE7E
:1047D000101A41F00801E1EE101A11F4400F18BF51
:1047E00003F00040E2D168BF03F0004009D6400268
:1047F00003F0004000F1010004BF12F0004F20F070
:1048000001004FF0804CFFF7CBBDF1EE101A11F014
:10481000807F1CBF00F00040704711F4006F08BF9C
:10482000704700F0004120F00040B0FA80F3A3F19F
:10483000080341F0C04100FA03F0A1EBC351084462
:1048400042F0005C00F059B80CF00F03092B08BFD0
:10485000082000F064800A2B32D0082B18BF704764
:1048600008BF1CF0400F31D01CF4803F23D11CF056
:10487000200F11D11CF0100F0BBF02460A466FF03B
:1048800000406FF0004118BF4FF0FF3012F0004FB2
:104890001CBFC043C94370471CF0100F0CBF024639
:1048A0000A4612F0004F4FF0FF304FF0FF311CBFAF
:1048B000C043C94370474FF000004FF000017047FC
:1048C0001CF0400F18BF4FF0004070471CF0100F55
:1048D00008D020F0704300F07F4242EAD3014FEA53
:1048E0004370704700F0604021F07F4242EA0002CE
:1048F00001F07F4040EA727070472DE900502DE9C9
:104900000050FBF777FDBDE80050BDE800500CF00B
:104910000F0393F0090F18BF7047AFF300801CF42A
:10492000801F24D01CF4E02F09D010F0080F02D112
:10493000D0F1020070476FEACC31490070474FF068
:10494000604111EA407028BF40F04050F1EE103A4B
:1049500023F0704343EA0003E1EE103AEFF30082E4
:1049600022F0704242EA000282F3008870471CEA9B
:10497000004018BF01207047010000007856341233
:104980000100140001003000C0030100010010000C
:104990001400020005000100FD00010001000500F7
:1049A0000100180078000100040001000400180054
:1049B000100001000400010001000100800001005E
:1049C0001600010001008000010001000100FE004E
:1049D0005C00640001001B72000010000100070071
:1049E0000A00000000000000000027150000010080
:1049F00002000100030001000200010004000100A8
:104A00000200010003000100020001000500010096
:104A10000200010003000100020001000400010087
:104A20000200010003000100020001000600010075
:104A30000200010003000100020001000400010067
:104A40000200010003000100020001000500010056
:104A50000200010003000100020001000400010047
:104A60000200010003000100020001000700010034
:104A70000200010003000100020001000400010027
:104A80000200010003000100020001000500010016
:104A90000200010003000100020001000400010007
:104AA00002000100030001000200010006000100F5
:104AB00002000100030001000200010004000100E7
:104AC00002000100030001000200010005000100D6
:104AD00002000100030001000200010004000100C7
:104AE00002000100030001000200010000000000BC
:104AF000920E493CB10AC93C2BC3163D2EFB483DE2
:104B0000752B7B3D04A9963D80B6AF3D36BDC83DB3
:104B10002FBCE13D73B2FA3D87CF093E8340163E7C
:104B2000B5AB223EA2102F3ECF6E3B3EC2C5473EE4
:104B30000115543E135C603E7F9A6C3ECCCF783EAC
:104B4000C07D823E938E883E229A8E3E32A0943E55
:104B500086A09A3EE59AA03E128FA63ED47CAC3E3B
:104B6000EF63B23E2A44B83E491DBE3E15EFC33E38
:104B700053B9C93ECA7BCF3E4136D53E80E8DA3EC6
:104B80004F92E03E7533E63EBBCBEB3EEA5AF13E38
:104B9000CBE0F63E275DFC3EE4E7003F3D9C033F53
:104BA000824B063F9BF5083F6B9A0B3FDA390E3F6D
:104BB000CDD3103F2A68133FD9F6153FC07F183F69
:104BC000C6021B3FD17F1D3FCBF61F3F9967223F97
:104BD00025D2243F5636273F1594293F4AEB2B3FD9
:104BE000DE3B2E3FBB85303FC9C8323FF304353F23
:104BF000233A373F4268393F3B8F3B3FF9AE3D3F59
:104C000067C73F3F70D8413F01E2433F03E4453F60
:104C100065DE473F12D1493FF8BB4B3F029F4D3FF6
:104C2000207A4F3F3D4D513F4918533F31DB543FB0
:104C3000E595563F5348583F6AF2593F1A945B3FF7
:104C4000532D5D3F05BE5E3F2146603F97C5613FE6
:104C50005A3C633F59AA643F880F663FD86B673F51
:104C60003CBF683FA7096A3F0C4B6B3F5E836C3FBC
:104C700093B26D3F9ED86E3F73F56F3F0809713F49
:104C80005213723F4714733FDD0B743F0BFA743FAE
:104C9000C6DE753F07BA763FC58B773FF853783F3E
:104CA0009812793F9DC7793F02737A3FBE147B3FCC
:104CB000CDAC7B3F283B7C3FC9BF7C3FAC3A7D3FBE
:104CC000CCAB7D3F23137E3FB0707E3F6DC47E3FF3
:104CD000580E7F3F6D4E7F3FAB847F3F0FB17F3FCC
:104CE00097D37F3F43EC7F3F11FB7F3F0000803F26
:104CF00011FB7F3F43EC7F3F97D37F3F0FB17F3F57
:104D0000AB847F3F6D4E7F3F580E7F3F6DC47E3F2B
:104D1000B0707E3F23137E3FCCAB7D3FAC3A7D3FEE
:104D2000C9BF7C3F283B7C3FCDAC7B3FBE147B3F63
:104D300002737A3F9DC7793F9812793FF853783FC5
:104D4000C58B773F07BA763FC6DE753F0BFA743FD7
:104D5000DD0B743F4714733F5213723F0809713FD4
:104D600073F56F3F9ED86E3F93B26D3F5E836C3F8D
:104D70000C4B6B3FA7096A3F3CBF683FD86B673F4E
:104D8000880F663F59AA643F5A3C633F97C5613F0D
:104D90002146603F05BE5E3F532D5D3F1A945B3F49
:104DA0006AF2593F5348583FE595563F31DB543F2F
:104DB0004918533F3D4D513F207A4F3F029F4D3F91
:104DC000F8BB4B3F12D1493F65DE473F03E4453F07
:104DD00001E2433F70D8413F67C73F3FF9AE3D3FD7
:104DE0003B8F3B3F4268393F233A373FF304353F1F
:104DF000C9C8323FBB85303FDE3B2E3F4AEB2B3FDD
:104E00001594293F5636273F25D2243F9967223FE4
:104E1000CBF61F3FD17F1D3FC6021B3FC07F183F0F
:104E2000D9F6153F2A68133FCDD3103FDA390E3F2C
:104E30006B9A0B3F9BF5083F824B063F3D9C033F1F
:104E4000E4E7003F275DFC3ECBE0F63EEA5AF13E48
:104E5000BBCBEB3E7533E63E4F92E03E80E8DA3E58
:104E60004136D53ECA7BCF3E53B9C93E15EFC33E4E
:104E7000491DBE3E2A44B83EEF63B23ED47CAC3EF0
:104E8000128FA63EE59AA03E86A09A3E32A0943E9E
:104E9000229A8E3E938E883EC07D823ECCCF783E55
:104EA0007F9A6C3E135C603E0115543EC2C5473E7E
:104EB000CF6E3B3EA2102F3EB5AB223E8340163E46
:104EC00087CF093E73B2FA3D2FBCE13D36BDC83DE8
:104ED00080B6AF3D04A9963D752B7B3D2EFB483D2A
:104EE0002BC3163DB10AC93C920E493C000000009C
:104EF000920E49BCB10AC9BC2BC316BD2EFB48BDDE
:104F0000752B7BBD04A996BD80B6AFBD36BDC8BDAF
:104F10002FBCE1BD73B2FABD87CF09BE834016BE78
:104F2000B5AB22BEA2102FBECF6E3BBEC2C547BEE0
:104F3000011554BE135C60BE7F9A6CBECCCF78BEA8
:104F4000C07D82BE938E88BE229A8EBE32A094BE51
:104F500086A09ABEE59AA0BE128FA6BED47CACBE37
:104F6000EF63B2BE2A44B8BE491DBEBE15EFC3BE34
:104F700053B9C9BECA7BCFBE4136D5BE80E8DABEC2
:104F80004F92E0BE7533E6BEBBCBEBBEEA5AF1BE34
:104F9000CBE0F6BE275DFCBEE4E700BF3D9C03BF4F
:104FA000824B06BF9BF508BF6B9A0BBFDA390EBF69
:104FB000CDD310BF2A6813BFD9F615BFC07F18BF65
:104FC000C6021BBFD17F1DBFCBF61FBF996722BF93
:104FD00025D224BF563627BF159429BF4AEB2BBFD5
:104FE000DE3B2EBFBB8530BFC9C832BFF30435BF1F
:104FF000233A37BF426839BF3B8F3BBFF9AE3DBF55
:1050000067C73FBF70D841BF01E243BF03E445BF5C
:1050100065DE47BF12D149BFF8BB4BBF029F4DBFF2
:10502000207A4FBF3D4D51BF491853BF31DB54BFAC
:10503000E59556BF534858BF6AF259BF1A945BBFF3
:10504000532D5DBF05BE5EBF214660BF97C561BFE2
:105050005A3C63BF59AA64BF880F66BFD86B67BF4D
:105060003CBF68BFA7096ABF0C4B6BBF5E836CBFB8
:1050700093B26DBF9ED86EBF73F56FBF080971BF45
:10508000521372BF471473BFDD0B74BF0BFA74BFAA
:10509000C6DE75BF07BA76BFC58B77BFF85378BF3A
:1050A000981279BF9DC779BF02737ABFBE147BBFC8
:1050B000CDAC7BBF283B7CBFC9BF7CBFAC3A7DBFBA
:1050C000CCAB7DBF23137EBFB0707EBF6DC47EBFEF
:1050D000580E7FBF6D4E7FBFAB847FBF0FB17FBFC8
:1050E00097D37FBF43EC7FBF11FB7FBF000080BF22
:1050F00011FB7FBF43EC7FBF97D37FBF0FB17FBF53
:10510000AB847FBF6D4E7FBF580E7FBF6DC47EBF27
:10511000B0707EBF23137EBFCCAB7DBFAC3A7DBFEA
:10512000C9BF7CBF283B7CBFCDAC7BBFBE147BBF5F
:1051300002737ABF9DC779BF981279BFF85378BFC1
:10514000C58B77BF07BA76BFC6DE75BF0BFA74BFD3
:10515000DD0B74BF471473BF521372BF080971BFD0
:1051600073F56FBF9ED86EBF93B26DBF5E836CBF89
:105170000C4B6BBFA7096ABF3CBF68BFD86B67BF4A
:10518000880F66BF59AA64BF5A3C63BF97C561BF09
:10519000214660BF05BE5EBF532D5DBF1A945BBF45
:1051A0006AF259BF534858BFE59556BF31DB54BF2B
:1051B000491853BF3D4D51BF207A4FBF029F4DBF8D
:1051C000F8BB4BBF12D149BF65DE47BF03E445BF03
:1051D00001E243BF70D841BF67C73FBFF9AE3DBFD3
:1051E0003B8F3BBF426839BF233A37BFF30435BF1B
:1051F000C9C832BFBB8530BFDE3B2EBF4AEB2BBFD9
:10520000159429BF563627BF25D224BF996722BFE0
:10521000CBF61FBFD17F1DBFC6021BBFC07F18BF0B
:10522000D9F615BF2A6813BFCDD310BFDA390EBF28
:105230006B9A0BBF9BF508BF824B06BF3D9C03BF1B
:10524000E4E700BF275DFCBECBE0F6BEEA5AF1BE44
:10525000BBCBEBBE7533E6BE4F92E0BE80E8DABE54
:105260004136D5BECA7BCFBE53B9C9BE15EFC3BE4A
:10527000491DBEBE2A44B8BEEF63B2BED47CACBEEC
:10528000128FA6BEE59AA0BE86A09ABE32A094BE9A
:10529000229A8EBE938E88BEC07D82BECCCF78BE51
:1052A0007F9A6CBE135C60BE011554BEC2C547BE7A
:1052B000CF6E3BBEA2102FBEB5AB22BE834016BE42
:1052C00087CF09BE73B2FABD2FBCE1BD36BDC8BDE4
:1052D00080B6AFBD04A996BD752B7BBD2EFB48BD26
:1052E0002BC316BDB10AC9BC920E49BC0000008098
:1052F0001053000800000020A8000000C4010008AE
:10530000B8530008A8000020B0290000E001000800
:1053100000000000000000005B14000859120008A3
:105320002912000839120008691200084912000801
:10533000791200085B1400085B1400087912000859
:1053400049120008691200083912000829120008E1
:10535000591200085B140008000000000000000063
:10536000000000000000000000000000000000003D
:10537000000000000000000000000000000000002D
:10538000000000000000000000000000000000001D
:10539000000000000000000000000000000000000D
:1053A00000000000000000000000000000000000FD
:0853B0000000000000000000F5
:040000050800018965
:00000001FF
