:020000040800F2
:10000000582A002029020008B5120008251100080E
:1000100067120008A50700080F3A0008000000005A
:10002000000000000000000000000000E5280008BB
:10003000390D00080000000007030008611E0008D9
:1000400063020008630200086302000863020008FC
:1000500063020008630200086302000863020008EC
:1000600063020008630200086302000863020008DC
:1000700063020008630200086302000863020008CC
:1000800063020008630200086302000863020008BC
:1000900063020008630200086302000863020008AC
:1000A00063020008992F0008630200086302000839
:1000B00059300008B130000811310008630200080F
:1000C000630200086302000863020008630200087C
:1000D000630200086302000863020008630200086C
:1000E000630200086302000863020008630200085C
:1000F000630200086302000863020008630200084C
:10010000630200086302000863020008630200083B
:10011000630200086302000863020008630200082B
:10012000550A000863020008630200086302000821
:10013000630200086302000863020008630200080B
:1001400063020008630200086302000863020008FB
:1001500063020008630200086302000863020008EB
:1001600063020008630200086302000863020008DB
:1001700063020008630200086302000863020008CB
:10018000630200086302000800F002F800F03CF887
:100190000AA090E8000C82448344AAF10107DA45E2
:1001A00001D100F031F8AFF2090EBAE80F0013F0F8
:1001B000010F18BFFB1A43F001031847883C0000E9
:1001C000A83C0000103A24BF78C878C1FAD852077A
:1001D00024BF30C830C144BF04680C6070470000C1
:1001E0000023002400250026103A28BF78C1FBD840
:1001F000520728BF30C148BF0B6070471FB503F0DE
:100200005CFD1FBD10B510BD00F0B9F81146FFF739
:10021000F5FF03F025FC00F0D7F803B4FFF7F2FF79
:1002200003BC00F0DBF8000011488047DFF8440011
:10023000016841F470010160BFF34F8FDFF83800AF
:10024000016821F040410160BFF36F8F0B48004708
:10025000FEE7FEE7FEE7FEE7FEE7FEE7FEE7FEE776
:10026000FEE7FEE706480749074A084B70470000CB
:10027000092C000888ED00E034EF00E08901000857
:1002800058240020582A00205826002058260020F4
:10029000EFF3098141B1F1EE101A40F8041D20ED91
:1002A000200A2C490A6810607047B0EC200A02C886
:1002B000E1EE101A28490A6810607047EFF31080C9
:1002C00072B6704780F31088704724484FF0FF01E2
:1002D0000170002080F309882148016881F30888B3
:1002E00020480121017020484FF08051016062B622
:1002F000FEE71D484FF08051016070471A484FF0EB
:1003000080510160704772B6EFF3098040B1403808
:1003100080EC108A203880E8F00F0E4909680860E8
:1003200000B5124880475DF804EB114811490A787E
:100330000270084808490A680260106890E8F00FE7
:10034000203090EC108A403080F309884EF0F40E93
:1003500062B67047780000208000002022ED00E0A7
:100360004C0000207000002004ED00E08D1C00080F
:100370006B0000206C000020704770477047754686
:1003800000F028F8AE4605006946534620F0070005
:10039000854618B020B5FFF765FFBDE820404FF057
:1003A00000064FF000074FF000084FF0000B21F05F
:1003B0000701AC46ACE8C009ACE8C009ACE8C0092C
:1003C000ACE8C0098D4670470446AFF30080204674
:1003D000FFF723FF00487047F82300200149182049
:1003E000ABBEFEE726000200704721B1826842F0F2
:1003F0000102826003E0826822F00102826070479D
:100400000021084A1168084A1140D0E900231A4324
:1004100083681A43C3681A431143044AC2F8041399
:100420007047000004230140E030FCFF0020014041
:1004300021B1826842F48072826003E0826822F413
:1004400080728260704721B1826842F400728260DB
:1004500003E0826822F400728260704700B599B0B0
:100460000121080202F0C8F900F07EF80020119086
:100470000F904FF4803010904FF4407012900FA8FE
:10048000FFF7BEFF0020139001208DF850000020E0
:100490008DF851001590179003208DF8600013A976
:1004A0002E4800F06DF801231A4605212B4800F074
:1004B00091F8012302220621284800F08BF801233D
:1004C00003220721254800F085F80121880502F064
:1004D00063F9234800F008FB002000901F484C30CF
:1004E00001902048029000200390032004900020F7
:1004F00005904FF4806006904000079080000890BF
:100500004011099040020A9000200B9001200C90AD
:1005100000200D900E906946114800F0E1FB01218A
:100520000F4800F0D5FA10210D4800F0B7FA01226B
:1005300010210B4800F0B6FB01210848FFF783FFAC
:1005400001210648FFF774FF01210448FFF74DFF22
:10055000024800F09BF819B000BD000000200140E7
:1005600010640240D80B002010B50121080202F0EF
:1005700053F900214FF4807002F04EF910BD0000D5
:1005800030B50246002000235068104C20400D7901
:100590000C6844EA05242043506090680C4C2040CD
:1005A000D1E903542C438D682C434D7944EA45042A
:1005B00020439060D06A20F470000C7D641EE4B289
:1005C000234340EA0350D06230BD0000FFFEFFFC31
:1005D000FDF7FFC0F0B504460D4600200021092DAF
:1005E00011DDE068A5F10A0606EB4607072606FAC4
:1005F00007F18843A5F10A0606EB460603FA06F161
:100600000843E0600CE0206905EB4507072606FA81
:1006100007F1884305EB450603FA06F1084320611C
:10062000072A0FDA606B561E06EB86071F2606FAAE
:1006300007F18843561E06EB860605FA06F10843C5
:10064000606322E00D2A0FDA206BD61F06EB8607C7
:100650001F2606FA07F18843D61F06EB860605FA21
:1006600006F10843206310E0E06AA2F10D0606EBF4
:1006700086071F2606FA07F18843A2F10D0606EB4E
:10068000860605FA06F10843E062F0BD816841F094
:10069000804181607047000010B586B004461E4856
:1006A00001F0F2FB4FF4FA7003F0BDF900F0ECFF3B
:1006B000032000214FF48072184BCDE90132CDE9BF
:1006C000031006200346164A0090164801F004F86D
:1006D000032000214022144BCDE90132CDE9031063
:1006E00031200346104AFC320090104800F0F4FF1D
:1006F0000320002180220E4BCDE90132CDE9031009
:10070000072003460B4A00900B4800F0E5FFFF204E
:1007100001F040F806B010BD80A219009C00002036
:1007200098040020AD2B00089C0600204112000810
:100730009C040020980600203928000810B500F01D
:10074000BBFD00F013FB03F005F803F089F803F09C
:10075000B3F803F011F903F059F9FFF77FFE00F049
:100760001FF90220024908700020487010BD0000E7
:100770004800002030B90A49096841F40051084A8C
:1007800011600AE0012807D1054909684DF6FF729A
:100790001140034A116000E0704700BFFCE7000011
:1007A0001408024000BFFEE700B502469FED270A8D
:1007B000F0EE402A9FED250AB0EE402A244890ED45
:1007C0000C0AB0EE402A234890ED060AB4EEC20AA5
:1007D000F1EE10FA03D290ED060AB0EE402AB0EE28
:1007E000420A104600F0A8FCF0EE402A1A4890EDAC
:1007F0000F0A30EE220A80ED0F0A90ED0F0ADFEDAE
:10080000170AB4EEE00AF1EE10FA04DD9FED130AC8
:1008100080ED0F0A0DE0104890ED0F0AF2EE040A89
:10082000B4EEE00AF1EE10FA03D2B2EE040A80ED63
:100830000F0A094890ED0F0ABCEEC00A10EE100A2C
:1008400081B2074841638163C16300BD00000000BD
:10085000D80B0020A00B0020580C002000007A4587
:100860000000014010B500F023F800200E49488533
:1008700081F82C0081F82D00002406E000210A48B0
:100880000A3020F81410601CC4B2102CF6DB0020D3
:100890000549C88008819FED050A084680ED0C0ACD
:1008A00001F0D6FF10BD0000D80B002000000000B2
:1008B00000200449C8710A20034948638863C8635B
:1008C00070470000300C00200000014010B50120EE
:1008D0000349C8710121034802F04CFC10BD00001F
:1008E000300C002000000140F8B504462088218922
:1008F000401A07B2002F01DD384600E0784207B207
:1009000060882189401A05B2002D01DD284600E0EB
:10091000684205B2A0882189401A06B2002E01DD86
:10092000304600E0704206B278193044C0F34F0000
:100930000090684602F04EF8E080074800780128F1
:1009400006D1E088B0F5FA6F02DD4FF4FA60E0807E
:10095000012002494870F8BD48000020300C0020FA
:1009600000200449488581F82C0081F82D00088179
:1009700070470000D80B002039B1084A12680123E3
:1009800083401A43054B1A6006E0044A12680123AB
:1009900083409A43014B1A60704700000074004086
:1009A00000B587B00121084601F0F6FE0121480795
:1009B00001F002FF05A800F05CFB03208DF8180091
:1009C0001020059002208DF81B0005A90B4800F0AF
:1009D000E3FA00200190029003900220049001A904
:1009E000002000F00DF801210020FFF7C5FF0021D5
:1009F000084600F01FF807B000BD000000000240EC
:100A000030B5002200230A4C226840F6FE74844070
:100A1000A243D1E900452C438D682C43CD6844EABC
:100A2000050303FA00F42243014C226030BD0000AC
:100A30000074004008B500220092054A009200F1BF
:100A40000802009B1A440092009A116008BD000041
:100A50000074004010B50D490D4800F0F1F898B150
:100A60000C48FFF741FF0B48C08800EE100AB8EEB3
:100A7000400ADFED090A20EE200A064880ED0C0A44
:100A80000249034800F00AF810BD00002080001061
:100A900010640240D80B0020FFFF243C0246094BA3
:100AA0009A4201D2084801E00648103801F000538C
:100AB0001BB1064B0B40C36002E0044B0B4083604C
:100AC0007047000010640240006002407D0F7D0FFF
:100AD00021B1026842F00102026003E0026822F0E4
:100AE0000102026070470000016821F0010101600D
:100AF0000021016041608160C1600161212141618B
:100B00004A49884204D13D21484A103A91608CE01C
:100B100046491831884205D14FF47461434A103A6E
:100B2000916082E041493031884205D14FF474111F
:100B30003E4A103A916078E03C494831884205D1FC
:100B40004FF07461394A103A91606EE03749603174
:100B5000884204D13649354A103AD16065E03349BC
:100B60007831884204D13349304A103AD1605CE090
:100B70002E499031884204D12F492C4A103AD16035
:100B800053E02A49A831884205D14FF03D51274A08
:100B9000103AD16049E02949884204D13D21274AD1
:100BA000083A116041E025491831884205D14FF4D7
:100BB0007461224A083A116037E020493031884296
:100BC00005D14FF474111D4A083A11602DE01B49FC
:100BD0004831884205D14FF07461184A083A1160D3
:100BE00023E016496031884204D11149134A121F8B
:100BF00011601AE011497831884204D10D490F4A39
:100C0000121F116011E00D499031884204D10A4948
:100C10000A4A121F116008E00849A831884204D12D
:100C20004FF03D51054A121F11607047106002409D
:100C30003D000020400F002000003D2010640240D5
:100C400070B50246002000240025124EB24201D2A7
:100C5000114B01E00F4B103B104E0E4036B11E26DB
:100C600006EAD124166806EA040502E0566906F091
:100C7000800501F000560EB15C6800E01C68084E6B
:100C8000344004EA010616B10DB1012000E0002055
:100C900070BD000010640240006002403C0F3C0F39
:100CA0007D0F7D0F10B501F080034BB122B1436978
:100CB00043F08003436103E0436923F08003436111
:100CC00080290BD02AB1036801F01E04234303607E
:100CD00004E0036801F01E04A343036010BD00009C
:100CE00010B500220268134B1A40CC680B682343EE
:100CF0004C6923438C692343CC6923430C6A234307
:100D00004C6A23438C6A23434C6B23438C6B2343F1
:100D10001A430260426922F00702D1E90B342343EF
:100D20001A4342610B6943604B6883608B68C36000
:100D300010BD00003F801CF07047000000200949F2
:100D40008887C8870021074A1165516511460864E4
:100D50009FED050A084680ED110A9FED030A80ED1C
:100D6000120A7047D80B0020000000001CB50121BA
:100D7000072001F011FD684600F07BF901208DF895
:100D8000040000208DF806004FF400700090002051
:100D90008DF807008DF8050069467C4800F0FCF8E6
:100DA0004FF40071794800F062F9684600F061F98B
:100DB00002208DF8040000208DF806004FF4E0605A
:100DC000009002208DF807008DF8050069467048F4
:100DD00000F0E2F8012208216D4800F025F9012217
:100DE00009216B4800F020F901220A21684800F02F
:100DF0001BF94FF4E061664800F039F9684600F0ED
:100E000038F902208DF8040000208DF806004FF418
:100E10006040009002208DF807008DF805006946BB
:100E20005A4800F0B9F801220D21584800F0FCF8AA
:100E300001220E21554800F0F7F801220F215348F6
:100E400000F0F2F84FF46041504800F010F96846A5
:100E500000F00FF902208DF804004FF4E0700090CC
:100E600001208DF8070003208DF8050069464948E8
:100E700000F092F802220621464800F0D5F802223E
:100E80000721444800F0D0F802220821414800F030
:100E9000CBF8684600F0EDF802208DF80400002041
:100EA0008DF806004FF4E070009001208DF80700E7
:100EB00002208DF805006946344800F06DF80222E2
:100EC0000621324800F0B0F8022207212F4800F036
:100ED000ABF8022208212D4800F0A6F8684600F081
:100EE000C8F803208DF80400E020009069462848E7
:100EF00000F052F8684600F0BCF801208DF80400BC
:100F000000208DF806004FF40050009000208DF86E
:100F100007008DF8050069461E4800F03DF84FF4C3
:100F200000511C4800F0A3F8684600F0A2F8002029
:100F30008DF804004FF44040009000208DF8070029
:100F40008DF805006946134800F026F84FF440413B
:100F5000104800F08CF8684600F08BF801208DF8FE
:100F6000040000208DF806000120009000208DF87C
:100F7000070002208DF805006946064800F00CF8CD
:100F80000121044800F073F81CBD00000004024079
:100F90000000024000080240F0B50A46002100238C
:100FA000002400BF3DE0012505FA01F3156805EABC
:100FB00003049C4234D105684F000326BE40B5436C
:100FC000056015794E00B540066835430560157912
:100FD000012D02D01579022D16D185684F00032608
:100FE000BE40B543856055794E00B54086683543AF
:100FF0008560456801268E40B54345604568967911
:101000008E40B6B235434560C5684F000326BE40EA
:10101000B543C560D5794E00B540C6683543C56057
:10102000491C1029BFD3F0BDF0B5002300244D07A3
:10103000ED0E02FA05F3CE1000F1200555F826500A
:101040004E07F70E0F26BE40B543CF1000F1200625
:1010500046F82750CE1000F1200555F8265045EAF5
:101060000304CE1000F1200545F82640F0BD418371
:1010700070474FF6FF71016000210171417181716C
:10108000C171704710B501F0BFFE01F0F7FE01F02D
:101090002DFF10BD10B501F0B7FE01F0D1FE01F03B
:1010A00043FF10BD10B501F093FE01F003FF01F006
:1010B0001DFF10BD10B501F06DFE01F0FBFE01F04B
:1010C00033FF10BD10B501F083FE01F0B9FE01F051
:1010D00047FF10BD10B501F05DFE01F0CFFE01F03D
:1010E0003FFF10BD10B500F015F8074981F83A0030
:1010F00006490978064A02EB4111034A92F83A2060
:1011000051F82200804710BDD80B0020300C002081
:101110000800002002490968C1F3821070470000EE
:101120001004024000BFFEE710B501F051FE01F0CF
:10113000A5FE01F0F9FE10BDF0EE400AC0ED010A77
:1011400090ED030A80ED040A90ED020A80ED030A97
:1011500090ED000A90ED011A30EE410A80ED020A8E
:1011600090ED020A90ED031A30EE410A90ED061A56
:1011700020EE010A80ED090A90ED070A90ED021AAF
:1011800020EE010A80ED0A0A90ED020A90ED031AA2
:10119000F0EE001A01EEC10A90ED041A30EE010AD9
:1011A00090ED081A20EE010A80ED0B0A90ED090A75
:1011B00090ED0A1A30EE010A90ED0B1A30EE010A9A
:1011C00080ED0C0A90ED0D0A90ED0C1A30EE010A3C
:1011D00080ED0E0A90ED0E0AB2EE041AB4EEC10ACA
:1011E000F1EE10FA03DDB2EE040A80ED0E0A90ED86
:1011F0000E0ABAEE041AB4EEC10AF1EE10FA03D2E6
:10120000BAEE040A80ED0E0A90ED0E0A80ED0D0A8A
:1012100090ED0E0A70470000034800684FF6FF513A
:101220000840014908607047140402400348006800
:1012300040F4007001490860704700001404024047
:1012400010E0FFF7E9FF4FF4487300221146104603
:1012500000F05CFDFFF7EAFF322300221146104642
:1012600000F054FDEDE700BFFEE7000000200F494D
:10127000087048708870C87001200871002048719B
:1012800088719FED0B0A084680ED020AB0EE080A4D
:1012900080ED050A9FED060A80ED080A0020C8606F
:1012A00088614862C871087408777047300C002064
:1012B000000000007047704708B519208DF8000045
:1012C00000208DF801008DF8020001208DF8030048
:1012D000684600F03DF838208DF8000000208DF8B9
:1012E000010001208DF802008DF80300684600F02F
:1012F0002FF81C208DF8000000208DF8010002203E
:101300008DF8020001208DF80300684600F020F8F7
:101310001D208DF8000000208DF8010003208DF8BD
:10132000020001208DF80300684600F011F81E202D
:101330008DF8000001208DF8010000208DF80200DA
:1013400001208DF80300684600F002F808BD000097
:1013500070B5002100230F22C4781CB3174C2468F9
:1013600004F4E064C4F5E064C4F30721C1F10404AB
:10137000E3B20A4144789C40E1B2847814402143AE
:101380000C07210E0E4C05786155047804F01F05FA
:101390000124AC4005786D11AD0005F1E025C5F8DC
:1013A000004109E0047804F01F050124AC40054D1C
:1013B0000678761145F8264070BD00000CED00E07F
:1013C00000E400E080E100E002490143024A1160CC
:1013D000704700000000FA050CED00E017481848BF
:1013E0001848194819481A481A481B481B481C48ED
:1013F0001C481D481D481E481E481F481F482048BD
:10140000204821482148224822482348234824488C
:10141000244825482548264826482748274828485C
:101420002848294829482A482A482B482B482C482C
:101430002C482D482D482E4800BF7047D03C00084E
:10144000D43C0008DA3C0008DC3C0008D83C00082A
:10145000DE3C0008E03C0008E23C0008E43C0008F8
:10146000E63C0008E83C0008EA3C0008EC3C0008C8
:10147000EE3C0008F03C0008F23C0008F43C000898
:10148000F63C0008F83C0008FA3C0008FC3C000868
:10149000FE3C0008003D0008023D0008043D000835
:1014A000063D0008083D00080A3D00080C3D000804
:1014B0000E3D0008103D0008123D0008143D0008D4
:1014C000163D0008183D00081A3D00081C3D0008A4
:1014D0001E3D0008203D0008223D0008263D000872
:1014E000283D00082A3D00082C3D00082E3D00083C
:1014F000423D000810B500F017F800F091FD00F033
:10150000BDFD00F0DFFD00F05BFD00F01BFD00F015
:1015100073FE00F09DFE00F015FE00F03BFE00F0B3
:101520001BF8FFF75BFF10BD0848802102E0491E51
:10153000002204C00029FAD1054A064B1A601A4657
:10154000126822F007021A6070470000100D002098
:10155000100F00204C0000207047000010B5002440
:101560001A480078012830D1FEF7A8FE0446184832
:10157000007820B116480078401E154908701448BC
:101580000078F8B913480078E0B900F0C3FE1248BB
:101590001249097850F82100114908600F48007875
:1015A0001049097888420DD00D480068006C401C35
:1015B0000B49096808640C480068401C0A49086027
:1015C000FEF79CFE2046FEF77DFE10BD7000002059
:1015D000690000206A000020401700206C000020F5
:1015E000800000206B0000205000002070B50546F0
:1015F00000261048007808B1002070BDFEF75EFE9E
:1016000006460D480468006820B10B480068406831
:10161000094908603046FEF755FE4CB103202070A2
:1016200025810020606005A0E062204600F07BFC80
:101630002046E2E769000020540000203F0000003F
:1016400010B50B48007890B900F064FE09480078A6
:101650000949087009480749097850F821000849E4
:1016600008600846006807490860FEF72EFE10BDB6
:10167000700000206C0000206B000020401700204C
:10168000800000207800002010B50024022000F027
:10169000FFFAFEF713FE044600200B4908602046BF
:1016A000FEF710FE0A2000F0F3FAFEF707FE0446EC
:1016B0000548006805490860012005490870204672
:1016C000FEF700FE10BD0000740000206000002046
:1016D00068000020704700002DE9F04F85B081467A
:1016E0008A4693461C46DDE90F78129D0020039040
:1016F000FEF7E4FD03902348007830B10398FEF72D
:10170000E1FD3C2005B0BDE8F08F1F4850F82400F3
:1017100088BB01201C4941F824000398FEF7D2FD44
:101720002A464146384600F057FF2B465A46514656
:10173000484600F061F904901198CDE900800295C7
:101740003A4620460E9B049900F014FE064636B930
:101750000E48007801280CD100F0A2FD09E0FEF748
:10176000ADFD03900020084941F824000398FEF7DE
:10177000A9FD3046C6E7FFE70398FEF7A3FD282042
:10178000C0E7000069000020401700207000002022
:10179000704700002DE9F041054600274B480078CE
:1017A00010B14020BDE8F081FD2D01D13E20F9E7C8
:1017B000FEF784FD0746FF2D03D14548006890F8E9
:1017C0003650444850F8254024B93846FEF77AFD93
:1017D0004320E7E7012C04D13846FEF773FD3D2096
:1017E000E0E714F8380F3C4931F81000618888436D
:1017F0002178394A22F8110014F83809114631F8D5
:10180000100028B9A18F35480088884333490880E3
:10181000E06918B12046E16900F04FFB206A18B179
:101820002046216A00F061FBA66A16B1304600F03E
:10183000B5FB0020206384F8340084F83500284884
:101840000078FF2804D226480078401C24490870FC
:101850003846FEF737FD00F02FFBFEF72FFD074659
:101860001F48007820B11E480078401E1C490870AF
:10187000204600F041F81B480078401E19490870C6
:101880000020144941F82500A06930B900206169A1
:10189000886115496069086005E0D4E9050148617F
:1018A000D4E9051088611148006860610F48046040
:1018B0000FA060653846FEF705FD0E480078012848
:1018C00001D100F0EDFC00206CE700006900002071
:1018D0007800002040170020201500206E00002016
:1018E0006A00002071000020840000207C0000209D
:1018F0003F00000070000020704770472DE9F04164
:1019000006460F4614464FF000081548007818B1F7
:1019100012202070BDE8F081FEF7D0FC8046FF2E3B
:1019200003D11048006890F836600F4850F82650F0
:101930002DB94046FEF7C6FC43202070EAE7012D92
:1019400005D14046FEF7BEFC43202070E2E76F65FC
:101950004046FEF7B7FC0020207000BFDAE7000029
:101960006900002078000020401700207047704771
:101970002DE9F04707460D464FF0000A0020286089
:101980006860FEF79BFC8246FF2F03D11848006871
:1019900090F83670174850F827402CB95046FEF79B
:1019A00091FC4320BDE8F087012C04D15046FEF79E
:1019B00089FC4320F6E7207C00F0010020B9504666
:1019C000FEF780FC4520EDE70026D4F80C90D4F813
:1019D00008805046FEF776FC00E0761C58F8041BA1
:1019E0000029FAD02E60A9EB060068600020D9E734
:1019F000780000204017002070B50446101D20F02C
:101A000007000026051F28462E604FF01536051FDB
:101A100028462E604FF01436051F28462E604FF0E2
:101A20001336051F28462E604FF01236051F284634
:101A30002E604FF01136051F28462E604FF01036ED
:101A4000051F28462E604FF00936051F28462E60D8
:101A50004FF00836051F28462E604FF00736051F49
:101A600028462E604FF00636051F28462E604FF0A0
:101A70000536051F28462E604FF00436051F284600
:101A80002E604FF00336051F28462E604FF00236B9
:101A9000051F28462E607610051F28462E6000265A
:101AA000051F28462E604FF08076051F28462E60C1
:101AB000051F28462C60494E051F28462E604FF012
:101AC0001236051F28462E604FF00336051F2846A4
:101AD0002E604FF00236051F28462E607610051F37
:101AE00028462E60051F284629604FF03136051F15
:101AF00028462E604FF03036051F28462E604FF0E6
:101B00002936051F28462E604FF02836051F284627
:101B10002E604FF02736051F28462E604FF02636E0
:101B2000051F28462E604FF02536051F28462E60DB
:101B30004FF02436051F28462E604FF02336051F30
:101B400028462E604FF02236051F28462E604FF0A3
:101B50002136051F28462E604FF02036051F2846E7
:101B60002E604FF01936051F28462E604FF01836AC
:101B7000051F28462E604FF01736051F28462E6099
:101B80004FF01636051F28462E604FF01136051F00
:101B900028462E604FF01036051F28462E604FF065
:101BA0000936051F28462E604FF00836051F2846C7
:101BB0002E604FF00736051F28462E604FF0063680
:101BC000051F28462E604FF00536051F28462E605B
:101BD0004FF00436051F28462E6070BDE52400082E
:101BE0002DE9F04105464FF00008FEF767FB8046FF
:101BF000FF2D05D12148006890F83650012608E0F5
:101C00001E48006890F83600A84201D1012600E085
:101C100000261B4850F825402CB94046FEF752FBE1
:101C20004820BDE8F081012C04D14046FEF74AFB74
:101C30004320F6E794F83870124830F81700618FA7
:101C40008843104921F81700084630F8170028B9D2
:101C5000A18F0D48008888430B49088094F8340010
:101C600040F0080084F834004046FEF72BFB012EBC
:101C700001D100F015FB0020D3E700007800002020
:101C800040170020201500206E0000207047000043
:101C900070B5054600261848007800B170BD174899
:101CA000007800B1FAE725B3FEF708FB06461448B2
:101CB000006890F83840134830F81400104909685B
:101CC000498F88430F4921F81400084630F8140062
:101CD00038B90B480068818F0B48008888430A494F
:101CE00008800748006805633046FEF7EBFA00F00D
:101CF000D7FA00BFD2E70000690000206A00002088
:101D000078000020201500206E0000202DE9F04111
:101D100004460D4616461F461248007810B155205D
:101D2000BDE8F0811048007808B13220F8E7781D4E
:101D3000642148434FF47A71B0FBF1F14FF46160D4
:101D40006043C5EB051200EB8200304400EBC0029B
:101D500002EB001001EB80084046FFF799FF0020DE
:101D6000DEE70000690000206A00002070B5002650
:101D700000F074F8FEF7A2FA064632480068401CEC
:101D8000304908603046FEF79DFA2F480078012858
:101D900055D12E48007820B1012804D0022809D15D
:101DA00003E001250BE0002509E00125012027497A
:101DB000087004E0012500202449087000BF00BF1E
:101DC00005B970BD2248046835E0FEF777FA06468B
:101DD000206B60B3206B401E2063206B38BB94F8EF
:101DE000340000F0370040B114F8340F00F0C800A0
:101DF000207001206070343C02E0002084F835003F
:101E000094F8340000F0080088B9A08F11490988BF
:101E100008431049088094F838000F4931F8100041
:101E2000618F084394F838100B4A22F81100646956
:101E30003046FEF747FA94F83600FD28C5D100BFBA
:101E4000BFE70000980000207000002088000020FC
:101E5000840000206E000020201500207047000044
:101E600010B5FEF72BFA044606480078401C0549D9
:101E700008702046FEF726FAFFF778FFFFF76EFBA3
:101E800010BD00006900002001464A1E4FF0E0230B
:101E90005A61084A106820F07F4000BF10601A465F
:101EA000126942F005021A611A46126942F00202F2
:101EB0001A61704720ED00E0704710B590F83820A7
:101EC00001F10C0333F81230448FA34301F10C04E9
:101ED00024F81230234633F812301BB94B89848F13
:101EE000A3434B810023C36110BDF0B5024692F8B5
:101EF0003840958F568F0B46186811E000F10C079B
:101F000037F81470B74300F10C0C2CF814706746C6
:101F100037F8147017B94789AF4347811B1D1868FC
:101F20000028EBD1F0BD014600224A81002006E0E6
:101F3000002301F10C0222F81030421CD0B210280C
:101F4000F6D370472DE9F0415021114800F04AF9CD
:101F500000250DE0681C86B20D4800EB051400EB6F
:101F600006170020207067600AA0E060681C85B238
:101F7000042DEFD3064800EB0514002020706060AC
:101F800004A0E060024804490860BDE8F081000058
:101F9000D01200203F0000005800002030B501465C
:101FA0004A6808682AB9CC68606028B10025456095
:101FB00002E0106000B142608B6800259D6230BD78
:101FC00070B54FF47071134800F00CF9002411E063
:101FD000601C85B204EB44000E4901EB001305EBD5
:101FE000450001EB0016002018705E600AA0D86260
:101FF000601C84B2132CEBD304EB4400054901EBC5
:10200000001300201870586003A0D86208460349E6
:10201000086070BD100F00203F0000005400002039
:1020200000200B4908600B4908700B4908700B49E8
:1020300008700B4908700B4908600B4908600B4990
:1020400008600B4908600B4908700B49087070471D
:1020500098000020690000206A0000207100002024
:102060007000002050000020740000206400002058
:1020700060000020680000209400002000210B4A2E
:102080001180002005E00021094A22F81010411CAF
:10209000C8B21028F7D30021064A1170064A117001
:1020A000064A1160064A1160704700006E00002069
:1020B000201500206B0000206C0000208000002014
:1020C0007800002070B54FF4FD61194800F08AF8DF
:1020D0004FF47E71174800F085F8002413E0601C6F
:1020E000C5B2C4EBC40000EB0410114901EB80033E
:1020F000C5EBC50000EB051001EB80065E610EA08C
:102100005865601CC4B2152CE9D3C4EBC40000EBC5
:102110000410074901EB80030020586106A05865B0
:1021200000200649086002480549086070BD0000AB
:10213000381B0020401700203F00000084000020D2
:102140007C00002000B587B00320002180220A4BCC
:10215000CDE90132CDE903104FF6FF70FD23074AA8
:1021600000900748FFF7B8FA06AA06A1FD20FFF77E
:10217000C5FB07B000BD0000401500203C17002043
:10218000BD24000875432F4F532D49492049646CE5
:102190006500000000B587B00320002180220A4BB3
:1021A000CDE90132CDE903104FF6FE70FC23074A5A
:1021B00000900748FFF790FA06AA06A1FC20FFF757
:1021C0009DFB07B000BD0000201300201C1500205F
:1021D000FD24000875432F4F532D49492053746146
:1021E0007400000004E0002200F8012B4A1E91B2A6
:1021F0000029F8D17047000070B578211148FFF729
:10220000F1FF00240EE004EB44000E4901EBC00591
:10221000601C00EB400001EBC00068600AA0686130
:10222000601C84B2042CEED304EB4400054901EB9E
:10223000C0050020686004A0686108460349086082
:1022400070BD0000202300203F0000008C00002013
:102250002DE9F04160211048FFF7C4FF00240DE094
:10226000601C86B204EB44000B4901EBC00506EB91
:10227000460001EBC0072F60601C84B2032CEFD333
:1022800004EB4400044901EBC00500202860084627
:1022900002490860BDE8F0819823002090000020EA
:1022A00010B50024FEF70AF8044613480078F8B980
:1022B00012480078E0B900F02DF81148114909786A
:1022C00050F82100104908600E4800780F4909783D
:1022D00088420DD00C480068006C401C0A4909680F
:1022E00008640B480068401C09490860FEF701F8C3
:1022F0002046FDF7E7FF10BD690000206A000020BE
:10230000401700206C000020800000206B0000209F
:1023100050000020134A127822B1124A1278124B50
:10232000985C07E0104A0F4B1B8802EB13221278CF
:102330000832D0B20D4A02EB40010A783AB10A786D
:10234000094B9A5C02EB0012094B1A7009E00A88EB
:10235000054B03EB1222127802EB00120832044BF9
:102360001A7070476E000020443D000820150020C0
:102370006C0000202DE9F84F05460F46904699461F
:10238000DDE90AAB00200090FDF798FF009044487B
:102390000468002C7ED01C3454F8080C40490860B6
:1023A0000098FDF78FFF44F81C7CA576002020766E
:1023B0006076606144F818BC44F810AC44F8148CA2
:1023C0000C9824F80C0C24F80A9C002084F82200B5
:1023D0002809207705F00F00E076217F0120884052
:1023E0002084E17E01208840E0830020206060603E
:1023F000E060A0606062E062A0622063606329A088
:10240000A0631C3C002606E0002104F1580040F8BF
:102410002610701CC6B2002EF6D02046FFF75AF9DF
:10242000FDF74CFF0090204840F825400098FDF74C
:1024300049FF2046FFF7ACF9FDF740FF00901B482D
:10244000006860610020A0611848006810B117485A
:102450000068846115480460A08F15490988084305
:102460001349088094F83800124931F81000618F40
:10247000084394F838100F4A22F811000E480078EB
:10248000401C0D4908700098FDF71CFF0020BDE8B6
:10249000F88FFFE70098FDF715FF4220F7E70000EF
:1024A0007C0000203F000000401700208400002036
:1024B0006E0000202015002071000020002400BFC5
:1024C00000BFFDF7FBFE044605480068401C0449B8
:1024D00008602046FDF7F6FEFFF70FFAF1E700006F
:1024E0007400002010B504480068FFF73FFAFF2091
:1024F000FFF750F910BD00007800002000BF00BFBA
:1025000002E01420FFF7C4FB1F4800780028F8D031
:102510001E4800686421B0FBF1F01C4908600846C1
:10252000006828B900201A490870FF20FFF758FBFF
:10253000FDF7C4FE04461548006864214843154968
:1025400008602046FDF7BEFE00BFFDF7B7FE04465B
:10255000104800681049086000200E4908602046B5
:10256000FDF7B0FE0C48006808490968B0FBF1F0BF
:10257000C0F1640006490870FFF7F9F900F00EF8A1
:102580000A20FFF785FBE0E76800002060000020DC
:102590005C00002074000020640000207CB5002551
:1025A00014E069462846FFF7E3F9064666B909488C
:1025B00050F8254044B1012C06D0D4E9020100EBCB
:1025C0008100E06401982065681CC5B2FD2DE8D942
:1025D0007CBD00004017002002F0010343B102F06F
:1025E00002032BB102E0491E002308C00029FAD1E2
:1025F0007047000010B500205949087048704FF42A
:1026000080505849086004200871000388604FF426
:102610002F60C8609FED540A084680ED040A9FEDC4
:10262000530A80ED050A9FED520A80ED060A9FEDE0
:10263000510A80ED070A9FED500A80ED080A9FEDD0
:102640004F0A80ED090A90ED090AF7EE000A80EEC4
:10265000801A80ED0A1A9FED4A0A80ED0B0A9FED61
:10266000490A80ED0C0A0C2081F834009FED450AE0
:10267000454880ED000A9FED430A80ED010A9FED79
:10268000410A80ED020A9FED3F0A80ED030A9FEDAB
:102690003D0A80ED040A9FED3B0A80ED050A9FED9F
:1026A000390A80ED090A9FED370A80ED0A0A9FED8D
:1026B000350A80ED0B0A9FED330A80ED0D0A9FED80
:1026C000310A80ED0E0AB3EE040A80ED060AB7EE79
:1026D000000A80ED070A9FED2B0A80ED080AB7EE8D
:1026E000000A2A4880ED000A9FED260A80ED010AC3
:1026F0009FED240A80ED020A9FED220A80ED030A75
:102700009FED200A80ED040A9FED1E0A80ED050A68
:102710009FED1C0A80ED090A9FED1A0A80ED0A0A56
:102720009FED180A80ED0B0A9FED160A80ED0D0A49
:102730009FED140A80ED0E0A9FED150A80ED060A42
:102740009FED140A80ED070A9FED0E0A80ED080A3E
:10275000FEF788F8FEF7F2FAFEF788FD012010BDBB
:1027600048000020A00B0020002019459A99214123
:10277000000018420AD72340A55E0043000094429F
:102780000000344300000000580C0020980C00208A
:10279000CDCCCC3D6F12833A29B1064A1268024370
:1027A000044B1A6004E0034A12688243014B1A602A
:1027B000704700003038024029B1064A12680243CF
:1027C000044B1A6004E0034A12688243014B1A600A
:1027D000704700004038024029B1064A126802439F
:1027E000044B1A6004E0034A12688243014B1A60EA
:1027F000704700002038024029B1064A126802439F
:10280000044B1A6004E0034A12688243014B1A60C9
:10281000704700004438024029B1064A126802435A
:10282000044B1A6004E0034A12688243014B1A60A9
:10283000704700002438024000BF00BF06E000BF20
:102840006423002211461046FFF760FAF7E7000004
:1028500010B50E480078022802D002200B490870FB
:10286000FEF726F80A200A4948638863C863FEF722
:102870005BFCFEF775F840F24160064908819FED68
:10288000060A084680ED0C0A10BD00004800002032
:1028900000000140D80B0020000000000D48C08F50
:1028A0000C4988870C480068C8870846C08F898F04
:1028B000401A00B200EE100AF8EEC00A9FED071AA7
:1028C000C0EE811A0348C0ED111A01200449C870F6
:1028D00070470000D80B0020240400400000204274
:1028E000300C0020704700000CB5002001900090D3
:1028F0003448006840F480303249086000BF3148F5
:10290000006800F4003000900198401C019000988D
:1029100018B90198B0F5A04FF1D12A48006800F429
:10292000003010B10120009001E0002000900098DC
:10293000012846D123484030006840F080502149AA
:10294000403108602048006840F440401E4908605B
:102950001C48083000681B490831086008460068B8
:1029600040F4004008600846006840F4A050086049
:102970001648091F0860081F006840F08070091F92
:10298000086000BF0F48006800F000700028F9D010
:1029900040F205700E4908600A480830006820F0CF
:1029A00003000849083108600846006840F002004A
:1029B000086000BF03480830006800F00C000828D9
:1029C000F8D10CBD003802400070004008544007A8
:1029D000003C024010B501460888B0F5805F02DB7C
:1029E00040F6FF7008802D4890F82D0008281CDA6A
:1029F0000B882A4890F82C400A3020F814300A3806
:102A000090F82D00401C254B83F82D00184690F8B7
:102A10002D0083F82C001846408D0B8818441F4B5E
:102A200058851846408D801010BD1C4890F82C0029
:102A3000401C1A4B83F82C00184690F82C000828EC
:102A400002DB002083F82C00144890F82C000728A3
:102A500002D11248428907E0104890F82C00401C2F
:102A60000E4B0A3333F810200B880C4890F82C409A
:102A70000A3020F814300A38438D90F82C400A3080
:102A800030F814001844054B58851846408D801ABC
:102A900058851846408D8010C6E70000D80B0020EE
:102AA00010B5012005490874C8710121800700F0A4
:102AB0005BFB0121880700F05DFB10BD300C00209E
:102AC00070B52DED048B05469FED310AB0EE408ABE
:102AD0009FED2F0AF0EE408A2E4890ED110AB0EEDD
:102AE000408AB0EE480A2846FEF726FBF0EE408A00
:102AF000B0EE489A9FED280A29EE000ABCEEC00A03
:102B000010EE104AB4F5805F01D340F6FF74A1B215
:102B10000020FDF78FFF2148C0ED028A90ED020AE8
:102B2000DFED1F0AB4EEE00AF1EE10FA0DDD012030
:102B30001A49087009781B4A02EB4111154A92F8AC
:102B40003A2051F8220080471CE0144890ED020A18
:102B5000DFED150AB4EEE00AF1EE10FA0DD2002016
:102B60000E49087009780F4A02EB4111094A92F8A0
:102B70003A2051F82200804704E09FED050A0748FB
:102B800080ED020A012005498870BDEC048B70BD00
:102B900000000000D80B002000C04C44300C002086
:102BA000CDCCCC3D08000020CDCCCCBD28E01548D4
:102BB0000078F8B11348007801281BD0114800783C
:102BC000022816D1FFF744FE1423002211461046B6
:102BD000FFF79CF80120FDF7CDFDFEF783FAFFF724
:102BE0005FFFFDF773FE0120064908700220487060
:102BF00000E000BF1423002211461046FFF786F8BC
:102C0000D5E700004800002010B51548006840F4E2
:102C10007000134908601348006840F00100114932
:102C2000086000200F49083108600E4800680E490E
:102C300008400C4908600D48091D0860081F00681D
:102C400020F48020091F0860002006490C3108602C
:102C5000FFF74AFE4FF0006001498039086010BD5F
:102C600088ED00E000380240FFFFF6FE103000243F
:102C7000F0B50C46154600210022068C4FF6FE7773
:102C80003E400684018B028C4FF60C7631407E1C50
:102C900006EA03162E4331434FF6F576324044F0F0
:102CA0000106324301830284F0BDF0B50C4615469F
:102CB000002100220026078C4FF6EF7C07EA0C0764
:102CC0000784018B028C4FF6FF7707EA041640F663
:102CD000FF4739404FF6FF7707EA033739434FF68E
:102CE000FF7707EA052739434FF65F773A4046F00A
:102CF00010073A4301830284F0BDF0B50C46154637
:102D0000002100220026078C4FF6FF6C07EA0C0713
:102D10000784818B028C4FF6FF7707EA04264FF673
:102D20000C7739404FF6FF7707EA03172F433943F3
:102D30004FF2FF573A4046F480773A43818302844A
:102D4000F0BDF0B50C461546002100220026078C88
:102D50004EF6FF7C07EA0C070784818B028C4FF646
:102D6000FF7707EA043640F6FF4739404FF6FF7712
:102D700007EA052739434FF6FF7707EA0337394358
:102D800045F6FF773A4046F480573A438183028400
:102D9000F0BD00000D48008C4FF6FE7108400B4955
:102DA00008840846008C4FF6FB71084007490884E8
:102DB0000846008B4FF68F71084004490883084687
:102DC000008B40F040000883704700000000014085
:102DD0000C48008B4FF68F7108400A49088308465B
:102DE000008B40F0700008830846008C4FF6FE719F
:102DF0000840044908840846008C40F00400088418
:102E000070470000000001400C48008B4FF68F71A6
:102E100008400A4908830846008B40F07000088388
:102E20000846008C40F0010008840846008C4FF6EC
:102E3000FB71084001490884704700000000014010
:102E40000D48008C4FF6EF7108400B490884084686
:102E5000008C4FF6BF710840074908840846008B74
:102E600048F6FF710840044908830846008B40F487
:102E70008040088370470000000001400C48008B30
:102E800048F6FF7108400A4908830846008B40F461
:102E9000E04008830846008C4FF6EF710840044973
:102EA00008840846008C40F0400008847047000009
:102EB000000001400C48008B48F6FF7108400A49A9
:102EC00008830846008B40F4E04008830846008CE5
:102ED00040F0100008840846008C4FF6BF7108408F
:102EE0000149088470470000000001400D48008C33
:102EF0004FF6FF6108400B4908840846008C4FF6E6
:102F0000FF310840074908840846808B4FF68F71CF
:102F10000840044988830846808B40F0400088833D
:102F200070470000000001400C48808B4FF68F7105
:102F300008400A4988830846808B40F070008883E7
:102F40000846008C4FF6FF61084004490884084693
:102F5000008C40F48060088470470000000001404D
:102F60000C48808B4FF68F7108400A4988830846C9
:102F7000808B40F0700088830846008C40F480709D
:102F800008840846008C4FF6FF3108400149088448
:102F9000704700000000014010B52DED048B0121A9
:102FA000284800F0ECF9002848D02648008800F0B6
:102FB0001000D8B12448006840F0010022490860A0
:102FC0002248C079012809D120484078012805D13C
:102FD0001F48FDF7E9FB00201C4948701A480068AB
:102FE0004FF6FE7108401849086023E01948FDF7C4
:102FF0004DFB1648807801281CD1144890ED020A38
:1030000010EE101A084600F0E7FD41EC190BB0EE87
:10301000490AF0EE690A00F0FCFCB0EE408AF0EEDE
:10302000608A51EC180B00F051FD0949086000203E
:10303000064988700121034800F099F8BDEC048B23
:1030400010BD00000000014014080240300C0020B8
:10305000580C00200020014010B50121880700F025
:103060008EF900B31048007C012818D1FFF716FC38
:103070000D48C078012805D10C48FFF721FD00203C
:103080000949C87008480079012808D1064890ED20
:10309000050A064880ED000A0120034988700121D5
:1030A000880700F064F810BD300C0020980C002058
:1030B00010B50121144800F062F9D8B11248008817
:1030C00000F0100058B11148D0E914104FF6FF730A
:1030D000C91A60F100000D4AC2E914100AE00B4859
:1030E000D0E914204FF6FF71511840F10000074A53
:1030F000C2E914100821044800F041F909210248EE
:1031000000F035F810BD000000040040D80B00208E
:1031100010B50221054800F032F928B1FDF7E2FFB1
:103120000221024800F023F810BD00000008004012
:1031300021B1028842F08002028004E002884FF64A
:103140007F731A40028070470A884B881A438B8825
:103150001A43CB881A430B891A434B891A438B892C
:103160001A43A0F844207047CA4302827047CA43FA
:103170000282704721B1028842F00102028004E01D
:1031800002884FF6FE731A400280704731B1B0F8E2
:10319000442042F40042A0F8442005E0B0F8442066
:1031A000C2F30E02A0F844207047000010B5044698
:1031B0005548844208D101210846FFF72DFB002124
:1031C0000120FFF729FB9DE0B4F1804F08D10121D8
:1031D0000846FFF701FB00210120FFF7FDFA91E00F
:1031E0004A48844208D101210220FFF7F5FA002164
:1031F0000220FFF7F1FA85E04548844208D1012119
:103200000420FFF7E9FA00210420FFF7E5FA79E04E
:103210004048844208D101210820FFF7DDFA00214F
:103220000820FFF7D9FA6DE03B48844208D101211C
:103230001020FFF7D1FA00211020FFF7CDFA61E04E
:103240003648844208D101212020FFF7C5FA002129
:103250002020FFF7C1FA55E03148844208D101210E
:103260000220FFF7D9FA00210220FFF7D5FA49E042
:103270002C48844209D101210804FFF7CDFA00212E
:103280004FF48030FFF7C8FA3CE02748844209D168
:1032900001214804FFF7C0FA00214FF40030FFF786
:1032A000BBFA2FE02148844209D101218804FFF7AD
:1032B000B3FA00214FF48020FFF7AEFA22E01C4859
:1032C000844208D101214020FFF786FA00214020E6
:1032D000FFF782FA16E01748844208D101218020C6
:1032E000FFF77AFA00218020FFF776FA0AE0124809
:1032F000844207D101218015FFF76EFA0021A01545
:10330000FFF76AFA10BD0000000001400004004011
:1033100000080040000C0040001000400014004075
:1033200000040140004001400044014000480140C9
:1033300000180040001C004000200040F0B50C4682
:1033400015461E460021002200230189028B038CB2
:103350004FF6F877394021434FF6FC473A4040F2A8
:1033600001173A434FF6DD773B404FF6FF7707EA08
:1033700006172F433B43018102830384F0BD30B520
:103380000246002000230024158A05EA01039589DE
:1033900005EA010413B10CB1012000E0002030BDAA
:1033A00070B505460C46208850B92389A2886188EB
:1033B0002846FFF75DFCE188284600F052F925E039
:1033C000208804280AD12389A28861882846FFF72B
:1033D0006CFCE188284600F04DF917E020880828A9
:1033E0000AD12389A28861882846FFF786FCE188F4
:1033F000284600F04CF909E02389A2886188284614
:10340000FFF79FFCE188284600F04AF970BD0021D3
:1034100001804180012181800021C18001817047AC
:103420001AB183890B43838102E083898B438381B3
:103430007047000070B5002400220023058C4FF671
:10344000FE7635400584028C8388048B4FF68F7599
:103450002C40B51E2C400D882C43751E2A408D89AA
:103460002A434D882A43104DA84202D00F4DA8424E
:1034700013D14FF6F7752A40CD892A434FF6FB75D5
:103480002A408D882A434FF6FF652B404FF6FF55A3
:103490002B400D8A2B434D8A2B43838004838D68F8
:1034A0004563028470BD000000000140000401403B
:1034B0000A460021018B4FF6F7731940114301832F
:1034C0007047000070B5002400220023058C4FF6E1
:1034D000EF7635400584028C8388048B48F6FF75AF
:1034E0002C404FF6FF452C400D884FF6FF7606EA3C
:1034F00005252C434FF6DF752A408D8906EA051510
:103500002A434D8806EA05152A43154DA84202D0E4
:10351000144DA8421DD14FF67F752A40CD894FF634
:10352000FF7606EA05152A434FF6BF752A408D88B7
:1035300006EA05152A434FF6FF352B404FF2FF757B
:103540002B400D8A06EA85052B434D8A06EA850540
:103550002B43838004838D688563028470BD0000E3
:1035600000000140000401400A460021018B4FF297
:10357000FF7319404FF6FF7303EA022319430183D7
:103580007047000070B5002400220023058C4FF620
:10359000FF6635400584028C8388848B4FF68F75D7
:1035A0002C404FF6FC752C400D882C434FF6FF55F0
:1035B0002A408D894FF6FF7606EA05252A434D8875
:1035C00006EA05252A43154DA84202D0144DA8420B
:1035D0001DD14FF2FF752A40CD894FF6FF7606EADE
:1035E00005252A434FF6FF352A408D8806EA052532
:1035F0002A434EF6FF752B404DF6FF752B400D8A82
:1036000006EA05152B434D8A06EA05152B438380F0
:1036100084838D68C563028470BD00000000014092
:10362000000401400A460021818B4FF6F7731940D0
:103630001143818370470021018041808180816036
:103640008181C18101824182704721B1828842F02B
:103650008002828004E082884FF67F731A40828065
:103660007047028B4FF6F3731A400283028B0A43B2
:1036700002837047028B4FF2FF331A400283028BA2
:103680004FF6FF7303EA01231A4302837047828BCC
:103690004FF6F3731A408283828B0A43828370470A
:1036A000828B4FF2FF331A408283828B4FF6FF7377
:1036B00003EA01231A438283704700000022028834
:1036C000184B98420ED0184B98420BD0B0F1804F57
:1036D00008D0164B984205D0154B984202D0154B96
:1036E000984204D14FF68F731A404B881A43124BFD
:1036F000984207D0114B984204D04FF6FF431A402E
:103700000B891A4302804B68C3620B880385054B03
:10371000984202D0044B984201D18B7A0386012350
:103720008382704700000140000401400004004013
:1037300000080040000C0040001000400014004051
:103740004FF0FF3141600021018001814180817291
:103750007047000000B58DB001210846FFF74CF816
:103760003E48FFF723FD0020ADF830002020ADF8E3
:103770002A0041F267000B900020ADF828008DF878
:1037800032000AA93548FFF799FF05A8FFF753FF54
:103790007020ADF814000020ADF82400ADF826002C
:1037A0000220ADF820000820ADF822000120ADF87D
:1037B00016000420ADF818000A20079005A9274834
:1037C000FFF738FE08212548FFF772FE0A20079010
:1037D00005A92248FFF776FE08212048FFF7C4FE1E
:1037E0000A20079005A91D48FFF7CCFE08211B48B9
:1037F000FFF718FF01211948FFF7B6FC0122114617
:103800001648FFF70DFE0020ADF804004FF480606D
:10381000ADF806000020ADF80800E020ADF80A0081
:103820000020ADF80C004FF40050ADF80E00400041
:10383000ADF8100001A90948FFF786FCFDF774FCFC
:1038400001210648FFF774FC01210448FFF792FCB0
:1038500001210248FFF79AFC0DB000BD00000140B5
:103860000EB501210846FEF7A7FF4FF08040FFF795
:103870009DFC6846FFF764FF0020ADF80800ADF836
:10388000020041F2670001901320ADF80000694684
:103890004FF08040FFF712FF00214FF08040FFF70C
:1038A00069FC01218807FFF75FFC012211469007A0
:1038B000FFF7B6FD0EBD000000B587B00121022064
:1038C000FEF77AFF2B48FFF771FC04A8FFF738FFDB
:1038D0000020ADF81200ADF818004FF6FF7005900B
:1038E0000020ADF8100004A92248FFF7E7FE0A23E4
:1038F0001A4603211F48FFF721FD01A8FFF787FDA6
:103900000020ADF804000120ADF80C0001A9194811
:10391000FFF746FD0420ADF804000120ADF80C00CF
:1039200001A91448FFF73CFD0820ADF80400002071
:10393000ADF806000120ADF808000020ADF80C003D
:10394000ADF80A0001A90B48FFF72AFD012109483B
:10395000FFF70AFC012209210648FFF761FD00205C
:1039600004492431086001210248FFF703FC07B035
:1039700000BD00000004004000B587B00121042014
:10398000FEF71AFF0020ADF81800ADF812004FF650
:10399000FF7005900020ADF8100004A91A48FFF749
:1039A0008DFE0020ADF804000A20ADF806000020CE
:1039B000ADF80C00ADF80A000120ADF8080001A92F
:1039C0001148FFF7EDFC0420ADF8040001A90E48F2
:1039D000FFF7E6FC0820ADF8040001A90A48FFF74C
:1039E000DFFC01210848FFF730FE02210648FFF7FF
:1039F000BBFB012202210448FFF712FD012102480E
:103A0000FFF7B8FB07B000BD00080040704700BFDB
:103A1000FEE72DED020B019820F0004001909DED96
:103A2000000B02B0704730B5034600214FF0E02490
:103A3000A2690020A824634300BF4FF0E024A069DE
:103A4000904202DA8C18211A05E08C184FF0E0251C
:103A50006D692C44211A02469942EED330BD000014
:103A600000B585B04FF4A060FDF7AEFCFEF7C2FDD7
:103A7000FCF764FEFDF73EFD0020FDF7B7FD0E49A3
:103A800008600020FDF7B2FD0C4908600720002106
:103A90004FF480720A4BCDE90132CDE90310322098
:103AA0000346084A00900848FDF716FEFDF7C8FDDA
:103AB000002005B000BD0000000000200400002030
:103AC0009C070020980B00209906000821F0004276
:103AD000A2F16052B2F5801F01F0004328BFD2F17D
:103AE0007F6C0BD95FEA001C43EAC20242EB5070C4
:103AF00018BF704728BF20F001007047B2F5801F43
:103B0000BCBF184670474FEA410C1CF5001F02D29B
:103B1000084600F0D7B870B500F009F80000008939
:103B2000FFF7F6BF4FF00040A0F5800070470EF1A0
:103B3000020E2EF0030E5EF8046B364205D4012A05
:103B400043EB030515F5001F12D8012841EB010CCA
:103B50001CF5001F0CD80ED14FEAD17C15F5001FC3
:103B60000CEB4C0C0CF1020C08BF4CEBD37C04E0CA
:103B70004FF0080C01E04FEAD37C0CEB4C0526FA21
:103B800005F606F00706B6F1040C06D20EEB860C1D
:103B9000BDE870404CF0010C6047DFE80CF0090B09
:103BA00002024FF000414FF00000A1F5002170BD6E
:103BB00019461046012851EB010418BFD4F5001432
:103BC00084BF002001F0004170BD0808A0F500117D
:103BD0004FEA31017047000043004FEAD30C4FEA2F
:103BE0003C0C43401FBF40070CF1605113F0FE4FE7
:103BF00070471CF0006F03D100200CF000417047AB
:103C00000CF0004343EA507010B540EACC0000F0DD
:103C10000EF800BF000000924FEA0001FFF7D5BF89
:103C20004FF000414FF00000A1F5002170470EF168
:103C3000020E2EF0030E5EF8044B244204D44FEA29
:103C40004102B2F17F4F11D84FEA4003B3F17F4FE9
:103C50000CD80ED14FEAD07CB2F17F4F0CEB4C0C5C
:103C60000CF1020C08BF4CEBD17C04E04FF0080CC7
:103C700001E04FEAD17C0CEB4C0324FA03F404F08E
:103C80000704B4F1040C06D20EEB840CBDE810401E
:103C90004CF0010C6047DFE80CF0070802024FF01F
:103CA0000040A0F5800010BD0846420018BFD2F1C8
:103CB000807288BF00F0004010BD4FF04070E1EE10
:103CC000100A7047FF2141EAD050C005704700003C
:103CD0000100000078563412010014000100300089
:103CE000C0030100010010001400020005000100E3
:103CF000FD0001000100050001001800780001002E
:103D0000040001000400180010000100040001007C
:103D10000100010080000100160001000100800088
:103D2000010001000100FE005C00640001001B7244
:103D300000001000010007000A0000000000000061
:103D4000000027150000010002000100030001002F
:103D50000200010004000100020001000300010054
:103D60000200010005000100020001000300010043
:103D70000200010004000100020001000300010034
:103D80000200010006000100020001000300010022
:103D90000200010004000100020001000300010014
:103DA0000200010005000100020001000300010003
:103DB00002000100040001000200010003000100F4
:103DC00002000100070001000200010003000100E1
:103DD00002000100040001000200010003000100D4
:103DE00002000100050001000200010003000100C3
:103DF00002000100040001000200010003000100B4
:103E000002000100060001000200010003000100A1
:103E10000200010004000100020001000300010093
:103E20000200010005000100020001000300010082
:103E30000200010004000100020001000300010073
:103E400002000100643E0008000000209C00000009
:103E5000C4010008003F00089C000020BC290000AD
:103E6000E00100080000000000000000B712000898
:103E7000B51000088510000895100008C51000084E
:103E8000A5100008D5100008B7120008B7120008E6
:103E9000D5100008A5100008C510000895100008EE
:103EA00085100008B5100008B712000800000000D7
:103EB0000000000000000000000000000000000002
:103EC00000000000000000000000000000000000F2
:103ED00000000000000000000000000000000000E2
:103EE00000000000000000000000000000000000D2
:103EF00000000000000000000000000000000000C2
:040000050800018965
:00000001FF
