:020000040800F2
:10000000902A002029020008CF1200088911000858
:10001000CB1200081D0800080D3A0008000000007F
:10002000000000000000000000000000712900082E
:10003000CD0D00080000000007030008951E000811
:1000400063020008630200086302000863020008FC
:1000500063020008630200086302000863020008EC
:1000600063020008630200086302000863020008DC
:1000700063020008630200086302000863020008CC
:1000800063020008630200086302000863020008BC
:1000900063020008630200086302000863020008AC
:1000A000492D0008892F0008630200086302000838
:1000B000C92F000859300008B93000086302000851
:1000C000630200086302000863020008630200087C
:1000D000630200086302000863020008630200086C
:1000E000630200086302000863020008630200085C
:1000F000630200086302000863020008630200084C
:10010000630200086302000863020008630200083B
:10011000630200086302000863020008630200082B
:10012000AD0A0008630200086302000863020008C9
:10013000630200086302000863020008630200080B
:1001400063020008630200086302000863020008FB
:1001500063020008630200086302000863020008EB
:1001600063020008630200086302000863020008DB
:1001700063020008630200086302000863020008CB
:10018000630200086302000800F002F800F03CF887
:100190000AA090E8000C82448344AAF10107DA45E2
:1001A00001D100F031F8AFF2090EBAE80F0013F0F8
:1001B000010F18BFFB1A43F00103184788420000E3
:1001C000A8420000103A24BF78C878C1FAD8520774
:1001D00024BF30C830C144BF04680C6070470000C1
:1001E0000023002400250026103A28BF78C1FBD840
:1001F000520728BF30C148BF0B6070471FB503F0DE
:1002000059FC1FBD10B510BD00F0F3F81146FFF703
:10021000F5FF03F019FC00F011F903B4FFF7F2FF4A
:1002200003BC00F015F9000011488047DFF84400D6
:10023000016841F470010160BFF34F8FDFF83800AF
:10024000016821F040410160BFF36F8F0B48004708
:10025000FEE7FEE7FEE7FEE7FEE7FEE7FEE7FEE776
:10026000FEE7FEE706480749074A084B70470000CB
:10027000BD2B000888ED00E034EF00E089010008A4
:1002800090240020902A0020902600209026002014
:10029000EFF3098141B1F1EE101A40F8041D20ED91
:1002A000200A2C490A6810607047B0EC200A02C886
:1002B000E1EE101A28490A6810607047EFF31080C9
:1002C00072B6704780F31088704724484FF0FF01E2
:1002D0000170002080F309882148016881F30888B3
:1002E00020480121017020484FF08051016062B622
:1002F000FEE71D484FF08051016070471A484FF0EB
:1003000080510160704772B6EFF3098040B1403808
:1003100080EC108A203880E8F00F0E4909680860E8
:1003200000B5124880475DF804EB114811490A787E
:100330000270084808490A680260106890E8F00FE7
:10034000203090EC108A403080F309884EF0F40E93
:1003500062B67047800000208800002022ED00E097
:10036000540000207800002004ED00E0C11C0008CB
:100370007300002074000020DFED190AB5EEC00AFA
:1003800060EE200ABDEEE01A11EE100AF1EE10FA4E
:1003900038BF401E00EE100A1349F7EE001AB8EEFF
:1003A000C00A30EEC00ADFED0F0A60EE200ABCEE94
:1003B000E00A10EE100AC0F3080000EE100A01EB8C
:1003C0008000B8EE400A90ED011A70EEC00A90ED80
:1003D000000A71EEE01A21EE800A00EE810A7047F1
:1003E00083F9223E00000044403C000870477047FB
:1003F0007047754600F028F8AE460500694653463A
:1004000020F00700854618B020B5FFF72BFFBDE8A8
:1004100020404FF000064FF000074FF000084FF06B
:10042000000B21F00701AC46ACE8C009ACE8C009FC
:10043000ACE8C009ACE8C0098D4670470446AFF38C
:1004400000802046FFF7E9FE004870472C2400207A
:1004500001491820ABBEFEE726000200704721B11B
:10046000826842F00102826003E0826822F00102A9
:10047000826070470021084A1168084A1140D0E99B
:1004800000231A4383681A43C3681A431143044A7A
:10049000C2F804137047000004230140E030FCFF61
:1004A0000020014021B1826842F48072826003E042
:1004B000826822F480728260704721B1826842F4BF
:1004C0000072826003E0826822F4007282607047EA
:1004D00000B599B00121080202F0AAF900F07EF8F7
:1004E000002011900F904FF4803010904FF4407026
:1004F00012900FA8FFF7BEFF0020139001208DF887
:10050000500000208DF851001590179003208DF8B1
:10051000600013A92E4800F06DF801231A4605214A
:100520002B4800F091F8012302220621284800F010
:100530008BF8012303220721254800F085F80121CB
:10054000880502F045F9234800F018FB00200090D0
:100550001F484C3001902048029000200390032057
:100560000490002005904FF48060069040000790B2
:10057000800008904011099040020A9000200B90E2
:1005800001200C9000200D900E906946114800F05B
:10059000F1FB01210F4800F0E5FA10210D4800F0B1
:1005A000C7FA012210210B4800F0C6FB01210848C0
:1005B000FFF783FF01210648FFF774FF012104487C
:1005C000FFF74DFF024800F09BF819B000BD000096
:1005D0000020014010640240E00B002010B5012112
:1005E000080202F035F900214FF4807002F030F972
:1005F00010BD000030B50246002000235068104CAA
:1006000020400D790C6844EA05242043506090682E
:100610000C4C2040D1E903542C438D682C434D7978
:1006200044EA450420439060D06A20F470000C7DB9
:10063000641EE4B2234340EA0350D06230BD0000A0
:10064000FFFEFFFCFDF7FFC0F0B504460D4600209D
:100650000021092D11DDE068A5F10A0606EB460729
:10066000072606FA07F18843A5F10A0606EB4606B7
:1006700003FA06F10843E0600CE0206905EB45074A
:10068000072606FA07F1884305EB450603FA06F14B
:1006900008432061072A0FDA606B561E06EB8607B7
:1006A0001F2606FA07F18843561E06EB860605FA52
:1006B00006F10843606322E00D2A0FDA206BD61F93
:1006C00006EB86071F2606FA07F18843D61F06EBBE
:1006D000860605FA06F10843206310E0E06AA2F1FD
:1006E0000D0606EB86071F2606FA07F18843A2F1DE
:1006F0000D0606EB860605FA06F10843E062F0BD3A
:10070000816841F0804181607047000010B586B07B
:1007100004461E4801F0D2FB4FF4FA7003F078F95A
:1007200000F0CCFF032000214FF48072184BCDE97C
:100730000132CDE9031006200346164A0090164800
:1007400000F0E4FF032000214022144BCDE90132E8
:10075000CDE9031031200346104AFC3200901048C6
:1007600000F0D4FF0320002180220E4BCDE901329E
:10077000CDE90310072003460B4A00900B4800F018
:10078000C5FFFF2001F020F806B010BD80A21900BF
:10079000A4000020A0040020652B0008A40600206F
:1007A000A5120008A4040020A0060020712800085B
:1007B00010B500F08EFD00F00BFB02F09FFF03F080
:1007C00023F803F04BF803F0A9F803F0F1F803F075
:1007D000F1F8FFF77DFE00F00FF9022002490870E2
:1007E0000020487010BD00005000002030B90A49B8
:1007F000096841F40051084A11600AE0012807D154
:10080000054909684DF6FF721140034A116000E086
:10081000704700BFFCE700001408024000BFFEE77D
:1008200070B52DED048B06469FED390AB0EE409A67
:100830009FED370AF0EE408A36480078C0EBC000E2
:1008400035490844354991F86E10415C33485C30B5
:1008500000EB810090ED000AF0EE408A304890ED08
:10086000060AB4EEE80AF1EE10FA03D290ED060A99
:10087000F0EE408AB0EE680A304600F08FFCB0EE31
:10088000409A284890ED018A9FED270A28EE000A39
:10089000BCEEC00A10EE105AB5F5805F01D340F6E9
:1008A000FF75A9B2002000F0F1F81E4890ED0F0A84
:1008B00030EE090A80ED0F0A90ED0F0ADFED1B0AFA
:1008C000B4EEE00AF1EE10FA04DD9FED180A80EDB7
:1008D0000F0A0DE0134890ED0F0AF2EE040AB4EE91
:1008E000E00AF1EE10FA03D2B2EE040A80ED0F0A2C
:1008F0000C4890ED0F0ABCEEC00A10EE100A84B24C
:100900000B4844638463C463BDEC048B70BD00007A
:1009100000000000700C0020BE3A0008E00B002030
:10092000A80B00208C0C0020CD1C9B4400007A45B5
:100930000000014010B500214FF0804002F0EEFBB6
:1009400010BD10B50121880702F0E8FB10BD0000C2
:1009500010B504462146002002F082F82081A11C37
:10096000012002F07DF86081211D022002F078F85C
:10097000A0810B480078012811D12089E1898842A3
:1009800001DA208920816189208A814201DA618926
:100990006181A189608A814201DAA189A18110BDAA
:1009A0005000002003200AE00022084921F810200E
:1009B000891D0A54C91C0A544B3921F81020010022
:1009C000A0F10102D0B2EFD170470000300C00203E
:1009D00039B1084A1268012383401A43054B1A6053
:1009E00006E0044A1268012383409A43014B1A60CF
:1009F000704700000074004000B587B00121084630
:100A000001F0E6FE0121480701F0F2FE05A800F022
:100A100062FB03208DF818001020059002208DF84D
:100A20001B0005A90B4800F0E9FA00200190029094
:100A300003900220049001A9002000F00DF801218C
:100A40000020FFF7C5FF0021084600F01FF807B09F
:100A500000BD00000000024030B5002200230A4C17
:100A6000226840F6FE748440A243D1E900452C433D
:100A70008D682C43CD6844EA050303FA00F4224351
:100A8000014C226030BD00000074004008B5002217
:100A90000092054A009200F10802009B1A4400925D
:100AA000009A116008BD00000074004010B51C4998
:100AB0001C4800F00FF990B31B48FFF749FF1A4894
:100AC00000891949C989401A00EE100AB8EEC00A17
:100AD000DFED160A20EE200A134880ED170A41893F
:100AE000008A081A00EE100AB8EEC00ADFED0F0AFD
:100AF00020EE200A0C4880ED180A8189408A081AE5
:100B000000EE100AB8EEC00ADFED080A20EE200A57
:100B1000054880ED190A0249024800F009F810BDA5
:100B20002080001010640240E00B0020FFFF243CF6
:100B30000246094B9A4201D2084801E006481038A3
:100B400001F000531BB1064B0B40C36002E0044BA5
:100B50000B40836070470000106402400060024058
:100B60007D0F7D0F21B1026842F00102026003E0B7
:100B7000026822F00102026070470000016821F063
:100B8000010101600021016041608160C16001617B
:100B9000212141614A49884204D13D21484A103A05
:100BA00091608CE046491831884205D14FF4746158
:100BB000434A103A916082E041493031884205D180
:100BC0004FF474113E4A103A916078E03C49483144
:100BD000884205D14FF07461394A103A91606EE055
:100BE00037496031884204D13649354A103AD160DC
:100BF00065E033497831884204D13349304A103AAC
:100C0000D1605CE02E499031884204D12F492C4AB2
:100C1000103AD16053E02A49A831884205D14FF0FB
:100C20003D51274A103AD16049E02949884204D110
:100C30003D21274A083A116041E025491831884290
:100C400005D14FF47461224A083A116037E0204917
:100C50003031884205D14FF474111D4A083A1160B1
:100C60002DE01B494831884205D14FF07461184A84
:100C7000083A116023E016496031884204D11149D5
:100C8000134A121F11601AE011497831884204D1C9
:100C90000D490F4A121F116011E00D499031884231
:100CA00004D10A490A4A121F116008E00849A83114
:100CB000884204D14FF03D51054A121F1160704720
:100CC000106002403D000020400F002000003D2049
:100CD0001064024070B50246002000240025124E28
:100CE000B24201D2114B01E00F4B103B104E0E40AF
:100CF00036B11E2606EAD124166806EA040502E08B
:100D0000566906F0800501F000560EB15C6800E0FF
:100D10001C68084E344004EA010616B10DB10120EA
:100D200000E0002070BD000010640240006002403E
:100D30003C0F3C0F7D0F7D0F10B501F080034BB1D0
:100D400022B1436943F08003436103E0436923F028
:100D50008003436180290BD02AB1036801F01E048F
:100D60002343036004E0036801F01E04A34303600F
:100D700010BD000010B500220268134B1A40CC6869
:100D80000B6823434C6923438C692343CC69234379
:100D90000C6A23434C6A23438C6A23434C6B2343E2
:100DA0008C6B23431A430260426922F00702D1E9A7
:100DB0000B3423431A4342610B6943604B688360E1
:100DC0008B68C36010BD00003F801CF070470000BE
:100DD0001CB50121072001F0FBFC684600F07BF9FF
:100DE00001208DF8040000208DF806004FF40070FB
:100DF000009000208DF807008DF8050069467C48BA
:100E000000F0FCF84FF40071794800F062F9684690
:100E100000F061F902208DF8040000208DF8060032
:100E20004FF4E060009002208DF807008DF8050077
:100E30006946704800F0E2F8012208216D4800F090
:100E400025F9012209216B4800F020F901220A212D
:100E5000684800F01BF94FF4E061664800F039F98A
:100E6000684600F038F902208DF8040000208DF863
:100E700006004FF46040009002208DF807008DF8C6
:100E8000050069465A4800F0B9F801220D2158487A
:100E900000F0FCF801220E21554800F0F7F801227D
:100EA0000F21534800F0F2F84FF46041504800F031
:100EB00010F9684600F00FF902208DF804004FF495
:100EC000E070009001208DF8070003208DF80500E8
:100ED0006946494800F092F802220621464800F08F
:100EE000D5F802220721444800F0D0F80222082158
:100EF000414800F0CBF8684600F0EDF802208DF88C
:100F0000040000208DF806004FF4E07000900120EE
:100F10008DF8070002208DF805006946344800F07E
:100F20006DF802220621324800F0B0F802220721B3
:100F30002F4800F0ABF8022208212D4800F0A6F857
:100F4000684600F0C8F803208DF80400E020009007
:100F50006946284800F052F8684600F0BCF80120C5
:100F60008DF8040000208DF806004FF4005000902A
:100F700000208DF807008DF8050069461E4800F036
:100F80003DF84FF400511C4800F0A3F8684600F00B
:100F9000A2F800208DF804004FF44040009000209B
:100FA0008DF807008DF805006946134800F026F813
:100FB0004FF44041104800F08CF8684600F08BF880
:100FC00001208DF8040000208DF80600012000901B
:100FD00000208DF8070002208DF8050069460648BC
:100FE00000F00CF80121044800F073F81CBD00006B
:100FF000000402400000024000080240F0B50A462A
:1010000000210023002400BF3DE0012505FA01F383
:10101000156805EA03049C4234D105684F00032695
:10102000BE40B543056015794E00B54006683543AE
:1010300005601579012D02D01579022D16D185682C
:101040004F000326BE40B543856055794E00B5403C
:10105000866835438560456801268E40B543456006
:10106000456896798E40B6B235434560C5684F00F5
:101070000326BE40B543C560D5794E00B540C6686D
:101080003543C560491C1029BFD3F0BDF0B500231E
:1010900000244D07ED0E02FA05F3CE1000F12005F5
:1010A00055F826504E07F70E0F26BE40B543CF1019
:1010B00000F1200646F82750CE1000F1200555F823
:1010C000265045EA0304CE1000F1200545F82640DD
:1010D000F0BD418370474FF6FF710160002101713F
:1010E00041718171C171704710B501F085FE01F049
:1010F000BDFE01F0F3FE10BD10B501F07DFE01F064
:1011000097FE01F009FF10BD10B501F059FE01F086
:10111000C9FE01F0E3FE10BD10B501F033FE01F091
:10112000C1FE01F0F9FE10BD10B501F049FE01F05D
:101130007FFE01F00DFF10BD10B501F023FE01F0A0
:1011400095FE01F005FF10BD10B500F015F804463E
:10115000064981F86E4006490978C1EBC101054A8C
:1011600002EB810151F82400804710BDE00B002004
:10117000700C00200800002002490968C1F38210A9
:10118000704700001004024000BFFEE710B501F0F8
:1011900017FE01F06BFE01F0BFFE10BDF0EE400A3D
:1011A000C0ED010A90ED030A80ED040A90ED020AF9
:1011B00080ED030A90ED000A90ED011A30EE410A2D
:1011C00080ED020A90ED020A90ED031A30EE410A1A
:1011D00090ED061A20EE010A80ED090A90ED070A4B
:1011E00090ED021A20EE010A80ED0A0A90ED020A43
:1011F00090ED031AF0EE001A01EEC10A90ED041A08
:1012000030EE010A90ED081A20EE010A80ED0B0A7B
:1012100090ED090A90ED0A1A30EE010A90ED0B1AD2
:1012200030EE010A80ED0C0A90ED0D0A90ED0C1ADB
:1012300030EE010A80ED0E0A90ED0E0AB2EE041AAD
:10124000B4EEC10AF1EE10FA03DDB2EE040A80ED4D
:101250000E0A90ED0E0ABAEE041AB4EEC10AF1EECF
:1012600010FA03D2BAEE040A80ED0E0A90ED0E0ACF
:1012700080ED0D0A90ED0E0A7047000003480068EB
:101280004FF6FF51084001490860704714040240BE
:101290000348006840F4007001490860704700008E
:1012A0001404024010E0FFF7E9FF4FF448730022F6
:1012B0001146104600F044FDFFF7EAFF32230022FA
:1012C0001146104600F03CFDEDE700BFFEE7704719
:1012D000704708B519208DF8000000208DF8010036
:1012E0008DF8020001208DF80300684600F04AF8EE
:1012F0001C208DF8000001208DF8010000208DF8E1
:10130000020001208DF80300684600F03BF81D2024
:101310008DF8000000208DF8010002208DF80200F9
:1013200001208DF80300684600F02CF81E208DF88F
:10133000000000208DF8010001208DF802008DF8DA
:101340000300684600F01EF818208DF80000012008
:101350008DF801008DF802008DF80300684600F05A
:1013600011F838208DF8000001208DF801000220CE
:101370008DF8020001208DF80300684600F002F8A5
:1013800008BD000070B5002100230F22C4781CB3F3
:10139000174C246804F4E064C4F5E064C4F3072146
:1013A000C1F10404E3B20A4144789C40E1B284787C
:1013B000144021430C07210E0E4C0578615504782A
:1013C00004F01F050124AC4005786D11AD0005F156
:1013D000E025C5F8004109E0047804F01F05012468
:1013E000AC40054D0678761145F8264070BD0000EA
:1013F0000CED00E000E400E080E100E00249014380
:10140000024A1160704700000000FA050CED00E090
:10141000174818481848194819481A481A481B48C4
:101420001B481C481C481D481D481E481E481F4894
:101430001F48204820482148214822482248234864
:101440002348244824482548254826482648274834
:10145000274828482848294829482A482A482B4804
:101460002B482C482C482D482D482E4800BF70474B
:10147000CC3A0008D03A0008D63A0008D83A00081A
:10148000D43A0008DA3A0008DC3A0008DE3A0008EC
:10149000E03A0008E23A0008E43A0008E63A0008B8
:1014A000E83A0008EA3A0008EC3A0008EE3A000888
:1014B000F03A0008F23A0008F43A0008F63A000858
:1014C000F83A0008FA3A0008FC3A0008FE3A000828
:1014D000003B0008023B0008043B0008063B0008F4
:1014E000083B00080A3B00080C3B00080E3B0008C4
:1014F000103B0008123B0008143B0008163B000894
:10150000183B00081A3B00081C3B00081E3B000863
:10151000223B0008243B0008263B0008283B00082B
:101520002A3B00083E3B000810B500F017F800F019
:1015300091FD00F0BDFD00F0DFFD00F05BFD00F06F
:101540001BFD00F073FE00F09DFE00F015FE00F0A4
:101550003BFE00F01BF8FFF75BFF10BD0848802141
:1015600002E0491E002204C00029FAD1054A064BB8
:101570001A601A46126822F007021A6070470000CB
:10158000440D0020440F002054000020704700004C
:1015900010B500241A480078012830D1FEF78EFEDD
:1015A00004461848007820B116480078401E1549B6
:1015B000087014480078F8B913480078E0B900F0D2
:1015C000C3FE12481249097850F8210011490860F9
:1015D0000F4800781049097888420DD00D480068FE
:1015E000006C401C0B49096808640C480068401CEA
:1015F0000A490860FEF782FE2046FEF763FE10BD32
:101600007800002071000020720000207417002074
:101610007400002088000020730000205800002083
:1016200070B5054600261048007808B1002070BD4E
:10163000FEF744FE06460D480468006820B10B48DA
:1016400000684068094908603046FEF73BFE4CB12F
:101650000320207025810020606005A0E062204604
:1016600000F07BFC2046E2E7710000205C000020D7
:101670003F00000010B50B48007890B900F064FE00
:10168000094800780949087009480749097850F85D
:101690002100084908600846006807490860FEF70D
:1016A00014FE10BD7800002074000020730000209C
:1016B00074170020880000208000002010B500244E
:1016C000022000F0FFFAFEF7F9FD044600200B4966
:1016D00008602046FEF7F6FD0A2000F0F3FAFEF758
:1016E000EDFD0446054800680549086001200549EC
:1016F00008702046FEF7E6FD10BD00007C000020CB
:101700006800002070000020704700002DE9F04FB5
:1017100085B081468A4693461C46DDE90F78129DC6
:1017200000200390FEF7CAFD03902348007830B1F3
:101730000398FEF7C7FD3C2005B0BDE8F08F1F48B9
:1017400050F8240088BB01201C4941F8240003986C
:10175000FEF7B8FD2A464146384600F057FF2B46B3
:101760005A465146484600F061F904901198CDE977
:10177000008002953A4620460E9B049900F014FE24
:10178000064636B90E48007801280CD100F0A2FDBB
:1017900009E0FEF793FD03900020084941F824007A
:1017A0000398FEF78FFD3046C6E7FFE70398FEF784
:1017B00089FD2820C0E70000710000207417002078
:1017C00078000020704700002DE9F0410546002711
:1017D0004B48007810B14020BDE8F081FD2D01D1CB
:1017E0003E20F9E7FEF76AFD0746FF2D03D1454885
:1017F000006890F83650444850F8254024B93846DF
:10180000FEF760FD4320E7E7012C04D13846FEF7E0
:1018100059FD3D20E0E714F8380F3C4931F810003D
:10182000618888432178394A22F8110014F8380970
:10183000114631F8100028B9A18F35480088884337
:1018400033490880E06918B12046E16900F04FFB98
:10185000206A18B12046216A00F061FBA66A16B121
:10186000304600F0B5FB0020206384F8340084F893
:10187000350028480078FF2804D226480078401C0C
:10188000244908703846FEF71DFD00F02FFBFEF7D7
:1018900015FD07461F48007820B11E480078401EFD
:1018A0001C490870204600F041F81B480078401E93
:1018B000194908700020144941F82500A06930B981
:1018C00000206169886115496069086005E0D4E914
:1018D00005014861D4E9051088611148006860611C
:1018E0000F4804600FA060653846FEF7EBFC0E4819
:1018F0000078012801D100F0EDFC00206CE7000029
:101900007100002080000020741700205415002072
:101910007600002072000020790000208C0000205A
:10192000840000203F0000007800002070477047CE
:101930002DE9F04106460F4614464FF000081548C1
:10194000007818B112202070BDE8F081FEF7B6FCD7
:101950008046FF2E03D11048006890F836600F488B
:1019600050F826502DB94046FEF7ACFC43202070BD
:10197000EAE7012D05D14046FEF7A4FC4320207084
:10198000E2E76F654046FEF79DFC0020207000BF37
:10199000DAE70000710000208000002074170020AA
:1019A000704770472DE9F04707460D464FF0000A93
:1019B000002028606860FEF781FC8246FF2F03D17B
:1019C0001848006890F83670174850F827402CB92E
:1019D0005046FEF777FC4320BDE8F087012C04D188
:1019E0005046FEF76FFC4320F6E7207C00F0010034
:1019F00020B95046FEF766FC4520EDE70026D4F8F6
:101A00000C90D4F808805046FEF75CFC00E0761C91
:101A100058F8041B0029FAD02E60A9EB0600686074
:101A20000020D9E7800000207417002070B504461C
:101A3000101D20F007000026051F28462E604FF0DD
:101A40001536051F28462E604FF01436051F284610
:101A50002E604FF01336051F28462E604FF01236C9
:101A6000051F28462E604FF01136051F28462E60B0
:101A70004FF01036051F28462E604FF00936051F1F
:101A800028462E604FF00836051F28462E604FF07E
:101A90000736051F28462E604FF00636051F2846DC
:101AA0002E604FF00536051F28462E604FF0043695
:101AB000051F28462E604FF00336051F28462E606E
:101AC0004FF00236051F28462E607610051F284667
:101AD0002E600026051F28462E604FF08076051FD9
:101AE00028462E60051F28462C60494E051F2846B3
:101AF0002E604FF01236051F28462E604FF0033639
:101B0000051F28462E604FF00236051F28462E601E
:101B10007610051F28462E60051F284629604FF0C5
:101B20003136051F28462E604FF03036051F2846F7
:101B30002E604FF02936051F28462E604FF02836BC
:101B4000051F28462E604FF02736051F28462E60B9
:101B50004FF02636051F28462E604FF02536051F0C
:101B600028462E604FF02436051F28462E604FF081
:101B70002336051F28462E604FF02236051F2846C3
:101B80002E604FF02136051F28462E604FF020367C
:101B9000051F28462E604FF01936051F28462E6077
:101BA0004FF01836051F28462E604FF01736051FD8
:101BB00028462E604FF01636051F28462E604FF03F
:101BC0001136051F28462E604FF01036051F284697
:101BD0002E604FF00936051F28462E604FF008365C
:101BE000051F28462E604FF00736051F28462E6039
:101BF0004FF00636051F28462E604FF00536051FAC
:101C000028462E604FF00436051F28462E6070BD12
:101C1000192500082DE9F04105464FF00008FEF7B0
:101C20004DFB8046FF2D05D12148006890F83650C5
:101C3000012608E01E48006890F83600A84201D14D
:101C4000012600E000261B4850F825402CB94046EC
:101C5000FEF738FB4820BDE8F081012C04D1404656
:101C6000FEF730FB4320F6E794F83870124830F85E
:101C70001700618F8843104921F81700084630F893
:101C8000170028B9A18F0D48008888430B490880A8
:101C900094F8340040F0080084F834004046FEF721
:101CA00011FB012E01D100F015FB0020D3E700004D
:101CB00080000020741700205415002076000020BA
:101CC0007047000070B5054600261848007800B13E
:101CD00070BD1748007800B1FAE725B3FEF7EEFAB9
:101CE00006461448006890F83840134830F814004D
:101CF00010490968498F88430F4921F814000846A4
:101D000030F8140038B90B480068818F0B48008800
:101D100088430A4908800748006805633046FEF793
:101D2000D1FA00F0D7FA00BFD2E70000710000201E
:101D30007200002080000020541500207600002052
:101D40002DE9F04104460D4616461F46124800781C
:101D500010B15520BDE8F0811048007808B132205C
:101D6000F8E7781D642148434FF47A71B0FBF1F134
:101D70004FF461606043C5EB051200EB8200304414
:101D800000EBC00202EB001001EB80084046FFF7B9
:101D900099FF0020DEE700007100002072000020A3
:101DA00070B5002600F074F8FEF788FA064632484F
:101DB0000068401C304908603046FEF783FA2F481F
:101DC0000078012855D12E48007820B1012804D090
:101DD000022809D103E001250BE0002509E00125D7
:101DE00001202749087004E00125002024490870DB
:101DF00000BF00BF05B970BD2248046835E0FEF79A
:101E00005DFA0646206B60B3206B401E2063206B9A
:101E100038BB94F8340000F0370040B114F8340FA8
:101E200000F0C800207001206070343C02E0002007
:101E300084F8350094F8340000F0080088B9A08FC9
:101E40001149098808431049088094F838000F495F
:101E500031F81000618F084394F838100B4A22F8CB
:101E6000110064693046FEF72DFA94F83600FD281B
:101E7000C5D100BFBFE70000A0000020780000200F
:101E8000900000208C0000207600002054150020D7
:101E90007047000010B5FEF711FA044606480078B6
:101EA000401C054908702046FEF70CFAFFF778FF42
:101EB000FFF76EFB10BD00007100002001464A1EB6
:101EC0004FF0E0235A61084A106820F07F4000BFBD
:101ED00010601A46126942F005021A611A46126928
:101EE00042F002021A61704720ED00E0704710B521
:101EF00090F8382001F10C0333F81230448FA343DB
:101F000001F10C0424F81230234633F812301BB9C7
:101F10004B89848FA3434B810023C36110BDF0B56F
:101F2000024692F83840958F568F0B46186811E09C
:101F300000F10C0737F81470B74300F10C0C2CF8C3
:101F40001470674637F8147017B94789AF43478153
:101F50001B1D18680028EBD1F0BD014600224A8104
:101F6000002006E0002301F10C0222F81030421C90
:101F7000D0B21028F6D370472DE9F0415021114816
:101F800000F04AF900250DE0681C86B20D4800EB10
:101F9000051400EB06170020207067600AA0E060BF
:101FA000681C85B2042DEFD3064800EB0514002011
:101FB0002070606004A0E060024804490860BDE849
:101FC000F0810000041300203F00000060000020AA
:101FD00030B501464A6808682AB9CC68606028B103
:101FE0000025456002E0106000B142608B6800256A
:101FF0009D6230BD70B54FF47071134800F00CF95C
:10200000002411E0601C85B204EB44000E4901EB92
:10201000001305EB450001EB0016002018705E6010
:102020000AA0D862601C84B2132CEBD304EB4400EA
:10203000054901EB001300201870586003A0D86216
:1020400008460349086070BD440F00203F000000AF
:102050005C00002000200B4908600B4908700B4908
:1020600008700B4908700B4908700B4908600B4950
:1020700008600B4908600B4908600B4908700B4960
:1020800008707047A000002071000020720000203E
:102090007900002078000020580000207C000020FB
:1020A0006C00002068000020700000209C000020D0
:1020B00000210B4A1180002005E00021094A22F886
:1020C0001010411CC8B21028F7D30021064A117025
:1020D000064A1170064A1160064A116070470000F6
:1020E00076000020541500207300002074000020AA
:1020F000880000208000002070B54FF4FD61194871
:1021000000F08AF84FF47E71174800F085F800243B
:1021100013E0601CC5B2C4EBC40000EB041011490D
:1021200001EB8003C5EBC50000EB051001EB800659
:102130005E610EA05865601CC4B2152CE9D3C4EBD7
:10214000C40000EB0410074901EB80030020586134
:1021500006A0586500200649086002480549086045
:1021600070BD00006C1B0020741700203F000000B1
:102170008C0000208400002000B587B003200021DF
:1021800080220A4BCDE90132CDE903104FF6FF70F2
:10219000FD23074A00900748FFF7B8FA06AA06A1F0
:1021A000FD20FFF7C5FB07B000BD0000741500203F
:1021B00070170020F124000875432F4F532D494913
:1021C0002049646C6500000000B587B00320002141
:1021D00080220A4BCDE90132CDE903104FF6FE70A3
:1021E000FC23074A00900748FFF790FA06AA06A1C9
:1021F000FC20FFF79DFB07B000BD0000541300203A
:10220000501500203125000875432F4F532D4949A3
:10221000205374617400000004E0002200F8012BD8
:102220004A1E91B20029F8D17047000070B578219C
:102230001148FFF7F1FF00240EE004EB44000E49C3
:1022400001EBC005601C00EB400001EBC0006860C2
:102250000AA06861601C84B2042CEED304EB440035
:10226000054901EBC0050020686004A068610846CC
:102270000349086070BD0000542300203F000000A7
:10228000940000202DE9F04160211048FFF7C4FFC1
:1022900000240DE0601C86B204EB44000B4901EB06
:1022A000C00506EB460001EBC0072F60601C84B23E
:1022B000032CEFD304EB4400044901EBC0050020DC
:1022C0002860084602490860BDE8F081CC23002060
:1022D0009800002010B50024FDF7F0FF04461348D5
:1022E0000078F8B912480078E0B900F02DF81148EC
:1022F0001149097850F82100104908600E4800780B
:102300000F49097888420DD00C480068006C401CC9
:102310000A49096808640B480068401C09490860BC
:10232000FDF7E7FF2046FDF7CDFF10BD710000204F
:102330007200002074170020740000208800002024
:102340007300002058000020134A127822B1124A6C
:102350001278124B985C07E0104A0F4B1B8802EB77
:10236000132212780832D0B20D4A02EB40010A78EB
:102370003AB10A78094B9A5C02EB0012094B1A70C9
:1023800009E00A88054B03EB1222127802EB0012D7
:102390000832044B1A70704776000020403B00085A
:1023A00054150020740000202DE9F84F05460F4613
:1023B00090469946DDE90AAB00200090FDF77EFFCC
:1023C000009044480468002C7ED01C3454F8080C5B
:1023D000404908600098FDF775FF44F81C7CA5761D
:1023E000002020766076606144F818BC44F810AC98
:1023F00044F8148C0C9824F80C0C24F80A9C002047
:1024000084F822002809207705F00F00E076217F6C
:10241000012088402084E17E01208840E083002064
:1024200020606060E060A0606062E062A0622063A3
:10243000606329A0A0631C3C002606E0002104F193
:10244000580040F82610701CC6B2002EF6D0204668
:10245000FFF75AF9FDF732FF0090204840F8254079
:102460000098FDF72FFF2046FFF7ACF9FDF726FF98
:1024700000901B48006860610020A0611848006857
:1024800010B117480068846115480460A08F154991
:10249000098808431349088094F83800124931F834
:1024A0001000618F084394F838100F4A22F8110089
:1024B0000E480078401C0D4908700098FDF702FF97
:1024C0000020BDE8F88FFFE70098FDF7FBFE4220F3
:1024D000F7E70000840000203F0000007417002090
:1024E0008C00002076000020541500207900002088
:1024F000002400BF00BFFDF7E1FE04460548006868
:10250000401C044908602046FDF7DCFEFFF70FFA87
:10251000F1E700007C00002010B504480068FFF7D8
:102520003FFAFF20FFF750F910BD000080000020A7
:1025300000BF00BF02E01420FFF7C4FB1F48007873
:102540000028F8D01E4800686421B0FBF1F01C4957
:1025500008600846006828B900201A490870FF2062
:10256000FFF758FBFDF7AAFE0446154800686421F2
:102570004843154908602046FDF7A4FE00BFFDF75B
:102580009DFE0446104800681049086000200E496E
:1025900008602046FDF796FE0C4800680849096867
:1025A000B0FBF1F0C0F1640006490870FFF7F9F9DB
:1025B00000F00EF80A20FFF785FBE0E7700000202E
:1025C00068000020640000207C0000206C000020D7
:1025D0007CB5002514E069462846FFF7E3F9064676
:1025E00066B9094850F8254044B1012C06D0D4E919
:1025F000020100EB8100E06401982065681CC5B20F
:10260000FD2DE8D97CBD00007417002002F0010305
:1026100043B102F002032BB102E0491E002308C0BF
:102620000029FAD17047000000205849087048700E
:1026300001205749087000035649086004200871BA
:10264000000388604FF42F60C8609FED530A08466E
:1026500080ED040A9FED510A80ED050A9FED500AB6
:1026600080ED060A9FED4F0A80ED070A9FED4E0AA6
:1026700080ED080A9FED4D0A80ED090A90ED090AE8
:10268000F7EE000A80EE801A80ED0A1A9FED480AE4
:1026900080ED0B0A9FED470A80ED0C0A0C2081F8B3
:1026A00034009FED450A454880ED000A9FED410A40
:1026B00080ED010A9FED3F0A80ED020A9FED3D0A81
:1026C00080ED030A9FED3B0A80ED040A9FED390A75
:1026D00080ED050A9FED370A80ED090A9FED350A66
:1026E00080ED0A0A9FED330A80ED0B0A9FED310A57
:1026F00080ED0D0A9FED2F0A80ED0E0A9FED2E0A48
:1027000080ED060A9FED2E0A80ED070A9FED290A4B
:1027100080ED080A9FED280A2A4880ED000A9FED07
:10272000250A80ED010A9FED230A80ED020A9FED44
:10273000210A80ED030A9FED1F0A80ED040A9FED38
:102740001D0A80ED050A9FED1B0A80ED090A9FED29
:10275000190A80ED0A0A9FED170A80ED0B0A9FED1A
:10276000150A80ED0D0A9FED130A80ED0E0A9FED0C
:10277000160A80ED060A9FED150A80ED070A9FED07
:102780000D0A80ED080A012070470000500000206B
:10279000700C0020A80B0020002019459A992141B7
:1027A000000018420AD72340A55E0043000094426F
:1027B0000000344300000000CDCCCC3D8C0C002048
:1027C0006F12833ACC0C00203333334017B7D13823
:1027D00029B1064A12680243044B1A6004E0034A16
:1027E00012688243014B1A60704700003038024083
:1027F00029B1064A12680243044B1A6004E0034AF6
:1028000012688243014B1A60704700004038024052
:1028100029B1064A12680243044B1A6004E0034AD5
:1028200012688243014B1A60704700002038024052
:1028300029B1064A12680243044B1A6004E0034AB5
:1028400012688243014B1A6070470000443802400E
:1028500029B1064A12680243044B1A6004E0034A95
:1028600012688243014B1A6070470000243802400E
:1028700000BF00BF06E000BF6423002211461046DF
:10288000FFF75EFAF7E7000010B51348007802285A
:1028900002D0022010490870FEF74CF80A200F49B8
:1028A00048638863C863FEF771FCFEF77BF840F26B
:1028B00041600B49C88101460948018241829FED70
:1028C000090A80ED170A9FED070A80ED180A9FEDAF
:1028D000050A80ED190A10BD5000002000000140DB
:1028E000E00B0020000000001D49496F1C4A1167E1
:1028F0001C49096851671146496F126F881A1A49B5
:1029000088420DDA090C014400EE101AB8EEC00A34
:10291000DFED160A80EE201A114981ED1F1A1DE025
:1029200049F6404188420EDD4FF6FF71091A00EE6C
:10293000101AB8EEC00ADFED0D0A80EE201A084921
:1029400081ED1F1A0AE000EE100AB8EEC00ADFEDB2
:10295000070A80EE201A024981ED1F1A7047000015
:10296000E00B002024040040C063FFFF0000204271
:10297000704700000CB500200190009034480068BA
:1029800040F480303249086000BF3148006800F4EC
:10299000003000900198401C0190009818B90198EF
:1029A000B0F5A04FF1D12A48006800F4003010B112
:1029B0000120009001E0002000900098012846D1FD
:1029C00023484030006840F0805021494031086081
:1029D0002048006840F440401E4908601C48083008
:1029E00000681B49083108600846006840F4004050
:1029F00008600846006840F4A05008601648091FA7
:102A00000860081F006840F08070091F086000BF60
:102A10000F48006800F000700028F9D040F20570FF
:102A20000E4908600A480830006820F00300084991
:102A3000083108600846006840F00200086000BFE6
:102A400003480830006800F00C000828F8D10CBDDD
:102A5000003802400070004008544007003C02402B
:102A600030B502460888B0F5805F02DB40F6FF70A3
:102A700008803B48805C042821DA0C8802EB820540
:102A80003748453800EB85054230805C25F810401A
:102A90003348805C401CC4B231488454845CC01EFE
:102AA0008454801F30F812000C88204484B22C48D3
:102AB000093820F8124030F81200801030BD284844
:102AC000C01E805C401CC4B22548C01E8454805C7B
:102AD000042803DB00242248C01E84542048C01E62
:102AE000805C032806D102EB82041D48453830F88B
:102AF00024300AE002EB82041948453800EB8404D4
:102B00004230805C401C34F810300C8802EB8205A7
:102B10001348453800EB85054230805C25F81040AD
:102B200002EB82040E48453800EB84044230805C9E
:102B300034F810400A48093830F81200204484B2B2
:102B40000748093820F8124030F81200C01A84B241
:102B50000348093820F8124030F812008010ADE721
:102B6000390C002027E014480078F0B112480078B2
:102B700001281AD010480078022815D1FFF784FEEA
:102B80004FF4FA73002211461046FFF7D9F80120DE
:102B9000FDF72CFEFEF7D8FAFDF7D3FE012006491B
:102BA00008700220487000E000BF14230022114684
:102BB0001046FFF7C5F8D6E75000002010B51548BD
:102BC000006840F47000134908601348006840F042
:102BD00001001149086000200F49083108600E48C3
:102BE00000680E4908400C4908600D48091D08603E
:102BF000081F006820F48020091F08600020064993
:102C00000C310860FFF7B6FE4FF0006001498039D3
:102C1000086010BD88ED00E000380240FFFFF6FEBE
:102C200010300024F0B50C46154600210022068C19
:102C30004FF6FE773E400684018B028C4FF60C76F1
:102C400031407E1C06EA03162E4331434FF6F576DB
:102C5000324044F00106324301830284F0BDF0B5F6
:102C60000C461546002100220026078C4FF6EF7C0B
:102C700007EA0C070784018B028C4FF6FF7707EAFF
:102C8000041640F6FF4739404FF6FF7707EA03374F
:102C900039434FF6FF7707EA052739434FF65F7749
:102CA0003A4046F010073A4301830284F0BDF0B584
:102CB0000C461546002100220026078C4FF6FF6CBB
:102CC00007EA0C070784818B028C4FF6FF7707EA2F
:102CD00004264FF60C7739404FF6FF7707EA0317C3
:102CE0002F4339434FF2FF573A4046F480773A4337
:102CF00081830284F0BDF0B50C4615460021002208
:102D00000026078C4EF6FF7C07EA0C070784818BB0
:102D1000028C4FF6FF7707EA043640F6FF4739404A
:102D20004FF6FF7707EA052739434FF6FF7707EAA3
:102D30000337394345F6FF773A4046F480573A4324
:102D400081830284F0BD000010B501210B4800F022
:102D5000EAFA70B10A48006840F0010008490860CA
:102D6000FFF7C2FD064800684FF6FE7108400449AF
:102D700008600121014800F0CEF910BD004001407B
:102D8000140802400D48008C4FF6FE7108400B49B4
:102D900008840846008C4FF6FB71084007490884F8
:102DA0000846008B4FF68F71084004490883084697
:102DB000008B40F040000883704700000000014095
:102DC0000C48008B4FF68F7108400A49088308466B
:102DD000008B40F0700008830846008C4FF6FE71AF
:102DE0000840044908840846008C40F00400088428
:102DF00070470000000001400C48008B4FF68F71B7
:102E000008400A4908830846008B40F07000088398
:102E10000846008C40F0010008840846008C4FF6FC
:102E2000FB71084001490884704700000000014020
:102E30000D48008C4FF6EF7108400B490884084696
:102E4000008C4FF6BF710840074908840846008B84
:102E500048F6FF710840044908830846008B40F497
:102E60008040088370470000000001400C48008B40
:102E700048F6FF7108400A4908830846008B40F471
:102E8000E04008830846008C4FF6EF710840044983
:102E900008840846008C40F0400008847047000019
:102EA000000001400C48008B48F6FF7108400A49B9
:102EB00008830846008B40F4E04008830846008CF5
:102EC00040F0100008840846008C4FF6BF7108409F
:102ED0000149088470470000000001400D48008C43
:102EE0004FF6FF6108400B4908840846008C4FF6F6
:102EF000FF310840074908840846808B4FF68F71E0
:102F00000840044988830846808B40F0400088834D
:102F100070470000000001400C48808B4FF68F7115
:102F200008400A4988830846808B40F070008883F7
:102F30000846008C4FF6FF610840044908840846A3
:102F4000008C40F48060088470470000000001405D
:102F50000C48808B4FF68F7108400A4988830846D9
:102F6000808B40F0700088830846008C40F48070AD
:102F700008840846008C4FF6FF3108400149088458
:102F8000704700000000014010B501210B4800F01F
:102F9000CAF990B10A480078401C094908700846EF
:102FA0000078022805D10748FDF7AAFB0020044954
:102FB00008700121014800F0AEF810BD000001408A
:102FC000400000200020014010B52DED028B0121B2
:102FD000880700F0A8F990B31A4890ED000AB8EEFF
:102FE000400ADFED190A20EE200ADFED180A80EE14
:102FF000201AB0EE418AB0EE480AFDF7BDF9F7EEAF
:10300000000AB6EE001A41EE000A1148C0ED000AAF
:103010000C480068401C0B49086008460068B0F581
:10302000FA6F01D300200860B6EE000A094880ED6F
:10303000000AFDF7F5FB0121880700F06CF8BDECF4
:10304000028B10BD44000020DB0F494000007A4491
:103050004C0000208C0C002010B50121144800F019
:1030600062F9D8B11248008800F0100058B1114838
:10307000D0E900104FF6FF73C91A60F100000D4A45
:10308000C2E900100AE00B48D0E900204FF6FF71BA
:10309000511840F10000074AC2E900100821044815
:1030A00000F041F90921024800F035F810BD000098
:1030B00000040040680C002010B50221054800F013
:1030C00032F928B1FEF740F80221024800F023F857
:1030D00010BD00000008004021B1028842F08002CB
:1030E000028004E002884FF67F731A400280704726
:1030F0000A884B881A438B881A43CB881A430B895A
:103100001A434B891A438B891A43A0F8442070470D
:10311000CA4302827047CA430282704721B10288C3
:1031200042F00102028004E002884FF6FE731A406A
:103130000280704731B1B0F8442042F40042A0F858
:10314000442005E0B0F84420C2F30E02A0F8442069
:103150007047000010B504465548844208D101214B
:103160000846FFF775FB00210120FFF771FB9DE08A
:10317000B4F1804F08D101210846FFF749FB002137
:103180000120FFF745FB91E04A48844208D1012124
:103190000220FFF73DFB00210220FFF739FB85E00D
:1031A0004548844208D101210420FFF731FB00216A
:1031B0000420FFF72DFB79E04048844208D101212B
:1031C0000820FFF725FB00210820FFF721FB6DE019
:1031D0003B48844208D101211020FFF719FB002150
:1031E0001020FFF715FB61E03648844208D1012129
:1031F0002020FFF70DFB00212020FFF709FB55E001
:103200003148844208D101210220FFF721FB00212F
:103210000220FFF71DFB49E02C48844209D101211F
:103220000804FFF715FB00214FF48030FFF710FB77
:103230003CE02748844209D101214804FFF708FBFC
:1032400000214FF40030FFF703FB2FE021488442B8
:1032500009D101218804FFF7FBFA00214FF48020F7
:10326000FFF7F6FA22E01C48844208D101214020F1
:10327000FFF7CEFA00214020FFF7CAFA16E0174800
:10328000844208D101218020FFF7C2FA002180206A
:10329000FFF7BEFA0AE01248844207D101218015E7
:1032A000FFF7B6FA0021A015FFF7B2FA10BD000033
:1032B000000001400004004000080040000C0040F5
:1032C0000010004000140040000401400040014094
:1032D000004401400048014000180040001C00402C
:1032E00000200040F0B50C4615461E460021002285
:1032F00000230189028B038C4FF6F8773940214374
:103300004FF6FC473A4040F201173A434FF6DD775B
:103310003B404FF6FF7707EA06172F433B430181F7
:1033200002830384F0BD30B5024600200023002450
:10333000158A05EA0103958905EA010413B10CB168
:10334000012000E0002030BD70B505460C46208805
:1033500050B92389A28861882846FFF763FCE18879
:10336000284600F052F925E0208804280AD1238954
:10337000A28861882846FFF772FCE188284600F0A1
:103380004DF917E0208808280AD12389A28861888E
:103390002846FFF78CFCE188284600F04CF909E04C
:1033A0002389A28861882846FFF7A5FCE188284682
:1033B00000F04AF970BD0021018041800121818027
:1033C0000021C180018170471AB183890B43838139
:1033D00002E083898B4383817047000070B500242D
:1033E00000220023058C4FF6FE7635400584028CC2
:1033F0008388048B4FF68F752C40B51E2C400D88AA
:103400002C43751E2A408D892A434D882A43104D2E
:10341000A84202D00F4DA84213D14FF6F7752A40AB
:10342000CD892A434FF6FB752A408D882A434FF6F3
:10343000FF652B404FF6FF552B400D8A2B434D8ADD
:103440002B43838004838D684563028470BD000034
:1034500000000140000401400A460021018B4FF6A4
:10346000F7731940114301837047000070B50024C1
:1034700000220023058C4FF6EF7635400584028C40
:103480008388048B48F6FF752C404FF6FF452C408F
:103490000D884FF6FF7606EA05252C434FF6DF75BB
:1034A0002A408D8906EA05152A434D8806EA051546
:1034B0002A43154DA84202D0144DA8421DD14FF603
:1034C0007F752A40CD894FF6FF7606EA05152A4317
:1034D0004FF6BF752A408D8806EA05152A434FF638
:1034E000FF352B404FF2FF752B400D8A06EA85050C
:1034F0002B434D8A06EA85052B43838004838D6820
:103500008563028470BD000000000140000401409A
:103510000A460021018B4FF2FF7319404FF6FF73EB
:1035200003EA0223194301837047000070B50024A9
:1035300000220023058C4FF6FF6635400584028C7F
:103540008388848B4FF68F752C404FF6FC752C408A
:103550000D882C434FF6FF552A408D894FF6FF7694
:1035600006EA05252A434D8806EA05252A43154D16
:10357000A84202D0144DA8421DD14FF2FF752A4037
:10358000CD894FF6FF7606EA05252A434FF6FF352B
:103590002A408D8806EA05252A434EF6FF752B4002
:1035A0004DF6FF752B400D8A06EA05152B434D8A13
:1035B00006EA05152B43838084838D68C5630284E6
:1035C00070BD000000000140000401400A460021D7
:1035D000818B4FF6F77319401143818370470021A7
:1035E00001804180818081608181C181018241822D
:1035F000704721B1828842F08002828004E0828894
:103600004FF67F731A4082807047028B4FF6F37338
:103610001A400283028B0A4302837047028B4FF2E7
:10362000FF331A400283028B4FF6FF7303EA012334
:103630001A4302837047828B4FF6F3731A408283DA
:10364000828B0A4382837047828B4FF2FF331A408A
:103650008283828B4FF6FF7303EA01231A4382832E
:103660007047000000220288184B98420ED0184B79
:1036700098420BD0B0F1804F08D0164B984205D03D
:10368000154B984202D0154B984204D14FF68F73D8
:103690001A404B881A43124B984207D0114B98425C
:1036A00004D04FF6FF431A400B891A4302804B683F
:1036B000C3620B880385054B984202D0044B9842A5
:1036C00001D18B7A03860123838270470000014079
:1036D000000401400004004000080040000C0040CD
:1036E00000100040001400404FF0FF314160002105
:1036F00001800181418081727047000000B58DB06A
:1037000001210846FFF794F83E48FFF723FD00200B
:10371000ADF830002020ADF82A0041F267000B9090
:103720000020ADF828008DF832000AA93548FFF7CF
:1037300099FF05A8FFF753FF7020ADF81400002093
:10374000ADF82400ADF826000220ADF820000820D6
:10375000ADF822000120ADF816000420ADF81800E5
:103760000A20079005A92748FFF738FE08212548B9
:10377000FFF772FE0A20079005A92248FFF776FEA0
:1037800008212048FFF7C4FE0A20079005A91D481C
:10379000FFF7CCFE08211B48FFF718FF012119484D
:1037A000FFF7B6FC012211461648FFF70DFE002078
:1037B000ADF804004FF48060ADF806000020ADF8CD
:1037C0000800E020ADF80A000020ADF80C004FF42E
:1037D0000050ADF80E004000ADF8100001A90948F6
:1037E000FFF786FCFDF7D2FC01210648FFF774FCC9
:1037F00001210448FFF792FC01210248FFF79AFCDF
:103800000DB000BD000001400EB501210846FEF7D5
:10381000EFFF4FF08040FFF79DFC6846FFF764FF25
:103820000020ADF80800ADF8020040F2A3100190AE
:103830000920ADF8000069468007FFF713FF00215B
:103840004FF08040FFF76AFC01218807FFF760FC1A
:10385000012211469007FFF7B7FD0EBD00B587B0F6
:1038600001210220FEF7C4FF2B48FFF773FC04A8D8
:10387000FFF73AFF0020ADF81200ADF818004FF640
:10388000FF7005900020ADF8100004A92248FFF752
:10389000E9FE0A231A4603211F48FFF723FD01A86A
:1038A000FFF789FD0020ADF804000220ADF80C0000
:1038B00001A91948FFF748FD0420ADF804000220D3
:1038C000ADF80C0001A91448FFF73EFD0820ADF843
:1038D00004000020ADF806000120ADF8080000202B
:1038E000ADF80C00ADF80A0001A90B48FFF72CFD5C
:1038F00001210948FFF70CFC012209210648FFF7C6
:1039000063FD002004492431086001210248FFF7CB
:1039100005FC07B000BD00000004004000B587B002
:1039200001210420FEF764FF0020ADF81800ADF877
:1039300012004FF6FF7005900020ADF8100004A9AA
:103940001A48FFF78FFE0020ADF804000A20ADF8FA
:1039500006000020ADF80C00ADF80A000120ADF81B
:10396000080001A91148FFF7EFFC0420ADF804009E
:1039700001A90E48FFF7E8FC0820ADF8040001A9F2
:103980000A48FFF7E1FC01210848FFF732FE022157
:103990000648FFF7BDFB012202210448FFF714FD92
:1039A00001210248FFF7BAFB07B000BD0008004044
:1039B000704700000EB501210804FEF739FF1248D8
:1039C000FFF7C8FB6846FFF78FFE4FF48070ADF835
:1039D00008000020ADF8020042F2CF000190132051
:1039E000ADF8000069460848FFF73CFE0021064894
:1039F000FFF794FB01210448FFF78AFB01221146DF
:103A00000148FFF7E1FC0EBD0040014000BFFEE7AA
:103A100030B5034600214FF0E024A2690020A8241D
:103A2000634300BF4FF0E024A069904202DA8C1893
:103A3000211A05E08C184FF0E0256D692C44211AFD
:103A400002469942EED330BD00B585B04FF4A06078
:103A5000FDF7D4FCFEF7E8FDFCF7AAFEFDF764FDD8
:103A60000020FDF7DDFD0E4908600020FDF7D8FDC0
:103A70000C490860072000214FF480720A4BCDE901
:103A80000132CDE9031032200346084A009008486D
:103A9000FDF73CFEFDF7EEFD002005B000BD000087
:103AA0000000002004000020A4070020A00B00203C
:103AB0000D0700084FF00000E1EE100A7047000209
:103AC00001020000010001000002010201000000EB
:103AD000785634120100140001003000C0030100C8
:103AE000010010001400020005000100FD000100AB
:103AF0000100050001001800780001000400010029
:103B00000400180010000100040001000100010081
:103B1000800001001600010001008000010001008A
:103B20000100FE005C00640001001B720000100038
:103B3000010007000A000000000000000000271537
:103B4000000001000200010003000100020001006A
:103B50000400010002000100030001000200010056
:103B60000500010002000100030001000200010045
:103B70000400010002000100030001000200010036
:103B80000600010002000100030001000200010024
:103B90000400010002000100030001000200010016
:103BA0000500010002000100030001000200010005
:103BB00004000100020001000300010002000100F6
:103BC00007000100020001000300010002000100E3
:103BD00004000100020001000300010002000100D6
:103BE00005000100020001000300010002000100C5
:103BF00004000100020001000300010002000100B6
:103C000006000100020001000300010002000100A3
:103C10000400010002000100030001000200010095
:103C20000500010002000100030001000200010084
:103C30000400010002000100030001000200010075
:103C400000000000920E493CB10AC93C2BC3163D4E
:103C50002EFB483D752B7B3D04A9963D80B6AF3DBC
:103C600036BDC83D2FBCE13D73B2FA3D87CF093E5A
:103C70008340163EB5AB223EA2102F3ECF6E3B3E98
:103C8000C2C5473E0115543E135C603E7F9A6C3EB0
:103C9000CCCF783EC07D823E938E883E229A8E3E67
:103CA00032A0943E86A09A3EE59AA03E128FA63E90
:103CB000D47CAC3EEF63B23E2A44B83E491DBE3EC2
:103CC00015EFC33E53B9C93ECA7BCF3E4136D53E00
:103CD00080E8DA3E4F92E03E7533E63EBBCBEB3EEA
:103CE000EA5AF13ECBE0F63E275DFC3EE4E7003FBA
:103CF0003D9C033F824B063F9BF5083F6B9A0B3F71
:103D0000DA390E3FCDD3103F2A68133FD9F6153F5D
:103D1000C07F183FC6021B3FD17F1D3FCBF61F3F20
:103D20009967223F25D2243F5636273F1594293FD5
:103D30004AEB2B3FDE3B2E3FBB85303FC9C8323FAD
:103D4000F304353F233A373F4268393F3B8F3B3FCF
:103D5000F9AE3D3F67C73F3F70D8413F01E2433F67
:103D600003E4453F65DE473F12D1493FF8BB4B3F77
:103D7000029F4D3F207A4F3F3D4D513F4918533FE1
:103D800031DB543FE595563F5348583F6AF2593F5F
:103D90001A945B3F532D5D3F05BE5E3F2146603F59
:103DA00097C5613F5A3C633F59AA643F880F663FFD
:103DB000D86B673F3CBF683FA7096A3F0C4B6B3F1E
:103DC0005E836C3F93B26D3F9ED86E3F73F56F3F3D
:103DD0000809713F5213723F4714733FDD0B743F64
:103DE0000BFA743FC6DE753F07BA763FC58B773F47
:103DF000F853783F9812793F9DC7793F02737A3F15
:103E0000BE147B3FCDAC7B3F283B7C3FC9BF7C3F92
:103E1000AC3A7D3FCCAB7D3F23137E3FB0707E3FFD
:103E20006DC47E3F580E7F3F6D4E7F3FAB847F3F1A
:103E30000FB17F3F97D37F3F43EC7F3F11FB7F3F25
:103E40000000803F11FB7F3F43EC7F3F97D37F3FD4
:103E50000FB17F3FAB847F3F6D4E7F3F580E7F3F5A
:103E60006DC47E3FB0707E3F23137E3FCCAB7D3F61
:103E7000AC3A7D3FC9BF7C3F283B7C3FCDAC7B3F0C
:103E8000BE147B3F02737A3F9DC7793F9812793FFA
:103E9000F853783FC58B773F07BA763FC6DE753F4C
:103EA0000BFA743FDD0B743F4714733F5213723F9C
:103EB0000809713F73F56F3F9ED86E3F93B26D3F17
:103EC0005E836C3F0C4B6B3FA7096A3F3CBF683F6A
:103ED000D86B673F880F663F59AA643F5A3C633FDF
:103EE00097C5613F2146603F05BE5E3F532D5D3F54
:103EF0001A945B3F6AF2593F5348583FE595563F45
:103F000031DB543F4918533F3D4D513F207A4F3FDD
:103F1000029F4D3FF8BB4B3F12D1493F65DE473F03
:103F200003E4453F01E2433F70D8413F67C73F3F4D
:103F3000F9AE3D3F3B8F3B3F4268393F233A373F25
:103F4000F304353FC9C8323FBB85303FDE3B2E3FCF
:103F50004AEB2B3F1594293F5636273F25D2243F65
:103F60009967223FCBF61F3FD17F1D3FC6021B3F03
:103F7000C07F183FD9F6153F2A68133FCDD3103FB5
:103F8000DA390E3F6B9A0B3F9BF5083F824B063F99
:103F90003D9C033FE4E7003F275DFC3ECBE0F63E5F
:103FA000EA5AF13EBBCBEB3E7533E63E4F92E03E24
:103FB00080E8DA3E4136D53ECA7BCF3E53B9C93E92
:103FC00015EFC33E491DBE3E2A44B83EEF63B23EE4
:103FD000D47CAC3E128FA63EE59AA03E86A09A3EC7
:103FE00032A0943E229A8E3E938E883EC07D823EC1
:103FF000CCCF783E7F9A6C3E135C603E0115543EF8
:10400000C2C5473ECF6E3B3EA2102F3EB5AB223E0F
:104010008340163E87CF093E73B2FA3D2FBCE13D87
:1040200036BDC83D80B6AF3D04A9963D752B7B3D9E
:104030002EFB483D2BC3163DB10AC93C920E493CAC
:1040400000000000920E49BCB10AC9BC2BC316BDCA
:104050002EFB48BD752B7BBD04A996BD80B6AFBDB8
:1040600036BDC8BD2FBCE1BD73B2FABD87CF09BE56
:10407000834016BEB5AB22BEA2102FBECF6E3BBE94
:10408000C2C547BE011554BE135C60BE7F9A6CBEAC
:10409000CCCF78BEC07D82BE938E88BE229A8EBE63
:1040A00032A094BE86A09ABEE59AA0BE128FA6BE8C
:1040B000D47CACBEEF63B2BE2A44B8BE491DBEBEBE
:1040C00015EFC3BE53B9C9BECA7BCFBE4136D5BEFC
:1040D00080E8DABE4F92E0BE7533E6BEBBCBEBBEE6
:1040E000EA5AF1BECBE0F6BE275DFCBEE4E700BFB6
:1040F0003D9C03BF824B06BF9BF508BF6B9A0BBF6D
:10410000DA390EBFCDD310BF2A6813BFD9F615BF59
:10411000C07F18BFC6021BBFD17F1DBFCBF61FBF1C
:10412000996722BF25D224BF563627BF159429BFD1
:104130004AEB2BBFDE3B2EBFBB8530BFC9C832BFA9
:10414000F30435BF233A37BF426839BF3B8F3BBFCB
:10415000F9AE3DBF67C73FBF70D841BF01E243BF63
:1041600003E445BF65DE47BF12D149BFF8BB4BBF73
:10417000029F4DBF207A4FBF3D4D51BF491853BFDD
:1041800031DB54BFE59556BF534858BF6AF259BF5B
:104190001A945BBF532D5DBF05BE5EBF214660BF55
:1041A00097C561BF5A3C63BF59AA64BF880F66BFF9
:1041B000D86B67BF3CBF68BFA7096ABF0C4B6BBF1A
:1041C0005E836CBF93B26DBF9ED86EBF73F56FBF39
:1041D000080971BF521372BF471473BFDD0B74BF60
:1041E0000BFA74BFC6DE75BF07BA76BFC58B77BF43
:1041F000F85378BF981279BF9DC779BF02737ABF11
:10420000BE147BBFCDAC7BBF283B7CBFC9BF7CBF8E
:10421000AC3A7DBFCCAB7DBF23137EBFB0707EBFF9
:104220006DC47EBF580E7FBF6D4E7FBFAB847FBF16
:104230000FB17FBF97D37FBF43EC7FBF11FB7FBF21
:10424000000080BF11FB7FBF43EC7FBF97D37FBFD0
:104250000FB17FBFAB847FBF6D4E7FBF580E7FBF56
:104260006DC47EBFB0707EBF23137EBFCCAB7DBF5D
:10427000AC3A7DBFC9BF7CBF283B7CBFCDAC7BBF08
:10428000BE147BBF02737ABF9DC779BF981279BFF6
:10429000F85378BFC58B77BF07BA76BFC6DE75BF48
:1042A0000BFA74BFDD0B74BF471473BF521372BF98
:1042B000080971BF73F56FBF9ED86EBF93B26DBF13
:1042C0005E836CBF0C4B6BBFA7096ABF3CBF68BF66
:1042D000D86B67BF880F66BF59AA64BF5A3C63BFDB
:1042E00097C561BF214660BF05BE5EBF532D5DBF50
:1042F0001A945BBF6AF259BF534858BFE59556BF41
:1043000031DB54BF491853BF3D4D51BF207A4FBFD9
:10431000029F4DBFF8BB4BBF12D149BF65DE47BFFF
:1043200003E445BF01E243BF70D841BF67C73FBF49
:10433000F9AE3DBF3B8F3BBF426839BF233A37BF21
:10434000F30435BFC9C832BFBB8530BFDE3B2EBFCB
:104350004AEB2BBF159429BF563627BF25D224BF61
:10436000996722BFCBF61FBFD17F1DBFC6021BBFFF
:10437000C07F18BFD9F615BF2A6813BFCDD310BFB1
:10438000DA390EBF6B9A0BBF9BF508BF824B06BF95
:104390003D9C03BFE4E700BF275DFCBECBE0F6BE5B
:1043A000EA5AF1BEBBCBEBBE7533E6BE4F92E0BE20
:1043B00080E8DABE4136D5BECA7BCFBE53B9C9BE8E
:1043C00015EFC3BE491DBEBE2A44B8BEEF63B2BEE0
:1043D000D47CACBE128FA6BEE59AA0BE86A09ABEC3
:1043E00032A094BE229A8EBE938E88BEC07D82BEBD
:1043F000CCCF78BE7F9A6CBE135C60BE011554BEF4
:10440000C2C547BECF6E3BBEA2102FBEB5AB22BE0B
:10441000834016BE87CF09BE73B2FABD2FBCE1BD83
:1044200036BDC8BD80B6AFBD04A996BD752B7BBD9A
:104430002EFB48BD2BC316BDB10AC9BC920E49BCA8
:10444000000000806444000800000020A400000078
:10445000C401000808450008A4000020EC29000061
:10446000E00100080000000000000000D112000878
:1044700019110008E9100008F910000829110008B6
:104480000911000839110008D1120008391100087B
:104490000911000829110008F9100008E9100008A6
:1044A00019110008000000000000000000000000DA
:1044B00000000000000000000000000000000000FC
:1044C00000000000000000000000000000000000EC
:1044D00000000000000000000000000000000000DC
:1044E00000000000000000000000000000000000CC
:1044F00000000000000000000000000000000000BC
:084500000000000000000000B3
:040000050800018965
:00000001FF
