:020000040800F2
:100000004825002029020008C70F0008610F0008DA
:10001000C30F0008850700089930000800000000A1
:10002000000000000000000000000000572300084E
:10003000410B00080000000007030008011B000836
:1000400063020008630200086302000863020008FC
:1000500063020008630200086302000863020008EC
:1000600063020008630200086302000863020008DC
:1000700063020008630200086302000863020008CC
:1000800063020008630200086302000863020008BC
:1000900063020008630200086302000863020008AC
:1000A00063020008D5270008630200086302000805
:1000B000F9270008630200081528000863020008F9
:1000C000630200086302000863020008630200087C
:1000D000630200086302000863020008630200086C
:1000E000630200086302000863020008630200085C
:1000F000630200086302000863020008630200084C
:10010000630200086302000863020008630200083B
:10011000630200086302000863020008630200082B
:1001200089070008630200086302000863020008F0
:10013000630200086302000863020008630200080B
:1001400063020008630200086302000863020008FB
:1001500063020008630200086302000863020008EB
:1001600063020008630200086302000863020008DB
:1001700063020008630200086302000863020008CB
:10018000630200086302000800F002F800F03CF887
:100190000AA090E8000C82448344AAF10107DA45E2
:1001A00001D100F031F8AFF2090EBAE80F0013F0F8
:1001B000010F18BFFB1A43F001031847CC300000B1
:1001C000EC300000103A24BF78C878C1FAD8520742
:1001D00024BF30C830C144BF04680C6070470000C1
:1001E0000023002400250026103A28BF78C1FBD840
:1001F000520728BF30C148BF0B6070471FB502F0DF
:1002000083FF1FBD10B510BD00F0B9F81146FFF710
:10021000F5FF02F043FF00F0D7F803B4FFF7F2FF59
:1002200003BC00F0DBF8000011488047DFF8440011
:10023000016841F470010160BFF34F8FDFF83800AF
:10024000016821F040410160BFF36F8F0B48004708
:10025000FEE7FEE7FEE7FEE7FEE7FEE7FEE7FEE776
:10026000FEE7FEE706480749074A084B70470000CB
:100270004524000888ED00E034EF00E08901000823
:10028000481F002048250020482100204821002048
:10029000EFF3098141B1F1EE101A40F8041D20ED91
:1002A000200A2C490A6810607047B0EC200A02C886
:1002B000E1EE101A28490A6810607047EFF31080C9
:1002C00072B6704780F31088704724484FF0FF01E2
:1002D0000170002080F309882148016881F30888B3
:1002E00020480121017020484FF08051016062B622
:1002F000FEE71D484FF08051016070471A484FF0EB
:1003000080510160704772B6EFF3098040B1403808
:1003100080EC108A203880E8F00F0E4909680860E8
:1003200000B5124880475DF804EB114811490A787E
:100330000270084808490A680260106890E8F00FE7
:10034000203090EC108A403080F309884EF0F40E93
:1003500062B67047340000203C00002022ED00E02F
:10036000080000202C00002004ED00E02D190008FA
:10037000270000202800002070477047704775460E
:1003800000F028F8AE4605006946534620F0070005
:10039000854618B020B5FFF765FFBDE820404FF057
:1003A00000064FF000074FF000084FF0000B21F05F
:1003B0000701AC46ACE8C009ACE8C009ACE8C0092C
:1003C000ACE8C0098D4670470446AFF30080204674
:1003D000FFF723FF00487047E81E0020014918205E
:1003E000ABBEFEE726000200704721B1826842F0F2
:1003F0000102826003E0826822F00102826070479D
:100400000021084A1168084A1140D0E900231A4324
:1004100083681A43C3681A431143044AC2F8041399
:100420007047000004230140E030FCFF0020014041
:1004300021B1826842F48072826003E0826822F413
:1004400080728260704721B1826842F400728260DB
:1004500003E0826822F400728260704700B599B0B0
:100460000121880501F01EFF424800F041FA0020FA
:1004700000904148019041480290002003902020C4
:100480000490002005904FF4806006904000079093
:10049000800008904011099040020A9000200B90C3
:1004A00001200C9000200D900E906946314800F01C
:1004B0001BFB01212F4800F00FFA0121080201F077
:1004C00021FF00F05DF8002011900F904FF4803074
:1004D0001090002012900FA8FFF792FF00201390B9
:1004E00001208DF8500000208DF8510016901790D3
:1004F00004208DF8600013A91F484C3800F04CF818
:1005000001231A4604211C484C3800F06FF80123DF
:100510000222052118484C3800F068F80123032214
:10052000062115484C3800F061F801230422072108
:1005300011484C3800F05AF810210E4800F0B2F97A
:10054000012210210B4800F0B1FA01210A484C3871
:10055000FFF779FF012108484C38FFF769FF0121B7
:1005600005484C38FFF741FF03484C3800F09AF833
:1005700019B000BD106402404C2001408C070020DF
:1005800010B50121080201F0CDFE00214FF480706A
:1005900001F0C8FE10BD000030B502460020002367
:1005A0005068104C20400D790C6844EA0524204323
:1005B000506090680C4C2040D1E903542C438D6866
:1005C0002C434D7944EA450420439060D06A20F4DE
:1005D00070000C7D641EE4B2234340EA0350D062F5
:1005E00030BD0000FFFEFFFCFDF7FFC0F0B5044684
:1005F0000D4600200021092D11DDE068A5F10A0655
:1006000006EB4607072606FA07F18843A5F10A0616
:1006100006EB460603FA06F10843E0600CE02069A9
:1006200005EB4507072606FA07F1884305EB450663
:1006300003FA06F108432061072A0FDA606B561EA1
:1006400006EB86071F2606FA07F18843561E06EBBF
:10065000860605FA06F10843606322E00D2A0FDAE8
:10066000206BD61F06EB86071F2606FA07F1884384
:10067000D61F06EB860605FA06F10843206310E054
:10068000E06AA2F10D0606EB86071F2606FA07F1BF
:100690008843A2F10D0606EB860605FA06F108432B
:1006A000E062F0BD816841F08041816070470000E8
:1006B00010B586B004461A4801F036FA4FF4FA73C2
:1006C00000221146104601F071F90320002140225A
:1006D000144BCDE90132CDE9031031200346114A14
:1006E000FC320090104800F047FE032000218022D9
:1006F0000E4BCDE90132CDE90310062003460C4A2A
:1007000000900C4800F038FE012000F023F800F0C3
:100710001FFC00F0A5FBFF2000F08CFE06B010BD12
:1007200080A21900580200209D0F000858000020E8
:10073000540200204523000810B500F045FC00F0ED
:1007400001FA02F089FB02F011FC02F05BFCFFF7FA
:1007500085FE10BD30B90A49096841F40051084AC4
:1007600011600AE0012807D1054909684DF6FF72BA
:100770001140034A116000E0704700BFFCE7000031
:100780001408024000BFFEE710B54149414800F09F
:100790005BF900287BD0404800883F49098908441C
:1007A0003D49098A08443C49098B0844C0F38F003D
:1007B0003949A1F84000084640884989084436492B
:1007C000498A08443449498B0844C0F38F003249B0
:1007D000A1F8420008468088898908442E49898A00
:1007E00008442D49898B0844C0F38F002A49A1F899
:1007F00044000846C088C98908442749C98A084472
:100800002549C98B0844C0F38F002349A1F846004D
:100810000846B0F8400000EE100AB8EE400ADFEDDE
:100820001F0A20EE200A084680ED120AB0F84200A6
:10083000A0F2416000EE100AB8EEC00ADFED180A1F
:1008400020EE200A084680ED130AB0F84400A0F21A
:10085000416000EE100AB8EEC00ADFED110A20EE8A
:10086000200A084680ED140AB0F84600A0F2416064
:1008700000EE100AB8EEC00ADFED090A20EE200AE9
:10088000084680ED150A0249024800F00BF810BD39
:1008900020800010106402408C070020A7E1F23B8A
:1008A000FFFF243C0246094B9A4201D2084801E06E
:1008B0000648103801F000531BB1064B0B40C360D3
:1008C00002E0044B0B40836070470000106402405C
:1008D000006002407D0F7D0F21B1026842F00102ED
:1008E000026003E0026822F001020260704700002B
:1008F000016821F001010160002101604160816017
:10090000C1600161212141614A49884204D13D21F0
:10091000484A103A91608CE046491831884205D126
:100920004FF47461434A103A916082E0414930319A
:10093000884205D14FF474113E4A103A916078E034
:100940003C494831884205D14FF07461394A103A28
:1009500091606EE037496031884204D13649354AAA
:10096000103AD16065E033497831884204D1334987
:10097000304A103AD1605CE02E499031884204D16F
:100980002F492C4A103AD16053E02A49A8318842B5
:1009900005D14FF03D51274A103AD16049E029492D
:1009A000884204D13D21274A083A116041E0254997
:1009B0001831884205D14FF47461224A083A116017
:1009C00037E020493031884205D14FF474111D4A77
:1009D000083A11602DE01B494831884205D14FF09B
:1009E0007461184A083A116023E016496031884260
:1009F00004D11149134A121F11601AE011497831CC
:100A0000884204D10D490F4A121F116011E00D49AF
:100A10009031884204D10A490A4A121F116008E045
:100A20000849A831884204D14FF03D51054A121FB0
:100A300011607047106002403D000020400F002010
:100A400000003D201064024070B5024600200024E2
:100A50000025124EB24201D2114B01E00F4B103B68
:100A6000104E0E4036B11E2606EAD124166806EA5C
:100A7000040502E0566906F0800501F000560EB14B
:100A80005C6800E01C68084E344004EA010616B1B8
:100A90000DB1012000E0002070BD00001064024094
:100AA000006002403C0F3C0F7D0F7D0F10B501F040
:100AB00080034BB122B1436943F08003436103E0FB
:100AC000436923F08003436180290BD02AB1036876
:100AD00001F01E042343036004E0036801F01E04D8
:100AE000A343036010BD000010B500220268134B41
:100AF0001A40CC680B6823434C6923438C69234319
:100B0000CC6923430C6A23434C6A23438C6A2343F6
:100B10004C6B23438C6B23431A430260426922F0DF
:100B20000702D1E90B3423431A4342610B69436046
:100B30004B6883608B68C36010BD00003F801CF071
:100B4000704700001CB50121072001F0ABFB68468F
:100B500000F07DF901208DF8040000208DF80600DA
:100B60004FF40070009000208DF807008DF805000C
:100B700069467D4800F0FEF84FF400717A4800F0B5
:100B800064F9684600F063F902208DF80400002043
:100B90008DF806004FF4E060009002208DF8070009
:100BA0008DF805006946714800F0E4F8012208213B
:100BB0006E4800F027F9012209216C4800F022F963
:100BC00001220A21694800F01DF94FF4E0616748ED
:100BD00000F03BF9684600F03AF902208DF8040075
:100BE00000208DF806004FF46040009002208DF840
:100BF00007008DF8050069465B4800F0BBF801224C
:100C00000D21594800F0FEF801220E21564800F04F
:100C1000F9F801220F21544800F0F4F84FF4604134
:100C2000514800F012F9684600F011F902208DF8E1
:100C300004004FF4E070009001208DF807000320BD
:100C40008DF8050069464A4800F094F80222062112
:100C5000474800F0D7F802220721454800F0D2F8B3
:100C600002220821424800F0CDF8684600F0EFF873
:100C700002208DF8040000208DF806004FF4E0708B
:100C8000009001208DF8070002208DF805006946CC
:100C9000354800F06FF802220621334800F0B2F820
:100CA00002220721304800F0ADF8022208212E4828
:100CB00000F0A8F8684600F0CAF803208DF8040098
:100CC000F020009000208DF807006946274800F0CA
:100CD00051F8684600F0BBF801208DF804000020B0
:100CE0008DF806004FF40050009000208DF80700AA
:100CF0008DF8050069461E4800F03CF84FF400519D
:100D00001B4800F0A2F8684600F0A1F800208DF81A
:100D100004004FF44040009000208DF807008DF84B
:100D200005006946124800F025F84FF4404110488C
:100D300000F08BF8684600F08AF801208DF8040076
:100D400000208DF806000120009000208DF807009B
:100D50008DF805006946064800F00CF801210448AA
:100D600000F073F81CBD00000004024000000240C7
:100D700000080240F0B50A4600210023002400BF0D
:100D80003DE0012505FA01F3156805EA03049C42DC
:100D900034D105684F000326BE40B5430560157980
:100DA0004E00B5400668354305601579012D02D027
:100DB0001579022D16D185684F000326BE40B54334
:100DC000856055794E00B540866835438560456835
:100DD00001268E40B5434560456896798E40B6B28F
:100DE00035434560C5684F000326BE40B543C56026
:100DF000D5794E00B540C6683543C560491C1029F9
:100E0000BFD3F0BDF0B5002300244D07ED0E02FA6C
:100E100005F3CE1000F1200555F826504E07F70EC9
:100E20000F26BE40B543CF1000F1200646F82750EC
:100E3000CE1000F1200555F8265045EA0304CE10E7
:100E400000F1200545F82640F0BD418370474FF67C
:100E5000FF7101600021017141718171C1717047A1
:100E600010B500F075F8044638480078002833D1F2
:100E7000072C2FD2DFE804F02E2719200B041200D4
:100E800001F0C4FB01F034FC01F04EFC23E001F062
:100E9000BDFB01F0F3FB01F081FC1CE001F098FBCD
:100EA00001F00AFC01F07AFC15E001F0CBFB01F047
:100EB00003FC01F039FC0EE001F0C4FB01F0DEFBA5
:100EC00001F050FC07E001F083FB01F011FC01F0A0
:100ED00049FC00E000BF37E01C480078012833D10E
:100EE000072C2FD2DFE804F02E1927200B12040064
:100EF00001F06EFB01F0FCFB01F034FC23E001F09B
:100F0000A1FB01F0BBFB01F02DFC1CE001F09AFB02
:100F100001F0D2FB01F008FC15E001F059FB01F0F3
:100F2000CBFB01F03BFC0EE001F070FB01F0A6FBF7
:100F300001F034FC07E001F069FB01F0D9FB01F09E
:100F4000F3FB00E000BF00BF10BD0000E40700207D
:100F500002490968C1F38210704700001004024082
:100F600000BFFEE710B501F051FB01F0A5FB01F059
:100F7000F9FB10BD034800684FF6FF5108400149D6
:100F800008607047140402400348006840F4007091
:100F900001490860704700001404024010E0FFF7A8
:100FA000E9FF4FF4487300221146104600F0FEFCA2
:100FB000FFF7EAFF322300221146104600F0F6FC4C
:100FC000EDE700BFFEE7704708B519208DF8000077
:100FD00000208DF801008DF8020001208DF803003B
:100FE000684600F02BF81E208DF8000000208DF8D8
:100FF000010001208DF802008DF80300684600F022
:101000001DF81C208DF8000000208DF80100022042
:101010008DF8020001208DF80300684600F00EF8FC
:1010200038208DF8000001208DF801008DF80200B5
:101030008DF80300684600F001F808BD70B5002186
:1010400000230F22C4781CB3174C246804F4E06416
:10105000C4F5E064C4F30721C1F10404E3B20A411A
:1010600044789C40E1B28478144021430C07210E5F
:101070000E4C05786155047804F01F050124AC403E
:1010800005786D11AD0005F1E025C5F8004109E0D6
:10109000047804F01F050124AC40054D0678761154
:1010A00045F8264070BD00000CED00E000E400E0D3
:1010B00080E100E002490143024A116070470000EC
:1010C0000000FA050CED00E01748184818481948C8
:1010D00019481A481A481B481B481C481C481D48F8
:1010E0001D481E481E481F481F48204820482148C8
:1010F0002148224822482348234824482448254898
:101100002548264826482748274828482848294867
:1011100029482A482A482B482B482C482C482D4837
:101120002D482E4800BF70471431000818310008C0
:101130001E310008203100081C310008223100084F
:101140002431000826310008283100082A3100081F
:101150002C3100082E3100083031000832310008EF
:101160003431000836310008383100083A310008BF
:101170003C3100083E31000840310008423100088F
:101180004431000846310008483100084A3100085F
:101190004C3100084E31000850310008523100082F
:1011A0005431000856310008583100085A310008FF
:1011B0005C3100085E3100086031000862310008CF
:1011C00064310008663100086A3100086C3100089B
:1011D0006E31000870310008723100088631000855
:1011E00010B500F017F800F06BFD00F097FD00F06F
:1011F000B9FD00F035FD00F0F5FC00F04DFE00F00B
:1012000077FE00F0EFFD00F015FE00F01BF8FFF791
:101210005BFF10BD0848802102E0491E002204C087
:101220000029FAD1054A064B1A601A46126822F0C4
:1012300007021A607047000000080020000A002022
:10124000080000207047000010B500241A480078FC
:10125000012830D1FFF732F804461848007820B151
:1012600016480078401E1549087014480078F8B9EF
:1012700013480078E0B900F09DFE12481249097841
:1012800050F82100114908600F480078104909788A
:1012900088420DD00D480068006C401C0B4909685D
:1012A00008640C480068401C0A490860FFF726F8EB
:1012B0002046FFF707F810BD2C0000202500002075
:1012C0002600002030120020280000203C000020D2
:1012D000270000200C00002070B5054600261048AD
:1012E000007808B1002070BDFEF7E8FF06460D4803
:1012F0000468006820B10B4800684068094908602C
:101300003046FEF7DFFF4CB103202070258100201E
:10131000606005A0E062204600F055FC2046E2E750
:1013200025000020100000203F00000010B50B48F1
:10133000007890B900F03EFE09480078094908702D
:1013400009480749097850F821000849086008460B
:10135000006807490860FEF7B8FF10BD2C000020A8
:101360002800002027000020301200203C00002030
:1013700034000020704700002DE9F04F85B0814611
:101380008A4693461C46DDE90F78129D00200390A3
:10139000FEF794FF03902348007830B10398FEF7DE
:1013A00091FF3C2005B0BDE8F08F1F4850F82400A5
:1013B00088BB01201C4941F824000398FEF782FFF6
:1013C0002A464146384600F057FF2B465A465146BA
:1013D000484600F061F904901198CDE9008002952B
:1013E0003A4620460E9B049900F014FE064636B994
:1013F0000E48007801280CD100F0A2FD09E0FEF7AC
:101400005DFF03900020084941F824000398FEF78F
:1014100059FF3046C6E7FFE70398FEF753FF282041
:10142000C0E7000025000020301200202C00002022
:10143000704700002DE9F041054600274B48007831
:1014400010B14020BDE8F081FD2D01D13E20F9E72B
:10145000FEF734FF0746FF2D03D14548006890F89A
:101460003650444850F8254024B93846FEF72AFF44
:101470004320E7E7012C04D13846FEF723FF3D2047
:10148000E0E714F8380F3C4931F8100061888843D0
:101490002178394A22F8110014F83809114631F838
:1014A000100028B9A18F3548008888433349088047
:1014B000E06918B12046E16900F04FFB206A18B1DD
:1014C0002046216A00F061FBA66A16B1304600F0A2
:1014D000B5FB0020206384F8340084F835002848E8
:1014E0000078FF2804D226480078401C2449087060
:1014F0003846FEF7E7FE00F02FFBFEF7DFFE07465B
:101500001F48007820B11E480078401E1C49087012
:10151000204600F041F81B480078401E1949087029
:101520000020144941F82500A06930B90020616904
:10153000886115496069086005E0D4E905014861E2
:10154000D4E9051088611148006860610F480460A3
:101550000FA060653846FEF7B5FE0E4800780128FA
:1015600001D100F0EDFC00206CE700002500002018
:101570003400002030120020101000202A0000202B
:10158000260000202D000020400000203800002010
:101590003F0000002C000020704770472DE9F0410B
:1015A00006460F4614464FF000081548007818B15B
:1015B00012202070BDE8F081FEF780FE8046FF2EED
:1015C00003D11048006890F836600F4850F8265054
:1015D0002DB94046FEF776FE43202070EAE7012D44
:1015E00005D14046FEF76EFE43202070E2E76F65AE
:1015F0004046FEF767FE0020207000BFDAE70000DB
:101600002500002034000020301200207047704771
:101610002DE9F04707460D464FF0000A00202860EC
:101620006860FEF74BFE8246FF2F03D11848006822
:1016300090F83670174850F827402CB95046FEF7FE
:1016400041FE4320BDE8F087012C04D15046FEF74F
:1016500039FE4320F6E7207C00F0010020B9504617
:10166000FEF730FE4520EDE70026D4F80C90D4F8C4
:1016700008805046FEF726FE00E0761C58F8041B52
:101680000029FAD02E60A9EB060068600020D9E797
:10169000340000203012002070B50446101D20F0E8
:1016A00007000026051F28462E604FF01536051F3F
:1016B00028462E604FF01436051F28462E604FF046
:1016C0001336051F28462E604FF01236051F284698
:1016D0002E604FF01136051F28462E604FF0103651
:1016E000051F28462E604FF00936051F28462E603C
:1016F0004FF00836051F28462E604FF00736051FAD
:1017000028462E604FF00636051F28462E604FF003
:101710000536051F28462E604FF00436051F284663
:101720002E604FF00336051F28462E604FF002361C
:10173000051F28462E607610051F28462E600026BD
:10174000051F28462E604FF08076051F28462E6024
:10175000051F28462C60494E051F28462E604FF075
:101760001236051F28462E604FF00336051F284607
:101770002E604FF00236051F28462E607610051F9A
:1017800028462E60051F284629604FF03136051F78
:1017900028462E604FF03036051F28462E604FF049
:1017A0002936051F28462E604FF02836051F28468B
:1017B0002E604FF02736051F28462E604FF0263644
:1017C000051F28462E604FF02536051F28462E603F
:1017D0004FF02436051F28462E604FF02336051F94
:1017E00028462E604FF02236051F28462E604FF007
:1017F0002136051F28462E604FF02036051F28464B
:101800002E604FF01936051F28462E604FF018360F
:10181000051F28462E604FF01736051F28462E60FC
:101820004FF01636051F28462E604FF01136051F63
:1018300028462E604FF01036051F28462E604FF0C8
:101840000936051F28462E604FF00836051F28462A
:101850002E604FF00736051F28462E604FF00636E3
:10186000051F28462E604FF00536051F28462E60BE
:101870004FF00436051F28462E6070BD85210008F4
:101880002DE9F04105464FF00008FEF717FD8046B0
:10189000FF2D05D12148006890F83650012608E058
:1018A0001E48006890F83600A84201D1012600E0E9
:1018B00000261B4850F825402CB94046FEF702FD93
:1018C0004820BDE8F081012C04D14046FEF7FAFC27
:1018D0004320F6E794F83870124830F81700618F0B
:1018E0008843104921F81700084630F8170028B936
:1018F000A18F0D48008888430B49088094F8340074
:1019000040F0080084F834004046FEF7DBFC012E6E
:1019100001D100F015FB0020D3E7000034000020C7
:1019200030120020101000202A0000207047000014
:1019300070B5054600261848007800B170BD1748FC
:10194000007800B1FAE725B3FEF7B8FC0646144864
:10195000006890F83840134830F8140010490968BE
:10196000498F88430F4921F81400084630F81400C5
:1019700038B90B480068818F0B48008888430A49B2
:1019800008800748006805633046FEF79BFC00F0BE
:10199000D7FA00BFD2E70000250000202600002073
:1019A00034000020101000202A0000202DE9F04112
:1019B00004460D4616461F461248007810B15520C1
:1019C000BDE8F0811048007808B13220F8E7781DB2
:1019D000642148434FF47A71B0FBF1F14FF4616038
:1019E0006043C5EB051200EB8200304400EBC002FF
:1019F00002EB001001EB80084046FFF799FF002042
:101A0000DEE70000250000202600002070B500263B
:101A100000F074F8FEF752FC064632480068401C9D
:101A2000304908603046FEF74DFC2F480078012809
:101A300055D12E48007820B1012804D0022809D1C0
:101A400003E001250BE0002509E0012501202749DD
:101A5000087004E0012500202449087000BF00BF81
:101A600005B970BD2248046835E0FEF727FC06463C
:101A7000206B60B3206B401E2063206B38BB94F852
:101A8000340000F0370040B114F8340F00F0C80003
:101A9000207001206070343C02E0002084F83500A2
:101AA00094F8340000F0080088B9A08F1149098823
:101AB00008431049088094F838000F4931F81000A5
:101AC000618F084394F838100B4A22F811006469BA
:101AD0003046FEF7F7FB94F83600FD28C5D100BF6D
:101AE000BFE70000540000202C000020440000202C
:101AF000400000202A000020101000207047000045
:101B000010B5FEF7DBFB044606480078401C05498B
:101B100008702046FEF7D6FBFFF778FFFFF794FB2F
:101B200010BD00002500002001464A1E4FF0E023B2
:101B30005A61084A106820F07F4000BF10601A46C2
:101B4000126942F005021A611A46126942F0020255
:101B50001A61704720ED00E0704710B590F838200A
:101B600001F10C0333F81230448FA34301F10C044C
:101B700024F81230234633F812301BB94B89848F76
:101B8000A3434B810023C36110BDF0B5024692F818
:101B90003840958F568F0B46186811E000F10C07FE
:101BA00037F81470B74300F10C0C2CF8147067462A
:101BB00037F8147017B94789AF4347811B1D186860
:101BC0000028EBD1F0BD014600224A81002006E04A
:101BD000002301F10C0222F81030421CD0B2102870
:101BE000F6D370472DE9F0415021114800F04AF931
:101BF00000250DE0681C86B20D4800EB051400EBD3
:101C000006170020207067600AA0E060681C85B29B
:101C1000042DEFD3064800EB05140020207060600F
:101C200004A0E060024804490860BDE8F0810000BB
:101C3000C00D00203F0000001400002030B5014618
:101C40004A6808682AB9CC68606028B100254560F8
:101C500002E0106000B142608B6800259D6230BDDB
:101C600070B54FF47071134800F00CF9002411E0C6
:101C7000601C85B204EB44000E4901EB001305EB38
:101C8000450001EB0016002018705E600AA0D862C3
:101C9000601C84B2132CEBD304EB4400054901EB28
:101CA000001300201870586003A0D862084603494A
:101CB000086070BD000A00203F00000010000020F6
:101CC00000200B4908600B4908700B4908700B494C
:101CD00008700B4908700B4908600B4908600B49F4
:101CE00008600B4908600B4908700B490870704781
:101CF0005400002025000020260000202D00002098
:101D00002C0000200C0000203000002020000020CB
:101D10001C000020240000205000002000210B4A5D
:101D20001180002005E00021094A22F81010411C12
:101D3000C8B21028F7D30021064A1170064A117064
:101D4000064A1160064A1160704700002A00002010
:101D50001010002027000020280000203C00002058
:101D60003400002070B54FF4FD61194800F08AF886
:101D70004FF47E71174800F085F8002413E0601CD2
:101D8000C5B2C4EBC40000EB0410114901EB8003A1
:101D9000C5EBC50000EB051001EB80065E610EA0EF
:101DA0005865601CC4B2152CE9D3C4EBC40000EB29
:101DB0000410074901EB80030020586106A0586514
:101DC00000200649086002480549086070BD00000F
:101DD00028160020301200203F00000040000020A4
:101DE0003800002000B587B00320002180220A4B74
:101DF000CDE90132CDE903104FF6FF70FD23074A0C
:101E000000900748FFF7B8FA06AA06A1FD20FFF7E1
:101E1000C5FB07B000BD0000301000202C120020D0
:101E20005D21000875432F4F532D49492049646CAB
:101E30006500000000B587B00320002180220A4B16
:101E4000CDE90132CDE903104FF6FE70FC23074ABD
:101E500000900748FFF790FA06AA06A1FC20FFF7BA
:101E60009DFB07B000BD0000100E00200C100020EC
:101E70009D21000875432F4F532D4949205374610C
:101E80007400000004E0002200F8012B4A1E91B209
:101E90000029F8D17047000070B578211148FFF78C
:101EA000F1FF00240EE004EB44000E4901EBC005F5
:101EB000601C00EB400001EBC00068600AA0686194
:101EC000601C84B2042CEED304EB4400054901EB02
:101ED000C0050020686004A06861084603490860E6
:101EE00070BD0000101E00203F00000048000020D0
:101EF0002DE9F04160211048FFF7C4FF00240DE0F8
:101F0000601C86B204EB44000B4901EBC00506EBF4
:101F1000460001EBC0072F60601C84B2032CEFD396
:101F200004EB4400044901EBC0050020286008468A
:101F300002490860BDE8F081881E00204C000020A6
:101F400010B50024FEF7BAF9044613480078F8B932
:101F500012480078E0B900F02DF8114811490978CD
:101F600050F82100104908600E4800780F490978A0
:101F700088420DD00C480068006C401C0A49096872
:101F800008640B480068401C09490860FEF7B1F975
:101F90002046FEF797F910BD2500002026000020FE
:101FA00030120020280000203C00002027000020E4
:101FB0000C000020134A127822B1124A1278124BF8
:101FC000985C07E0104A0F4B1B8802EB1322127833
:101FD0000832D0B20D4A02EB40010A783AB10A78D1
:101FE000094B9A5C02EB0012094B1A7009E00A884F
:101FF000054B03EB1222127802EB00120832044B5D
:102000001A7070472A000020883100081010002044
:10201000280000202DE9F84F05460F4690469946C6
:10202000DDE90AAB00200090FEF748F90090444833
:102030000468002C7ED01C3454F8080C4049086019
:102040000098FEF73FF944F81C7CA5760020207626
:102050006076606144F818BC44F810AC44F8148C05
:102060000C9824F80C0C24F80A9C002084F8220018
:102070002809207705F00F00E076217F01208840B5
:102080002084E17E01208840E083002020606060A1
:10209000E060A0606062E062A0622063606329A0EB
:1020A000A0631C3C002606E0002104F1580040F823
:1020B0002610701CC6B2002EF6D02046FFF75AF943
:1020C000FEF7FCF80090204840F825400098FEF705
:1020D000F9F82046FFF7ACF9FEF7F0F800901B483E
:1020E000006860610020A0611848006810B11748BE
:1020F0000068846115480460A08F15490988084369
:102100001349088094F83800124931F81000618FA3
:10211000084394F838100F4A22F811000E4800784E
:10212000401C0D4908700098FEF7CCF80020BDE86F
:10213000F88FFFE70098FEF7C5F84220F7E70000A8
:10214000380000203F000000301200204000002036
:102150002A000020101000202D000020002400BFC5
:1021600000BFFEF7ABF8044605480068401C044970
:1021700008602046FEF7A6F8FFF70FFAF1E7000027
:102180003000002010B504480068FFF73FFAFF2038
:10219000FFF750F910BD00003400002000BF00BF61
:1021A00002E01420FFF7C4FB1F4800780028F8D095
:1021B0001E4800686421B0FBF1F01C490860084625
:1021C000006828B900201A490870FF20FFF758FB63
:1021D000FEF774F804461548006864214843154921
:1021E00008602046FEF76EF800BFFEF767F8044669
:1021F000104800681049086000200E490860204619
:10220000FEF760F80C48006808490968B0FBF1F077
:10221000C0F1640006490870FFF7F9F900F00EF804
:102220000A20FFF785FBE0E7240000201C000020C7
:102230001800002030000020200000207CB5002580
:1022400014E069462846FFF7E3F9064666B90948EF
:1022500050F8254044B1012C06D0D4E9020100EB2E
:102260008100E06401982065681CC5B2FD2DE8D9A5
:102270007CBD00003012002002F0010343B102F0E7
:1022800002032BB102E0491E002308C00029FAD145
:1022900070470000002002490870012070470000CC
:1022A000E407002029B1064A12680243044B1A6071
:1022B00004E0034A12688243014B1A607047000031
:1022C0003038024029B1064A12680243044B1A60B2
:1022D00004E0034A12688243014B1A607047000011
:1022E0004038024029B1064A12680243044B1A6082
:1022F00004E0034A12688243014B1A6070470000F1
:102300002038024029B1064A12680243044B1A6081
:1023100004E0034A12688243014B1A6070470000D0
:102320004438024029B1064A12680243044B1A603D
:1023300004E0034A12688243014B1A6070470000B0
:102340002438024000BF05E00A230022114610464F
:10235000FFF72CFBF8E770470CB5002001900090C8
:102360003448006840F480303249086000BF31488A
:10237000006800F4003000900198401C0190009823
:1023800018B90198B0F5A04FF1D12A48006800F4BF
:10239000003010B10120009001E000200090009872
:1023A000012846D123484030006840F08050214940
:1023B000403108602048006840F440401E490860F1
:1023C0001C48083000681B4908310860084600684E
:1023D00040F4004008600846006840F4A0500860DF
:1023E0001648091F0860081F006840F08070091F28
:1023F000086000BF0F48006800F000700028F9D0A6
:1024000040F205700E4908600A480830006820F064
:1024100003000849083108600846006840F00200DF
:10242000086000BF03480830006800F00C0008286E
:10243000F8D10CBD0038024000700040085440073D
:10244000003C024010B51548006840F47000134984
:1024500008601348006840F001001149086000203E
:102460000F49083108600E4800680E4908400C49C1
:1024700008600D48091D0860081F006820F48020CE
:10248000091F0860002006490C310860FFF764FF4F
:102490004FF0006001498039086010BD88ED00E010
:1024A00000380240FFFFF6FE10300024F0B50C4665
:1024B000154600210022068C4FF6FE773E4006842A
:1024C000018B028C4FF60C7631407E1C06EA031617
:1024D0002E4331434FF6F576324044F00106324345
:1024E00001830284F0BDF0B50C46154600210022A0
:1024F0000026078C4FF6EF7C07EA0C070784018B58
:10250000028C4FF6FF7707EA041640F6FF47394082
:102510004FF6FF7707EA033739434FF6FF7707EAAD
:10252000052739434FF65F773A4046F010073A43A4
:1025300001830284F0BDF0B50C461546002100224F
:102540000026078C4FF6FF6C07EA0C070784818B87
:10255000028C4FF6FF7707EA04264FF60C773940D6
:102560004FF6FF7707EA03172F4339434FF2FF5720
:102570003A4046F480773A4381830284F0BDF0B557
:102580000C461546002100220026078C4EF6FF7CE3
:1025900007EA0C070784818B028C4FF6FF7707EA66
:1025A000043640F6FF4739404FF6FF7707EA052724
:1025B00039434FF6FF7707EA0337394345F6FF778C
:1025C0003A4046F480573A4381830284F0BD0000CC
:1025D0000D48008C4FF6FE7108400B4908840846F0
:1025E000008C4FF6FB710840074908840846008BB1
:1025F0004FF68F710840044908830846008B40F06D
:102600004000088370470000000001400C48008B28
:102610004FF68F7108400A4908830846008B40F046
:10262000700008830846008C4FF6FE71084004498C
:1026300008840846008C40F00400088470470000BD
:10264000000001400C48008B4FF68F7108400A498A
:1026500008830846008B40F0700008830846008C11
:1026600040F0010008840846008C4FF6FB710840DA
:102670000149088470470000000001400D48008CAB
:102680004FF6EF7108400B4908840846008C4FF65E
:10269000BF710840074908840846008B48F6FF715F
:1026A0000840044908830846008B40F480400883B2
:1026B00070470000000001400C48008B48F6FF7195
:1026C00008400A4908830846008B40F4E04008832C
:1026D0000846008C4FF6EF7108400449088408460C
:1026E000008C40F04000088470470000000001406A
:1026F0000C48008B48F6FF7108400A4908830846D9
:10270000008B40F4E04008830846008C40F0100045
:1027100008840846008C4FF6BF71084001490884C0
:1027200070470000000001400D48008C4FF6FF612B
:1027300008400B4908840846008C4FF6FF310840DA
:10274000074908840846808B4FF68F71084004497A
:1027500088830846808B40F04000888370470000E3
:10276000000001400C48808B4FF68F7108400A49E9
:1027700088830846808B40F0700088830846008C70
:102780004FF6FF610840044908840846008C40F475
:102790008060088470470000000001400C48808B76
:1027A0004FF68F7108400A4988830846808B40F0B5
:1027B000700088830846008C40F4807008840846C6
:1027C000008C4FF6FF310840014908847047000033
:1027D0000000014010B50121054800F052F930B168
:1027E0000448FDF75FFF0121014800F042F810BDE9
:1027F000000001400020014010B50121044800F014
:1028000040F918B10121880700F033F810BD00002D
:102810000008004010B50221054800F032F928B147
:10282000FEF71EFB0221024800F023F810BD000055
:102830000008004021B1028842F08002028004E0DA
:1028400002884FF67F731A40028070470A884B88CF
:102850001A438B881A43CB881A430B891A434B8936
:102860001A438B891A43A0F844207047CA43028256
:102870007047CA430282704721B1028842F00102C8
:10288000028004E002884FF6FE731A40028070470F
:1028900031B1B0F8442042F40042A0F8442005E0F1
:1028A000B0F84420C2F30E02A0F8442070470000A4
:1028B00010B504465548844208D101210846FFF767
:1028C00031FD00210120FFF72DFD9DE0B4F1804F87
:1028D00008D101210846FFF705FD00210120FFF77F
:1028E00001FD91E04A48844208D101210220FFF70E
:1028F000F9FC00210220FFF7F5FC85E04548844201
:1029000008D101210420FFF7EDFC00210420FFF78E
:10291000E9FC79E04048844208D101210820FFF712
:10292000E1FC00210820FFF7DDFC6DE03B4884421C
:1029300008D101211020FFF7D5FC00211020FFF75E
:10294000D1FC61E03648844208D101212020FFF704
:10295000C9FC00212020FFF7C5FC55E03148844226
:1029600008D101210220FFF7DDFC00210220FFF742
:10297000D9FC49E02C48844209D101210804FFF721
:10298000D1FC00214FF48030FFF7CCFC3CE027481D
:10299000844209D101214804FFF7C4FC00214FF40F
:1029A0000030FFF7BFFC2FE02148844209D101210C
:1029B0008804FFF7B7FC00214FF48020FFF7B2FC3A
:1029C00022E01C48844208D101214020FFF78AFC04
:1029D00000214020FFF786FC16E01748844208D10A
:1029E00001218020FFF77EFC00218020FFF77AFC88
:1029F0000AE01248844207D101218015FFF772FCDA
:102A00000021A015FFF76EFC10BD00000000014082
:102A10000004004000080040000C0040001000408E
:102A20000014004000040140004001400044014007
:102A30000048014000180040001C004000200040F9
:102A4000F0B50C4615461E460021002200230189E0
:102A5000028B038C4FF6F877394021434FF6FC4741
:102A60003A4040F201173A434FF6DD773B404FF6CC
:102A7000FF7707EA06172F433B4301810283038454
:102A8000F0BD30B50246002000230024158A05EA77
:102A90000103958905EA010413B10CB1012000E09E
:102AA000002030BD70B505460C46208850B92389FA
:102AB000A28861882846FFF7F9FCE188284600F0E3
:102AC00052F925E0208804280AD12389A288618848
:102AD0002846FFF708FDE188284600F04DF917E089
:102AE000208808280AD12389A28861882846FFF710
:102AF00022FDE188284600F04CF909E02389A288EC
:102B000061882846FFF73BFDE188284600F04AF936
:102B100070BD002101804180012181800021C180A0
:102B2000018170471AB183890B43838102E0838955
:102B30008B4383817047000070B50024002200237E
:102B4000058C4FF6FE7635400584028C8388048B15
:102B50004FF68F752C40B51E2C400D882C43751EEA
:102B60002A408D892A434D882A43104DA84202D01D
:102B70000F4DA84213D14FF6F7752A40CD892A434D
:102B80004FF6FB752A408D882A434FF6FF652B4090
:102B90004FF6FF552B400D8A2B434D8A2B438380E4
:102BA00004838D684563028470BD0000000001400D
:102BB000000401400A460021018B4FF6F7731940CB
:102BC000114301837047000070B5002400220023E8
:102BD000058C4FF6EF7635400584028C8388048B94
:102BE00048F6FF752C404FF6FF452C400D884FF6F8
:102BF000FF7606EA05252C434FF6DF752A408D89BE
:102C000006EA05152A434D8806EA05152A43154D9F
:102C1000A84202D0144DA8421DD14FF67F752A401C
:102C2000CD894FF6FF7606EA05152A434FF6BF75A4
:102C30002A408D8806EA05152A434FF6FF352B40BA
:102C40004FF2FF752B400D8A06EA85052B434D8A0E
:102C500006EA85052B43838004838D68856302849F
:102C600070BD000000000140000401400A46002140
:102C7000018B4FF2FF7319404FF6FF7303EA0223F3
:102C8000194301837047000070B50024002200231F
:102C9000058C4FF6FF6635400584028C8388848B53
:102CA0004FF68F752C404FF6FC752C400D882C4349
:102CB0004FF6FF552A408D894FF6FF7606EA052527
:102CC0002A434D8806EA05252A43154DA84202D01D
:102CD000144DA8421DD14FF2FF752A40CD894FF601
:102CE000FF7606EA05252A434FF6FF352A408D88F0
:102CF00006EA05252A434EF6FF752B404DF6FF7573
:102D00002B400D8A06EA05152B434D8A06EA051568
:102D10002B43838084838D68C563028470BD00006B
:102D200000000140000401400A460021818B4FF65B
:102D3000F77319401143818370470021018041805E
:102D4000818081608181C18101824182704721B18E
:102D5000828842F08002828004E082884FF67F738E
:102D60001A4082807047028B4FF6F3731A40028339
:102D7000028B0A4302837047028B4FF2FF331A40E3
:102D80000283028B4FF6FF7303EA01231A43028387
:102D90007047828B4FF6F3731A408283828B0A430B
:102DA00082837047828B4FF2FF331A408283828B7B
:102DB0004FF6FF7303EA01231A4382837047000032
:102DC00000220288184B98420ED0184B98420BD024
:102DD000B0F1804F08D0164B984205D0154B984261
:102DE00002D0154B984204D14FF68F731A404B888E
:102DF0001A43124B984207D0114B984204D04FF619
:102E0000FF431A400B891A4302804B68C3620B8848
:102E10000385054B984202D0044B984201D18B7A2E
:102E200003860123838270470000014000040140B3
:102E30000004004000080040000C0040001000406A
:102E4000001400404FF0FF314160002101800181FA
:102E5000418081727047000000B58DB001210846A5
:102E6000FFF750FA4048FFF723FD0020ADF830008F
:102E70002020ADF82A0041F267000B900120ADF848
:102E8000280000208DF832000AA93748FFF798FF84
:102E900005A8FFF752FF7020ADF814000020ADF830
:102EA0002400ADF826000220ADF820000820ADF87F
:102EB00022000120ADF816000420ADF8180040F6FD
:102EC000C410079005A92848FFF736FE08212648B8
:102ED000FFF770FE40F6C410079005A92248FFF7DF
:102EE00073FE08212048FFF7C1FE40F6C41007908A
:102EF00005A91D48FFF7C8FE08211B48FFF714FF6E
:102F000001211948FFF7B2FC012211461648FFF7CC
:102F100009FE0020ADF804004FF48060ADF8060013
:102F20000020ADF80800E020ADF80A000020ADF860
:102F30000C004FF40050ADF80E004000ADF810004A
:102F400001A90948FFF782FCFEF70CF801210648A9
:102F5000FFF770FC01210448FFF78EFC01210248B5
:102F6000FFF796FC0DB000BD0000014000B587B032
:102F700001210220FFF7A6F92148FFF799FC04A8D8
:102F8000FFF760FF0020ADF81200ADF818000A202E
:102F900005900020ADF8100004A91948FFF710FFB4
:102FA0000A231A4603211648FFF74AFD01A8FFF736
:102FB000B0FD0020ADF804000120ADF80C0001A91F
:102FC0000F48FFF76FFD0420ADF804000120ADF8B5
:102FD0000C0001A90A48FFF765FD01210848FFF729
:102FE00045FC012211460648FFF79CFD00200449DC
:102FF0002431086001210248FFF73EFC07B000BD04
:103000000004004000B587B001210420FFF75AF901
:103010000020ADF81800ADF812004FF6FF700590D3
:103020000020ADF8100004A91A48FFF7C9FE0020DF
:10303000ADF804000A20ADF806000020ADF80C0041
:10304000ADF80A000120ADF8080001A91148FFF70A
:1030500029FD0420ADF8040001A90E48FFF722FD68
:103060000820ADF8040001A90A48FFF71BFD012163
:103070000848FFF76CFE02210648FFF7F7FB012224
:1030800002210448FFF74EFD01210248FFF7F4FB3F
:1030900007B000BD0008004000BFFEE700B585B0E6
:1030A0004FF4A060FEF706F8FDF746FBFFF7F2F8D5
:1030B000FEF796F80020FEF70FF90E490860002091
:1030C000FEF70AF90C490860072000214FF48072CE
:1030D0000A4BCDE90132CDE9031032200346084AFC
:1030E00000900848FEF748F9FEF720F9002005B0E7
:1030F00000BD000000000020040000205803002054
:1031000054070020B10600084FF04070E1EE100AAD
:1031100070470000010000007856341201001400CE
:1031200001003000C0030100010010001400020083
:1031300005000100FD00010001000500010018006C
:1031400078000100040001000400180010000100D4
:1031500004000100010001008000010016000100D0
:1031600001008000010001000100FE005C0064001D
:1031700001001B7200001000010007000A0000009F
:1031800000000000000027150000010002000100FF
:103190000300010002000100040001000200010020
:1031A000030001000200010005000100020001000F
:1031B0000300010002000100040001000200010000
:1031C00003000100020001000600010002000100EE
:1031D00003000100020001000400010002000100E0
:1031E00003000100020001000500010002000100CF
:1031F00003000100020001000400010002000100C0
:1032000003000100020001000700010002000100AC
:10321000030001000200010004000100020001009F
:10322000030001000200010005000100020001008E
:10323000030001000200010004000100020001007F
:10324000030001000200010006000100020001006D
:10325000030001000200010004000100020001005F
:10326000030001000200010005000100020001004E
:10327000030001000200010004000100020001003F
:103280000300010002000100A83200080000002035
:1032900058000000C4010008003300085800002056
:1032A000F0240000E0010008000000000000000021
:1032B000000000000000000000000000000000000E
:1032C00000000000000000000000000000000000FE
:1032D00000000000000000000000000000000000EE
:1032E00000000000000000000000000000000000DE
:1032F00000000000000000000000000000000000CE
:040000050800018965
:00000001FF
