:020000040800F2
:10000000982C00206902000835240008912100087E
:10001000E5230008DD0A0008F15A0008000000008E
:100020000000000000000000000000001D4100086A
:10003000131C000800000000470300080D310008F1
:10004000A3020008A3020008A3020008A3020008FC
:10005000A3020008A3020008A3020008A3020008EC
:10006000A3020008A3020008A3020008A3020008DC
:10007000A3020008A3020008A3020008A3020008CC
:10008000A3020008A3020008A3020008B50B0008A1
:10009000E10A0008A3020008A3020008A302000866
:1000A000A3020008814A0008A3020008A302000876
:1000B000E94B00089D4C0008B94C0008A302000859
:1000C000A3020008A3020008A3020008A30200087C
:1000D000A3020008A3020008A3020008A30200086C
:1000E000A3020008A3020008A3020008A30200085C
:1000F000D94C0008A3020008A3020008A3020008CC
:10010000A3020008A3020008A3020008A30200083B
:10011000A3020008A3020008A3020008A30200082B
:1001200029180008A30200082D19000871190008F9
:10013000A3020008A3020008A3020008A30200080B
:10014000A3020008A3020008A3020008A3020008FB
:10015000A3020008A3020008A3020008A3020008EB
:10016000A3020008A3020008A3020008A3020008DB
:10017000A3020008A3020008A3020008A3020008CB
:10018000A3020008A302000800F002F800F05CF8E7
:100190000AA090E8000C82448344AAF10107DA45E2
:1001A00001D100F051F8AFF2090EBAE80F0013F0D8
:1001B000010F18BFFB1A43F001031847186F000026
:1001C000386F00000A444FF0000C10F8013B13F0A8
:1001D000070408BF10F8014B1D1108BF10F8015BA0
:1001E000641E05D010F8016B641E01F8016BF9D193
:1001F00013F0080F1EBF10F8014BAD1C0C1B09D1EA
:100200006D1E58BF01F801CBFAD505E014F8016B5B
:1002100001F8016B6D1EF9D59142D6D370470000ED
:100220000023002400250026103A28BF78C1FBD8FF
:10023000520728BF30C148BF0B6070471FB506F09A
:100240004DF91FBD10B510BD00F0A2F91146FFF722
:10025000F5FF05F075FC00F0C0F903B4FFF7F2FFFD
:1002600003BC00F027FA000011488047DFF8440083
:10027000016841F470010160BFF34F8FDFF838006F
:10028000016821F040410160BFF36F8F0B480047C8
:10029000FEE7FEE7FEE7FEE7FEE7FEE7FEE7FEE736
:1002A000FEE7FEE706480749074A084B704700008B
:1002B000D546000888ED00E034EF00E08901000831
:1002C00098260020982C00209828002098280020AC
:1002D000EFF3098141B1F1EE101A40F8041D20ED51
:1002E000200A2C490A6810607047B0EC200A02C846
:1002F000E1EE101A28490A6810607047EFF3108089
:1003000072B6704780F31088704724484FF0FF01A1
:100310000170002080F309882148016881F3088872
:1003200020480121017020484FF08051016062B6E1
:10033000FEE71D484FF08051016070471A484FF0AA
:1003400080510160704772B6EFF3098040B14038C8
:1003500080EC108A203880E8F00F0E4909680860A8
:1003600000B5124880475DF804EB114811490A783E
:100370000270084808490A680260106890E8F00FA7
:10038000203090EC108A403080F309884EF0F40E53
:1003900062B670470C0100201401002022ED00E03D
:1003A000E00000200401002004ED00E0392F0008E7
:1003B000FF0000200001002093081BD090ED000AF0
:1003C000D0ED011AD0ED020A90ED031AB0EEC00A8A
:1003D00081ED000AF0EEE11AB0EEE00AC1ED011A7B
:1003E000F0EEC10A81ED020AC1ED030A10301031AE
:1003F0005B1EE3D112F0030208BF7047B2F1004F59
:1004000023D2002AD8BF7047001F091F12F0010F26
:1004100007D090ED010A001DB0EEC00A81ED010A7F
:10042000091D520808BF704790ED010AB0EEC00ADE
:1004300081ED010A90ED020A0830B0EEC00A81EDAC
:10044000020A0831521EEFD17047B0EC010A521E69
:10045000B0EEC00AA1EC010AF7D1704730B493089E
:100460004FF000052AD000BF30F902CB30F9024B23
:10047000BCF1000FDCBFD5FA1CFC0FFA8CFC002C81
:10048000DCBFD5FA14F424B2CCEA044C41F804CB16
:1004900030F902CB30F9024BBCF1000FDCBFD5FACA
:1004A0001CFC0FFA8CFC002CDCBFD5FA14F424B22F
:1004B000CCEA044C41F804CB5B1ED5D112F0030208
:1004C00004BF30BC704700BF30F9023B002BDCBFDB
:1004D000D5FA13F31BB221F8023B521EF4D130BC03
:1004E00070470000DFED190AB5EEC00A60EE200A81
:1004F000BDEEE01A11EE100AF1EE10FA38BF401E00
:1005000000EE100A1349F7EE001AB8EEC00A30EEFA
:10051000C00ADFED0F0A60EE200ABCEEE00A10EE22
:10052000100AC0F3080000EE100A01EB8000B8EEDC
:10053000400A90ED011A70EEC00A90ED000A71EECB
:10054000E01A21EE800A00EE810A704783F9223E0C
:1005500000000044D06800087047704770470000F2
:100560001FB584B000200A9C06AB04AA02A900941F
:10057000AFF3008018B1DDE9020108B010BD0348F7
:10058000204000F030F800200146F6E70000207C13
:10059000754600F02FF8AE4605006946534620F038
:1005A0000700854618B020B5FFF77CFEBDE8204067
:1005B0004FF000064FF000074FF000084FF0000B1F
:1005C00021F00701AC46ACE8C009ACE8C009ACE8D2
:1005D000C009ACE8C0098D4670470446AFF30080FF
:1005E0002046FFF73AFE10B500F00EF8BDE81040C7
:1005F00000F004B80048704738260020002801D0D9
:1006000000F058B87047000010B5022803D041012F
:1006100003D50DA112E0002010BD010101D50FA1ED
:100620000CE0C10001D511A108E0810001D512A1A3
:1006300004E0400001D513A100E0002115A000F066
:100640003FF8012010BD0000496E76616C6964209E
:100650004F7065726174696F6E000000446976695D
:100660006465204279205A65726F00004F7665728A
:10067000666C6F7700000000556E646572666C6F83
:1006800077000000496E6578616374205265737568
:100690006C7400005349474650453A2041726974D2
:1006A000686D6574696320657863657074696F6EE1
:1006B0003A20000001491820ABBEFEE726000200E8
:1006C00070B505460C460A2000E06D1C00F011F8DC
:1006D00035B128780028F8D102E0641C00F009F850
:1006E00014B120780028F8D1BDE870400A20AFF39B
:1006F000008008B569468DF800000320ABBE08BD38
:100700007047000000B599B00121080203F02CFAEF
:1007100000F0B8F8002011900F904FF48030109046
:100720004FF4407012900FA800F07EF80020139054
:1007300001208DF8500000208DF851001590179081
:1007400003208DF8600013A92E4800F0A7F80123BC
:100750001A4619462B4800F0CBF801230222114615
:10076000284800F0C5F8012303221146254800F06F
:10077000BFF80121880503F0C7F9234801F042F9C9
:10078000002000901F484C3001902048029000202B
:10079000039003200490002005904FF480600690A1
:1007A00040000790800008904011099040020A9094
:1007B00000200B9001200C9000200D900E906946B7
:1007C000114801F0E9F901210F4801F00FF910215A
:1007D0000D4801F0F1F8012210210B4801F0BEF99B
:1007E0000121084800F043F80121064800F034F8E0
:1007F0000121044800F00CF8024800F0D5F819B0C7
:1008000000BD00000020014010640240EA0C0020FE
:1008100021B1826842F00102826003E0826822F026
:1008200001028260704700000021084A1168084AEE
:100830001140D0E900231A4383681A43C3681A435E
:100840001143044AC2F80413704700000423014016
:10085000E030FCFF0020014021B1826842F4807248
:10086000826003E0826822F480728260704721B166
:10087000826842F40072826003E0826822F40072AF
:100880008260704710B50121080203F07DF9002154
:100890004FF4807003F078F910BD000030B50246C7
:1008A000002000235068104C20400D790C6844EA69
:1008B00005242043506090680C4C2040D1E903543B
:1008C0002C438D682C434D7944EA450420439060C5
:1008D000D06A20F470000C7D641EE4B2234340EA29
:1008E0000350D06230BD0000FFFEFFFCFDF7FFC0EB
:1008F000F0B504460D4600200021092D11DDE06809
:10090000A5F10A0606EB4607072606FA07F1884313
:10091000A5F10A0606EB460603FA06F10843E06075
:100920000CE0206905EB4507072606FA07F1884326
:1009300005EB450603FA06F108432061072A0FDAA2
:10094000606B561E06EB86071F2606FA07F18843E2
:10095000561E06EB860605FA06F10843606322E0A0
:100960000D2A0FDA206BD61F06EB86071F2606FA24
:1009700007F18843D61F06EB860605FA06F1084301
:10098000206310E0E06AA2F10D0606EB86071F2641
:1009900006FA07F18843A2F10D0606EB860605FA72
:1009A00006F10843E062F0BD816841F0804181605A
:1009B0007047000010B586B004461E4802F0BAFB2E
:1009C0004FF4FA7005F0A0F801F0B4FF0320002105
:1009D0004FF48072184BCDE90132CDE903100620A7
:1009E0000346164A0090164801F0CCFF0320002170
:1009F0004022144BCDE90132CDE9031031200346EA
:100A0000104AFC320090104801F0BCFF0320002186
:100A100080220E4BCDE90132CDE9031007200346B9
:100A20000B4A00900B4801F0ADFFFF2002F008F8E0
:100A300006B010BD80A21900300100202C05002056
:100A40006D46000830070020A12300083005002073
:100A50002C070020A93B000810B501F0EDFC01F0C7
:100A600003F903F0DFF904F0D3FC04F057FD04F0C0
:100A70008BFD04F0DFFD04F027FE04F0B1FEFFF76C
:100A800041FE00F05BFE00F033F901F079FB05490F
:100A90000870012000F00AF80220034908700020C5
:100AA000487010BDE40C00201C0E002030B90A492B
:100AB000096841F40051084A11600AE0012807D191
:100AC000054909684DF6FF721140034A116000E0C4
:100AD000704700BFFCE700001408024000BFFEE7BB
:100AE00010B501F07FFE0221134800F0EFF9012854
:100AF00015D10221104800F0A7F8104A00210E4835
:100B000000F007FB0D4818388069B0F5803F06D12A
:100B10000A4818388069B0F1011F00D000BF0421D5
:100B2000054800F0D3F9012803D10421024800F060
:100B30008BF801F069FE10BD00640040380F002002
:100B40002DE9F04104460F4690461E4627600020DE
:100B50006072207212206060A67201F043FE0025D0
:100B600006E018F8051004F10B004155681CC5B2E9
:100B7000B542F6DB01F048FE21460C4800F0AEFB22
:100B80000B4908750846007D042802D10020BDE805
:100B9000F08101210648027D153081540122114661
:100BA000024800F023FA0120F1E700000064004051
:100BB000200F002010B501F015FE2148407D88B1BE
:100BC0002048006800F0010008B301201D490860BA
:100BD000002201211B48083800F008FA00201849BB
:100BE00048752AE01648807D90B11648006800F4E8
:100BF000807060B14FF480701249086000220121BA
:100C00001048083800F0F2F900210D48817514E011
:100C10000B48C07D88B10B48006800F4803060B19B
:100C20004FF4803007490860002201210548083848
:100C300000F0DCF900210248C17501F0E5FD10BDAE
:100C4000200F002008640040B1F5007F3AD00FDC8F
:100C5000202928D006DC01291CD004291DD0082910
:100C600040D11DE0402921D0B1F5807F3AD126E066
:100C7000B1F5004F31D006DCB1F5806F25D0B1F56C
:100C8000006F2FD124E0B1F5803F12D0B1F5003FC5
:100C900028D111E0154A826025E00822C26022E0D6
:100CA0001022C2601FE0082202611CE010220261D3
:100CB00019E00822426016E01022426013E004228C
:100CC000426010E0042242600DE0042242600AE02B
:100CD000002282610422426005E000228261042237
:100CE000426000E000BF00BF70470000010101004A
:100CF00000B587B00121480602F016FF224800F037
:100D000045F804A800F0DAFA00208DF817008DF8F5
:100D100018008DF8160001208DF8190000208DF8BC
:100D20001A008DF81B008DF812008DF813000520B5
:100D30008DF8140006208DF81500ADF8100004A9F8
:100D4000114800F05CF900208DF80A008DF80B00C6
:100D500001208DF80C000020ADF80000ADF8020075
:100D6000ADF80400ADF80600ADF8080001208DF8DC
:100D70000D00684600F026F801220721024800F025
:100D800035F907B000BD00000064004010B504460E
:100D90000B48844209D10121480602F0D5FE00210A
:100DA0004FF0007002F0D0FE08E00121880602F04A
:100DB000CBFE00214FF0806002F0C6FE10BD0000A7
:100DC0000064004010B50021837A012202FA03F189
:100DD0003D4A126842F001023B4B1A603A4A1C320B
:100DE00012688A43384B1C331A60027BCAB9364AF0
:100DF0000C3212688A43344B0C331A604288C38821
:100E000042EA0343304A4032847A42F8343002885E
:100E1000838842EA03432C4A4032847A02EBC402BC
:100E20005360027B012A19D1274A0C3212680A4307
:100E3000254B0C331A604288038842EA0343224A56
:100E40004032847A42F83430C288838842EA0343CD
:100E50001D4A4032847A02EBC4025360C27A3AB926
:100E6000194A121D12688A43174B1B1D1A6006E0AF
:100E7000154A121D12680A43134B1B1D1A60028982
:100E800032B9114A143212688A430F4B14331A6074
:100E90000289012A06D10C4A143212680A430A4B0D
:100EA00014331A60427B012A06D1074A1C321268A9
:100EB0000A43054B1C331A60034A126822F00102F0
:100EC000014B1A6010BD00000066004070B504467A
:100ED0000D46002660692840002871D0B5F5807F56
:100EE0005CD010DC082D35D006DC012D20D0022D81
:100EF00024D0042D72D127E0102D31D0202D35D0F3
:100F0000402D6BD138E0B5F5004F60D009DCB5F568
:100F1000007F49D0B5F5806F4CD0B5F5006F5DD13D
:100F20004FE0B5F5803F2DD0B5F5003F56D12FE00D
:100F3000A0682D4900F065FA064651E0E0680321FB
:100F400000F05FFA06464BE0E068082100F059FA2D
:100F5000064645E0E068102100F053FA06463FE0FF
:100F60002069032100F04DFA064639E02069082186
:100F700000F047FA064633E02069102100F041FAFC
:100F800006462DE06068082100F03BFA064627E09F
:100F90006068102100F035FA064621E0A0690121C1
:100FA00000F02FFA06461BE0A069022100F029FAA2
:100FB000064615E0A069042100F023FA06460FE07A
:100FC0000FE0A069702100F01CFA064608E0606896
:100FD000042100F016FA064602E0FFE7002600BFF3
:100FE00000E00026304670BD010101001AB14369DE
:100FF0000B43436102E043698B434361704730B563
:10100000024600200023146824F0020414601468CF
:1010100044F00104146000E05B1C546804F0010417
:101020001CB94FF6FF74A342F6D1546804F00104D2
:101030000CB900206CE08C79012C04D1146844F0C8
:101040008004146003E0146824F080041460CC79F8
:10105000012C04D1146844F04004146003E01468C7
:1010600024F0400414600C7A012C04D1146844F07C
:101070002004146003E0146824F0200414604C7A07
:10108000012C04D1146844F01004146003E01468C7
:1010900024F0100414608C7A012C04D1146844F0FC
:1010A0000804146003E0146824F008041460CC7A87
:1010B000012C04D1146844F00404146003E01468A3
:1010C00024F0040414608C78A407CD7844EA056405
:1010D0000D7944EA05444D7944EA05540D886D1EA6
:1010E0002C43D461146824F001041460002300E050
:1010F0005B1C546804F001041CB14FF6FF74A3425A
:10110000F6D1546804F001040CB1002000E0012085
:1011100030BD10B500F5D87303EB01131B6803F065
:1011200004031372137A53B900F5D87303EB011358
:101130001B6840F2FF7404EA5353136009E000F5A2
:10114000D87303EB01131B686FF0604404EAD30308
:10115000536000F5D87303EB01131B6803F002031F
:10116000537200F5D87303EB01135B6803F00F03B0
:10117000937200F5D87303EB01135B681B0AD374F9
:1011800000F5D87303EB01139B68D37200F5D87395
:1011900003EB01139B681C0A147300F5D87303EB6F
:1011A00001139B681C0C547300F5D87303EB0113F7
:1011B0009B681B0E937300F5D87303EB0113DB6878
:1011C000D37300F5D87303EB0113DB681C0A1474A6
:1011D00000F5D87303EB0113DB681C0C547400F5A5
:1011E000D87303EB0113DB681B0E937421B9C3683A
:1011F00043F02003C36003E0036943F0200303616D
:1012000010BD00000EB52848408A80B202909DF8BB
:1012100008008DF800009DF809008DF801002248B3
:1012200090ED420ADFED210A20EE200ABDEEC00A51
:1012300010EE100A80B202909DF808008DF80200AE
:101240009DF809008DF803001748B0F818010290C6
:101250009DF808008DF804009DF809008DF8050040
:10126000134890ED0B0A1048D0ED4A0A30EE200AE0
:10127000DFED0E0A20EE200ABCEEC00A10EE100AC6
:1012800080B202909DF808008DF806009DF80900D4
:101290008DF8070000BF08236A4606490648FFF795
:1012A0004FFC0028F7D00EBDE40C00200000C8421F
:1012B0001C0E002002000100200F0020002181717F
:1012C000C171017241728172C1728170C17003215A
:1012D00001710221417101210180704710B5024660
:1012E0000020936803F08063B3F1806F00D110E0B9
:1012F000936803F00063B3F1006F01D1012008E0AF
:10130000936803F08053B3F1805F01D1022000E0C5
:101310000420042874D002F5C07303EB00131B688B
:1013200003F0010402F5C07303EB00131C600B7A99
:101330007BB94B7A0C8843EA445302F5C07404EB42
:1013400000142468234302F5C07404EB00142360E6
:1013500010E00B7A4C6843EAC4034C7A234302F54D
:10136000C07404EB00142468234302F5C07404EB3A
:10137000001423608B7A03F00F038B7202F5C073A5
:1013800003EB00135B6823F00F0402F5C07303EB5B
:1013900000135C6002F5C07303EB00135B688C7A8A
:1013A000234302F5C07404EB001463608B7B1C06BE
:1013B0004B7B44EA03440B7B44EA0323CC7A23436C
:1013C00002F5C07404EB0014A3608B7C1C064B7CFC
:1013D00044EA03440B7C44EA0323CC7B234302F519
:1013E000C07404EB0014E36002F5C07303EB001358
:1013F0001B6843F0010402F5C07303EB00131C608B
:1014000010BD0246002002EA01030BB1012000E0FA
:101410000020704770B500F029F800211148A0F8AD
:101420008C1080F8941080F8951000240EE00025B0
:1014300008E000210B482C3000EB441020F8151078
:10144000681CC5B2102DF4DB601CC4B2032CEEDBAB
:1014500000210448418241839FED030A80ED070A81
:1014600070BD0000E40C00200000000010B5002159
:101470000548C1740A20054948638863C863002190
:10148000024803F06BFC10BD1C0E00200000014060
:1014900010B501210548C1740A20054948638863D5
:1014A000C8630121024803F059FC10BD1C0E002046
:1014B000000001401FB504464548407A002871D11C
:1014C0004348007B70BB43480078072829D2DFE8F7
:1014D00000F028040A10161C2200A089E18A401A94
:1014E00000B203901DE06089E18A401A00B20390C7
:1014F00017E0A089E18A401A00B2039011E0208928
:10150000E18A401A00B203900BE02089E18A401A78
:1015100000B2039005E06089E18A401A00B20390AE
:1015200000BF2EE02B480078072829D2DFE800F022
:1015300028040A10161C22006089E18A401A00B2B1
:1015400003901DE02089E18A401A00B2039017E061
:101550002089E18A401A00B2039011E0A089E18A53
:10156000401A00B203900BE06089E18A401A00B291
:10157000039005E0A089E18A401A00B2039000BF01
:1015800000BF03A802F042FE1148007801281DD1D7
:10159000B4F90E00B0F5FA6F18DD4FF4FA60E0818F
:1015A00014E0FFE72089E18A401A00B202906089C6
:1015B000E18A401A00B20190A089E18A401A00B283
:1015C00000906A4601A902A802F0B6FE1FBD000005
:1015D0001C0E0020E40C002000210748A0F88C100D
:1015E00080F8941080F895100020034908710021BC
:1015F0000148418370470000E40C00202DE9F041D0
:101600002DED048B07469FED3B0AF0EE409A9FEDCF
:10161000390AB0EE408A384890ED070AB0EE408AA9
:10162000364890ED060AB4EEC80AF1EE10FA03D27D
:1016300090ED060AB0EE408AB0EE480A384600F057
:10164000B1FDF0EE409A2E48D0ED018A9FED2D0AB3
:1016500028EE800ABCEEC00A10EE105AB5F5805F85
:1016600001D340F6FF75A9B2002000F0BDF8B2EE3C
:10167000040A39EE800ADFED240A20EE209ABCEE3F
:10168000C90A10EE106AB6F5805F01D340F6FF7606
:10169000B1B2002000F0B8F801221949C031084663
:1016A000FEF78AFE164890ED300ADFED180AB4EE18
:1016B000E00AF1EE10FA04DD9FED140A80ED300A25
:1016C0000DE00F4890ED300AF2EE040AB4EEE00AA5
:1016D000F1EE10FA03D2B2EE040A80ED300A40F6C1
:1016E000C4140B4844638463C463BDEC048BBDE83D
:1016F000F081000000000000E40C0020AC0C002091
:101700005C0E0020B8269B440000484300F0824550
:101710000000014039B1084A1268012383401A438E
:10172000054B1A6006E0044A1268012383409A437D
:10173000014B1A60704700000074004000B587B08C
:101740000121084602F0E0F90121480702F0ECF916
:1017500005A800F08CFC03208DF8180030200590BF
:1017600002208DF81B0005A9114800F013FC002091
:101770000190029003900220049001A9002000F043
:1017800019F801210020FFF7C5FF01A9102000F082
:1017900011F801211020FFF7BDFF0021084600F0DD
:1017A00023F80021084600F02FF807B000BD000024
:1017B0000000024030B5002200230A4C226840F6A7
:1017C000FE748440A243D1E900452C438D682C432C
:1017D000CD6844EA050303FA00F42243014C226079
:1017E00030BD00000074004008B500220092054A98
:1017F000009200F10802009B1A440092009A1160C6
:1018000008BD00000074004008B500220092054A9F
:10181000009200F11402009B1A440092009A116099
:1018200008BD00000074004010B53B4800683B490B
:10183000084000286ED03A48C18881810189C18161
:1018400041890182007910283EDB3548001DFFF7F1
:1018500031FE3448407A70B93148B0F9120000EED8
:10186000100AB8EEC00ADFED300A20EE200A2C483C
:1018700080ED070A47E02A48B0F9140000EE100A8C
:10188000B8EEC00ADFED280A20EE200A244880EDD9
:10189000080AB0F9160000EE100AB8EEC00ADFED33
:1018A000220A20EE200A1E4880ED090AB0F918002D
:1018B00000EE100AB8EEC00ADFED1B0A20EE200A87
:1018C000174880ED0A0A1EE01548C18800890144C6
:1018D00013484089084484B2032094FBF0F1104877
:1018E000408B084401B20E4841830079401C0C49EA
:1018F000087108460079102805D10846B0F91A0089
:101900000111074841830121064841732020024903
:101910000831086010BD0000006402402080001003
:10192000E40C00201C0E0020FFFF243C10B50D48E5
:1019300000680D490840A0B101200C4981F8100150
:1019400000210848403000F051F800210548583087
:1019500000F04CF84FF40010024908310860800193
:10196000086010BD0064024000802010E40C0020DC
:101970000E4800680E490840B0B10E48B0F82C017E
:1019800000EE100AB8EE400A0A4880ED4C0AB0F8A2
:101990002E0100EE100AB8EE400A064880ED4D0A0E
:1019A00008030249083108607047000000640240E3
:1019B00000800018E40C00200246094B9A4201D234
:1019C000084801E00648103801F000531BB1064BEF
:1019D0000B40C36002E0044B0B4083607047000083
:1019E00010640240006002407D0F7D0F21B102684B
:1019F00042F00102026003E0026822F0010202608C
:101A000070470000016821F00101016000210160C0
:101A100041608160C1600161212141614A49884280
:101A200004D13D21484A103A91608CE04649183172
:101A3000884205D14FF47461434A103A916082E0C4
:101A400041493031884205D14FF474113E4A103A71
:101A5000916078E03C494831884205D14FF074618B
:101A6000394A103A91606EE037496031884204D1BA
:101A70003649354A103AD16065E0334978318842B9
:101A800004D13349304A103AD1605CE02E4990319C
:101A9000884204D12F492C4A103AD16053E02A4998
:101AA000A831884205D14FF03D51274A103AD16004
:101AB00049E02949884204D13D21274A083A11606A
:101AC00041E025491831884205D14FF47461224A1A
:101AD000083A116037E020493031884205D14FF48F
:101AE00074111D4A083A11602DE01B4948318842A3
:101AF00005D14FF07461184A083A116023E0164985
:101B00006031884204D11149134A121F11601AE052
:101B100011497831884204D10D490F4A121F1160D2
:101B200011E00D499031884204D10A490A4A121F36
:101B3000116008E00849A831884204D14FF03D51B6
:101B4000054A121F11607047106002403D000020DE
:101B5000400F002000003D201064024010B501F04D
:101B600080034BB122B1436943F08003436103E03A
:101B7000436923F08003436180290BD02AB10368B5
:101B800001F01E042343036004E0036801F01E0417
:101B9000A343036010BD000010B500220268134B80
:101BA0001A40CC680B6823434C6923438C69234358
:101BB000CC6923430C6A23434C6A23438C6A234336
:101BC0004C6B23438C6B23431A430260426922F01F
:101BD0000702D1E90B3423431A4342610B69436086
:101BE0004B6883608B68C36010BD00003F801CF0B1
:101BF0000021016041608160C160016141618161DA
:101C0000C161016241628162C162016341638163BA
:101C1000704770470121124A82F89C100022104937
:101C200081F89E20C1F8E020A1F8E420A1F8E62088
:101C3000C1F80021C1F804219FED0A0A81ED420A92
:101C40009FED080A81ED430A002006E000220449C6
:101C5000A03141F82020411CC8B21028F6DB7047A3
:101C6000E40C0020000000001CB50121072001F059
:101C70004BFF684600F0FBF901208DF804000020BE
:101C80008DF806000620009000208DF807008DF8E2
:101C900005006946BC4800F07DF90621BA4800F00D
:101CA000E4F9684600F0E3F902208DF80400002012
:101CB0008DF806004FF4E060009002208DF80700D8
:101CC0008DF805006946B14800F064F90122082149
:101CD000AE4800F0A7F901220921AC4800F0A2F9B2
:101CE00001220A21A94800F09DF94FF4E061A748BC
:101CF00000F0BBF9684600F0BAF902208DF8040044
:101D000000208DF806004FF46040009002208DF80E
:101D100007008DF8050069469D4800F03BF9012257
:101D20000D219B4800F07EF901220E21984800F019
:101D300079F901220F21964800F074F94FF46041BF
:101D4000934800F092F9684600F091F902208DF86E
:101D500004004FF4E070009001208DF8070003208C
:101D60008DF805006946884800F014F90222062122
:101D7000854800F057F902220721834800F052F904
:101D800002220821804800F04DF9684600F06FF902
:101D900002208DF80400012000908DF80700032038
:101DA0008DF805006946794800F0F4F80222002118
:101DB000764800F037F9684600F059F902208DF8AE
:101DC000040000208DF806004FF4E0700090012020
:101DD0008DF8070002208DF8050069466C4800F078
:101DE000D9F8022206216A4800F01CF902220721D4
:101DF000674800F017F902220821654800F012F93F
:101E0000684600F034F903208DF804000E2000909D
:101E100069465E4800F0BEF8684600F028F90320E5
:101E20008DF80400302000906946574800F0B2F861
:101E3000684600F01CF903208DF80400082000908B
:101E40006946514800F0A6F8684600F010F90120F4
:101E50008DF8040000208DF806004FF4005000902B
:101E600000208DF807008DF805006946464800F00F
:101E700091F84FF40051444800F0F7F8684600F03C
:101E8000F6F800208DF804004FF440400090002048
:101E90008DF807008DF8050069463B4800F07AF898
:101EA0004FF44041384800F0E0F8684600F0DFF8B1
:101EB00002208DF8040000208DF806004FF4C05079
:101EC000009001208DF8070003208DF80500694679
:101ED0002E4800F05FF809220B212C4800F0A2F8F0
:101EE00009220C21294800F09DF8684600F0BFF84F
:101EF00002208DF8040000208DF806008DF8070000
:101F000003208DF80500282000906946204800F045
:101F100041F802208DF8040000208DF80600022010
:101F20008DF8070003208DF8050010200090694609
:101F3000174800F02FF805220321154800F072F829
:101F400005220421124800F06DF8052211461048C0
:101F500000F068F8684600F08AF801208DF8040067
:101F600000208DF806000120009000208DF8070069
:101F700002208DF805006946034800F00BF80121A6
:101F8000014800F072F81CBD000802400000024049
:101F900000040240F0B50A4600210023002400BFDF
:101FA0003DE0012505FA01F3156805EA03049C42AA
:101FB00034D105684F000326BE40B543056015794E
:101FC0004E00B5400668354305601579012D02D0F5
:101FD0001579022D16D185684F000326BE40B54302
:101FE000856055794E00B540866835438560456803
:101FF00001268E40B5434560456896798E40B6B25D
:1020000035434560C5684F000326BE40B543C560F3
:10201000D5794E00B540C6683543C560491C1029C6
:10202000BFD3F0BDF0B5002300244D07ED0E02FA3A
:1020300005F3CE1000F1200555F826504E07F70E97
:102040000F26BE40B543CF1000F1200646F82750BA
:10205000CE1000F1200555F8265045EA0304CE10B5
:1020600000F1200545F82640F0BD418370474FF64A
:10207000FF7101600021017141718171C17170476F
:1020800000B502F035FC02F06DFC02F0A3FC00BDCF
:1020900000B502F02DFC02F047FC02F0B9FC00BDD7
:1020A00000B502F009FC02F079FC02F093FC00BDDF
:1020B00000B502F0E3FB02F071FC02F0A9FC00BDE8
:1020C00000B502F0F9FB02F02FFC02F0BDFC00BDF0
:1020D00000B502F0D3FB02F045FC02F0B5FC00BDF8
:1020E00010B500F04DF80E4908700E48407A0128EE
:1020F0000AD10C49097B0C4A02EB4111084A1278BB
:1021000051F82200804709E00649097B074A02EBA3
:102110004111034A127851F82200804710BD000097
:10212000E40C00201C0E00201000002050000020B5
:1021300010B500F025F80E4908700E48407A0128C5
:102140000AD10C49097B0C4A02EB4111084A12786A
:1021500051F82200804709E00649097B074A02EB53
:102160004111034A127851F82200804710BD000047
:10217000E40C00201C0E0020100000209000002025
:1021800002490968C1F38210704700001004024040
:1021900000BFFEE710B502F08FFB02F0E3FB02F098
:1021A00037FC10BDF0EE400AC0ED010A90ED030AC5
:1021B00080ED040A90ED020A80ED030A90ED000A1A
:1021C00090ED011A30EE410A80ED020A90ED020A0C
:1021D00090ED031A30EE410A90ED071A20EE010A45
:1021E00080ED0A0A90ED080A90ED021A20EE010A2D
:1021F00080ED0B0A90ED020A90ED031AF0EE001A42
:1022000001EEC10A90ED041A30EE010A90ED091AB0
:1022100020EE010A80ED0C0A90ED0A0A90ED0B1AEF
:1022200030EE010A90ED0C1A30EE010A80ED0D0A35
:1022300090ED0E0A90ED0D1A30EE010A80ED0F0AB6
:1022400090ED0F0AB2EE041AB4EEC10AF1EE10FAE4
:1022500003DDB2EE040A80ED0F0A90ED0F0ABAEE2C
:10226000041AB4EEC10AF1EE10FA03D2BAEE040A6F
:1022700080ED0F0A90ED0F0A80ED0E0A90ED0F0A27
:10228000704700009FED380A80ED000A9FED360A86
:1022900080ED010A9FED340A80ED020A9FED320ABB
:1022A00080ED030A9FED300A80ED040A9FED2E0AAF
:1022B00080ED050A9FED2D0A80ED060A9FED2A0AA2
:1022C00080ED070A9FED280A80ED080A9FED270A96
:1022D00080ED090A9FED250A80ED0A0A9FED220A8A
:1022E00080ED0B0A9FED200A80ED0C0A9FED1F0A7E
:1022F00080ED0D0AB7EE000A80ED110A9FED1C0A71
:1023000080ED120A9FED180A80ED130AB7EE000A5D
:1023100080ED140A9FED170A80ED150A9FED140A4F
:1023200080ED160A9FED120A80ED170A9FED0F0A45
:1023300080ED180A9FED0D0A80ED190A9FED0C0A39
:1023400080ED1A0A9FED0A0A80ED1B0A9FED070A2D
:1023500080ED1C0A9FED050A80ED1D0A9FED040A21
:1023600080ED1E0A7047000000000000CDCCCC3D7F
:102370006F12833ABD370635034800684FF6FD718A
:10238000084001490860704714080240034800688B
:1023900040F0020001490860704700001408024044
:1023A00008B50EA00068009017E0FFF7E5FF4FF4B6
:1023B000487300221146104600F0FEFDFFF7E6FFCD
:1023C000C82300221146104600F0F6FD9DF80000DB
:1023D0009DF80110401A02490870E6E755AA00006E
:1023E0000800002000BFFEE700201049087300210C
:1023F0000E4841738173C17301744174012181746A
:102400009FED0B0A80ED050A9FED090A80ED080A91
:102410009FED070A80ED0B0A002181614162016393
:10242000C174017780F82810704700001C0E00204E
:10243000000000007047704708B519208DF80000B3
:1024400000208DF801008DF8020001208DF80300B6
:10245000684600F077F81E208DF8000000208DF807
:10246000010001208DF802008DF80300684600F09D
:1024700069F838208DF8000000208DF80100022056
:102480008DF8020001208DF80300684600F05AF82C
:102490003B208DF8000002208DF8010000208DF80F
:1024A000020001208DF80300684600F04BF81C2064
:1024B0008DF8000000208DF8010003208DF8020047
:1024C00001208DF80300684600F03CF82C208DF8C0
:1024D000000001208DF8010000208DF8020001208D
:1024E0008DF80300684600F02DF814208DF80000E8
:1024F00002208DF8010001208DF802008DF8030004
:10250000684600F01FF813208DF8000002208DF8B7
:1025100001008DF8020001208DF80300684600F0EC
:1025200011F83A208DF8000001208DF801000320F9
:102530008DF8020001208DF80300684600F002F8D3
:1025400008BD000070B5002100230F22C4781CB321
:10255000174C246804F4E064C4F5E064C4F3072174
:10256000C1F10404E3B20A4144789C40E1B28478AA
:10257000144021430C07210E0E4C05786155047858
:1025800004F01F050124AC4005786D11AD0005F184
:10259000E025C5F8004109E0047804F01F05012496
:1025A000AC40054D0678761145F8264070BD000018
:1025B0000CED00E000E400E080E100E002490143AE
:1025C000024A1160704700000000FA050CED00E0BF
:1025D00070B504460E461546214890F816010328AA
:1025E0002FDDA088301A00B26880A0886188401A68
:1025F00000B2A8800122A91CA81CFDF72FFF012210
:10260000291D281DFDF72AFFB5F90210B5F90400B0
:10261000B1EB800F0EDDB5F9020064280ADD608899
:102620002080A0886080A0886188C1EB4000A080E5
:10263000A08870BD60882080A0886080A680A08867
:10264000F7E7074890F8160124F81060044890F85E
:102650001601401CC1B2024880F816113046E8E766
:10266000E40C0020174818481848194819481A4817
:102670001A481B481B481C481C481D481D481E483A
:102680001E481F481F48204820482148214822480A
:1026900022482348234824482448254825482648DA
:1026A00026482748274828482848294829482A48AA
:1026B0002A482B482B482C482C482D482D482E487A
:1026C00000BF70475C670008606700086667000825
:1026D00068670008646700086A6700086C6700089C
:1026E0006E6700087067000872670008746700086A
:1026F00076670008786700087A6700087C6700083A
:102700007E67000880670008826700088467000809
:1027100086670008886700088A6700088C670008D9
:102720008E670008906700089267000894670008A9
:1027300096670008986700089A6700089C67000879
:102740009E670008A0670008A2670008A467000849
:10275000A6670008A8670008AA670008AC67000819
:10276000AE670008B2670008B4670008B6670008E3
:10277000B8670008BA670008CE67000810B500F017
:1027800017F800F0A3FD00F0CFFD00F0F1FD00F020
:102790006DFD00F02DFD00F085FE00F0AFFE00F0B5
:1027A00027FE00F04DFE00F01BF8FFF75BFF10BDA9
:1027B0000848802102E0491E002204C00029FAD105
:1027C000054A064B1A601A46126822F007021A6080
:1027D00070470000500F002050110020E000002042
:1027E0007047000006480078012808D105480078A5
:1027F000FF2804D203480078401C02490870704743
:1028000004010020FD00002010B500241A480078C3
:10281000012830D1FDF772FD04461848007820B138
:1028200016480078401E1549087014480078F8B919
:1028300013480078E0B900F0C3FE12481249097845
:1028400050F82100114908600F48007810490978B4
:1028500088420DD00D480068006C401C0B49096887
:1028600008640C480068401C0A490860FDF766FDD2
:102870002046FDF747FD10BD04010020FD000020AB
:10288000FE0000208019002000010020140100201B
:10289000FF000020E400002070B505460026104827
:1028A000007808B1002070BDFDF728FD06460D48F0
:1028B0000468006820B10B48006840680949086056
:1028C0003046FDF71FFD4CB103202070258100200C
:1028D000606005A0E062204600F07BFC2046E2E755
:1028E000FD000020E80000203F00000010B50B486C
:1028F000007890B900F064FE094800780949087032
:1029000009480749097850F8210008490860084635
:10291000006807490860FDF7F8FC10BD04010020BD
:1029200000010020FF000020801900201401002079
:102930000C01002010B50024022000F0FFFAFDF782
:10294000DDFC044600200B4908602046FDF7DAFC58
:102950000A2000F0F3FAFDF7D1FC044605480068B0
:10296000054908600120054908702046FDF7CAFCAA
:1029700010BD000008010020F4000020FC00002031
:10298000704700002DE9F04F85B081468A46934696
:102990001C46DDE90F78129D00200390FDF7AEFC88
:1029A00003902348007830B10398FDF7ABFC3C203E
:1029B00005B0BDE8F08F1F4850F8240088BB012007
:1029C0001C4941F824000398FDF79CFC2A46414627
:1029D000384600F057FF2B465A465146484600F00D
:1029E00061F904901198CDE9008002953A4620469D
:1029F0000E9B049900F014FE064636B90E48007886
:102A000001280CD100F0A2FD09E0FDF777FC03904E
:102A10000020084941F824000398FDF773FC304674
:102A2000C6E7FFE70398FDF76DFC2820C0E700002C
:102A3000FD000020801900200401002070470000E4
:102A40002DE9F041054600274B48007810B14020A1
:102A5000BDE8F081FD2D01D13E20F9E7FDF74EFCE8
:102A60000746FF2D03D14548006890F8365044488A
:102A700050F8254024B93846FDF744FC4320E7E7E9
:102A8000012C04D13846FDF73DFC3D20E0E714F869
:102A9000380F3C4931F81000618888432178394A61
:102AA00022F8110014F83809114631F8100028B93D
:102AB000A18F35480088884333490880E06918B100
:102AC0002046E16900F04FFB206A18B12046216AD8
:102AD00000F061FBA66A16B1304600F0B5FB00209D
:102AE000206384F8340084F8350028480078FF28F3
:102AF00004D226480078401C244908703846FDF767
:102B000001FC00F02FFBFDF7F9FB07461F4800789A
:102B100020B11E480078401E1C490870204600F075
:102B200041F81B480078401E1949087000201449DC
:102B300041F82500A06930B9002061698861154914
:102B40006069086005E0D4E905014861D4E9051031
:102B500088611148006860610F4804600FA06065DB
:102B60003846FDF7CFFB0E480078012801D100F070
:102B7000EDFC00206CE70000FD0000200C010020AF
:102B8000801900206017002002010020FE000020B4
:102B90000501002018010020100100203F00000066
:102BA00004010020704770472DE9F04106460F46AA
:102BB00014464FF000081548007818B11220207014
:102BC000BDE8F081FDF79AFB8046FF2E03D1104847
:102BD000006890F836600F4850F826502DB94046EE
:102BE000FDF790FB43202070EAE7012D05D1404618
:102BF000FDF788FB43202070E2E76F654046FDF754
:102C000081FB0020207000BFDAE70000FD000020FB
:102C10000C01002080190020704770472DE9F04713
:102C200007460D464FF0000A002028606860FDF757
:102C300065FB8246FF2F03D11848006890F8367074
:102C4000174850F827402CB95046FDF75BFB43204E
:102C5000BDE8F087012C04D15046FDF753FB43201B
:102C6000F6E7207C00F0010020B95046FDF74AFB52
:102C70004520EDE70026D4F80C90D4F808805046A3
:102C8000FDF740FB00E0761C58F8041B0029FAD041
:102C90002E60A9EB060068600020D9E70C01002037
:102CA0008019002070B50446101D20F00700002692
:102CB000051F28462E604FF01536051F28462E604A
:102CC0004FF01436051F28462E604FF01336051FAF
:102CD00028462E604FF01236051F28462E604FF012
:102CE0001136051F28462E604FF01036051F284666
:102CF0002E604FF00936051F28462E604FF008362B
:102D0000051F28462E604FF00736051F28462E6007
:102D10004FF00636051F28462E604FF00536051F7A
:102D200028462E604FF00436051F28462E604FF0CF
:102D30000336051F28462E604FF00236051F284631
:102D40002E607610051F28462E600026051F284697
:102D50002E604FF08076051F28462E60051F2846FE
:102D60002C60494E051F28462E604FF01236051F75
:102D700028462E604FF00336051F28462E604FF080
:102D80000236051F28462E607610051F28462E6045
:102D9000051F284629604FF03136051F28462E6052
:102DA0004FF03036051F28462E604FF02936051F9C
:102DB00028462E604FF02836051F28462E604FF01B
:102DC0002736051F28462E604FF02636051F284659
:102DD0002E604FF02536051F28462E604FF0243612
:102DE000051F28462E604FF02336051F28462E600B
:102DF0004FF02236051F28462E604FF02136051F62
:102E000028462E604FF02036051F28462E604FF0D2
:102E10001936051F28462E604FF01836051F284624
:102E20002E604FF01736051F28462E604FF01636DD
:102E3000051F28462E604FF01136051F28462E60CC
:102E40004FF01036051F28462E604FF00936051F3B
:102E500028462E604FF00836051F28462E604FF09A
:102E60000736051F28462E604FF00636051F2846F8
:102E70002E604FF00536051F28462E604FF00436B1
:102E8000051F28462E6070BD913700082DE9F041DE
:102E900005464FF00008FDF731FA8046FF2D05D1B9
:102EA0002148006890F83650012608E01E48006866
:102EB00090F83600A84201D1012600E000261B4808
:102EC00050F825402CB94046FDF71CFA4820BDE8D3
:102ED000F081012C04D14046FDF714FA4320F6E7B7
:102EE00094F83870124830F81700618F8843104901
:102EF00021F81700084630F8170028B9A18F0D48AF
:102F0000008888430B49088094F8340040F008009A
:102F100084F834004046FDF7F5F9012E01D100F0A8
:102F200015FB0020D3E700000C01002080190020D1
:102F300060170020020100207047000070B50546B0
:102F400000261848007800B170BD1748007800B11D
:102F5000FAE725B3FDF7D2F906461448006890F861
:102F60003840134830F8140010490968498F8843E5
:102F70000F4921F81400084630F8140038B90B48FE
:102F80000068818F0B48008888430A4908800748F9
:102F9000006805633046FDF7B5F900F0D7FA00BFC9
:102FA000D2E70000FD000020FE0000200C01002000
:102FB00060170020020100202DE9F04104460D4673
:102FC00016461F461248007810B15520BDE8F08122
:102FD0001048007808B13220F8E7781D6421484392
:102FE0004FF47A71B0FBF1F14FF461606043C5EBCF
:102FF000051200EB8200304400EBC00202EB00102F
:1030000001EB80084046FFF799FF0020DEE7000053
:10301000FD000020FE00002070B5002600F074F8CE
:10302000FDF76CF9064632480068401C30490860DC
:103030003046FDF767F92F480078012855D12E4812
:10304000007820B1012804D0022809D103E001252D
:103050000BE0002509E0012501202749087004E064
:10306000012500202449087000BF00BF05B970BDCC
:103070002248046835E0FDF741F90646206B60B34D
:10308000206B401E2063206B38BB94F8340000F0A6
:10309000370040B114F8340F00F0C8002070012050
:1030A0006070343C02E0002084F8350094F834006D
:1030B00000F0080088B9A08F114909880843104919
:1030C000088094F838000F4931F81000618F0843E8
:1030D00094F838100B4A22F8110064693046FDF765
:1030E00011F994F83600FD28C5D100BFBFE70000F4
:1030F0002C010020040100201C01002018010020E8
:1031000002010020601700207047000010B5FDF795
:10311000F5F8044606480078401C0549087020462A
:10312000FDF7F0F8FFF778FFFFF76EFB10BD00002A
:10313000FD00002001464A1E4FF0E0235A61084A74
:10314000106820F07F4000BF10601A46126942F0FC
:1031500005021A611A46126942F002021A617047AA
:1031600020ED00E0704710B590F8382001F10C0315
:1031700033F81230448FA34301F10C0424F81230C9
:10318000234633F812301BB94B89848FA3434B81FC
:103190000023C36110BDF0B5024692F83840958F08
:1031A000568F0B46186811E000F10C0737F81470C1
:1031B000B74300F10C0C2CF81470674637F8147004
:1031C00017B94789AF4347811B1D18680028EBD109
:1031D000F0BD014600224A81002006E0002301F1F3
:1031E0000C0222F81030421CD0B21028F6D37047DF
:1031F0002DE9F0415021114800F04AF900250DE079
:10320000681C86B20D4800EB051400EB0617002081
:10321000207067600AA0E060681C85B2042DEFD3BF
:10322000064800EB051400202070606004A0E060F8
:10323000024804490860BDE8F08100001015002034
:103240003F000000EC00002030B501464A680868E5
:103250002AB9CC68606028B10025456002E01060A2
:1032600000B142608B6800259D6230BD70B54FF49F
:103270007071134800F00CF9002411E0601C85B255
:1032800004EB44000E4901EB001305EB450001EB94
:103290000016002018705E600AA0D862601C84B21C
:1032A000132CEBD304EB4400054901EB0013002081
:1032B0001870586003A0D86208460349086070BDC2
:1032C000501100203F000000E800002000200B49C2
:1032D00008600B4908700B4908700B4908700B49CE
:1032E00008700B4908600B4908600B4908600B49DE
:1032F00008600B4908700B49087070472C010020CA
:10330000FD000020FE000020050100200401002037
:10331000E400002008010020F8000020F400002054
:10332000FC0000202801002000210B4A1180002011
:1033300005E00021094A22F81010411CC8B21028EB
:10334000F7D30021064A1170064A1170064A11602F
:10335000064A11607047000002010020601700203B
:10336000FF00002000010020140100200C010020BB
:1033700070B54FF4FD61194800F08AF84FF47E7182
:10338000174800F085F8002413E0601CC5B2C4EBB8
:10339000C40000EB0410114901EB8003C5EBC5002C
:1033A00000EB051001EB80065E610EA05865601C05
:1033B000C4B2152CE9D3C4EBC40000EB04100749D8
:1033C00001EB80030020586106A0586500200649E3
:1033D000086002480549086070BD0000781D0020A3
:1033E000801900203F00000018010020100100207B
:1033F00000B587B00320002180220A4BCDE90132BD
:10340000CDE903104FF6FF70FD23074A00900748EF
:10341000FFF7B8FA06AA06A1FD20FFF7C5FB07B023
:1034200000BD0000801700207C19002069370008CB
:1034300075432F4F532D49492049646C65000000A6
:1034400000B587B00320002180220A4BCDE901326C
:10345000CDE903104FF6FE70FC23074A00900748A1
:10346000FFF790FA06AA06A1FC20FFF79DFB07B024
:1034700000BD0000601500205C170020A93700087F
:1034800075432F4F532D4949205374617400000038
:1034900004E0002200F8012B4A1E91B20029F8D165
:1034A0007047000070B578211148FFF7F1FF002444
:1034B0000EE004EB44000E4901EBC005601C00EB7C
:1034C000400001EBC00068600AA06861601C84B223
:1034D000042CEED304EB4400054901EBC0050020A9
:1034E000686004A0686108460349086070BD000078
:1034F000602500203F000000200100202DE9F04160
:1035000060211048FFF7C4FF00240DE0601C86B264
:1035100004EB44000B4901EBC00506EB460001EB50
:10352000C0072F60601C84B2032CEFD304EB44006F
:10353000044901EBC00500202860084602490860E4
:10354000BDE8F081D82500202401002010B500241A
:10355000FCF7D4FE044613480078F8B91248007806
:10356000E0B900F02DF811481149097850F8210010
:10357000104908600E4800780F49097888420DD03C
:103580000C480068006C401C0A49096808640B4834
:103590000068401C09490860FCF7CBFE2046FCF798
:1035A000B1FE10BDFD000020FE00002080190020AB
:1035B0000001002014010020FF000020E400002092
:1035C000134A127822B1124A1278124B985C07E023
:1035D000104A0F4B1B8802EB132212780832D0B22C
:1035E0000D4A02EB40010A783AB10A78094B9A5C1D
:1035F00002EB0012094B1A7009E00A88054B03EB35
:103600001222127802EB00120832044B1A70704733
:1036100002010020D0670008601700200001002090
:103620002DE9F84F05460F4690469946DDE90AAB6D
:1036300000200090FCF762FE009044480468002CD3
:103640007ED01C3454F8080C404908600098FCF700
:1036500059FE44F81C7CA5760020207660766061D7
:1036600044F818BC44F810AC44F8148C0C9824F8B6
:103670000C0C24F80A9C002084F8220028092077EA
:1036800005F00F00E076217F012088402084E17E54
:1036900001208840E083002020606060E060A0603E
:1036A0006062E062A0622063606329A0A0631C3CAA
:1036B000002606E0002104F1580040F82610701C96
:1036C000C6B2002EF6D02046FFF75AF9FCF716FED8
:1036D0000090204840F825400098FCF713FE204653
:1036E000FFF7ACF9FCF70AFE00901B480068606128
:1036F0000020A0611848006810B117480068846174
:1037000015480460A08F15490988084313490880AB
:1037100094F83800124931F81000618F084394F88A
:1037200038100F4A22F811000E480078401C0D494D
:1037300008700098FCF7E6FD0020BDE8F88FFFE771
:103740000098FCF7DFFD4220F7E7000010010020A1
:103750003F00000080190020180100200201002015
:103760006017002005010020002400BF00BFFCF707
:10377000C5FD044605480068401C04490860204611
:10378000FCF7C0FDFFF70FFAF1E700000801002089
:1037900010B504480068FFF73FFAFF20FFF750F923
:1037A00010BD00000C01002000BF00BF02E014208B
:1037B000FFF7C4FB1F4800780028F8D01E480068B7
:1037C0006421B0FBF1F01C4908600846006828B984
:1037D00000201A490870FF20FFF758FBFCF78EFD08
:1037E000044615480068642148431549086020468E
:1037F000FCF788FD00BFFCF781FD04461048006817
:103800001049086000200E4908602046FCF77AFD48
:103810000C48006808490968B0FBF1F0C0F1640089
:1038200006490870FFF7F9F900F00EF80A20FFF7D3
:1038300085FBE0E7FC000020F4000020F000002001
:1038400008010020F80000207CB5002514E069463E
:103850002846FFF7E3F9064666B9094850F82540BF
:1038600044B1012C06D0D4E9020100EB8100E064F0
:1038700001982065681CC5B2FD2DE8D97CBD00000B
:103880008019002002F0010343B102F002032BB1C2
:1038900002E0491E002308C00029FAD17047000049
:1038A00010B500207749087048704FF48050764971
:1038B000086004200871000388604FF42F60C8601E
:1038C0009FED720A084680ED040A9FED710A80EDB3
:1038D000050A9FED700A80ED060A9FED6F0A80EDE4
:1038E000070A9FED6E0A80ED080A9FED6D0A80EDD4
:1038F000090A90ED090AF7EE000A80EE801A80EDC1
:103900000A1A9FED680A80ED0B0A9FED670A80EDA9
:103910000C0A0C2180F834109FED630A634880ED97
:10392000000A9FED610A80ED010A9FED5F0A80EDBC
:10393000020A9FED5D0A80ED030A9FED5B0A80EDB0
:10394000040A9FED590A80ED050A9FED570A80EDA4
:103950000A0A9FED550A80ED0B0A9FED530A80ED90
:103960000C0A9FED510A80ED0E0A9FED4F0A80ED83
:103970000F0AB0EE000A80ED070A9FED4D0A80EDB8
:10398000080A9FED490A80ED090A9FED470A80ED7C
:10399000100A9FED450A80ED110A9FED430A80ED64
:1039A000120A9FED410A80ED130A9FED3F0A80ED58
:1039B000140A9FED3D0A80ED150A9FED3B0A80ED4C
:1039C0001A0A9FED390A80ED1B0A9FED370A80ED38
:1039D0001C0A9FED350A80ED1E0A9FED330A80ED2B
:1039E0001F0AB2EE000A80ED170A9FED320A80ED41
:1039F000180A9FED2D0A80ED190A9FED2B0A80ED24
:103A0000200A9FED290A80ED210A9FED270A80ED0B
:103A1000220A9FED250A80ED230A9FED230A80EDFF
:103A2000240A9FED210A80ED250A9FED1F0A80EDF3
:103A30002A0A9FED1D0A80ED2B0A9FED1B0A80EDDF
:103A40002C0A9FED190A80ED2E0A9FED170A80EDD2
:103A50002F0A9FED180A80ED270A9FED170A80EDC7
:103A6000280A9FED160A80ED290AFDF7D3FCFEF720
:103A7000D1F8FEF7B9FC1248FEF704FC00F05EFE38
:103A8000012010BD1C0E0020AC0C002000201945A8
:103A90009A992141000018420AD72340A55E0043AD
:103AA0000000944200003443000000005C0E00203F
:103AB0000AD7A33CCDCCCC3E0AD7233DCDCCCC3DC0
:103AC000300C002000B501469FED0C0AB0EE402AF4
:103AD0009FED0A0AF0EE402A094890ED490AB0EE3F
:103AE000402AB0EE420A0846FEF75CFBF0EE402AA0
:103AF0000448C0ED082A0122027400BD0000000045
:103B0000E40C00201C0E002029B1064A1268024372
:103B1000044B1A6004E0034A12688243014B1A60A6
:103B2000704700003038024029B1064A126802434B
:103B3000044B1A6004E0034A12688243014B1A6086
:103B4000704700004038024029B1064A126802431B
:103B5000044B1A6004E0034A12688243014B1A6066
:103B6000704700002038024029B1064A126802431B
:103B7000044B1A6004E0034A12688243014B1A6046
:103B8000704700004438024029B1064A12680243D7
:103B9000044B1A6004E0034A12688243014B1A6026
:103BA000704700002438024000BF00BF06E000BF9D
:103BB0000023012219461846FFF7FEF9F7E7000037
:103BC000F8B5294890F81301000218B9264890F872
:103BD000140108B1012000E000200746C7F30800E7
:103BE00020B10020204981F81001F8BD1E4890F84E
:103BF000114190F8125190F813614FF6FF7000EAEE
:103C0000442400EA4505F61144EA0500304316490C
:103C1000A1F818010846B0F818116A4600F58D7031
:103C2000FEF7D6FC1049A1F818010846B0F81801B3
:103C300000EE100AB8EE400ADFED0C0A80EE201A02
:103C4000084680ED491A022081F81001084690F8D4
:103C5000150138B9084690ED490A80ED4A0A01215C
:103C600080F8151100BFC0E7E40C0020A60A364317
:103C700010B508480078022802D0022005490870D3
:103C8000FEF788FAFDF7F2FBFDF7A6FCFDF700FC56
:103C900010BD00001C0E002030B52DED028B81B050
:103CA00000259FED560AB0EE408A9FED540A8DED37
:103CB000000A5348B0F8E610A0F8E4105148006834
:103CC00081B24F48A0F8E610B0F8E610B0F8E40072
:103CD0000C1A4B48D0F8000101194948C0F80011EE
:103CE000002C03DA002180F89D1003E001214448F4
:103CF00080F89D104248D0F8EC5090F89C0078BBBA
:103D00003F4890ED420AF2EE090AB4EEE00AF1EE05
:103D100010FA18D290ED420AFAEE090AB4EEE00A5F
:103D2000F1EE10FA0FDD75B100EE105AB8EE400A50
:103D3000DFED350A80EE801A8DED001A0120304942
:103D400081F89C003CE000EE104AB8EEC00AB0EEEC
:103D5000408A9FED2E0AC8EE000ACDED000A2FE042
:103D6000FFE7274890ED420AF2EE090AB4EEE00AB6
:103D7000F1EE10FA08DD90ED420AFAEE090AB4EE0F
:103D8000E00AF1EE10FA00D385B900EE104AB8EE61
:103D9000C00AB0EE408A9FED1D0AC8EE000ACDEDC4
:103DA000000A0020164981F89C0009E000EE105A34
:103DB000B8EE400ADFED140A80EE801A8DED001A8D
:103DC000012213496846FCF7F7FA0D4890F89D0068
:103DD00038B90B4890ED420AB1EE400A80ED420A34
:103DE00004E0074890ED420A80ED420A01210948AB
:103DF000C17301B0BDEC028B30BD000000000000BB
:103E0000E40C002024040040A037A0456F12834139
:103E1000EC0D00201C0E002010B5042000F0C4F8AA
:103E200010BD000000B595B001210803FFF79CFE0E
:103E300001218805FFF768FE494800F0EDF810A859
:103E400000F060F93820ADF84C000020ADF84000DB
:103E50004FF48270ADF842000020ADF8440001201C
:103E6000ADF848000220ADF846000002ADF84A0067
:103E70000020ADF84E0010A9394800F025F90021C6
:103E8000374800F079F80121354800F081F83548CD
:103E9000FDF7B8FD33481830FDF7B4FD01A8FDF774
:103EA000A7FE4FF0C06001902D480C3002902E48C4
:103EB00003900020049004200590002006904FF409
:103EC000806007900020089009900A904FF400301D
:103ED0000B9000200C9003200D9000200E900F906E
:103EE00001A92048FDF758FE4FF0C06001901C4822
:103EF0000C3002901D48039040200490042005904F
:103F000000200B9001A917481830FDF745FE01224B
:103F10000221134800F076F801221146104800F003
:103F200071F8012214210F48FDF718FE0122142117
:103F30000C481830FDF712FE00210A48FDF756FD27
:103F4000002108481830FDF751FD09490548FDF7E3
:103F500033FD084903481830FDF72EFD15B000BDAC
:103F60000030014040640240F50D002009000020AF
:103F7000008020100080001821B1028842F4005215
:103F8000028004E002884DF6FF731A4002807047F9
:103F900021B1028842F04002028004E002884FF61C
:103FA000BF731A400280704710B50446104911488B
:103FB000FDF702FD10490F481830FDF7FDFC0D48D4
:103FC000001D04600D480B490C31086009481C3085
:103FD00004600B4807492431086001210548FDF7BA
:103FE00005FD012103481830FDF700FD10BD00005C
:103FF000008020104064024000800018F50D002071
:10400000090000201AB183880B43838002E0838873
:104010008B4383807047000010B5044624488442D7
:1040200008D101218014FFF7AFFD0021A014FFF794
:10403000ABFD3CE01F48844208D101210014FFF78A
:1040400083FD00212014FFF77FFD30E01A488442F1
:1040500008D10121C013FFF777FD0021E013FFF71E
:1040600073FD24E01548844208D101214014FFF774
:104070008BFD00216014FFF787FD18E01048844293
:1040800009D101210805FFF77FFD00214FF48010C1
:10409000FFF77AFD0BE00B48844208D10121480567
:1040A000FFF772FD00214FF40010FFF76DFD10BD0A
:1040B0000030014000380040003C00400034014026
:1040C000005001400054014010B50022028802F463
:1040D00041520B884C8823438C882343CC8823434C
:1040E0000C8923434C8923438C892343CC89234364
:1040F0001A430280838B4FF2FF74234083830B8A21
:10410000038210BD0021018041808180C180018136
:1041100041818181C1810721018270477047000080
:104120000CB50020019000903448006840F48030C5
:104130003249086000BF3148006800F40030009048
:104140000198401C0190009818B90198B0F5A04F53
:10415000F1D12A48006800F4003010B1012000902D
:1041600001E0002000900098012846D1234840300B
:10417000006840F0805021494031086020480068C4
:1041800040F440401E4908601C48083000681B4944
:10419000083108600846006840F40040086008469E
:1041A000006840F4A05008601648091F0860081F06
:1041B000006840F08070091F086000BF0F48006869
:1041C00000F000700028F9D040F205700E49086038
:1041D0000A480830006820F00300084908310860E8
:1041E0000846006840F00200086000BF034808303D
:1041F000006800F00C000828F8D10CBD003802401F
:104200000070004008544007003C024010B5B0F96F
:104210000020B2F5805F02DB40F6FF720280454A63
:1042200092F89520082A25DA028893B2414A92F83A
:1042300094402C3222F814302C3A92F89520521CDB
:10424000D3B23C4A82F8953092F8953082F8943097
:10425000B2F88C2003881A4413B2364AA2F88C3084
:10426000B2F98C3092F8952093FBF2F213B2314AF6
:1042700053825DE02F4A92F89420521CD3B22D4A0B
:1042800082F8943092F89420082A03DB0023294A0C
:1042900082F89430274A92F89420072A03D1254ABD
:1042A000928D11B208E0234A92F89420521C214BBF
:1042B0002C3333F8122011B2B0F900301D4AB2F994
:1042C00012209A1A322A08DCB0F90030194AB2F9E1
:1042D00012209A1A12F1320F09DA164A528A93B250
:1042E000144A92F894402C3222F8143007E00288E5
:1042F00093B2104A92F894402C3222F814300D4AAE
:10430000B2F88C3092F894402C3232F814201A44CF
:1043100013B2084AA2F88C30B2F88C20521A13B2A9
:10432000044AA2F88C30B2F98C20D310014A53828F
:1043300010BD0000E40C00203CB5B0F90030B3F52E
:10434000805F02DB40F6FF730380B1F90030B3F504
:10435000805F02DB40F6FF730B80B2F90030B3F5EB
:10436000805F02DB40F6FF731380AE4B93F895300D
:10437000082B57DA03889CB2AA4B93F894502C333D
:1043800023F815400B889CB2A64B93F894504C33FD
:1043900023F8154013889CB2A24B93F894506C33C9
:1043A00023F815406C3B93F895305B1CDCB29D4BB9
:1043B00083F8954093F8954083F89440B3F88E3095
:1043C000048823441CB2974BA3F88E40B3F8903076
:1043D0000C8823441CB2934BA3F89040B3F892305E
:1043E000148823441CB28F4BA3F89240B3F98E403B
:1043F00093F8953094FBF3F31CB28A4B9C82B3F98B
:10440000904093F8953094FBF3F31CB2854BDC821B
:10441000B3F9924093F8953094FBF3F31CB2814BBF
:104420001C83FDE07F4B93F894305B1CDCB27D4B2A
:1044300083F8944093F89430082B03DB0024794BE5
:1044400083F89440774B93F89430072B11D1754B38
:104450009B8D1BB2ADF80030724BB3F84C301BB2E1
:10446000ADF802306F4BB3F86C301BB2ADF80430CE
:104470001EE06C4B93F894305B1C6A4C2C3434F87F
:1044800013301BB2ADF80030664B93F89440641CB7
:104490004C3333F814301BB2ADF80230614B93F853
:1044A0009440641C6C3333F814301BB2ADF8043004
:1044B000B0F900405B4BB3F91230E31A322B08DC41
:1044C000B0F90040574BB3F91230E31A13F1320F31
:1044D00009DA544B9B8A9CB2524B93F894502C337C
:1044E00023F8154007E003889CB24E4B93F8945094
:1044F0002C3323F81540B1F900404A4BB3F9123080
:10450000E31A322B08DCB1F90040464BB3F9123004
:10451000E31A13F1320F09DA424BDB8A9CB2414BAA
:1045200093F894504C3323F8154007E00B889CB265
:104530003C4B93F894504C3323F81540B2F90040AB
:10454000384BB3F91230E31A322B08DCB2F90040D1
:10455000344BB3F91230E31A13F1320F09DA314B4D
:104560001B8B9CB22F4B93F894506C3323F815405F
:1045700007E013889CB22B4B93F894506C3323F8CC
:104580001540284BB3F88E4093F894502C3333F8F1
:10459000153023441CB2234BA3F88E40B3F88E3061
:1045A000BDF800401B1B1CB21E4BA3F88E40B3F895
:1045B000904093F894504C3333F8153023441CB298
:1045C000184BA3F89040B3F89030BDF802401B1B85
:1045D0001CB2144BA3F89040B3F8924093F8945057
:1045E0006C3333F8153023441CB20E4BA3F89240C1
:1045F000B3F89230BDF804401B1B1CB2094BA3F862
:104600009240B3F98E30DC10064B9C82B3F99030A7
:10461000DC10044BDC82B3F99230DC10014B1C83BC
:104620003CBD0000E40C002000B501469FED0C0AE3
:10463000B0EE402A9FED0A0AF0EE402A094890EDBC
:10464000420AB0EE402AB0EE420A0846FDF7AAFD43
:10465000F0EE402A0448C0ED052A0122827300BD15
:1046600000000000E40C00201C0E00202FE0184881
:10467000007820B316480078012822D0144800782A
:1046800002281DD16423002211461046FEF794FC37
:10469000FFF7EEFA01200E4908726423002211464A
:1046A0001046FEF789FC0120FCF700FAFDF740FDFB
:1046B000FCF7EEFE0120064908700220487000E079
:1046C00000BF1423002211461046FEF775FCCEE70A
:1046D0001C0E002010B51548006840F47000134906
:1046E00008601348006840F001001149086000208C
:1046F0000F49083108600E4800680E4908400C490F
:1047000008600D48091D0860081F006820F480201B
:10471000091F0860002006490C310860FFF700FD02
:104720004FF0006001498039086010BD88ED00E05D
:1047300000380240FFFFF6FE10300024012005493A
:1047400008720020087048704FF4803048600120E3
:10475000487270471C0E0020F0B50C46154600212B
:104760000022068C4FF6FE773E400684018B028CB9
:104770004FF60C7631407E1C06EA03162E43314379
:104780004FF6F576324044F001063243018302844D
:10479000F0BDF0B50C461546002100220026078C1E
:1047A0004FF6EF7C07EA0C070784018B028C4FF66B
:1047B000FF7707EA041640F6FF4739404FF6FF77C8
:1047C00007EA033739434FF6FF7707EA05273943EE
:1047D0004FF65F773A4046F010073A430183028470
:1047E000F0BDF0B50C461546002100220026078CCE
:1047F0004FF6FF6C07EA0C070784818B028C4FF69B
:10480000FF7707EA04264FF60C7739404FF6FF771B
:1048100007EA03172F4339434FF2FF573A4046F454
:1048200080773A4381830284F0BDF0B50C4615468B
:10483000002100220026078C4EF6FF7C07EA0C07B9
:104840000784818B028C4FF6FF7707EA043640F627
:10485000FF4739404FF6FF7707EA052739434FF600
:10486000FF7707EA0337394345F6FF773A4046F4C6
:1048700080573A4381830284F0BD00000D48008CCC
:104880004FF6FE7108400B4908840846008C4FF62D
:10489000FB710840074908840846008B4FF68F716A
:1048A0000840044908830846008B40F04000088314
:1048B00070470000000001400C48008B4FF68F71DC
:1048C00008400A4908830846008B40F070000883BE
:1048D0000846008C4FF6FE710840044908840846DB
:1048E000008C40F004000884704700000000014084
:1048F0000C48008B4FF68F7108400A490883084620
:10490000008B40F0700008830846008C40F00100E6
:1049100008840846008C4FF6FB7108400149088462
:1049200070470000000001400D48008C4FF6EF7109
:1049300008400B4908840846008C4FF6BF710840B8
:10494000074908840846008B48F6FF71084004496F
:1049500008830846008B40F48040088370470000BD
:10496000000001400C48008B48F6FF7108400A49DE
:1049700008830846008B40F4E04008830846008C1A
:104980004FF6EF710840044908840846008C40F057
:104990004000088470470000000001400C48008B74
:1049A00048F6FF7108400A4908830846008B40F426
:1049B000E04008830846008C40F010000884084658
:1049C000008C4FF6BF710840014908847047000011
:1049D000000001400D48008C4FF6FF6108400B4974
:1049E00008840846008C4FF6FF31084007490884C8
:1049F0000846808B4FF68F7108400449888308462B
:104A0000808B40F040008883704700000000014028
:104A10000C48808B4FF68F7108400A4988830846FE
:104A2000808B40F0700088830846008C4FF6FF6151
:104A30000840044908840846008C40F480600884DB
:104A400070470000000001400C48808B4FF68F71CA
:104A500008400A4988830846808B40F070008883AC
:104A60000846008C40F4807008840846008C4FF69D
:104A7000FF310840014908847047000000000140F0
:104A800010B52DED048B4C48008A00F00100002881
:104A90007ED04948008800F0100000285BD04748CD
:104AA000C07C012856D1464890ED000AB8EE400A75
:104AB000DFED440A20EE200ADFED430A80EE201AE3
:104AC000B0EE418AB0EE480AFBF70CFDF7EE000AA3
:104AD000B7EE001A41EE000A3C48C0ED000A384823
:104AE0000068401C364908600846006844F62061AA
:104AF000884202D300203249086001212F48817387
:104B00002F48006850B93248006840F00100304931
:104B100008609FED300A294880ED050A28480068A2
:104B200042F2107188420BD1294800684FF6FE719D
:104B30000840274908609FED280A204880ED050AB3
:104B40001E48407B01282FD12448FCF757FD002147
:104B50001A48417328E02248FBF726FF2148FBF75B
:104B600023FF1648807B01281ED1144890ED050ACA
:104B700010EE101A084601F0FBFB41EC190BB0EEE9
:104B8000490AF0EE690A00F0B5FFB0EE408A00E095
:104B90000EE0F0EE608A51EC180B01F007F80F49B7
:104BA00008600021054881730121034800F0D3F813
:104BB000BDEC048B10BD0000000001401C0E002065
:104BC000D0000020DB0FC94000409C46D8000020E8
:104BD00014080240000000009A99193F5C0E002062
:104BE000002001400021014010B54FF08040008AB4
:104BF00000F00100002847D0002024490870FFF78A
:104C00004BF82348007A08B1FEF7DAFF204890F805
:104C10002800012814D11E48807C012810D11C488E
:104C200090ED0B0A1B48D0ED4A0A30EE200A1A48D4
:104C300080ED200A8030FEF745FF00211448817482
:104C40001348007F012819D11148C07B012806D1E3
:104C500011484030FFF7E8FC00210D48C1730C48B3
:104C6000007C01280AD10A4890ED080A0A4880ED24
:104C7000100A00210648017401218173FCF7C2FA71
:104C80000121880700F067F810BD0000DC0000205B
:104C90001C0E0020E40C00205C0E002010B505481E
:104CA00000880448008809210248103800F053F8B1
:104CB00010BD00001004004010B50648008800F048
:104CC000020030B1FDF70CFA02210248103800F062
:104CD00042F810BD1008004010B50C48008800F0E4
:104CE000010090B10A480078401C09490870084644
:104CF0000078082804D10748007A08B1FFF78CF83B
:104D000001210248103800F026F810BD10040140BF
:104D1000DC0000201C0E002021B1028842F080023D
:104D2000028004E002884FF67F731A4002807047C9
:104D30000A884B881A438B881A43CB881A430B89FD
:104D40001A434B891A438B891A43A0F844207047B1
:104D5000CA4302827047CA430282704721B1028867
:104D600042F00102028004E002884FF6FE731A400E
:104D70000280704731B1B0F8442042F40042A0F8FC
:104D8000442005E0B0F84420C2F30E02A0F844200D
:104D900070471AB183890B43838102E083898B4377
:104DA0008381704741EA0203A0F848307047000051
:104DB00010B504465548844208D101210846FEF743
:104DC000E3FE00210120FEF7DFFE9DE0B4F1804FFD
:104DD00008D101210846FEF7B7FE00210120FEF7A9
:104DE000B3FE91E04A48844208D101210220FEF737
:104DF000ABFE00210220FEF7A7FE85E04548844275
:104E000008D101210420FEF79FFE00210420FEF7B7
:104E10009BFE79E04048844208D101210820FEF73A
:104E200093FE00210820FEF78FFE6DE03B48844290
:104E300008D101211020FEF787FE00211020FEF787
:104E400083FE61E03648844208D101212020FEF72C
:104E50007BFE00212020FEF777FE55E0314884429A
:104E600008D101210220FEF78FFE00210220FEF76B
:104E70008BFE49E02C48844209D101210804FEF749
:104E800083FE00214FF48030FEF77EFE3CE0274891
:104E9000844209D101214804FEF776FE00214FF437
:104EA0000030FEF771FE2FE02148844209D1012134
:104EB0008804FEF769FE00214FF48020FEF764FEAF
:104EC00022E01C48844208D101214020FEF73CFE2C
:104ED00000214020FEF738FE16E01748844208D132
:104EE00001218020FEF730FE00218020FEF72CFEFD
:104EF0000AE01248844207D101218015FEF724FE02
:104F00000021A015FEF720FE10BD000000000140AA
:104F10000004004000080040000C00400010004069
:104F200000140040000401400040014000440140E2
:104F30000048014000180040001C004000200040D4
:104F4000F0B50C4615461E460021002200230189BB
:104F5000028B038C4FF6F877394021434FF6FC471C
:104F60003A4040F201173A434FF6DD773B404FF6A7
:104F7000FF7707EA06172F433B430181028303842F
:104F8000F0BD70B505460C46208850B92389A2882B
:104F900061882846FFF7E0FBE188284600F0BFF96A
:104FA00025E0208804280AD12389A2886188284620
:104FB000FFF7EFFBE188284600F0BAF917E02088F8
:104FC00008280AD12389A28861882846FFF709FCAE
:104FD000E188284600F0B9F909E02389A2886188B0
:104FE0002846FFF722FCE188284600F0B7F970BD9B
:104FF000002101804180012181800021C180018147
:1050000070471AB183890B43838102E083898B4304
:105010008381704730B504460D462946204600F08E
:105020005AF9208940F00700208130BD70B5002476
:1050300000220023058C4FF6FE7635400584028C55
:105040008388048B4FF68F752C40B51E2C400D883D
:105050002C43751E2A408D892A434D882A43104DC2
:10506000A84202D00F4DA84213D14FF6F7752A403F
:10507000CD892A434FF6FB752A408D882A434FF687
:10508000FF652B404FF6FF552B400D8A2B434D8A71
:105090002B43838004838D684563028470BD0000C8
:1050A00000000140000401400A460021018B4FF638
:1050B000F7731940114301837047000070B5002455
:1050C00000220023058C4FF6EF7635400584028CD4
:1050D0008388048B48F6FF752C404FF6FF452C4023
:1050E0000D884FF6FF7606EA05252C434FF6DF754F
:1050F0002A408D8906EA05152A434D8806EA0515DA
:105100002A43154DA84202D0144DA8421DD14FF696
:105110007F752A40CD894FF6FF7606EA05152A43AA
:105120004FF6BF752A408D8806EA05152A434FF6CB
:10513000FF352B404FF2FF752B400D8A06EA85059F
:105140002B434D8A06EA85052B43838004838D68B3
:105150008563028470BD000000000140000401402E
:105160000A460021018B4FF2FF7319404FF6FF737F
:1051700003EA0223194301837047000070B500243D
:1051800000220023058C4FF6FF6635400584028C13
:105190008388848B4FF68F752C404FF6FC752C401E
:1051A0000D882C434FF6FF552A408D894FF6FF7628
:1051B00006EA05252A434D8806EA05252A43154DAA
:1051C000A84202D0144DA8421DD14FF2FF752A40CB
:1051D000CD894FF6FF7606EA05252A434FF6FF35BF
:1051E0002A408D8806EA05252A434EF6FF752B4096
:1051F0004DF6FF752B400D8A06EA05152B434D8AA7
:1052000006EA05152B43838084838D68C563028479
:1052100070BD000000000140000401400A4600216A
:10522000818B4FF6F773194011438183704700213A
:1052300001804180818081608181C18101824182C0
:1052400070472DE9F04105460C460026012760888D
:1052500008B9022600E00026A088012801D1022713
:1052600000E001272088A0B92389A2886188284608
:10527000FFF772FAE188284600F051F823893A4690
:1052800031462846FFF785FAE188284600F050F8B5
:1052900013E02389A28861882846FFF77AFAE1881B
:1052A000284600F045F823893A4631462846FFF75C
:1052B00053FAE188284600F032F8BDE8F08121B1C8
:1052C000828842F08002828004E082884FF67F73F9
:1052D0001A40828070470A46002101894FF68F7379
:1052E000194011430181704702894FF67F731A40BC
:1052F000028102890A430281704782884FF68F73C8
:105300001A40828082880A438280704702894FF661
:10531000F8731A40028102890A4302817047028BA6
:105320004FF6F3731A400283028B0A4302837047DD
:10533000028B4FF2FF331A400283028B4FF6FF734A
:1053400003EA01231A4302837047828B4FF6F373FB
:105350001A408283828B0A4382837047828B4FF28A
:10536000FF331A408283828B4FF6FF7303EA0123D7
:105370001A4382837047000000220288184B98422B
:105380000ED0184B98420BD0B0F1804F08D0164B7E
:10539000984205D0154B984202D0154B984204D143
:1053A0004FF68F731A404B881A43124B984207D01E
:1053B000114B984204D04FF6FF431A400B891A4311
:1053C00002804B68C3620B880385054B984202D06C
:1053D000044B984201D18B7A038601238382704764
:1053E00000000140000401400004004000080040AB
:1053F000000C004000100040001400404FF0FF314E
:10540000416000210180018141808172704700006C
:1054100000B58DB001210846FEF7A6FB3E48FFF718
:10542000C7FC0020ADF830002020ADF82A0041F282
:1054300067000B900020ADF828008DF832000AA913
:105440003548FFF799FF05A8FFF7F1FE7020ADF88A
:1054500014000020ADF82400ADF826000220ADF8BD
:1054600020000820ADF822000120ADF8160004202D
:10547000ADF818000A20079005A92748FFF7D6FDC8
:1054800008212548FFF710FE0A20079005A92248A9
:10549000FFF714FE08212048FFF762FE0A2007905C
:1054A00005A91D48FFF76AFE08211B48FFF7B6FE55
:1054B00001211948FFF74CFC012211461648FFF75D
:1054C000A0FD0020ADF804004FF48060ADF80600A8
:1054D0000020ADF80800E020ADF80A000020ADF88B
:1054E0000C004FF40050ADF80E004000ADF8100075
:1054F00001A90948FFF71CFCFCF74CFE01210648F6
:10550000FFF70AFC01210448FFF728FC01210248AB
:10551000FFF730FC0DB000BD000001400EB50121C9
:105520000846FEF701FB4FF08040FFF741FC68465C
:10553000FFF764FF0020ADF80800ADF8020004207A
:1055400001900120ADF8000069468007FFF714FFC5
:1055500006214FF08040FFF7D9FE10218806FFF7A3
:10556000BAFE10218806FFF755FD00214FF080405C
:10557000FFF7F4FB01218807FFF7EAFB0122114640
:105580009007FFF73EFD0EBD00B587B00121022058
:10559000FEF7CAFA2648FFF70BFC04A8FFF72EFF18
:1055A0000020ADF81200ADF818004FF6FF7005901E
:1055B0000020ADF8100004A91D48FFF7DDFE0A2306
:1055C0001A4603211A48FFF7BBFC01A8FFF710FD9C
:1055D0000020ADF804000120ADF80C0001A914482A
:1055E000FFF7CFFC0420ADF804000120ADF80C005B
:1055F00001A90F48FFF7C5FC0820ADF80400002002
:10560000ADF806000120ADF808000020ADF80C0050
:10561000ADF80A0001A90648FFF7B3FC00200449D1
:105620002431086001210248FFF798FB07B000BD54
:105630000004004000B587B001210420FEF774FA91
:105640000020ADF81800ADF812004FF6FF7005907D
:105650000020ADF8100004A91A48FFF78DFE0020C5
:10566000ADF804000A20ADF806000020ADF80C00EB
:10567000ADF80A000120ADF8080001A91148FFF7B4
:1056800080FC0420ADF8040001A90E48FFF779FC66
:105690000820ADF8040001A90A48FFF772FC0121B7
:1056A0000848FFF70CFE02210648FFF751FB0122D4
:1056B00002210448FFF7A5FC01210248FFF74EFB39
:1056C00007B000BD0008004000B595B001210820DA
:1056D000FEF72AFA01214805FEF716FA3D48FCF7C5
:1056E00091F94FF0406000903B4801903B48029098
:1056F0000020039006200490002005904FF4806065
:105700000690800007908000089080110990400268
:105710000A9000200B9001200C9000200D900E901C
:1057200069462C48FCF738FA01212A48FCF75EF953
:1057300029483438FFF73CFB12A8FFF75FFE002032
:10574000ADF84A00ADF85000401E13900120ADF8AE
:10575000480012A920483438FFF70EFE0FA8FFF7C3
:1057600047FC0020ADF83C00ADF83E000120ADF84C
:1057700040000020ADF84200ADF844000FA91648E3
:105780003438FFF75EFD502113483438FFF7A3FD8E
:10579000042111483438FFF7B9FD80210E48343810
:1057A000FFF7A2FD4FF480720D210B483438FFF74C
:1057B000F9FA0122510208483438FFF7EAFA0020CA
:1057C000054910390860012103483438FFF7C6FA4B
:1057D00015B000BD40600240340C0040CC0D0020EC
:1057E0000EB501210220FEF7BFF90020ADF8080038
:1057F000ADF8020040F2473001901320ADF80000F0
:1058000069460C48FFF7B8FD20210A48FFF775FDEF
:1058100080210848FFF768FD01210648FFF798FA44
:10582000012211460348FFF7ECFB00210148FFF776
:1058300095FA0EBD000401401448008B48F68F71A4
:105840000840124908830846008B47F2700108435C
:105850000E4908830846808B4FF68F7108400B492C
:1058600088830846808B40F0700088830846008C4F
:105870004FF6EE610840054908840846008C40F266
:10588000444108430149088470470000000001407A
:105890001348008B48F68F71084011490883084669
:1058A000008B47F2700108430D4908830846808B3E
:1058B0004FF68F7108400A4988830846808B40F074
:1058C000700088830846008C4FF6EE31084004498A
:1058D00008840846008C40F4A270088470470000D9
:1058E000000001401448008B48F68F7108401249AF
:1058F00008830846008B47F2700108430E4908836D
:105900000846808B4FF68F7108400B498883084604
:10591000808B40F0700088830846008C4FF6BE6193
:105920000840054908840846008C40F214410843A9
:105930000149088470470000000001401348008BB3
:1059400048F68F710840114908830846008B47F2DA
:10595000700108430D4908830846808B4FF68F710C
:1059600008400A4988830846808B40F0700088838D
:105970000846008C4FF6BE310840044908840846AA
:10598000008C40F48A7008847047000000000140D9
:105990001448008B48F68F71084012490883084666
:1059A000008B47F2700108430E4908830846808B3C
:1059B0004FF68F7108400B4988830846808B40F072
:1059C000700088830846008C4FF6EB61084005495B
:1059D00008840846008C40F241410843014908848C
:1059E00070470000000001401448008B48F68F719A
:1059F0000840124908830846008B47F270010843AB
:105A00000E4908830846808B4FF68F7108400B497A
:105A100088830846808B40F0700088830846008C9D
:105A200040F241110843054908840846008C4FF6AE
:105A3000EB31084001490884704700000000014034
:105A40001448008B48F68F710840124908830846B5
:105A5000008B47F2700108430E4908830846808B8B
:105A60004FF68F7108400B4988830846808B40F0C1
:105A7000700088830846008C40F2114108430549B4
:105A800008840846008C4FF6BB6108400149088431
:105A900070470000000001401448008B48F68F71E9
:105AA0000840124908830846008B47F270010843FA
:105AB0000E4908830846808B4FF68F7108400B49CA
:105AC00088830846808B40F0700088830846008CED
:105AD00040F211110843054908840846008C4FF62E
