:020000040800F2
:10000000782D002069020008812E0008252A0008AA
:100010002D2E0008550B00080568000800000000A0
:10002000000000000000000000000000514C00082B
:10003000BF2200080000000047030008713B0008D1
:10004000A3020008A3020008A3020008A3020008FC
:10005000A3020008A3020008A3020008A3020008EC
:10006000A3020008A3020008A3020008A3020008DC
:10007000A3020008A3020008A3020008A3020008CC
:10008000A3020008A3020008A30200082D0C000828
:10009000590B0008A3020008A3020008A3020008ED
:1000A000A3020008ED560008A3020008A3020008FE
:1000B00079580008315900087D590008A30200084A
:1000C000A3020008A3020008A3020008A30200087C
:1000D000A3020008A3020008A3020008A30200086C
:1000E000A3020008A3020008A3020008A30200085C
:1000F000B5590008A3020008A3020008A3020008E3
:10010000A3020008A3020008A3020008A30200083B
:10011000A3020008A3020008A3020008A30200082B
:10012000B11E0008A3020008D91F00081D20000806
:10013000A3020008A3020008A3020008A30200080B
:10014000A3020008A3020008A3020008A3020008FB
:10015000A3020008A3020008A3020008A3020008EB
:10016000A3020008A3020008A3020008A3020008DB
:10017000A3020008A3020008A3020008A3020008CB
:10018000A3020008A302000800F002F800F05CF8E7
:100190000AA090E8000C82448344AAF10107DA45E2
:1001A00001D100F051F8AFF2090EBAE80F0013F0D8
:1001B000010F18BFFB1A43F0010318472C7C000005
:1001C0004C7C00000A444FF0000C10F8013B13F087
:1001D000070408BF10F8014B1D1108BF10F8015BA0
:1001E000641E05D010F8016B641E01F8016BF9D193
:1001F00013F0080F1EBF10F8014BAD1C0C1B09D1EA
:100200006D1E58BF01F801CBFAD505E014F8016B5B
:1002100001F8016B6D1EF9D59142D6D370470000ED
:100220000023002400250026103A28BF78C1FBD8FF
:10023000520728BF30C148BF0B6070471FB506F09A
:10024000D7FF1FBD10B510BD00F0DEF91146FFF756
:10025000F5FF06F0FFFA00F0FCF903B4FFF7F2FF38
:1002600003BC00F063FA000011488047DFF8440047
:10027000016841F470010160BFF34F8FDFF838006F
:10028000016821F040410160BFF36F8F0B480047C8
:10029000FEE7FEE7FEE7FEE7FEE7FEE7FEE7FEE736
:1002A000FEE7FEE706480749074A084B704700008B
:1002B000A552000888ED00E034EF00E08901000855
:1002C00078270020782D0020782900207829002028
:1002D000EFF3098141B1F1EE101A40F8041D20ED51
:1002E000200A2C490A6810607047B0EC200A02C846
:1002F000E1EE101A28490A6810607047EFF3108089
:1003000072B6704780F31088704724484FF0FF01A1
:100310000170002080F309882148016881F3088872
:1003200020480121017020484FF08051016062B6E1
:10033000FEE71D484FF08051016070471A484FF0AA
:1003400080510160704772B6EFF3098040B14038C8
:1003500080EC108A203880E8F00F0E4909680860A8
:1003600000B5124880475DF804EB114811490A783E
:100370000270084808490A680260106890E8F00FA7
:10038000203090EC108A403080F309884EF0F40E53
:1003900062B67047100100201801002022ED00E035
:1003A000E40000200801002004ED00E09D39000871
:1003B000030100200401002093081BD090ED000AE7
:1003C000D0ED011AD0ED020A90ED031AB0EEC00A8A
:1003D00081ED000AF0EEE11AB0EEE00AC1ED011A7B
:1003E000F0EEC10A81ED020AC1ED030A10301031AE
:1003F0005B1EE3D112F0030208BF7047B2F1004F59
:1004000023D2002AD8BF7047001F091F12F0010F26
:1004100007D090ED010A001DB0EEC00A81ED010A7F
:10042000091D520808BF704790ED010AB0EEC00ADE
:1004300081ED010A90ED020A0830B0EEC00A81EDAC
:10044000020A0831521EEFD17047B0EC010A521E69
:10045000B0EEC00AA1EC010AF7D1704730B493089E
:100460004FF000052AD000BF30F902CB30F9024B23
:10047000BCF1000FDCBFD5FA1CFC0FFA8CFC002C81
:10048000DCBFD5FA14F424B2CCEA044C41F804CB16
:1004900030F902CB30F9024BBCF1000FDCBFD5FACA
:1004A0001CFC0FFA8CFC002CDCBFD5FA14F424B22F
:1004B000CCEA044C41F804CB5B1ED5D112F0030208
:1004C00004BF30BC704700BF30F9023B002BDCBFDB
:1004D000D5FA13F31BB221F8023B521EF4D130BC03
:1004E000704700009FED1A1AF5EE000A40EE010A6F
:1004F000BDEEE00AF5EEC00A10EE100AF1EE10FAB9
:1005000038BF401E00EE100A1349F7EE001AB8EE8D
:10051000C00A30EEC00ADFED0F0A20EE200AFCEE22
:10052000C00A10EE900AC0F3080000EE900A01EB3A
:100530008000F8EE600A90ED011A70EE600A90ED0E
:10054000000A71EEE01A21EE800A00EE810A70477F
:1005500083F9223E00000044E4750008DFED190A2B
:10056000B5EEC00A60EE200ABDEEE01A11EE100AE8
:10057000F1EE10FA38BF401E00EE100A1349F7EEF4
:10058000001AB8EEC00A30EEC00ADFED0F0A60EEC6
:10059000200ABCEEE00A10EE100AC0F3080000EEDC
:1005A000100A01EB8000B8EE400A90ED011A70EEDF
:1005B000C00A90ED000A71EEE01A21EE800A00EE0A
:1005C000810A704783F9223E00000044E475000868
:1005D00070477047704700001FB584B000200A9C28
:1005E00006AB04AA02A90094AFF3008018B1DDE9BC
:1005F000020108B010BD0348204000F030F8002090
:100600000146F6E70000207C754600F02FF8AE4664
:1006100005006946534620F00700854618B020B50E
:10062000FFF740FEBDE820404FF000064FF0000706
:100630004FF000084FF0000B21F00701AC46ACE88A
:10064000C009ACE8C009ACE8C009ACE8C0098D46F7
:1006500070470446AFF300802046FFF7FEFD10B55B
:1006600000F00EF8BDE8104000F004B800487047F4
:1006700014270020002801D000F058B8704700006F
:1006800010B5022803D0410103D50DA112E00020CE
:1006900010BD010101D50FA10CE0C10001D511A1D0
:1006A00008E0810001D512A104E0400001D513A1AA
:1006B00000E0002115A000F03FF8012010BD00006F
:1006C000496E76616C6964204F7065726174696F00
:1006D0006E000000446976696465204279205A659D
:1006E000726F00004F766572666C6F7700000000D5
:1006F000556E646572666C6F77000000496E6578B0
:1007000061637420526573756C74000053494746E9
:1007100050453A2041726974686D6574696320655B
:100720007863657074696F6E3A2000000149182083
:10073000ABBEFEE72600020070B505460C460A2057
:1007400000E06D1C00F011F835B128780028F8D1D0
:1007500002E0641C00F009F814B120780028F8D1F8
:10076000BDE870400A20AFF3008008B569468DF8F7
:1007700000000320ABBE08BD7047000000B599B073
:100780000121080203F0FCFE00F0B8F800201190EF
:100790000F904FF4803010904FF4407012900FA8DB
:1007A00000F07EF80020139001208DF8500000200A
:1007B0008DF851001590179003208DF8600013A953
:1007C0002E4800F0A7F801231A4619462B4800F0DE
:1007D000CBF8012302221146284800F0C5F8012376
:1007E00003221146254800F0BFF80121880503F0D7
:1007F00097FE234801F05CFC002000901F484C301D
:1008000001902048029000200390032004900020D3
:1008100005904FF48060069040000790800008909B
:100820004011099040020A9000200B9001200C908A
:1008300000200D900E906946114801F003FD012142
:100840000F4801F029FC10210D4801F00BFC01229A
:1008500010210B4801F0D8FC0121084800F043F8B2
:100860000121064800F034F80121044800F00CF89A
:10087000024800F0D5F819B000BD0000002001408A
:10088000106402403A0D002021B1826842F001025A
:10089000826003E0826822F00102826070470000FB
:1008A0000021084A1168084A1140D0E900231A4380
:1008B00083681A43C3681A431143044AC2F80413F5
:1008C0007047000004230140E030FCFF002001409D
:1008D00021B1826842F48072826003E0826822F46F
:1008E00080728260704721B1826842F40072826037
:1008F00003E0826822F400728260704710B5012123
:10090000080203F04DFE00214FF4807003F048FE12
:1009100010BD000030B50246002000235068104C86
:1009200020400D790C6844EA05242043506090680B
:100930000C4C2040D1E903542C438D682C434D7955
:1009400044EA450420439060D06A20F470000C7D96
:10095000641EE4B2234340EA0350D06230BD00007D
:10096000FFFEFFFCFDF7FFC0F0B504460D4600207A
:100970000021092D11DDE068A5F10A0606EB460706
:10098000072606FA07F18843A5F10A0606EB460694
:1009900003FA06F10843E0600CE0206905EB450727
:1009A000072606FA07F1884305EB450603FA06F128
:1009B00008432061072A0FDA606B561E06EB860794
:1009C0001F2606FA07F18843561E06EB860605FA2F
:1009D00006F10843606322E00D2A0FDA206BD61F70
:1009E00006EB86071F2606FA07F18843D61F06EB9B
:1009F000860605FA06F10843206310E0E06AA2F1DA
:100A00000D0606EB86071F2606FA07F18843A2F1BA
:100A10000D0606EB860605FA06F10843E062F0BD16
:100A2000816841F0804181607047000010B586B058
:100A300004461E4803F0B0F84FF4FA7005F0EEFEDD
:100A400002F0AAFC032000214FF48072184BCDE97C
:100A50000132CDE9031006200346164A00901648DD
:100A600002F0C2FC032000214022144BCDE90132E8
:100A7000CDE9031031200346104AFC3200901048A3
:100A800002F0B2FC0320002180220E4BCDE901329E
:100A9000CDE90310072003460B4A00900B4802F0F3
:100AA000A3FCFF2002F0FEFC06B010BD80A21900DE
:100AB00034010020300500203D520008340700209A
:100AC000E92D00083405002030070020C14500084A
:100AD00010B502F0D7F901F025FD03F03DFF05F058
:100AE00005FB05F09BFB05F0CFFB05F02DFC05F0A9
:100AF00075FC05F0FFFCFFF741FE01F063F900F023
:100B000033F901F087FF05490870012000F00AF869
:100B10000220034908700020487010BDFC0C002022
:100B20006C0E002030B90A49096841F40051084AA6
:100B300011600AE0012807D1054909684DF6FF72E6
:100B40001140034A116000E0704700BFFCE700005D
:100B50001408024000BFFEE710B502F075FB022149
:100B6000134800F0EFF9012815D10221104800F0D8
:100B7000A7F8104A00210E4800F007FB0D4818386E
:100B80008069B0F5803F06D10A4818388069B0F115
:100B9000011F00D000BF0421054800F0D3F901284F
:100BA00003D10421024800F08BF802F05FFB10BD76
:100BB00000640040141000202DE9F04104460F4667
:100BC00090461E46276000206072207212206060EE
:100BD000A67202F039FB002506E018F8051004F1B2
:100BE0000B004155681CC5B2B542F6DB02F03EFB76
:100BF00021460C4800F0B0FB0B4908750846007D03
:100C0000042802D10020BDE8F08101210648027DC0
:100C10001530815401221146024800F023FA0120C8
:100C2000F1E7000000640040FC0F002010B502F066
:100C30000BFB2148407D88B12048006800F001008E
:100C400008B301201D490860002201211B48083813
:100C500000F008FA0020184948752AE01648807DFF
:100C600090B11648006800F4807060B14FF4807055
:100C700012490860002201211048083800F0F2F9FA
:100C800000210D48817514E00B48C07D88B10B48E8
:100C9000006800F4803060B14FF48030074908608C
:100CA000002201210548083800F0DCF90021024843
:100CB000C17502F0DBFA10BDFC0F00200864004093
:100CC000B1F5007F3AD00FDC202928D006DC0129BD
:100CD0001CD004291DD0082940D11DE0402921D075
:100CE000B1F5807F3AD126E0B1F5004F31D006DC76
:100CF000B1F5806F25D0B1F5006F2FD124E0B1F5AB
:100D0000803F12D0B1F5003F28D111E0154A826032
:100D100025E00822C26022E01022C2601FE0082203
:100D200002611CE01022026119E00822426016E014
:100D30001022426013E00422426010E0042242606C
:100D40000DE0042242600AE0002282610422426037
:100D500005E0002282610422426000E000BF00BF83
:100D6000704700000101010000B587B0012148066D
:100D700003F0E6FB224800F045F804A800F0DCFA96
:100D800000208DF817008DF818008DF8160001204E
:100D90008DF8190000208DF81A008DF81B008DF8D1
:100DA00012008DF8130005208DF8140006208DF830
:100DB0001500ADF8100004A9114800F05CF90020FE
:100DC0008DF80A008DF80B0001208DF80C00002032
:100DD000ADF80000ADF80200ADF80400ADF8060073
:100DE000ADF8080001208DF80D00684600F026F8E7
:100DF00001220721024800F035F907B000BD0000CC
:100E00000064004010B504460B48844209D101211A
:100E1000480603F0A5FB00214FF0007003F0A0FB93
:100E200008E00121880603F09BFB00214FF0806061
:100E300003F096FB10BD00000064004010B50021D7
:100E4000837A012202FA03F13D4A126842F001025C
:100E50003B4B1A603A4A1C3212688A43384B1C33A7
:100E60001A60027BCAB9364A0C3212688A43344B84
:100E70000C331A604288C38842EA0343304A403246
:100E8000847A42F834300288838842EA03432C4A49
:100E90004032847A02EBC4025360027B012A19D1EA
:100EA000274A0C3212680A43254B0C331A604288D9
:100EB000038842EA0343224A4032847A42F83430BB
:100EC000C288838842EA03431D4A4032847A02EB97
:100ED000C4025360C27A3AB9194A121D12688A4391
:100EE000174B1B1D1A6006E0154A121D12680A43B3
:100EF000134B1B1D1A60028932B9114A1432126851
:100F00008A430F4B14331A600289012A06D10C4A16
:100F1000143212680A430A4B14331A60427B012AC6
:100F200006D1074A1C3212680A43054B1C331A606B
:100F3000034A126822F00102014B1A6010BD000042
:100F40000066004070B504460D46002660692840E2
:100F5000002871D0B5F5807F5CD010DC082D35D02D
:100F600006DC012D20D0022D24D0042D72D127E0E3
:100F7000102D31D0202D35D0402D6BD138E0B5F576
:100F8000004F60D009DCB5F5007F49D0B5F5806F22
:100F90004CD0B5F5006F5DD14FE0B5F5803F2DD059
:100FA000B5F5003F56D12FE0A0682D4900F067FA53
:100FB000064651E0E068032100F061FA06464BE086
:100FC000E068082100F05BFA064645E0E068102181
:100FD00000F055FA06463FE02069032100F04FFA81
:100FE000064639E02069082100F049FA064633E058
:100FF0002069102100F043FA06462DE060680821C0
:1010000000F03DFA064627E06068102100F037FA4C
:10101000064621E0A069012100F031FA06461BE0F6
:10102000A069022100F02BFA064615E0A069042110
:1010300000F025FA06460FE00FE0A069702100F0ED
:101040001EFA064608E06068042100F018FA064619
:1010500002E0FFE7002600BF00E00026304670BD3A
:10106000010101001AB143690B43436102E0436986
:101070008B434361704730B502460020002314685B
:1010800024F002041460146844F00104146000E0C9
:101090005B1C546804F001041CB94FF6FF74A342B2
:1010A000F6D1546804F001040CB900206CE08C798E
:1010B000012C04D1146844F08004146003E0146827
:1010C00024F080041460CC79012C04D1146844F01D
:1010D0004004146003E0146824F0400414600C7AA7
:1010E000012C04D1146844F02004146003E0146857
:1010F00024F0200414604C7A012C04D1146844F0CC
:101100001004146003E0146824F0100414608C7A56
:10111000012C04D1146844F00804146003E014683E
:1011200024F008041460CC7A012C04D1146844F033
:101130000404146003E0146824F0040414608C7840
:10114000A407CD7844EA05640D7944EA05444D7955
:1011500044EA05540D886D1E2C43D461146824F0B4
:1011600001041460002300E05B1C546804F00104D7
:101170001CB14FF6FF74A342F6D1546804F0010489
:101180000CB1002000E0012030BD10B500F5D8738F
:1011900003EB01131B6803F004031372137A53B9B2
:1011A00000F5D87303EB01131B6840F2FF7404EAE7
:1011B0005353136009E000F5D87303EB01131B6868
:1011C0006FF0604404EAD303536000F5D87303EB77
:1011D00001131B6803F00203537200F5D87303EB8D
:1011E00001135B6803F00F03937200F5D87303EBF0
:1011F00001135B681B0AD37400F5D87303EB01136A
:101200009B68D37200F5D87303EB01139B681C0A2B
:10121000147300F5D87303EB01139B681C0C547313
:1012200000F5D87303EB01139B681B0E937300F555
:10123000D87303EB0113DB68D37300F5D87303EBAA
:101240000113DB681C0A147400F5D87303EB011357
:10125000DB681C0C547400F5D87303EB0113DB68D6
:101260001B0E937421B9C36843F02003C36003E0ED
:10127000036943F02003036110BD00000EB5294847
:10128000B0F84A0080B202909DF808008DF8000086
:101290009DF809008DF80100224890ED500ADFED1D
:1012A000220A20EE200ABDEEC00A10EE100A80B21B
:1012B00002909DF808008DF802009DF809008DF855
:1012C00003001848B0F8500102909DF808008DF80E
:1012D00004009DF809008DF80500144890ED0E0AF1
:1012E0001048D0ED580A30EE200ADFED0F0A20EE4C
:1012F000200ABCEEC00A10EE100A80B202909DF8DF
:1013000008008DF806009DF809008DF8070000BF61
:1013100008236A4606490748FFF74EFC0028F7D025
:101320000EBD0000FC0C00200000C8426C0E002026
:1013300002000100FC0F002000218171C1710172C7
:1013400041728172C1728170C170032101710221E9
:10135000417101210180704710B502460020936859
:1013600003F08063B3F1806F00D110E0936803F065
:101370000063B3F1006F01D1012008E0936803F02E
:101380008053B3F1805F01D1022000E004200428E3
:1013900074D002F5C07303EB00131B6803F0010463
:1013A00002F5C07303EB00131C600B7A7BB94B7A18
:1013B0000C8843EA445302F5C07404EB001424681B
:1013C000234302F5C07404EB0014236010E00B7A91
:1013D0004C6843EAC4034C7A234302F5C07404EB1F
:1013E00000142468234302F5C07404EB0014236046
:1013F0008B7A03F00F038B7202F5C07303EB0013BB
:101400005B6823F00F0402F5C07303EB00135C600C
:1014100002F5C07303EB00135B688C7A234302F57B
:10142000C07404EB001463608B7B1C064B7B44EAA6
:1014300003440B7B44EA0323CC7A234302F5C074B4
:1014400004EB0014A3608B7C1C064B7C44EA034431
:101450000B7C44EA0323CC7B234302F5C07404EBEA
:101460000014E36002F5C07303EB00131B6843F044
:10147000010402F5C07303EB00131C6010BD0246AB
:10148000002002EA01030BB1012000E000207047B8
:101490002DED028BF54890ED0E8AF0EE485A90ED56
:1014A0000E8AF6EE008A28EE288AB0EE487A90ED91
:1014B0000D8ADFEDEF8A28EE288AF0EE487A37EEC3
:1014C000C78AB0EE486AB1EE678A38EE478AF0EE16
:1014D000486A0020E54981F828009FEDE68AF4EE8D
:1014E000C85AF1EE10FA05DD084690F82800401CB5
:1014F00081F828009FEDDF8AB4EEC86AF1EE10FA99
:1015000006DDDA4890F82800801CD84981F82800C8
:101510009FEDD88AF4EEC86AF1EE10FA06DDD348E2
:1015200090F82800001DD14981F82800CF4890F894
:10153000280007287DD2DFE800F07C43FE04C7883E
:10154000FD00CD4890ED0F8A28EE064A90ED0F8AF7
:1015500028EE255A9FEDC98A38EE448A38EE458A2E
:10156000F6EE008A28EE281AF0EE411A9FEDC38AA3
:1015700038EE448A38EE458AF5EE008A28EE280ACD
:10158000B6EE008AF0EE400A44EE080AB6EE008A93
:10159000B0EE602A05EE082ABDEEC08A18EE100AE9
:1015A00000B2B2494880BDEEE08A18EE100A00B2DF
:1015B0008880BDEEC28A18EE100A00B2C88051E1E0
:1015C000AD4890ED0F8AB1EE488A28EE063A90EDCC
:1015D0000F8AB1EE488A28EE265A9FEDA88A38EE87
:1015E000438A38EE458AF6EE008A28EE281AF0EE95
:1015F000411A9FEDA28A38EE438A38EE458AF5EE0D
:10160000008A28EE280AB6EE008AF0EE400A43EE81
:10161000080AB6EE008AB0EE602A05EE082ABCEE93
:10162000E08A18EE100A00B290494880BCEEC08AE9
:1016300000E011E118EE100A00B28880BCEEC28A08
:1016400018EE100A00B2C8800CE18B4890ED0F8AAA
:1016500028EE253A90ED0F8A68EE263A9FED878AAC
:1016600038EE438A38EE638AF6EE008A28EE281AAE
:10167000F0EE411A9FED818A38EE438A38EE638A94
:10168000F5EE008A28EE280AB6EE008AF0EE400A4F
:1016900043EE080AB6EE008AB0EE602A03EE882A0E
:1016A000BDEEC28A18EE100A00B270494880BDEE45
:1016B000C08A18EE100A00B28880BDEEE08A18EEEB
:1016C000100A00B2C880CDE06B4890ED0F8AB1EEF1
:1016D000488A68EE252A90ED0F8AB1EE488A68EEB6
:1016E000063A9FED668A38EE628A38EE638AF6EE35
:1016F000008A28EE281AF0EE411A9FED608A38EE33
:10170000628A38EE638AF5EE008A28EE280AB6EE81
:10171000008AF0EE400A42EE880AB6EE008AB0EE89
:10172000602A03EE882ABDEEC28A18EE100A00B2C3
:101730004E4901E00EE04CE04880BDEEE08A18EE34
:10174000100A00B28880BDEEC08A18EE100A00B2FE
:10175000C88087E0484890ED0F8A68EE262A90ED11
:101760000F8A68EE064A9FED458A38EE628A38EEA7
:10177000648AF6EE008A28EE281AF0EE411A9FEDF0
:101780003F8A38EE628A38EE648AF5EE008A28EEE7
:10179000280AB6EE008AF0EE400A42EE880AB6EE5B
:1017A000008AB0EE602A04EE882ABDEEE08A18EEC8
:1017B000100A00B22D494880BDEEC28A18EE100A08
:1017C00000B28880BDEEC08A18EE100A00B2C88050
:1017D00048E0294890ED0F8AB1EE488A28EE264A63
:1017E00090ED0F8AB1EE488A68EE254A9FED238A74
:1017F00038EE448A38EE648AF6EE008A28EE281A1B
:10180000F0EE411A9FED1D8A38EE448A38EE648A64
:10181000F5EE008A28EE280AB6EE008AF0EE400ABD
:1018200044EE080AB6EE008AB0EE602A04EE882A7A
:10183000BDEEC08A18EE100A00B20C494880BDEE19
:10184000C28A18EE100A00B28880BDEEE08A18EE57
:10185000100A00B2C88005E00A2004494880888048
:10186000C88000BF00BFBDEC028B7047FC0C00209D
:10187000D7B35D3F77CC2B32B00C002000408345BE
:10188000094890ED160A80ED020A90ED160ADFED88
:10189000070A20EE200AD0ED170A9FED051A01EE87
:1018A000200A80ED030A7047FC0C00203ACD133F5C
:1018B0003ACD933F70B500F02BF800211248A0F804
:1018C000C41080F8CC1080F8CD1000240EE0002564
:1018D00008E000210C48643000EB441020F815109B
:1018E000681CC5B2102DF4DB601CC4B2032CEEDB07
:1018F00000210548A0F84A10A0F852109FED030AF5
:1019000080ED150A70BD0000FC0C002000000000F6
:1019100010B50021054801750A2005494863886310
:10192000C8630021024804F087F810BD6C0E002047
:101930000000014010B50121054801750A20054944
:1019400048638863C8630121024804F075F810BD3C
:101950006C0E0020000001409FED1C0A1C4880ED29
:10196000000A9FED1A0A80ED010A9FED180A80ED2A
:10197000020A9FED160A80ED030A9FED140A80ED1E
:10198000040A9FED120A80ED050A9FED100A80ED12
:101990000A0A9FED0E0A80ED0B0A9FED0C0A80EDFE
:1019A0000C0A9FED0A0A80ED0E0A9FED080A80EDF1
:1019B0000F0AB0EE000A80ED070A9FED060A80EDDF
:1019C000080A9FED020A80ED090A70470000000036
:1019D000B80E00200AD7A33C9FED380A384880EDA6
:1019E000200A9FED360A80ED210A9FED340A80ED32
:1019F000220A9FED320A80ED230A9FED300A80ED26
:101A0000240A9FED2E0A80ED250A9FED2C0A80ED19
:101A10002A0A9FED2A0A80ED2B0A9FED280A80ED05
:101A20002C0A9FED260A80ED2E0A9FED240A80EDF8
:101A30002F0AB7EE000A80ED270A9FED220A80EDFB
:101A4000280A9FED1E0A80ED290A9FED1C0A80EDF1
:101A5000100A9FED1A0A80ED110A9FED180A80ED19
:101A6000120A9FED160A80ED130A9FED140A80ED0D
:101A7000140A9FED120A80ED150A9FED100A80ED01
:101A80001A0A9FED0E0A80ED1B0A9FED0C0A80EDED
:101A90001C0A9FED0A0A80ED1E0A9FED080A80EDE0
:101AA0001F0AB7EE000A80ED170A9FED060A80EDC7
:101AB000180A9FED020A80ED190A70470000000025
:101AC000B80E0020CDCCCC3D1FB504464548407A29
:101AD000002871D14348007B70BB43480078072839
:101AE00029D2DFE800F028040A10161C2200A08981
:101AF000E18A401A00B203901DE06089E18A401A31
:101B000000B2039017E0A089E18A401A00B2039066
:101B100011E02089E18A401A00B203900BE020898D
:101B2000E18A401A00B2039005E06089E18A401A18
:101B300000B2039000BF2EE02B480078072829D27E
:101B4000DFE800F028040A10161C22006089E18AF0
:101B5000401A00B203901DE02089E18A401A00B2C9
:101B6000039017E02089E18A401A00B2039011E047
:101B7000A089E18A401A00B203900BE06089E18AF3
:101B8000401A00B2039005E0A089E18A401A00B231
:101B9000039000BF00BF03A803F0D2F811480078FB
:101BA00001281DD1B4F90E00B0F5FA6F18DD4FF41D
:101BB000FA60E08114E0FFE72089E18A401A00B270
:101BC00002906089E18A401A00B20190A089E18AFE
:101BD000401A00B200906A4601A902A803F04AF92F
:101BE0001FBD00006C0E0020FC0C002000210848E6
:101BF000A0F8C41080F8CC1080F8CD100020044963
:101C000081F83C0000210248A0F852107047000003
:101C1000FC0C00202DE9F0412DED048B07469FEDD3
:101C2000530AB0EE408A9FED510AF0EE408A5048C8
:101C300090ED150AF0EE408A4E4890ED060AB4EE9B
:101C4000E80AF1EE10FA03D290ED060AF0EE408AAF
:101C5000B0EE680A384600F0EFFEB0EE408A464823
:101C600090ED019A9FED450A29EE000ABCEEC00AEC
:101C700010EE105AB5F5805F01D340F6FF75A9B29A
:101C8000002000F0F5F8B2EE040A38EE000ADFEDAD
:101C90003C0A60EE209ABCEEE90A10EE106AB6F536
:101CA000805F01D340F6FF76B1B2002000F0F0F87B
:101CB0009FED340A28EE000A2F4880ED500A90ED7F
:101CC000500AF7EE080AB4EEE00AF1EE10FA03DD6E
:101CD00001202D4908730CE0274890ED500AFFEED3
:101CE000080AB4EEE00AF1EE10FA02D2002026490A
:101CF00008732549097B254A02EB41111C4A1278D9
:101D000051F822008047012221490846FEF754FB82
:101D1000194890ED500ADFED1F0AB4EEE00AF1EE2B
:101D200010FA04DD9FED1B0A80ED500A0DE0124809
:101D300090ED500AF2EE040AB4EEE00AF1EE10FA69
:101D400003D2B2EE040A80ED500A0B4890ED500A1F
:101D5000BCEEC00A10EE100A84B20F4844638463DC
:101D6000C463BDEC048BBDE8F081000000000000FE
:101D7000FC0C0020B00C0020B80E0020B8269B44BC
:101D8000000048430000D2436C0E00209400002065
:101D9000F80F002000F082450000014039B1084AE8
:101DA0001268012383401A43054B1A6006E0044A77
:101DB0001268012383409A43014B1A607047000068
:101DC0000074004000B587B00121084602F0A8FB6E
:101DD0000121480702F0B4FB05A800F0A6FD03208E
:101DE0008DF818003020059002208DF81B0005A901
:101DF000114800F02DFD0020019002900390022078
:101E0000049001A9002000F019F801210020FFF73B
:101E1000C5FF01A9102000F011F801211020FFF7E3
:101E2000BDFF0021084600F023F80021084600F01D
:101E30002FF807B000BD00000000024030B50022BE
:101E400000230A4C226840F6FE748440A243D1E984
:101E500000452C438D682C43CD6844EA050303FA02
:101E600000F42243014C226030BD000000740040A9
:101E700008B500220092054A009200F10802009B7A
:101E80001A440092009A116008BD000000740040DE
:101E900008B500220092054A009200F11402009B4E
:101EA0001A440092009A116008BD000000740040BE
:101EB00010B5444800684449084000287ED0434893
:101EC000C18FA0F84410B0F84010A0F84610B0F848
:101ED0004210A0F8481090F83C00102841DB3B4825
:101EE0003C30FFF7F1FD3A48407A70B93748B0F915
:101EF0004A0000EE100AB8EEC00ADFED360A20EE06
:101F0000200A324880ED150A27E03048B0F94C002D
:101F100000EE100AB8EEC00ADFED2E0A20EE200A0D
:101F20002A4880ED160AB0F94E0000EE100AB8EE0D
:101F3000C00ADFED280A20EE200A244880ED170AA7
:101F4000B0F9500000EE100AB8EEC00ADFED210A29
:101F500020EE200A1D4880ED180A01211C488173DB
:101F600029E01A48C18FB0F8400001441748B0F882
:101F70004200084484B2032094FBF0F11348B0F807
:101F80005200084401B21148A0F8521090F83C00E9
:101F9000401C0E4981F83C00084690F83C0010288F
:101FA00006D10846B0F9520001110848A0F85210B5
:101FB0000021074881732020024900E001E0083138
:101FC000086010BD0064024020800010FC0C00205E
:101FD0006C0E0020FFFF243C10B50D4800680D4931
:101FE0000840A0B101200C4981F8480100210848AF
:101FF000403000F051F800210548583000F04CF80E
:102000004FF400100249083108608001086010BDDB
:102010000064024000802010FC0C00200E48006884
:102020000E490840B0B10E48B0F8640100EE100A45
:10203000B8EE400A0A4880ED5A0AB0F8660100EE90
:10204000100AB8EE400A064880ED5B0A0803024910
:1020500008310860704700000064024000800018EA
:10206000FC0C00200246094B9A4201D2084801E0CC
:102070000648103801F000531BB1064B0B40C360FB
:1020800002E0044B0B408360704700001064024084
:10209000006002407D0F7D0F21B1026842F0010215
:1020A000026003E0026822F0010202607047000053
:1020B000016821F00101016000210160416081603F
:1020C000C1600161212141614A49884204D13D2119
:1020D000484A103A91608CE046491831884205D14F
:1020E0004FF47461434A103A916082E041493031C3
:1020F000884205D14FF474113E4A103A916078E05D
:102100003C494831884205D14FF07461394A103A50
:1021100091606EE037496031884204D13649354AD2
:10212000103AD16065E033497831884204D13349AF
:10213000304A103AD1605CE02E499031884204D197
:102140002F492C4A103AD16053E02A49A8318842DD
:1021500005D14FF03D51274A103AD16049E0294955
:10216000884204D13D21274A083A116041E02549BF
:102170001831884205D14FF47461224A083A11603F
:1021800037E020493031884205D14FF474111D4A9F
:10219000083A11602DE01B494831884205D14FF0C3
:1021A0007461184A083A116023E016496031884288
:1021B00004D11149134A121F11601AE011497831F4
:1021C000884204D10D490F4A121F116011E00D49D8
:1021D0009031884204D10A490A4A121F116008E06E
:1021E0000849A831884204D14FF03D51054A121FD9
:1021F00011607047106002403D000020400F002039
:1022000000003D201064024010B501F080034BB186
:1022100022B1436943F08003436103E0436923F043
:102220008003436180290BD02AB1036801F01E04AA
:102230002343036004E0036801F01E04A34303602A
:1022400010BD000010B500220268134B1A40CC6884
:102250000B6823434C6923438C692343CC69234394
:102260000C6A23434C6A23438C6A23434C6B2343FD
:102270008C6B23431A430260426922F00702D1E9C2
:102280000B3423431A4342610B6943604B688360FC
:102290008B68C36010BD00003F801CF0002101600E
:1022A00041608160C160016141618161C161016220
:1022B00041628162C162016341638163704770471B
:1022C0000121124A82F8D4100022104981F8D62048
:1022D000C1F81821A1F81C21A1F81E21C1F838214C
:1022E000C1F83C219FED0A0A81ED500A9FED080AD2
:1022F00081ED510A002006E000220449D83141F85E
:102300002020411CC8B21028F6DB7047FC0C0020CE
:102310000000000010B57C48407B30B1012822D07D
:10232000022852D003286ED16EE0B2EE050A77483B
:1023300080ED0B0A9FED760A80ED0C0AD0ED040AC1
:10234000B0EE600AFEF7CEF8704880ED060AD0EDD8
:10235000040AB0EE600AFEF701F96C4880ED070A46
:1023600000F05AFC7BE0B1EE0A0A684880ED0B0AE7
:102370009FED670A80ED0C0A90ED040ADFED650A17
:1023800030EE200A80ED040A90ED040ADFED620AC7
:10239000B4EEE00AF1EE10FA03DB9FED5D0A80ED8A
:1023A000040A5A48D0ED040AB0EE600AFEF79AF823
:1023B000564880ED060AD0ED040AB0EE600AFEF73A
:1023C000CDF8524880ED070A49E0B1EE0A0A4F48BD
:1023D00080ED0B0A9FED4E0A80ED0C0AD0ED040A49
:1023E000B0EE600AFEF77EF8484880ED060AD0EDB0
:1023F000040AB0EE600AFEF7B1F8444880ED070A1F
:1024000000F00AFC2BE029E0FFF73AFA01F0E4FFC4
:1024100002F04EFA3C4890ED070A404880ED100A61
:10242000394890ED080A3D4880ED200A3748D0ED44
:10243000080AB0EE600A3948403000F06DFB3348BE
:1024400080ED0B0AD0ED090AB0EE600A3348803007
:1024500000F062FB2D4880ED0C0A00E000BF00BFD9
:1024600002F0FAF9FFF714F82848B0F9020041F237
:102470005E01884202DD0846244948802348B0F9BD
:10248000040041F25E01884202DD08461F4988804F
:102490001E48B0F9060041F25E01884202DD08469E
:1024A0001A49C8801948B0F902000A2802DA0A203D
:1024B000164948801548B0F904000A2802DA0A20B3
:1024C000124988801148B0F906000A2802DA0A2069
:1024D0000E49C8800D48408880B241F26801081A50
:1024E0000F4948630948808880B241F26801081AA0
:1024F0000B4988630548C08880B241F26801081A18
:102500000749C86310BD00006C0E0020FC0C0020C1
:1025100000000000CAADA439DB0FC940B80E00208E
:10252000000001401CB50121072001F0F9FF6846B9
:1025300000F0FBF901208DF8040000208DF8060062
:102540000620009000208DF807008DF805006946F0
:10255000BC4800F07DF90621BA4800F0E4F968466D
:1025600000F0E3F902208DF8040000208DF8060049
:102570004FF4E060009002208DF807008DF8050010
:102580006946B14800F064F901220821AE4800F024
:10259000A7F901220921AC4800F0A2F901220A2181
:1025A000A94800F09DF94FF4E061A74800F0BBF99D
:1025B000684600F0BAF902208DF8040000208DF87A
:1025C00006004FF46040009002208DF807008DF85F
:1025D000050069469D4800F03BF901220D219B480A
:1025E00000F07EF901220E21984800F079F90122CD
:1025F0000F21964800F074F94FF46041934800F0C1
:1026000092F9684600F091F902208DF804004FF429
:10261000E070009001208DF8070003208DF8050080
:102620006946884800F014F902220621854800F026
:1026300057F902220721834800F052F902220821AB
:10264000804800F04DF9684600F06FF902208DF8DF
:102650000400012000908DF8070003208DF805008C
:102660006946794800F0F4F802220021764800F02B
:1026700037F9684600F059F902208DF8040000206F
:102680008DF806004FF4E070009001208DF80700EF
:1026900002208DF8050069466C4800F0D9F8022246
:1026A00006216A4800F01CF902220721674800F061
:1026B00017F902220821654800F012F9684600F077
:1026C00034F903208DF804000E20009069465E481E
:1026D00000F0BEF8684600F028F903208DF80400E9
:1026E000302000906946574800F0B2F8684600F084
:1026F0001CF903208DF80400082000906946514819
:1027000000F0A6F8684600F010F901208DF80400EA
:1027100000208DF806004FF40050009000208DF846
:1027200007008DF805006946464800F091F84FF41F
:102730000051444800F0F7F8684600F0F6F8002031
:102740008DF804004FF44040009000208DF8070001
:102750008DF8050069463B4800F07AF84FF4404197
:10276000384800F0E0F8684600F0DFF802208DF805
:10277000040000208DF806004FF4C05000900120A6
:102780008DF8070003208DF8050069462E4800F0FB
:102790005FF809220B212C4800F0A2F809220C2135
:1027A000294800F09DF8684600F0BFF802208DF837
:1027B000040000208DF806008DF8070003208DF836
:1027C0000500282000906946204800F041F80220CA
:1027D0008DF8040000208DF8060002208DF8070017
:1027E00003208DF80500102000906946174800F07E
:1027F0002FF805220321154800F072F80522042164
:10280000124800F06DF805221146104800F068F8F3
:10281000684600F08AF801208DF8040000208DF849
:1028200006000120009000208DF8070002208DF89E
:1028300005006946034800F00BF80121014800F04B
:1028400072F81CBD00080240000002400004024073
:10285000F0B50A4600210023002400BF3DE0012519
:1028600005FA01F3156805EA03049C4234D10568B2
:102870004F000326BE40B543056015794E00B540B4
:102880000668354305601579012D02D01579022DB2
:1028900016D185684F000326BE40B5438560557943
:1028A0004E00B540866835438560456801268E40F8
:1028B000B5434560456896798E40B6B2354345606C
:1028C000C5684F000326BE40B543C560D5794E00AC
:1028D000B540C6683543C560491C1029BFD3F0BD5B
:1028E000F0B5002300244D07ED0E02FA05F3CE10DB
:1028F00000F1200555F826504E07F70E0F26BE4072
:10290000B543CF1000F1200646F82750CE1000F155
:10291000200555F8265045EA0304CE1000F12005A5
:1029200045F82640F0BD418370474FF6FF710160C6
:102930000021017141718171C171704700B502F0D0
:10294000BFFD02F011FE02F061FE00BD00B502F015
:10295000B7FD02F0EBFD02F077FE00BD00B502F01E
:1029600093FD02F01DFE02F051FE00BD00B502F025
:102970006DFD02F015FE02F067FE00BD00B502F02D
:1029800083FD02F0D3FD02F07BFE00BD00B502F036
:102990005DFD02F0E9FD02F073FE00BD10B500F030
:1029A00039F8064908700649097B064A02EB4111CD
:1029B000024A127851F82200804710BDFC0C00201A
:1029C0006C0E00205400002010B500F023F80E49D2
:1029D00008700E48407A01280AD102F08DFD02F0FD
:1029E000FBFD02F069FE0849087801F073FF09E079
:1029F0000649097B064A02EB4111034A127851F855
:102A00002200804710BD0000FC0C00206C0E00204E
:102A10009400002002490968C1F382107047000049
:102A20001004024000BFFEE710B502F02DFD02F0D9
:102A30009BFD02F009FE10BDF0EE400AC0ED010A58
:102A400090ED030A80ED040A90ED020A80ED030A7E
:102A500090ED000A90ED011A30EE410A80ED020A75
:102A600090ED020A90ED031A30EE410A90ED071A3C
:102A700020EE010A80ED0A0A90ED080A90ED021A94
:102A800020EE010A80ED0B0A90ED020A90ED031A88
:102A9000F0EE001A01EEC10A90ED041A30EE010AC0
:102AA00090ED091A20EE010A80ED0C0A90ED0A0A59
:102AB00090ED0B1A30EE010A90ED0C1A30EE010A7F
:102AC00080ED0D0A90ED0E0A90ED0D1A30EE010A20
:102AD00080ED0F0A90ED0F0AB2EE041AB4EEC10AAF
:102AE000F1EE10FA03DDB2EE040A80ED0F0A90ED6C
:102AF0000F0ABAEE041AB4EEC10AF1EE10FA03D2CC
:102B0000BAEE040A80ED0F0A90ED0F0A80ED0E0A6E
:102B100090ED0F0A70470000F0EE400AC0ED010A88
:102B200090ED020A80ED030A90ED000A90ED011A83
:102B300030EE410A80ED020A90ED020A90ED031A90
:102B400030EE410A90ED071A20EE010A80ED0A0AE4
:102B500090ED080A90ED021A20EE010A80ED0B0AB2
:102B600090ED0A0A90ED0B1A30EE010A80ED0D0A85
:102B700090ED0E0A90ED0D1A30EE010A80ED0F0A6D
:102B800090ED0F0A9FED0F1AB4EEC10AF1EE10FAA4
:102B900003DD9FED0C0A80ED0F0A90ED0F0A9FED0B
:102BA0000A1AB4EEC10AF1EE10FA03D29FED060A3A
:102BB00080ED0F0A90ED0F0A80ED0E0A90ED0F0ADE
:102BC000704700002DB25D412DB25DC1B3EE080A21
:102BD0000D4880ED0E0A9FED0D0A80ED0F0A816809
:102BE00090F83400B1FBF0F000EE100AB8EE400AA5
:102BF000DFED070A80EE801A034880ED101A9FED82
:102C0000050A80ED110A7047B00C0020F08D974343
:102C1000DB0FC9409A99193E2848007C01284BD106
:102C20002648407BD0B92648B0F81C11B0F81E01E8
:102C3000814205D123480088401C2249088002E0D7
:102C40000020204908801F480088B0F57A7F05DB06
:102C500001211A48417300201A4908801748407B17
:102C6000022829D11648B0F81C11B0F81E01814283
:102C700005D114480088401C1249088002E0002059
:102C8000104908800F480088B0F57A7F14DB0121D5
:102C90000A4841730A48D0F838110B48806C091A69
:102CA0000948816490ED120AB8EEC00AD0ED100A0E
:102CB00020EE200A80ED110A704700006C0E002003
:102CC000FC0C002010000020B00C00209FED380A02
:102CD00080ED000A9FED360A80ED010A9FED340A6F
:102CE00080ED020A9FED320A80ED030A9FED300A63
:102CF00080ED040A9FED2E0A80ED050A9FED2D0A56
:102D000080ED060A9FED2A0A80ED070A9FED280A4A
:102D100080ED080A9FED270A80ED090A9FED250A3C
:102D200080ED0A0A9FED220A80ED0B0A9FED200A32
:102D300080ED0C0A9FED1F0A80ED0D0AB7EE000A28
:102D400080ED110A9FED1C0A80ED120A9FED180A12
:102D500080ED130AB7EE000A80ED140A9FED170A02
:102D600080ED150A9FED140A80ED160A9FED120AF8
:102D700080ED170A9FED0F0A80ED180A9FED0D0AEE
:102D800080ED190A9FED0C0A80ED1A0A9FED0A0AE0
:102D900080ED1B0A9FED070A80ED1C0A9FED050AD6
:102DA00080ED1D0A9FED040A80ED1E0A70470000A9
:102DB00000000000CDCCCC3D6F12833ABD37063504
:102DC000034800684FF6FD710840014908607047EC
:102DD000140802400348006840F0020001490860FE
:102DE000704700001408024008B50EA0006800906B
:102DF00017E0FFF7E5FF4FF4487300221146104635
:102E000000F00CFEFFF7E6FFC82300221146104633
:102E100000F004FE9DF800009DF80110401A0249E0
:102E20000870E6E755AA00000800002000BFFEE792
:102E300000201149087303210F4841730021817359
:102E4000C1730174417481740121C1749FED0B0A37
:102E500080ED060A9FED090A80ED0B0A9FED070A37
:102E600080ED0E0A002141620163C163017580F8A3
:102E7000281080F8341070476C0E0020000000000D
:102E80007047704708B519208DF8000000208DF8B4
:102E900001008DF8020001208DF80300684600F063
:102EA00083F81E208DF8000000208DF8010001201D
:102EB0008DF802008DF80300684600F075F83820A0
:102EC0008DF8000000208DF8010002208DF802002E
:102ED00001208DF80300684600F066F81C208DF88C
:102EE000000000208DF8010003208DF80200012071
:102EF0008DF80300684600F057F82C208DF800008C
:102F000001208DF8010000208DF8020001208DF8CD
:102F10000300684600F048F83A208DF800000120D0
:102F20008DF801008DF802008DF80300684600F06E
:102F30003BF81D208DF8000001208DF801000220D3
:102F40008DF8020001208DF80300684600F02CF88F
:102F50003B208DF8000002208DF8010000208DF844
:102F6000020001208DF80300684600F01DF81420CF
:102F70008DF8000002208DF8010001208DF802007C
:102F80008DF80300684600F00FF813208DF800005C
:102F900002208DF801008DF8020001208DF8030059
:102FA000684600F001F808BD70B5002100230F222B
:102FB000C4781CB3174C246804F4E064C4F5E064DE
:102FC000C4F30721C1F10404E3B20A4144789C40F0
:102FD000E1B28478144021430C07210E0E4C057891
:102FE0006155047804F01F050124AC4005786D118B
:102FF000AD0005F1E025C5F8004109E0047804F0D2
:103000001F050124AC40054D0678761145F8264091
:1030100070BD00000CED00E000E400E080E100E0A5
:1030200002490143024A1160704700000000FA059E
:103030000CED00E070B504460E461546214890F8A8
:103040004E0103282FDDA088301A00B26880A088C6
:103050006188401A00B2A8800122A91CA81CFDF7B3
:10306000FDF90122291D281DFDF7F8F9B5F9021017
:10307000B5F90400B1EB800F0EDDB5F9020064284C
:103080000ADD60882080A0886080A0886188C1EB0C
:103090004000A080A08870BD60882080A0886080EB
:1030A000A680A088F7E7074890F84E0124F8106042
:1030B000044890F84E01401CC1B2024880F84E11FD
:1030C0003046E8E7FC0C0020174818481848194813
:1030D00019481A481A481B481B481C481C481D48D8
:1030E0001D481E481E481F481F48204820482148A8
:1030F0002148224822482348234824482448254878
:103100002548264826482748274828482848294847
:1031100029482A482A482B482B482C482C482D4817
:103120002D482E4800BF7047707400087474000862
:103130007A7400087C740008787400087E740008B3
:103140008074000882740008847400088674000883
:10315000887400088A7400088C7400088E74000853
:103160009074000892740008947400089674000823
:10317000987400089A7400089C7400089E740008F3
:10318000A0740008A2740008A4740008A6740008C3
:10319000A8740008AA740008AC740008AE74000893
:1031A000B0740008B2740008B4740008B674000863
:1031B000B8740008BA740008BC740008BE74000833
:1031C000C0740008C2740008C6740008C8740008FF
:1031D000CA740008CC740008CE740008E2740008B9
:1031E00010B500F017F800F0A3FD00F0CFFD00F0DF
:1031F000F1FD00F06DFD00F02DFD00F085FE00F00A
:10320000AFFE00F027FE00F04DFE00F01BF8FFF7C8
:103210005BFF10BD0848802102E0491E002204C067
:103220000029FAD1054A064B1A601A46126822F0A4
:1032300007021A60704700002C1000202C1200209A
:10324000E40000207047000006480078012808D1FB
:1032500005480078FF2804D203480078401C024942
:1032600008707047080100200101002010B50024FB
:103270001A480078012830D1FDF740F80446184874
:10328000007820B116480078401E1549087014488F
:103290000078F8B913480078E0B900F0C3FE12488E
:1032A0001249097850F82100114908600F48007848
:1032B0001049097888420DD00D480068006C401C08
:1032C0000B49096808640C480068401C0A490860FA
:1032D000FDF734F82046FDF715F810BD0801002071
:1032E00001010020020100205C1A002004010020DE
:1032F0001801002003010020E800002070B50546F9
:1033000000261048007808B1002070BDFCF7F6FFD9
:1033100006460D480468006820B10B480068406804
:10332000094908603046FCF7EDFF4CB103202070DE
:1033300025810020606005A0E062204600F07BFC53
:103340002046E2E701010020EC0000203F000000E1
:1033500010B50B48007890B900F064FE0948007879
:103360000949087009480749097850F821000849B7
:1033700008600846006807490860FCF7C6FF10BDF2
:103380000801002004010020030100205C1A002035
:10339000180100201001002010B50024022000F0C8
:1033A000FFFAFCF7ABFF044600200B4908602046FB
:1033B000FCF7A8FF0A2000F0F3FAFCF79FFF044691
:1033C0000548006805490860012005490870204645
:1033D000FCF798FF10BD00000C010020F800002051
:1033E00000010020704700002DE9F04F85B08146B4
:1033F0008A4693461C46DDE90F78129D0020039013
:10340000FCF77CFF03902348007830B10398FCF769
:1034100079FF3C2005B0BDE8F08F1F4850F824002C
:1034200088BB01201C4941F824000398FCF76AFF7F
:103430002A464146384600F057FF2B465A46514629
:10344000484600F061F904901198CDE9008002959A
:103450003A4620460E9B049900F014FE064636B903
:103460000E48007801280CD100F0A2FD09E0FCF71D
:1034700045FF03900020084941F824000398FCF719
:1034800041FF3046C6E7FFE70398FCF73BFF2820E3
:10349000C0E70000010100205C1A002008010020A4
:1034A000704700002DE9F041054600274B480078A1
:1034B00010B14020BDE8F081FD2D01D13E20F9E79B
:1034C000FCF71CFF0746FF2D03D14548006890F824
:1034D0003650444850F8254024B93846FCF712FFCE
:1034E0004320E7E7012C04D13846FCF70BFF3D20D1
:1034F000E0E714F8380F3C4931F810006188884340
:103500002178394A22F8110014F83809114631F8A7
:10351000100028B9A18F35480088884333490880B6
:10352000E06918B12046E16900F04FFB206A18B14C
:103530002046216A00F061FBA66A16B1304600F011
:10354000B5FB0020206384F8340084F83500284857
:103550000078FF2804D226480078401C24490870CF
:103560003846FCF7CFFE00F02FFBFCF7C7FE0746FE
:103570001F48007820B11E480078401E1C49087082
:10358000204600F041F81B480078401E1949087099
:103590000020144941F82500A06930B90020616974
:1035A000886115496069086005E0D4E90501486152
:1035B000D4E9051088611148006860610F48046013
:1035C0000FA060653846FCF79DFE0E480078012884
:1035D00001D100F0EDFC00206CE7000001010020AB
:1035E000100100205C1A00203C1800200601002079
:1035F00002010020090100201C010020140100200C
:103600003F00000008010020704770472DE9F0419D
:1036100006460F4614464FF000081548007818B1CA
:1036200012202070BDE8F081FCF768FE8046FF2E76
:1036300003D11048006890F836600F4850F82650C3
:103640002DB94046FCF75EFE43202070EAE7012DCD
:1036500005D14046FCF756FE43202070E2E76F6537
:103660004046FCF74FFE0020207000BFDAE7000064
:1036700001010020100100205C1A002070477047F3
:103680002DE9F04707460D464FF0000A002028605C
:103690006860FCF733FE8246FF2F03D118480068AC
:1036A00090F83670174850F827402CB95046FCF770
:1036B00029FE4320BDE8F087012C04D15046FCF7D9
:1036C00021FE4320F6E7207C00F0010020B950469F
:1036D000FCF718FE4520EDE70026D4F80C90D4F84E
:1036E00008805046FCF70EFE00E0761C58F8041BDC
:1036F0000029FAD02E60A9EB060068600020D9E707
:10370000100100205C1A002070B50446101D20F046
:1037100007000026051F28462E604FF01536051FAE
:1037200028462E604FF01436051F28462E604FF0B5
:103730001336051F28462E604FF01236051F284607
:103740002E604FF01136051F28462E604FF01036C0
:10375000051F28462E604FF00936051F28462E60AB
:103760004FF00836051F28462E604FF00736051F1C
:1037700028462E604FF00636051F28462E604FF073
:103780000536051F28462E604FF00436051F2846D3
:103790002E604FF00336051F28462E604FF002368C
:1037A000051F28462E607610051F28462E6000262D
:1037B000051F28462E604FF08076051F28462E6094
:1037C000051F28462C60494E051F28462E604FF0E5
:1037D0001236051F28462E604FF00336051F284677
:1037E0002E604FF00236051F28462E607610051F0A
:1037F00028462E60051F284629604FF03136051FE8
:1038000028462E604FF03036051F28462E604FF0B8
:103810002936051F28462E604FF02836051F2846FA
:103820002E604FF02736051F28462E604FF02636B3
:10383000051F28462E604FF02536051F28462E60AE
:103840004FF02436051F28462E604FF02336051F03
:1038500028462E604FF02236051F28462E604FF076
:103860002136051F28462E604FF02036051F2846BA
:103870002E604FF01936051F28462E604FF018367F
:10388000051F28462E604FF01736051F28462E606C
:103890004FF01636051F28462E604FF01136051FD3
:1038A00028462E604FF01036051F28462E604FF038
:1038B0000936051F28462E604FF00836051F28469A
:1038C0002E604FF00736051F28462E604FF0063653
:1038D000051F28462E604FF00536051F28462E602E
:1038E0004FF00436051F28462E6070BDF5410008D4
:1038F0002DE9F04105464FF00008FCF7FFFC80463B
:10390000FF2D05D12148006890F83650012608E0C7
:103910001E48006890F83600A84201D1012600E058
:1039200000261B4850F825402CB94046FCF7EAFC1D
:103930004820BDE8F081012C04D14046FCF7E2FCB0
:103940004320F6E794F83870124830F81700618F7A
:103950008843104921F81700084630F8170028B9A5
:10396000A18F0D48008888430B49088094F83400E3
:1039700040F0080084F834004046FCF7C3FC012EF8
:1039800001D100F015FB0020D3E70000100100205A
:103990005C1A00203C18002006010020704700003F
:1039A00070B5054600261848007800B170BD17486C
:1039B000007800B1FAE725B3FCF7A0FC06461448EE
:1039C000006890F83840134830F81400104909682E
:1039D000498F88430F4921F81400084630F8140035
:1039E00038B90B480068818F0B48008888430A4922
:1039F00008800748006805633046FCF783FC00F048
:103A0000D7FA00BFD2E70000010100200201002028
:103A1000100100203C180020060100202DE9F04193
:103A200004460D4616461F461248007810B1552030
:103A3000BDE8F0811048007808B13220F8E7781D21
:103A4000642148434FF47A71B0FBF1F14FF46160A7
:103A50006043C5EB051200EB8200304400EBC0026E
:103A600002EB001001EB80084046FFF799FF0020B1
:103A7000DEE70000010100200201002070B50026F1
:103A800000F074F8FCF73AFC064632480068401C27
:103A9000304908603046FCF735FC2F480078012893
:103AA00055D12E48007820B1012804D0022809D130
:103AB00003E001250BE0002509E00125012027494D
:103AC000087004E0012500202449087000BF00BFF1
:103AD00005B970BD2248046835E0FCF70FFC0646C6
:103AE000206B60B3206B401E2063206B38BB94F8C2
:103AF000340000F0370040B114F8340F00F0C80073
:103B0000207001206070343C02E0002084F8350011
:103B100094F8340000F0080088B9A08F1149098892
:103B200008431049088094F838000F4931F8100014
:103B3000618F084394F838100B4A22F81100646929
:103B40003046FCF7DFFB94F83600FD28C5D100BFF6
:103B5000BFE7000030010020080100202001002004
:103B60001C010020060100203C18002070470000C6
:103B700010B5FCF7C3FB044606480078401C054915
:103B800008702046FCF7BEFBFFF778FFFFF76EFBDF
:103B900010BD00000101002001464A1E4FF0E02345
:103BA0005A61084A106820F07F4000BF10601A4632
:103BB000126942F005021A611A46126942F00202C5
:103BC0001A61704720ED00E0704710B590F838207A
:103BD00001F10C0333F81230448FA34301F10C04BC
:103BE00024F81230234633F812301BB94B89848FE6
:103BF000A3434B810023C36110BDF0B5024692F888
:103C00003840958F568F0B46186811E000F10C076D
:103C100037F81470B74300F10C0C2CF81470674699
:103C200037F8147017B94789AF4347811B1D1868CF
:103C30000028EBD1F0BD014600224A81002006E0B9
:103C4000002301F10C0222F81030421CD0B21028DF
:103C5000F6D370472DE9F0415021114800F04AF9A0
:103C600000250DE0681C86B20D4800EB051400EB42
:103C700006170020207067600AA0E060681C85B20B
:103C8000042DEFD3064800EB05140020207060607F
:103C900004A0E060024804490860BDE8F08100002B
:103CA000EC1500203F000000F000002030B5014678
:103CB0004A6808682AB9CC68606028B10025456068
:103CC00002E0106000B142608B6800259D6230BD4B
:103CD00070B54FF47071134800F00CF9002411E036
:103CE000601C85B204EB44000E4901EB001305EBA8
:103CF000450001EB0016002018705E600AA0D86233
:103D0000601C84B2132CEBD304EB4400054901EB97
:103D1000001300201870586003A0D86208460349B9
:103D2000086070BD2C1200203F000000EC00002055
:103D300000200B4908600B4908700B4908700B49BB
:103D400008700B4908700B4908600B4908600B4963
:103D500008600B4908600B4908700B4908707047F0
:103D60003001002001010020020100200901002093
:103D700008010020E80000200C010020FC000020C9
:103D8000F8000020000100202C01002000210B4A37
:103D90001180002005E00021094A22F81010411C82
:103DA000C8B21028F7D30021064A1170064A1170D4
:103DB000064A1160064A11607047000006010020A3
:103DC0003C180020030100200401002018010020FD
:103DD0001001002070B54FF4FD61194800F08AF819
:103DE0004FF47E71174800F085F8002413E0601C42
:103DF000C5B2C4EBC40000EB0410114901EB800311
:103E0000C5EBC50000EB051001EB80065E610EA05E
:103E10005865601CC4B2152CE9D3C4EBC40000EB98
:103E20000410074901EB80030020586106A0586583
:103E300000200649086002480549086070BD00007E
:103E4000541E00205C1A00203F0000001C010020CE
:103E50001401002000B587B00320002180220A4B06
:103E6000CDE90132CDE903104FF6FF70FD23074A7B
:103E700000900748FFF7B8FA06AA06A1FD20FFF751
:103E8000C5FB07B000BD00005C180020581A0020D8
:103E9000CD41000875432F4F532D49492049646C8B
:103EA0006500000000B587B00320002180220A4B86
:103EB000CDE90132CDE903104FF6FE70FC23074A2D
:103EC00000900748FFF790FA06AA06A1FC20FFF72A
:103ED0009DFB07B000BD00003C16002038180020F4
:103EE0000D42000875432F4F532D494920537461EB
:103EF0007400000004E0002200F8012B4A1E91B279
:103F00000029F8D17047000070B578211148FFF7FB
:103F1000F1FF00240EE004EB44000E4901EBC00564
:103F2000601C00EB400001EBC00068600AA0686103
:103F3000601C84B2042CEED304EB4400054901EB71
:103F4000C0050020686004A0686108460349086055
:103F500070BD00003C2600203F000000240100202E
:103F60002DE9F04160211048FFF7C4FF00240DE067
:103F7000601C86B204EB44000B4901EBC00506EB64
:103F8000460001EBC0072F60601C84B2032CEFD306
:103F900004EB4400044901EBC005002028600846FA
:103FA00002490860BDE8F081B42600202801002005
:103FB00010B50024FCF7A2F9044613480078F8B9BC
:103FC00012480078E0B900F02DF81148114909783D
:103FD00050F82100104908600E4800780F49097810
:103FE00088420DD00C480068006C401C0A490968E2
:103FF00008640B480068401C09490860FCF799F9FF
:104000002046FCF77FF910BD0101002002010020CD
:104010005C1A002004010020180100200301002088
:10402000E8000020134A127822B1124A1278124B8B
:10403000985C07E0104A0F4B1B8802EB13221278A2
:104040000832D0B20D4A02EB40010A783AB10A7840
:10405000094B9A5C02EB0012094B1A7009E00A88BE
:10406000054B03EB1222127802EB00120832044BCC
:104070001A70704706010020E47400083C18002004
:10408000040100202DE9F84F05460F469046994659
:10409000DDE90AAB00200090FCF730F900904448BD
:1040A0000468002C7ED01C3454F8080C4049086089
:1040B0000098FCF727F944F81C7CA57600202076B0
:1040C0006076606144F818BC44F810AC44F8148C75
:1040D0000C9824F80C0C24F80A9C002084F8220088
:1040E0002809207705F00F00E076217F0120884025
:1040F0002084E17E01208840E08300202060606011
:10410000E060A0606062E062A0622063606329A05A
:10411000A0631C3C002606E0002104F1580040F892
:104120002610701CC6B2002EF6D02046FFF75AF9B2
:10413000FCF7E4F80090204840F825400098FCF790
:10414000E1F82046FFF7ACF9FCF7D8F800901B48DF
:10415000006860610020A0611848006810B117482D
:104160000068846115480460A08F154909880843D8
:104170001349088094F83800124931F81000618F13
:10418000084394F838100F4A22F811000E480078BE
:10419000401C0D4908700098FCF7B4F80020BDE8F9
:1041A000F88FFFE70098FCF7ADF84220F7E7000032
:1041B000140100203F0000005C1A00201C010020B8
:1041C000060100203C18002009010020002400BF47
:1041D00000BFFCF793F8044605480068401C0449FA
:1041E00008602046FCF78EF8FFF70FFAF1E70000B1
:1041F0000C01002010B504480068FFF73FFAFF20CB
:10420000FFF750F910BD00001001002000BF00BFF3
:1042100002E01420FFF7C4FB1F4800780028F8D004
:104220001E4800686421B0FBF1F01C490860084694
:10423000006828B900201A490870FF20FFF758FBD2
:10424000FCF75CF8044615480068642148431549AA
:1042500008602046FCF756F800BFFCF74FF804460C
:10426000104800681049086000200E490860204688
:10427000FCF748F80C48006808490968B0FBF1F001
:10428000C0F1640006490870FFF7F9F900F00EF874
:104290000A20FFF785FBE0E700010020F80000207E
:1042A000F40000200C010020FC0000207CB500255B
:1042B00014E069462846FFF7E3F9064666B909485F
:1042C00050F8254044B1012C06D0D4E9020100EB9E
:1042D0008100E06401982065681CC5B2FD2DE8D915
:1042E0007CBD00005C1A002002F0010343B102F023
:1042F00002032BB102E0491E002308C00029FAD1B5
:104300007047000010B500202849087048704FF42D
:1043100080502749086004200871000388604FF42A
:104320002F60C8609FED230A084680ED040A9FEDC8
:10433000220A80ED050A9FED210A80ED060A9FED15
:10434000200A80ED070A9FED1F0A80ED080A9FED05
:104350001E0A80ED090A90ED090AF7EE000A80EEC8
:10436000801A80ED0A1A9FED190A80ED0B0A9FED65
:10437000180A80ED0C0A062180F83410FEF726FC9E
:10438000FDF7EAFAFDF728FB00F0F6FE00F062F810
:10439000FDF790FAFDF794FFFEF74AFD0D48FEF792
:1043A00095FC00F0B3FF012010BD00006C0E002052
:1043B000B00C0020002019459A99214100001842B4
:1043C0000AD72340A55E0043000094420000344316
:1043D00000000000340C002010B52DED028B1B48AE
:1043E00090ED040A1A48D0ED110A30EE200AB0EE22
:1043F000408AB0EE480AFCF7B1F8144880ED070A8D
:10440000B0EE480AFCF76EF8104880ED060A90ED11
:10441000030AD0ED060A20EE200AD0ED020A90ED44
:10442000071A00EEC10A80ED080A90ED020AD0EDED
:10443000060A20EE200AD0ED030A90ED071A00EEDE
:10444000810A80ED090ABDEC028B10BDFC0C002036
:10445000B00C00209FED1C0A1C4880ED400A9FED27
:104460001A0A80ED410A9FED180A80ED420A9FED7D
:10447000160A80ED430A9FED140A80ED440A9FED71
:10448000120A80ED450A9FED100A80ED4A0A9FED61
:104490000E0A80ED4B0A9FED0C0A80ED4C0A9FED51
:1044A0000A0A80ED4E0A9FED080A80ED4F0A9FED43
:1044B000080A80ED470A9FED070A80ED480A9FED44
:1044C000060A80ED490A704700000000B80E00207F
:1044D000CDCCCC3E0AD7233DCDCCCC3D00B501465A
:1044E0009FED0C0AB0EE402A9FED0A0AF0EE402A3A
:1044F000094890ED570AB0EE402AB0EE420A08464D
:10450000FEF79AFAF0EE402A0448C0ED0B2A012289
:10451000427400BD00000000FC0C00206C0E002066
:1045200029B1064A12680243044B1A6004E0034AA8
:1045300012688243014B1A60704700003038024015
:1045400029B1064A12680243044B1A6004E0034A88
:1045500012688243014B1A607047000040380240E5
:1045600029B1064A12680243044B1A6004E0034A68
:1045700012688243014B1A607047000020380240E5
:1045800029B1064A12680243044B1A6004E0034A48
:1045900012688243014B1A607047000044380240A1
:1045A00029B1064A12680243044B1A6004E0034A28
:1045B00012688243014B1A607047000024380240A1
:1045C00000BF00BF06E000BF0023012219461846C5
:1045D000FFF724FAF7E70000F8B5294890F84B01F7
:1045E000000218B9264890F84C0108B1012000E0FB
:1045F00000200746C7F3080020B10020204981F8B9
:104600004801F8BD1E4890F8494190F84A5190F889
:104610004B614FF6FF7000EA442400EA4505F611AD
:1046200044EA050030431649A1F850010846B0F8A5
:1046300050116A4600F5A970FEF7FCFC1049A1F87C
:1046400050010846B0F8500100EE100AB8EE400ADA
:10465000DFED0C0A80EE201A084680ED571A022082
:1046600081F84801084690F84D0138B9084690EDA8
:10467000570A80ED580A012180F84D1100BFC0E7AC
:10468000FC0C0020A60A364310B50E48007802281C
:1046900002D002200B490870FEF7C6F9FDF738F981
:1046A000FDF7A4FAFDF746F905E0074890F83C004D
:1046B000102800DB00E0F8E700BF00210148017589
:1046C00010BD00006C0E0020FC0C002030B52DED5C
:1046D000028B81B000259FED560AB0EE408A9FED17
:1046E000540A8DED000A5348B0F81E11A0F81C11B1
:1046F0005148006881B24F48A0F81E11B0F81E1151
:10470000B0F81C01081A84B24A48D0F838010119DF
:104710004848C0F83811002C03DA002180F8D51081
:1047200003E00121434880F8D5104248D0F82451D5
:1047300090F8D40078BB3F4890ED500AF2EE090A99
:10474000B4EEE00AF1EE10FA18D290ED500AFAEE4B
:10475000090AB4EEE00AF1EE10FA0FDD75B100EED1
:10476000105AB8EE400ADFED350A80EE801A8DED62
:10477000001A01202F4981F8D4003CE000EE104AD5
:10478000B8EE400AB0EE408A9FED2D0AC8EE000A4E
:10479000CDED000A2FE0FFE7264890ED500AF2EE3B
:1047A000090AB4EEE00AF1EE10FA08DD90ED500AC5
:1047B000FAEE090AB4EEE00AF1EE10FA00D385B978
:1047C00000EE104AB8EE400AB0EE408A9FED1C0A97
:1047D000C8EE000ACDED000A0020164981F8D40089
:1047E00009E000EE105AB8EE400ADFED140A80EE40
:1047F000801A8DED001A012212496846FBF7DCFD94
:104800000C4890F8D50038B90A4890ED500AB1EE3E
:10481000400A80ED500A04E0064890ED500A80ED11
:10482000500A01210848017401B0BDEC028B30BD73
:1048300000000000FC0C002024040040A037A0452C
:104840006F1283413C0E00206C0E002010B5042036
:1048500000F044F910BD00000E4890ED0C0AD0EDB8
:10486000060A20EE200AD0ED0B0A90ED071A00EEA2
:10487000C10A80ED0D0A90ED0B0AD0ED060A20EE7C
:10488000200AD0ED0C0A90ED071A00EE810A80EDA7
:104890000E0A7047FC0C0020034890ED110A0348F3
:1048A00080ED040A70470000B00C0020FC0C0020D2
:1048B0000649CA8A8A82064909688AB20349CA82B5
:1048C000CA8A898A511A08B270470000FC0C00207D
:1048D000240400401849097B69BB072829D2DFE876
:1048E00000F0281C101604220A009FED140A144937
:1048F00081ED040A1EE09FED130A114981ED040ABF
:1049000018E09FED110A0E4981ED040A12E09FEDB7
:104910000F0A0B4981ED040A0CE09FED0D0A0849CE
:1049200081ED040A06E09FED0B0A054981ED040ABA
:1049300000E000BF00BF70476C0E0020DB0FC93FD6
:10494000FC0C0020368D27407F926A40E4CB9640D5
:10495000884EB840920A063F00B595B00121080381
:10496000FFF70EFE01218805FFF7DAFD494800F048
:10497000EDF810A800F060F93820ADF84C000020E8
:10498000ADF840004FF48270ADF842000020ADF861
:1049900044000120ADF848000220ADF846000002B6
:1049A000ADF84A000020ADF84E0010A9394800F0DB
:1049B00025F90021374800F079F80121354800F049
:1049C00081F83548FDF774FB33481830FDF770FB6C
:1049D00001A8FDF763FC4FF0C06001902D480C303A
:1049E00002902E480390002004900420059000209F
:1049F00006904FF4806007900020089009900A907C
:104A00004FF400300B9000200C9003200D900020FC
:104A10000E900F9001A92048FDF714FC4FF0C060E4
:104A200001901C480C3002901D48039040200490D7
:104A30000420059000200B9001A917481830FDF7BD
:104A400001FC01220221134800F076F801221146F0
:104A5000104800F071F8012214210F48FDF7D4FB33
:104A6000012214210C481830FDF7CEFB00210A4822
:104A7000FDF712FB002108481830FDF70DFB09492E
:104A80000548FDF7EFFA084903481830FDF7EAFA40
:104A900015B000BD0030014040640240450E0020CA
:104AA00009000020008020100080001821B1028839
:104AB00042F40052028004E002884DF6FF731A406F
:104AC0000280704721B1028842F04002028004E077
:104AD00002884FF6BF731A400280704710B5044633
:104AE00010491148FDF7BEFA10490F481830FDF77C
:104AF000B9FA0D48001D04600D480B490C310860DF
:104B000009481C3004600B48074924310860012122
:104B10000548FDF7C1FA012103481830FDF7BCFA3A
:104B200010BD00000080201040640240008000188A
:104B3000450E0020090000201AB183880B438380B2
:104B400002E083888B4383807047000010B50446E1
:104B50002448844208D101218014FFF721FD00215F
:104B6000A014FFF71DFD3CE01F48844208D101213D
:104B70000014FFF7F5FC00212014FFF7F1FC30E0F2
:104B80001A48844208D10121C013FFF7E9FC002133
:104B9000E013FFF7E5FC24E01548844208D1012129
:104BA0004014FFF7FDFC00216014FFF7F9FC18E04A
:104BB0001048844209D101210805FFF7F1FC0021CA
:104BC0004FF48010FFF7ECFC0BE00B48844208D157
:104BD00001214805FFF7E4FC00214FF40010FFF726
:104BE000DFFC10BD0030014000380040003C0040B8
:104BF00000340140005001400054014010B5002233
:104C0000028802F441520B884C8823438C8823434A
:104C1000CC8823430C8923434C8923438C89234329
:104C2000CC8923431A430280838B4FF2FF742340C5
:104C300083830B8A038210BD002101804180818023
:104C4000C180018141818181C18107210182704739
:104C5000704700000CB500200190009034480068B7
:104C600040F480303249086000BF3148006800F4E9
:104C7000003000900198401C0190009818B90198EC
:104C8000B0F5A04FF1D12A48006800F4003010B10F
:104C90000120009001E0002000900098012846D1FA
:104CA00023484030006840F080502149403108607E
:104CB0002048006840F440401E4908601C48083005
:104CC00000681B49083108600846006840F400404D
:104CD00008600846006840F4A05008601648091FA4
:104CE0000860081F006840F08070091F086000BF5E
:104CF0000F48006800F000700028F9D040F20570FD
:104D00000E4908600A480830006820F0030008498E
:104D1000083108600846006840F00200086000BFE3
:104D200003480830006800F00C000828F8D10CBDDA
:104D3000003802400070004008544007003C024028
:104D400010B5B0F90020B2F5805F02DB40F6FF72CB
:104D50000280474A92F8CD20082A26DA028893B2C8
:104D6000434A92F8CC40643222F81430643A92F804
:104D7000CD20521CD3B23E4A82F8CD3092F8CD30CD
:104D800082F8CC30B2F8C42003881A4413B2384AEF
:104D9000A2F8C430B2F9C43092F8CD2093FBF2F2FD
:104DA00013B2334AA2F84A3060E0314A92F8CC207C
:104DB000521CD3B22E4A82F8CC3092F8CC20082A6A
:104DC00003DB00232A4A82F8CC30294A92F8CC200F
:104DD000072A04D1264AB2F8642011B208E0244A16
:104DE00092F8CC20521C224B643333F8122011B2BB
:104DF000B0F900301E4AB2F94A209A1A322A08DC69
:104E0000B0F900301A4AB2F94A209A1A12F1320F58
:104E10000ADA174AB2F84A2093B2154A92F8CC40FF
:104E2000643222F8143007E0028893B2104A92F8F4
:104E3000CC40643222F814300D4AB2F8C43092F8F3
:104E4000CC40643232F814201A4413B2084AA2F853
:104E5000C430B2F8C420521A13B2054AA2F8C430C2
:104E6000B2F9C420D310024AA2F84A3010BD0000A3
:104E7000FC0C00203CB5B0F90030B3F5805F02DBDC
:104E800040F6FF730380B1F90030B3F5805F02DBB9
:104E900040F6FF730B80B2F90030B3F5805F02DBA0
:104EA00040F6FF731380B34B93F8CD30082B5ADADA
:104EB00003889CB2AF4B93F8CC50643323F8154071
:104EC0000B889CB2AB4B93F8CC50843323F815403D
:104ED00013889CB2A74B93F8CC50A43323F8154009
:104EE000A43B93F8CD305B1CDCB2A24B83F8CD40E1
:104EF00093F8CD4083F8CC40B3F8C63004882344FF
:104F00001CB29C4BA3F8C640B3F8C8300C882344AD
:104F10001CB2984BA3F8C840B3F8CA301488234495
:104F20001CB2944BA3F8CA40B3F9C64093F8CD30F5
:104F300094FBF3F31CB28F4BA3F84C40B3F9C84079
:104F400093F8CD3094FBF3F31CB28A4BA3F84E4098
:104F5000B3F9CA4093F8CD3094FBF3F31CB2854B00
:104F6000A3F8504004E1834B93F8CC305B1CDCB2D7
:104F7000804B83F8CC4093F8CC30082B03DB002423
:104F80007C4B83F8CC407B4B93F8CC30072B12D171
:104F9000784BB3F864301BB2ADF80030754BB3F802
:104FA00084301BB2ADF80230724BB3F8A4301BB2A0
:104FB000ADF804301EE06F4B93F8CC305B1C6D4CA9
:104FC000643434F813301BB2ADF80030694B93F8F9
:104FD000CC40641C843333F814301BB2ADF802307B
:104FE000644B93F8CC40641CA43333F814301BB2E8
:104FF000ADF80430B0F900405E4BB3F94A30E31A23
:10500000322B08DCB0F900405A4BB3F94A30E31AAE
:1050100013F1320F0ADA574BB3F84C309CB2554BB0
:1050200093F8CC50643323F8154007E003889CB212
:10503000504B93F8CC50643323F81540B1F900403D
:105040004C4BB3F94A30E31A322B08DCB1F900407B
:10505000484BB3F94A30E31A13F1320F0ADA454BE1
:10506000B3F84E309CB2434B93F8CC50843323F8C2
:10507000154007E00B889CB23E4B93F8CC5084332C
:1050800023F81540B2F900403A4BB3F94A30E31A1D
:10509000322B08DCB2F90040364BB3F94A30E31A40
:1050A00013F1320F0ADA334BB3F850309CB2314B64
:1050B00093F8CC50A43323F8154007E013889CB232
:1050C0002C4B93F8CC50A43323F81540294BB3F85C
:1050D000C64093F8CC50643333F8153023441CB2E7
:1050E000244BA3F8C640B3F8C630BDF800401B1BE4
:1050F0001CB2204BA3F8C640B3F8C84093F8CC507C
:10510000843333F8153023441CB21A4BA3F8C8403B
:10511000B3F8C830BDF802401B1B1CB2154BA3F8F6
:10512000C840B3F8CA4093F8CC50A43333F81530D4
:1051300023441CB20F4BA3F8CA40B3F8CA30BDF8E1
:1051400004401B1B1CB20B4BA3F8CA40B3F9C6307A
:10515000DC10084BA3F84C40B3F9C830DC10054B09
:10516000A3F84E40B3F9CA30DC10024BA3F850400C
:105170003CBD0000FC0C00209FED1C0A1C4880ED8B
:10518000300A9FED1A0A80ED310A9FED180A80ED72
:10519000320A9FED160A80ED330A9FED140A80ED66
:1051A000340A9FED120A80ED350A9FED100A80ED5A
:1051B0003A0A9FED0E0A80ED3B0A9FED0C0A80ED46
:1051C0003C0A9FED0A0A80ED3E0A9FED080A80ED39
:1051D0003F0AB2EE000A80ED370A9FED060A80ED25
:1051E000380A9FED020A80ED390A7047000000007E
:1051F000B80E0020CDCCCC3E00B501469FED0C0A88
:10520000B0EE402A9FED0A0AF0EE402A094890EDE0
:10521000500AB0EE402AB0EE420A0846FDF70CFCF8
:10522000F0EE402A0448C0ED062A0122C27300BDF8
:1052300000000000FC0C00206C0E00202FE018483D
:10524000007820B316480078012822D0144800784E
:1052500002281DD16423002211461046FEF7DEFB12
:10526000FFF712FA01200E4908726423002211464A
:105270001046FEF7D3FB0120FBF754FCFDF7A4FB1F
:10528000FCF758FB0120064908700220487000E036
:1052900000BF1423002211461046FEF7BFFBCEE7E5
:1052A0006C0E002010B51548006840F470001349DA
:1052B00008601348006840F00100114908600020B0
:1052C0000F49083108600E4800680E4908400C4933
:1052D00008600D48091D0860081F006820F4802040
:1052E000091F0860002006490C310860FFF7B2FC76
:1052F0004FF0006001498039086010BD88ED00E082
:1053000000380240FFFFF6FE10300024012005495E
:1053100008720020087048704FF480304860012007
:10532000487270476C0E0020F0B50C4615460021FF
:105330000022068C4FF6FE773E400684018B028CDD
:105340004FF60C7631407E1C06EA03162E4331439D
:105350004FF6F576324044F0010632430183028471
:10536000F0BDF0B50C461546002100220026078C42
:105370004FF6EF7C07EA0C070784018B028C4FF68F
:10538000FF7707EA041640F6FF4739404FF6FF77EC
:1053900007EA033739434FF6FF7707EA0527394312
:1053A0004FF65F773A4046F010073A430183028494
:1053B000F0BDF0B50C461546002100220026078CF2
:1053C0004FF6FF6C07EA0C070784818B028C4FF6BF
:1053D000FF7707EA04264FF60C7739404FF6FF7740
:1053E00007EA03172F4339434FF2FF573A4046F479
:1053F00080773A4381830284F0BDF0B50C461546B0
:10540000002100220026078C4EF6FF7C07EA0C07DD
:105410000784818B028C4FF6FF7707EA043640F64B
:10542000FF4739404FF6FF7707EA052739434FF624
:10543000FF7707EA0337394345F6FF773A4046F4EA
:1054400080573A4381830284F0BD00000D48008CF0
:105450004FF6FE7108400B4908840846008C4FF651
:10546000FB710840074908840846008B4FF68F718E
:105470000840044908830846008B40F04000088338
:1054800070470000000001400C48008B4FF68F7100
:1054900008400A4908830846008B40F070000883E2
:1054A0000846008C4FF6FE710840044908840846FF
:1054B000008C40F0040008847047000000000140A8
:1054C0000C48008B4FF68F7108400A490883084644
:1054D000008B40F0700008830846008C40F001000B
:1054E00008840846008C4FF6FB7108400149088487
:1054F00070470000000001400B48008B4FF68F7191
:105500000840094908830846008B40F07000088372
:105510000846008C40F0010008840846008C40F0EA
:105520000400088470470000000001400D48008C12
:105530004FF6EF7108400B4908840846008C4FF67F
:10554000BF710840074908840846008B48F6FF7180
:105550000840044908830846008B40F480400883D3
:1055600070470000000001400C48008B48F6FF71B6
:1055700008400A4908830846008B40F4E04008834D
:105580000846008C4FF6EF7108400449088408462D
:10559000008C40F04000088470470000000001408B
:1055A0000C48008B48F6FF7108400A4908830846FA
:1055B000008B40F4E04008830846008C40F0100067
:1055C00008840846008C4FF6BF71084001490884E2
:1055D00070470000000001400B48008B48F6FF7147
:1055E0000840094908830846008B40F4E0400883DE
:1055F0000846008C40F0100008840846008C40F0FB
:105600004000088470470000000001400D48008CF5
:105610004FF6FF6108400B4908840846008C4FF69E
:10562000FF310840074908840846808B4FF68F7188
:105630000840044988830846808B40F040008883F6
:1056400070470000000001400C48808B4FF68F71BE
:1056500008400A4988830846808B40F070008883A0
:105660000846008C4FF6FF6108400449088408464C
:10567000008C40F480600884704700000000014006
:105680000C48808B4FF68F7108400A498883084682
:10569000808B40F0700088830846008C40F4807056
:1056A00008840846008C4FF6FF3108400149088401
:1056B00070470000000001400B48808B4FF68F714F
:1056C0000840094988830846808B40F07000888331
:1056D0000846008C40F4807008840846008C40F432
:1056E00080600884704700000000014010B52DED77
:1056F000048B5548008A00F0010000287DD05248F4
:10570000008800F01000002861D05048007D01287A
:105710005CD14F4890ED000AB8EE400ADFED4D0A2B
:1057200020EE200ADFED4C0A80EE201AB0EE418A0E
:10573000B0EE480AFAF712FFF7EE000AB7EE001AC9
:1057400041EE000A4548C0ED000A41480068401C8F
:105750003F4908600846006844F62061884202D349
:1057600000203B49086001213848C173384800686F
:1057700050B93B48006840F00100394908609FED8E
:10578000390A324880ED060A3148006842F2107149
:1057900088420BD1324800684FF6FE71084030490C
:1057A00008609FED310A294880ED060A2748807B72
:1057B000012842D12548407A18B92C48FCF72AFA2A
:1057C00001E0FCF7A7FD00212048817335E028485F
:1057D000FBF726F92748FBF723F91C48C07B012873
:1057E0002BD11A48407AE0B9184890ED060A10EE1D
:1057F000101A084601F046FC00E022E041EC190BCB
:10580000B0EE490AF0EE690A00F0FEFFB0EE408A01
:10581000F0EE608A51EC180B01F052F81349086061
:1058200008E09FED110A094880ED070A9FED0D0A77
:1058300080ED080A00210548C1730121024800F0EB
:10584000F8F8BDEC048B10BD000001406C0E002088
:10585000D4000020DB0FC94000409C46DC00002043
:1058600014080240000000009A99193FB80E002069
:10587000002001400021014010B54FF08040008A17
:1058800000F00100002849D0002025490870FEF7EB
:105890001DFF2448007A08B1FEF79EFE214890F8CB
:1058A0003400012815D11F48C07C012811D11D48A2
:1058B00090ED0E0A1C48D0ED580A30EE200A1B4825
:1058C00080ED400A00F58070FEF708FE00211548C3
:1058D000C174144890F82800012819D11148007C9F
:1058E000012806D11148C030FFF786FC00210D4881
:1058F00001740C48407C01280AD10A4890ED0B0A3B
:105900000A4880ED300A0021064841740121C17324
:10591000FBF7B4FC0121880700F08BF810BD0000F4
:10592000E00000206C0E0020FC0C0020B80E0020CF
:1059300010B50E48008800F0080088B10C48407B84
:10594000012807D10B48D0F838110B488164022197
:10595000074841730648407B032801D1FEF79CFFAE
:1059600009210248103800F064F810BD100400400E
:105970006C0E0020FC0C0020B00C002010B50A4872
:10598000008800F0020070B10848407A10B9FDF7B5
:1059900005F803E0FDF73EF80549087002210248CA
:1059A000103800F046F810BD100800406C0E0020C2
:1059B000FC0C002010B50C48008800F0010090B1EC
:1059C0000A480078401C09490870084600780828F1
:1059D00004D10748007A08B1FEF738FF01210248D8
:1059E000103800F026F810BD10040140E00000203F
:1059F0006C0E002021B1028842F08002028004E097
:105A000002884FF67F731A40028070470A884B88DD
:105A10001A438B881A43CB881A430B891A434B8944
:105A20001A438B891A43A0F844207047CA43028264
:105A30007047CA430282704721B1028842F00102D6
:105A4000028004E002884FF6FE731A40028070471D
:105A500031B1B0F8442042F40042A0F8442005E0FF
:105A6000B0F84420C2F30E02A0F8442070471AB1E7
:105A700083890B43838102E083898B438381704751
:105A800041EA0203A0F848307047000010B5044610
:105A90005548844208D101210846FEF781FD0021C6
:105AA0000120FEF77DFD9DE0B4F1804F08D101217A
:105AB0000846FEF755FD00210120FEF751FD91E05B
:105AC0004A48844208D101210220FEF749FD002105
:105AD0000220FEF745FD85E04548844208D10121BA
