:020000040800F2
:100000009821002029020008950500088D050008A8
:1000100091050008E10400088118000800000000B4
:100020000000000000000000000000002917000888
:10003000E50400080000000007030008910F000815
:1000400063020008630200086302000863020008FC
:1000500063020008630200086302000863020008EC
:1000600063020008630200086302000863020008DC
:1000700063020008630200086302000863020008CC
:1000800063020008630200086302000863020008BC
:1000900063020008630200086302000863020008AC
:1000A000630200086302000863020008630200089C
:1000B000630200086302000863020008630200088C
:1000C000630200086302000863020008630200087C
:1000D000630200086302000863020008630200086C
:1000E000630200086302000863020008630200085C
:1000F000630200086302000863020008630200084C
:10010000630200086302000863020008630200083B
:10011000630200086302000863020008630200082B
:10012000630200086302000863020008630200081B
:10013000630200086302000863020008630200080B
:1001400063020008630200086302000863020008FB
:1001500063020008630200086302000863020008EB
:1001600063020008630200086302000863020008DB
:1001700063020008630200086302000863020008CB
:10018000630200086302000800F002F800F03CF887
:100190000AA090E8000C82448344AAF10107DA45E2
:1001A00001D100F031F8AFF2090EBAE80F0013F0F8
:1001B000010F18BFFB1A43F001031847381D000058
:1001C000581D0000103A24BF78C878C1FAD85207E9
:1001D00024BF30C830C144BF04680C6070470000C1
:1001E0000023002400250026103A28BF78C1FBD840
:1001F000520728BF30C148BF0B6070471FB501F0E0
:10020000A9FD1FBD10B510BD00F0CCF81146FFF7D9
:10021000F5FF01F079FD00F0EAF803B4FFF7F2FF13
:1002200003BC00F0EBF8000011488047DFF8440001
:10023000016841F470010160BFF34F8FDFF83800AF
:10024000016821F040410160BFF36F8F0B48004708
:10025000FEE7FEE7FEE7FEE7FEE7FEE7FEE7FEE776
:10026000FEE7FEE706480749074A084B70470000CB
:100270001918000888ED00E034EF00E0890100085B
:10028000981B002098210020981D0020981D002018
:10029000EFF3098141B1F1EE101A40F8041D20ED91
:1002A000200A2C490A6810607047B0EC200A02C886
:1002B000E1EE101A28490A6810607047EFF31080C9
:1002C00072B6704780F31088704724484FF0FF01E2
:1002D0000170002080F309882148016881F30888B3
:1002E00020480121017020484FF08051016062B622
:1002F000FEE71D484FF08051016070471A484FF0EB
:1003000080510160704772B6EFF3098040B1403808
:1003100080EC108A203880E8F00F0E4909680860E8
:1003200000B5124880475DF804EB114811490A787E
:100330000270084808490A680260106890E8F00FE7
:10034000203090EC108A403080F309884EF0F40E93
:1003500062B670472C0000203400002022ED00E03F
:10036000000000202400002004ED00E0BD0D000886
:100370001F0000202000002070477047704710B514
:1003800000F008F8006810BD10B5044600F002F84F
:10039000046010BD00487047381B002000487047BB
:1003A000381B00207546FFF7F9FFAE460500694689
:1003B000534620F00700854618B020B5FFF752FFDE
:1003C000BDE820404FF000064FF000074FF0000856
:1003D0004FF0000B21F00701AC46ACE8C009ACE8D7
:1003E000C009ACE8C009ACE8C0098D4670470446B6
:1003F000AFF300802046FFF710FF000001491820EE
:10040000ABBEFEE726000200704700002DED068B14
:100410009FED1E0AB0EE408A9FED1D0AF0EE409A55
:100420009FED1B0AF0EE408A9FED190AB0EE40AA3C
:10043000184800F0C1FD28E0B0EE480A01F0DEFAED
:10044000F0EE409AB0EE480A01F030FAF0EE408A41
:1004500029EEA90AB0EE409A08EEA89A9FED0E0A7E
:1004600038EE000AB0EE408A3AEE090AB0EE40AA31
:100470000A48006880F04000084908604FF4FA73A9
:1004800000221146104600F0D9FCD5E78FC2F53C9A
:100490000000000080A219000AD7233C1404024087
:1004A0001CB50121072001F02FF9684600F065F81E
:1004B00001208DF8040000208DF8060060200090D7
:1004C00000208DF807008DF805006946034800F00C
:1004D0000AF86021014800F04EF81CBD00040240FB
:1004E00000BFFEE77047F0B50A4600210023002454
:1004F00000BF3DE0012505FA01F3156805EA030494
:100500009C4234D105684F000326BE40B5430560C8
:1005100015794E00B5400668354305601579012D03
:1005200002D01579022D16D185684F000326BE40F2
:10053000B543856055794E00B54086683543856082
:10054000456801268E40B5434560456896798E40E2
:10055000B6B235434560C5684F000326BE40B5437B
:10056000C560D5794E00B540C6683543C560491CA5
:100570001029BFD3F0BD018370474FF6FF710160B2
:100580000021017141718171C171704700BFFEE7A7
:1005900000BFFEE77047000002490143024A1160B4
:1005A000704700000000FA050CED00E017481848FD
:1005B0001848194819481A481A481B481B481C482B
:1005C0001C481D481D481E481E481F481F482048FB
:1005D00020482148214822482248234823482448CB
:1005E000244825482548264826482748274828489B
:1005F0002848294829482A482A482B482B482C486B
:100600002C482D482D482E4800BF7047601D00081B
:10061000641D00086A1D00086C1D0008681D0008A4
:100620006E1D0008701D0008721D0008741D000872
:10063000761D0008781D00087A1D00087C1D000842
:100640007E1D0008801D0008821D0008841D000812
:10065000861D0008881D00088A1D00088C1D0008E2
:100660008E1D0008901D0008921D0008941D0008B2
:10067000961D0008981D00089A1D00089C1D000882
:100680009E1D0008A01D0008A21D0008A41D000852
:10069000A61D0008A81D0008AA1D0008AC1D000822
:1006A000AE1D0008B01D0008B21D0008B61D0008F0
:1006B000B81D0008BA1D0008BC1D0008BE1D0008BA
:1006C000D21D000810B500F017F800F033FD00F05F
:1006D0005FFD00F081FD00F0FDFC00F0BDFC00F0CE
:1006E00015FE00F03FFE00F0B7FD00F0DDFD00F06C
:1006F0001BF8FFF75BFF10BD0848802102E0491E90
:10070000002204C00029FAD1054A064B1A601A4695
:10071000126822F007021A6070470000500400209F
:1007200050060020000000207047000010B5002493
:100730001A480078012830D1FFF7C0FD0446184858
:10074000007820B116480078401E154908701448FA
:100750000078F8B913480078E0B900F065FE124857
:100760001249097850F82100114908600F480078B3
:100770001049097888420DD00D480068006C401C73
:100780000B49096808640C480068401C0A49086065
:10079000FFF7B4FD2046FFF795FD10BD24000020B3
:1007A0001D0000201E000020800E002020000020E0
:1007B000340000201F0000200400002010B50B486A
:1007C000007890B900F030FE0948007809490870B7
:1007D00009480749097850F8210008490860084687
:1007E000006807490860FFF770FD10BD2400002075
:1007F000200000201F000020800E00203400002078
:100800002C000020704700002DE9F04F85B0814694
:100810008A4693461C46DDE90F78129D002003901E
:10082000FFF74CFD03902348007830B10398FFF7A1
:1008300049FD3C2005B0BDE8F08F1F4850F824006A
:1008400088BB01201C4941F824000398FFF73AFDBA
:100850002A464146384600F049FF2B465A46514643
:10086000484600F061F904901198CDE900800295A6
:100870003A4620460E9B049900F006FE064636B91D
:100880000E48007801280CD100F094FD09E0FFF734
:1008900015FD03900020084941F824000398FFF754
:1008A00011FD3046C6E7FFE70398FFF70BFD282050
:1008B000C0E700001D000020800E00202400002062
:1008C000704700002DE9F041054600274B480078AD
:1008D00010B14020BDE8F081FD2D01D13E20F9E7A7
:1008E000FFF7ECFC0746FF2D03D14548006890F860
:1008F0003650444850F8254024B93846FFF7E2FC0A
:100900004320E7E7012C04D13846FFF7DBFC3D200C
:10091000E0E714F8380F3C4931F81000618888434B
:100920002178394A22F8110014F83809114631F8B3
:10093000100028B9A18F35480088884333490880C2
:10094000E06918B12046E16900F04FFB206A18B158
:100950002046216A00F061FBA66A16B1304600F01D
:10096000A7FB0020206384F8340084F83500284871
:100970000078FF2804D226480078401C24490870DB
:100980003846FFF79FFC00F02FFBFFF797FC074668
:100990001F48007820B11E480078401E1C4908708E
:1009A000204600F041F81B480078401E19490870A5
:1009B0000020144941F82500A06930B90020616980
:1009C000886115496069086005E0D4E9050148615E
:1009D000D4E9051088611148006860610F4804601F
:1009E0000FA060653846FFF76DFC0E4800780128BF
:1009F00001D100F0DFFC00206CE700001D000020AA
:100A00002C000020800E0020600C0020220000201E
:100A10001E000020250000203800002030000020AB
:100A20003F00000024000020704770472DE9F0418E
:100A300006460F4614464FF000081548007818B1D6
:100A400012202070BDE8F081FFF738FC8046FF2EB1
:100A500003D11048006890F836600F4850F82650CF
:100A60002DB94046FFF72EFC43202070EAE7012D08
:100A700005D14046FFF726FC43202070E2E76F6572
:100A80004046FFF71FFC0020207000BFDAE700009F
:100A90001D0000202C000020800E002070477047B1
:100AA0002DE9F04707460D464FF0000A0020286068
:100AB0006860FFF703FC8246FF2F03D118480068E7
:100AC00090F83670174850F827402CB95046FFF779
:100AD000F9FB4320BDE8F087012C04D15046FFF715
:100AE000F1FB4320F6E7207C00F0010020B95046DE
:100AF000FFF7E8FB4520EDE70026D4F80C90D4F88A
:100B000008805046FFF7DEFB00E0761C58F8041B17
:100B10000029FAD02E60A9EB060068600020D9E712
:100B20002C000020800E002070B50446101D20F01F
:100B300007000026051F28462E604FF01536051FBA
:100B400028462E604FF01436051F28462E604FF0C1
:100B50001336051F28462E604FF01236051F284613
:100B60002E604FF01136051F28462E604FF01036CC
:100B7000051F28462E604FF00936051F28462E60B7
:100B80004FF00836051F28462E604FF00736051F28
:100B900028462E604FF00636051F28462E604FF07F
:100BA0000536051F28462E604FF00436051F2846DF
:100BB0002E604FF00336051F28462E604FF0023698
:100BC000051F28462E607610051F28462E60002639
:100BD000051F28462E604FF08076051F28462E60A0
:100BE000051F28462C60494E051F28462E604FF0F1
:100BF0001236051F28462E604FF00336051F284683
:100C00002E604FF00236051F28462E607610051F15
:100C100028462E60051F284629604FF03136051FF3
:100C200028462E604FF03036051F28462E604FF0C4
:100C30002936051F28462E604FF02836051F284606
:100C40002E604FF02736051F28462E604FF02636BF
:100C5000051F28462E604FF02536051F28462E60BA
:100C60004FF02436051F28462E604FF02336051F0F
:100C700028462E604FF02236051F28462E604FF082
:100C80002136051F28462E604FF02036051F2846C6
:100C90002E604FF01936051F28462E604FF018368B
:100CA000051F28462E604FF01736051F28462E6078
:100CB0004FF01636051F28462E604FF01136051FDF
:100CC00028462E604FF01036051F28462E604FF044
:100CD0000936051F28462E604FF00836051F2846A6
:100CE0002E604FF00736051F28462E604FF006365F
:100CF000051F28462E604FF00536051F28462E603A
:100D00004FF00436051F28462E6070BDF915000807
:100D10002DE9F04105464FF00008FFF7CFFA804675
:100D2000FF2D05D12148006890F83650012608E0D3
:100D30001E48006890F83600A84201D1012600E064
:100D400000261B4850F825402CB94046FFF7BAFA58
:100D50004820BDE8F081012C04D14046FFF7B2FAEB
:100D60004320F6E794F83870124830F81700618F86
:100D70008843104921F81700084630F8170028B9B1
:100D8000A18F0D48008888430B49088094F83400EF
:100D900040F0080084F834004046FFF793FA012E33
:100DA00001D100F007FB0020D3E700002C00002059
:100DB000800E0020600C0020220000207047000000
:100DC00070B5054600261848007800B170BD174878
:100DD000007800B1FAE725B3FFF770FA0646144829
:100DE000006890F83840134830F81400104909683A
:100DF000498F88430F4921F81400084630F8140041
:100E000038B90B480068818F0B48008888430A492D
:100E100008800748006805633046FFF753FA00F082
:100E2000C9FA00BFD2E700001D0000201E0000200C
:100E30002C000020600C0020220000202DE9F04151
:100E400004460D4616461F461248007810B155203C
:100E5000BDE8F0811048007808B13220F8E7781D2D
:100E6000642148434FF47A71B0FBF1F14FF46160B3
:100E70006043C5EB051200EB8200304400EBC0027A
:100E800002EB001001EB80084046FFF799FF0020BD
:100E9000DEE700001D0000201E00002070B50026C7
:100EA00000F074F8FFF70AFA064632480068401C62
:100EB000304908603046FFF705FA2F4800780128CE
:100EC00055D12E48007820B1012804D0022809D13C
:100ED00003E001250BE0002509E001250120274959
:100EE000087004E0012500202449087000BF00BFFD
:100EF00005B970BD2248046835E0FFF7DFF9064602
:100F0000206B60B3206B401E2063206B38BB94F8CD
:100F1000340000F0370040B114F8340F00F0C8007E
:100F2000207001206070343C02E0002084F835001D
:100F300094F8340000F0080088B9A08F114909889E
:100F400008431049088094F838000F4931F8100020
:100F5000618F084394F838100B4A22F81100646935
:100F60003046FFF7AFF994F83600FD28C5D100BF31
:100F7000BFE700004C000020240000203C000020BF
:100F80003800002022000020600C00207047000084
:100F900010B5FFF793F9044606480078401C054950
:100FA00008702046FFF78EF9FFF778FFFFF7BEFBCA
:100FB00010BD00001D00002001464A1E4FF0E02336
:100FC0005A61084A106820F07F4000BF10601A463E
:100FD000126942F005021A611A46126942F00202D1
:100FE0001A61704720ED00E0704710B590F8382086
:100FF00001F10C0333F81230448FA34301F10C04C8
:1010000024F81230234633F812301BB94B89848FF1
:10101000A3434B810023C36110BDF0B5024692F893
:101020003840958F568F0B46186811E000F10C0779
:1010300037F81470B74300F10C0C2CF814706746A5
:1010400037F8147017B94789AF4347811B1D1868DB
:101050000028EBD1F0BD00002DE9F04150211148EE
:1010600000F04AF900250DE0681C86B20D4800EB3F
:10107000051400EB06170020207067600AA0E060EE
:10108000681C85B2042DEFD3064800EB0514002040
:101090002070606004A0E060024804490860BDE878
:1010A000F0810000100A00203F0000000C0000202A
:1010B00030B501464A6808682AB9CC68606028B132
:1010C0000025456002E0106000B142608B68002599
:1010D0009D6230BD70B54FF47071134800F00CF98B
:1010E000002411E0601C85B204EB44000E4901EBC2
:1010F000001305EB450001EB0016002018705E6040
:101100000AA0D862601C84B2132CEBD304EB440019
:10111000054901EB001300201870586003A0D86245
:1011200008460349086070BD500600203F000000DB
:101130000800002000200B4908600B4908700B498B
:1011400008700B4908700B4908700B4908600B497F
:1011500008600B4908600B4908600B4908700B498F
:10116000087070474C0000201D0000201E00002069
:10117000250000202400002004000020280000207A
:1011800018000020140000201C000020480000204F
:1011900000210B4A1180002005E00021094A22F8B5
:1011A0001010411CC8B21028F7D30021064A117054
:1011B000064A1170064A1160064A11607047000025
:1011C00022000020600C00201F00002020000020D2
:1011D000340000202C00002070B54FF4FD61194848
:1011E00000F08AF84FF47E71174800F085F800246B
:1011F00013E0601CC5B2C4EBC40000EB041011493D
:1012000001EB8003C5EBC50000EB051001EB800688
:101210005E610EA05865601CC4B2152CE9D3C4EB06
:10122000C40000EB0410074901EB80030020586163
:1012300006A0586500200649086002480549086074
:1012400070BD000078120020800E00203F000000DA
:10125000380000203000002000B587B003200021B6
:1012600080220A4BCDE90132CDE903104FF6FF7021
:10127000FD23074A00900748FFF7C6FA06AA06A111
:10128000FD20FFF7D3FB07B000BD0000800C00205D
:101290007C0E0020D115000875432F4F532D49496E
:1012A0002049646C6500000000B587B00320002170
:1012B00080220A4BCDE90132CDE903104FF6FE70D2
:1012C000FC23074A00900748FFF79EFA06AA06A1EA
:1012D000FC20FFF7ABFB07B000BD0000600A002058
:1012E0005C0C00201116000875432F4F532D4949FF
:1012F000205374617400000004E0002200F8012B08
:101300004A1E91B20029F8D17047000070B57821CB
:101310001148FFF7F1FF00240EE004EB44000E49F2
:1013200001EBC005601C00EB400001EBC0006860F1
:101330000AA06861601C84B2042CEED304EB440064
:10134000054901EBC0050020686004A068610846FB
:101350000349086070BD0000601A00203F000000D3
:10136000400000202DE9F04160211048FFF7C4FF44
:1013700000240DE0601C86B204EB44000B4901EB35
:10138000C00506EB460001EBC0072F60601C84B26D
:10139000032CEFD304EB4400044901EBC00500200B
:1013A0002860084602490860BDE8F081D81A00208C
:1013B0004400002010B50024FEF780FF04461348C7
:1013C0000078F8B912480078E0B900F02DF811481B
:1013D0001149097850F82100104908600E4800783A
:1013E0000F49097888420DD00C480068006C401CF9
:1013F0000A49096808640B480068401C09490860EC
:10140000FEF777FF2046FEF75DFF10BD1D000020B0
:101410001E000020800E002020000020340000204C
:101420001F00002004000020134A127822B1124A43
:101430001278124B985C07E0104A0F4B1B8802EBA6
:10144000132212780832D0B20D4A02EB40010A781A
:101450003AB10A78094B9A5C02EB0012094B1A70F8
:1014600009E00A88054B03EB1222127802EB001206
:101470000832044B1A70704722000020D41D000867
:10148000600C0020200000202DE9F84F05460F4693
:1014900090469946DDE90AAB00200090FEF70EFF6A
:1014A000009044480468002C7ED01C3454F8080C8A
:1014B000404908600098FEF705FF44F81C7CA576BB
:1014C000002020766076606144F818BC44F810ACC7
:1014D00044F8148C0C9824F80C0C24F80A9C002076
:1014E00084F822002809207705F00F00E076217F9C
:1014F000012088402084E17E01208840E083002094
:1015000020606060E060A0606062E062A0622063D2
:10151000606329A0A0631C3C002606E0002104F1C2
:10152000580040F82610701CC6B2002EF6D0204697
:10153000FFF768F9FEF7C2FE0090204840F825400A
:101540000098FEF7BFFE2046FFF7BAF9FEF7B6FE99
:1015500000901B48006860610020A0611848006886
:1015600010B117480068846115480460A08F1549C0
:10157000098808431349088094F83800124931F863
:101580001000618F084394F838100F4A22F81100B8
:101590000E480078401C0D4908700098FEF792FE36
:1015A0000020BDE8F88FFFE70098FEF78BFE422091
:1015B000F7E70000300000203F000000800E002010
:1015C0003800002022000020600C002025000020B0
:1015D000002400BF00BFFEF771FE04460548006806
:1015E000401C044908602046FEF76CFEFFF71DFA18
:1015F000F1E700002800002010B504480068FFF75C
:101600004DFAFF20FFF75EF910BD00002C0000200E
:1016100000BF00BF02E01420FFF7D2FB1F48007894
:101620000028F8D01E4800686421B0FBF1F01C4986
:1016300008600846006828B900201A490870FF2091
:10164000FFF766FBFEF73AFE044615480068642182
:101650004843154908602046FEF734FE00BFFEF7F8
:101660002DFE0446104800681049086000200E490D
:1016700008602046FEF726FE0C4800680849096805
:10168000B0FBF1F0C0F1640006490870FFF707FAFB
:1016900000F00EF80A20FFF793FBE0E71C000020A3
:1016A0001400002010000020280000201800002056
:1016B0007CB5002514E069462846FFF7F1F9064697
:1016C00066B9094850F8254044B1012C06D0D4E948
:1016D000020100EB8100E06401982065681CC5B23E
:1016E000FD2DE8D97CBD0000800E002002F0010332
:1016F00043B102F002032BB102E0491E002308C0EF
:101700000029FAD17047000029B1064A1268024345
:10171000044B1A6004E0034A12688243014B1A60CA
:101720007047000030380240704700000CB50020C0
:10173000019000903448006840F4803032490860DD
:1017400000BF3148006800F4003000900198401C50
:101750000190009818B90198B0F5A04FF1D12A482E
:10176000006800F4003010B10120009001E000207A
:1017700000900098012846D123484030006840F08E
:1017800080502149403108602048006840F44040C2
:101790001E4908601C48083000681B490831086071
:1017A0000846006840F4004008600846006840F4BD
:1017B000A05008601648091F0860081F006840F024
:1017C0008070091F086000BF0F48006800F00070BB
:1017D0000028F9D040F205700E4908600A48083028
:1017E000006820F0030008490831086008460068D6
:1017F00040F00200086000BF03480830006800F0B5
:101800000C000828F8D10CBD0038024000700040E0
:1018100008544007003C024010B51548006840F4E9
:101820007000134908601348006840F00100114936
:10183000086000200F49083108600E4800680E4912
:1018400008400C4908600D48091D0860081F006821
:1018500020F48020091F0860002006490C31086030
:10186000FFF764FF4FF0006001498039086010BD48
:1018700088ED00E000380240FFFFF6FE1030002443
:1018800000BFFEE74100080218BF04200A0E18BF7F
:1018900040F001004FF07F4232EA010108BF40F002
:1018A0000200012808BF05207047000010EE101A42
:1018B00008B5444A6846B2EB410F28D94FF0E640DC
:1018C000B0EB410F94BF00204FF0FF300090009824
:1018D000002861DB60EE000A10F0010F45D010F027
:1018E000020FDFED391A9FED391A00EEE11ADFED34
:1018F000381A40EE811A21EEA01AF0EE400A40EEAE
:10190000010A08BFF1EE600AB0EE600A08BD314B73
:1019100021F0004293423CD911F0004FDFED2E0A36
:1019200020EE201ADFED2D0A19BF31EE601A71EE9C
:10193000200A31EE201A71EE600ABDEEE01A11EEB7
:10194000100A9FED271A00F0030000EEC10A9FED78
:10195000251A009000EEC10A9FED231A00EEC10A7D
:101960009FED221A00EEC10AB1E79FED211A9FED0B
:10197000210A10F0020F00EE810A9FED1F1A00EEFF
:10198000801AB7EE000A00EE810A18BFB1EE400AD5
:1019900008BD00F00FF99AE710EE100A4000B0F110
:1019A0007F4F3CBFB7EE000A08BD07D14FF00100E2
:1019B000FEF7EAFCBDE8084000F0ECB8BDE80840DE
:1019C00000F0E4B8B61F927E336D4C39DA82083CE1
:1019D000A0AA2ABE490E494683F9223F0000004BC7
:1019E0000000C93F00A0FD390020A2331A61342C49
:1019F000B93AB2BACA9F2A3DDDFFFFBE00B510EE6C
:101A0000101A2DED028B81B0524A6846B2EB410F9D
:101A10002ED94FF0E640B0EB410F94BF00204FF0BD
:101A2000FF3000900098B0EE408A00286ADB10F08A
:101A3000010F4BD068EE080A9FED471A9FED470A49
:101A400000EE810A9FED461A10F0020F00EE801A98
:101A5000B7EE000A00EE810A02BF01B0BDEC028BB6
:101A600000BD00BF01B0B1EE400ABDEC028B00BD6D
:101A70003C4B21F00042934241D911F0004FDFED81
:101A80003A0A20EE201ADFED390A19BF31EE601A4A
:101A900071EE200A31EE201A71EE600ABDEEE01AF6
:101AA00011EE100A9FED321A00F0030000EEC10A99
:101AB0009FED301A009000EEC10A9FED2F1A00EE44
:101AC000C10A9FED2E1A00EEC10AABE728EE080A04
:101AD0009FED2B1ADFED2B0A10F0020F40EE410AAA
:101AE0009FED291A00EE201A61EE000AB0EE480AB6
:101AF00008EE200AB6D101B0BDEC028B00BD00F0AB
:101B000059F88FE718EE100A4000B0F17F4F0DD260
:101B100018EE100AFFF7B6FE042808BF00F042F8DE
:101B2000B0EE480A01B0BDEC028B00BD09D1012026
:101B3000FEF72AFC01B0BDEC028B5DF804EB00F06F
:101B400029B801B0B0EE480ABDEC028B5DF804EB99
:101B500000F01CB8B61F927EB93AB2BACA9F2A3DAD
:101B6000DDFFFFBE490E494683F9223F0000004BCE
:101B70000000C93F00A0FD390020A2331A61342CB7
:101B8000336D4C39DA82083CA0AA2ABE30EE000A36
:101B900070470000DFED020A80EEA00A70470000E7
:101BA000000000009FED020A20EE000A70470000CE
:101BB000000000102DE9F0014FF07F42B2EB410F21
:101BC0009FBF4FF0FF310160BDE8F00170474FF05B
:101BD000004242EA0123C1F3C752783A551112F08C
:101BE0001F0C434CCCF120067C44C1F3C752A2F138
:101BF00078024FEA621204EB820254F8254008BFD3
:101C0000D2E9015612D0556804FA0CF425FA06F709
:101C10003C43976805FA0CF527FA06F8D26807FAEC
:101C20000CFCF24045EA08054CEA0206A4FB034C12
:101C3000A5FB0352A6FB03631D449D4234BF01264E
:101C400000261319334416B1934202D903E093429C
:101C500001D2012200E00022624402F1200C92062F
:101C6000DC0C42EA443200EE102A5B03DFED210A6D
:101C7000F8EEC01A00EE103A4FEA9C1C11F0004F2B
:101C8000B8EE400AC0F800C020EE201A00EE105A4C
:101C9000DFED190AB8EE400A20EE200A71EE810A43
:101CA00070EE800A10EE902A02F500626FF30B02CC
:101CB00000EE902A70EEE11A31EEC11ADFED101A33
:101CC00030EE411A9FED0D0A20EE800A01EE210A46
:101CD0009FED0C1A00EE810A04BFBDE8F0017047C9
:101CE000CCF180510160BDE8F001B1EE400A7047CF
:101CF000E8020000000000360000802C22AAFD2926
:101D0000DB0FC92F0000C92F00B585B04FF4A060CC
:101D1000FEF742FCFEF7C4FBFEF7D4FC07200021CF
:101D20004FF48072084BCDE90132CDE90310052054
:101D30000346064A00900648FEF766FDFEF73EFDA4
:101D4000002005B000BD0000500000204C04002021
:101D50000D0400084FF04070E1EE100A70470000DB
:101D60000100000078563412010014000100300018
:101D7000C003010001001000140002000500010072
:101D8000FD000100010005000100180078000100BD
:101D9000040001000400180010000100040001000C
:101DA0000100010080000100160001000100800018
:101DB000010001000100FE005C00640001001B72D4
:101DC00000001000010007000A00000000000000F1
:101DD00000002715000001000200010003000100BF
:101DE00002000100040001000200010003000100E4
:101DF00002000100050001000200010003000100D3
:101E000002000100040001000200010003000100C3
:101E100002000100060001000200010003000100B1
:101E200002000100040001000200010003000100A3
:101E30000200010005000100020001000300010092
:101E40000200010004000100020001000300010083
:101E50000200010007000100020001000300010070
:101E60000200010004000100020001000300010063
:101E70000200010005000100020001000300010052
:101E80000200010004000100020001000300010043
:101E90000200010006000100020001000300010031
:101EA0000200010004000100020001000300010023
:101EB0000200010005000100020001000300010012
:101EC0000200010004000100020001000300010003
:101ED00002000100000000006E83F9A22915444EA3
:101EE000D15727FCC0DD34F5999562DB4190433C26
:101EF000AB6351FE141F00080000002050000000DA
:101F0000C4010008641F00085000002048210000A0
:101F1000E0010008000000000000000000000000D8
:101F200000000000000000000000000000000000B1
:101F300000000000000000000000000000000000A1
:101F40000000000000000000000000000000000091
:101F50000000000000000000000000000000000081
:041F6000000000007D
:040000050800018965
:00000001FF
